{
  "_format": "hh-sol-artifact-1",
  "contractName": "CygnusNebulaRegistry",
  "sourceName": "contracts/all-cygnus-oracles/CygnusNebulaRegistry.sol",
  "abi": [
    {
      "inputs": [],
      "stateMutability": "nonpayable",
      "type": "constructor"
    },
    {
      "inputs": [],
      "name": "CygnusNebulaRegistry__PriceCantBeZero",
      "type": "error"
    },
    {
      "inputs": [],
      "name": "CygnusNebula__AdminAlreadySet",
      "type": "error"
    },
    {
      "inputs": [],
      "name": "CygnusNebula__NebulaAlreadyCreated",
      "type": "error"
    },
    {
      "inputs": [],
      "name": "CygnusNebula__SenderNotAdmin",
      "type": "error"
    },
    {
      "inputs": [],
      "name": "CygnusNebula__SenderNotPendingAdmin",
      "type": "error"
    },
    {
      "inputs": [],
      "name": "ReentrantCall",
      "type": "error"
    },
    {
      "anonymous": false,
      "inputs": [
        {
          "indexed": false,
          "internalType": "address",
          "name": "oldAdmin",
          "type": "address"
        },
        {
          "indexed": false,
          "internalType": "address",
          "name": "newAdmin",
          "type": "address"
        }
      ],
      "name": "NewNebulaAdmin",
      "type": "event"
    },
    {
      "anonymous": false,
      "inputs": [
        {
          "indexed": false,
          "internalType": "address",
          "name": "oracle",
          "type": "address"
        },
        {
          "indexed": false,
          "internalType": "uint256",
          "name": "oracleId",
          "type": "uint256"
        }
      ],
      "name": "NewNebulaOracle",
      "type": "event"
    },
    {
      "anonymous": false,
      "inputs": [
        {
          "indexed": false,
          "internalType": "address",
          "name": "oldPendingAdmin",
          "type": "address"
        },
        {
          "indexed": false,
          "internalType": "address",
          "name": "newPendingAdmin",
          "type": "address"
        }
      ],
      "name": "NewNebulaPendingAdmin",
      "type": "event"
    },
    {
      "inputs": [],
      "name": "acceptRegistryAdmin",
      "outputs": [],
      "stateMutability": "nonpayable",
      "type": "function"
    },
    {
      "inputs": [],
      "name": "admin",
      "outputs": [
        {
          "internalType": "address",
          "name": "",
          "type": "address"
        }
      ],
      "stateMutability": "view",
      "type": "function"
    },
    {
      "inputs": [
        {
          "internalType": "uint256",
          "name": "",
          "type": "uint256"
        }
      ],
      "name": "allLPTokenPairs",
      "outputs": [
        {
          "internalType": "address",
          "name": "",
          "type": "address"
        }
      ],
      "stateMutability": "view",
      "type": "function"
    },
    {
      "inputs": [],
      "name": "allLPTokenPairsLength",
      "outputs": [
        {
          "internalType": "uint256",
          "name": "",
          "type": "uint256"
        }
      ],
      "stateMutability": "view",
      "type": "function"
    },
    {
      "inputs": [
        {
          "internalType": "uint256",
          "name": "",
          "type": "uint256"
        }
      ],
      "name": "allNebulas",
      "outputs": [
        {
          "internalType": "string",
          "name": "name",
          "type": "string"
        },
        {
          "internalType": "address",
          "name": "nebulaAddress",
          "type": "address"
        },
        {
          "internalType": "uint256",
          "name": "nebulaId",
          "type": "uint256"
        },
        {
          "internalType": "uint256",
          "name": "totalOracles",
          "type": "uint256"
        },
        {
          "internalType": "uint256",
          "name": "createdAt",
          "type": "uint256"
        }
      ],
      "stateMutability": "view",
      "type": "function"
    },
    {
      "inputs": [],
      "name": "allNebulasLength",
      "outputs": [
        {
          "internalType": "uint256",
          "name": "",
          "type": "uint256"
        }
      ],
      "stateMutability": "view",
      "type": "function"
    },
    {
      "inputs": [
        {
          "internalType": "address",
          "name": "_nebula",
          "type": "address"
        }
      ],
      "name": "createNebula",
      "outputs": [],
      "stateMutability": "nonpayable",
      "type": "function"
    },
    {
      "inputs": [
        {
          "internalType": "uint256",
          "name": "nebulaId",
          "type": "uint256"
        },
        {
          "internalType": "address",
          "name": "lpTokenPair",
          "type": "address"
        },
        {
          "internalType": "contract AggregatorV3Interface[]",
          "name": "aggregators",
          "type": "address[]"
        }
      ],
      "name": "createNebulaOracle",
      "outputs": [],
      "stateMutability": "nonpayable",
      "type": "function"
    },
    {
      "inputs": [
        {
          "internalType": "address",
          "name": "lpTokenPair",
          "type": "address"
        }
      ],
      "name": "getLPTokenInfo",
      "outputs": [
        {
          "internalType": "contract IERC20[]",
          "name": "tokens",
          "type": "address[]"
        },
        {
          "internalType": "uint256[]",
          "name": "prices",
          "type": "uint256[]"
        },
        {
          "internalType": "uint256[]",
          "name": "reserves",
          "type": "uint256[]"
        },
        {
          "internalType": "uint256[]",
          "name": "tokenDecimals",
          "type": "uint256[]"
        },
        {
          "internalType": "uint256[]",
          "name": "reservesUsd",
          "type": "uint256[]"
        }
      ],
      "stateMutability": "view",
      "type": "function"
    },
    {
      "inputs": [
        {
          "internalType": "address",
          "name": "lpTokenPair",
          "type": "address"
        }
      ],
      "name": "getLPTokenNebula",
      "outputs": [
        {
          "components": [
            {
              "internalType": "string",
              "name": "name",
              "type": "string"
            },
            {
              "internalType": "address",
              "name": "nebulaAddress",
              "type": "address"
            },
            {
              "internalType": "uint256",
              "name": "nebulaId",
              "type": "uint256"
            },
            {
              "internalType": "uint256",
              "name": "totalOracles",
              "type": "uint256"
            },
            {
              "internalType": "uint256",
              "name": "createdAt",
              "type": "uint256"
            }
          ],
          "internalType": "struct ICygnusNebulaRegistry.CygnusNebula",
          "name": "",
          "type": "tuple"
        }
      ],
      "stateMutability": "view",
      "type": "function"
    },
    {
      "inputs": [
        {
          "internalType": "address",
          "name": "lpTokenPair",
          "type": "address"
        }
      ],
      "name": "getLPTokenNebulaAddress",
      "outputs": [
        {
          "internalType": "address",
          "name": "",
          "type": "address"
        }
      ],
      "stateMutability": "view",
      "type": "function"
    },
    {
      "inputs": [
        {
          "internalType": "address",
          "name": "lpTokenPair",
          "type": "address"
        }
      ],
      "name": "getLPTokenNebulaOracle",
      "outputs": [
        {
          "components": [
            {
              "internalType": "bool",
              "name": "initialized",
              "type": "bool"
            },
            {
              "internalType": "uint88",
              "name": "oracleId",
              "type": "uint88"
            },
            {
              "internalType": "string",
              "name": "name",
              "type": "string"
            },
            {
              "internalType": "address",
              "name": "underlying",
              "type": "address"
            },
            {
              "internalType": "contract IERC20[]",
              "name": "poolTokens",
              "type": "address[]"
            },
            {
              "internalType": "uint256[]",
              "name": "poolTokensDecimals",
              "type": "uint256[]"
            },
            {
              "internalType": "contract AggregatorV3Interface[]",
              "name": "priceFeeds",
              "type": "address[]"
            },
            {
              "internalType": "uint256[]",
              "name": "priceFeedsDecimals",
              "type": "uint256[]"
            },
            {
              "internalType": "uint256",
              "name": "createdAt",
              "type": "uint256"
            }
          ],
          "internalType": "struct ICygnusNebula.NebulaOracle",
          "name": "",
          "type": "tuple"
        }
      ],
      "stateMutability": "view",
      "type": "function"
    },
    {
      "inputs": [
        {
          "internalType": "address",
          "name": "lpTokenPair",
          "type": "address"
        }
      ],
      "name": "getLPTokenPriceUsd",
      "outputs": [
        {
          "internalType": "uint256",
          "name": "",
          "type": "uint256"
        }
      ],
      "stateMutability": "view",
      "type": "function"
    },
    {
      "inputs": [
        {
          "internalType": "address",
          "name": "nebula",
          "type": "address"
        }
      ],
      "name": "getNebula",
      "outputs": [
        {
          "components": [
            {
              "internalType": "string",
              "name": "name",
              "type": "string"
            },
            {
              "internalType": "address",
              "name": "nebulaAddress",
              "type": "address"
            },
            {
              "internalType": "uint256",
              "name": "nebulaId",
              "type": "uint256"
            },
            {
              "internalType": "uint256",
              "name": "totalOracles",
              "type": "uint256"
            },
            {
              "internalType": "uint256",
              "name": "createdAt",
              "type": "uint256"
            }
          ],
          "internalType": "struct ICygnusNebulaRegistry.CygnusNebula",
          "name": "",
          "type": "tuple"
        }
      ],
      "stateMutability": "view",
      "type": "function"
    },
    {
      "inputs": [],
      "name": "name",
      "outputs": [
        {
          "internalType": "string",
          "name": "",
          "type": "string"
        }
      ],
      "stateMutability": "view",
      "type": "function"
    },
    {
      "inputs": [],
      "name": "pendingAdmin",
      "outputs": [
        {
          "internalType": "address",
          "name": "",
          "type": "address"
        }
      ],
      "stateMutability": "view",
      "type": "function"
    },
    {
      "inputs": [
        {
          "internalType": "address",
          "name": "newPendingAdmin",
          "type": "address"
        }
      ],
      "name": "setRegistryPendingAdmin",
      "outputs": [],
      "stateMutability": "nonpayable",
      "type": "function"
    },
    {
      "inputs": [],
      "name": "version",
      "outputs": [
        {
          "internalType": "string",
          "name": "",
          "type": "string"
        }
      ],
      "stateMutability": "view",
      "type": "function"
    }
  ],
  "bytecode": "0x608060405234620000a557600160ff1960005416176000556200003260176200002a600554620000aa565b6005620000e7565b602e7f4379676e75733a204e6562756c61205265676973747279000000000000000000016005556200007460056200006c600654620000aa565b6006620000e7565b600a640312e302e360dc1b01600655600780546001600160a01b03191633179055604051611af79081620001418239f35b600080fd5b90600182811c92168015620000dc575b6020831014620000c657565b634e487b7160e01b600052602260045260246000fd5b91607f1691620000ba565b90601f8111620000f657505050565b600091825260208220906020601f850160051c8301941062000135575b601f0160051c01915b8281106200012957505050565b8181556001016200011c565b90925082906200011356fe6040608081526004908136101561001557600080fd5b60009160e0908335821c91826306fdde03146112dc5782630dfe66df146111d0578263267822471461117c578263440bbcd014610f7a57826351efa20514610ef357826354fd4d5014610ea157826363189d9c14610bc25782637fd5b20d146109ab578263856d7e23146109435782639ac0b04914610906578263a7a8ac9c146107e7578263ab829fe71461044657508163b563deb21461035e578163bf632691146102f0578163c149e489146102b3578163d02c70e814610202578163f0ac40c414610141575063f851a440146100ec57600080fd5b3461013d57817ffffffffffffffffffffffffffffffffffffffffffffffffffffffffffffffffc36011261013d5760209073ffffffffffffffffffffffffffffffffffffffff600754169051908152f35b5080fd5b919050346101fe5760207ffffffffffffffffffffffffffffffffffffffffffffffffffffffffffffffffc3601126101fe5781359173ffffffffffffffffffffffffffffffffffffffff928381168091036101f9576101f59483916101a46115f9565b5081526002602052208251936101bb60a08661136e565b6101c4826113de565b855260018201541660208501526002810154838501526003810154606085015201546080830152519182918261153d565b0390f35b600080fd5b8280fd5b9050346101fe5760207ffffffffffffffffffffffffffffffffffffffffffffffffffffffffffffffffc3601126101fe578035926003548410156102b0575061024f6102999360036115dd565b509161025a836113de565b9273ffffffffffffffffffffffffffffffffffffffff60018201541692600282015490600383015492015492805196879660a0885260a08801906114c6565b946020870152850152606084015260808301520390f35b80fd5b50503461013d57817ffffffffffffffffffffffffffffffffffffffffffffffffffffffffffffffffc36011261013d576020906003549051908152f35b9050346101fe5760207ffffffffffffffffffffffffffffffffffffffffffffffffffffffffffffffffc3601126101fe5780359281548410156102b0575061034f60209373ffffffffffffffffffffffffffffffffffffffff92611596565b92905490519260031b1c168152f35b83833461013d57602092837ffffffffffffffffffffffffffffffffffffffffffffffffffffffffffffffffc3601126101fe57803573ffffffffffffffffffffffffffffffffffffffff908181168091036101f9576024869282875260018452858720541693855194859384927f17e5a1a10000000000000000000000000000000000000000000000000000000084528301525afa92831561043b578093610409575b505051908152f35b909192508382813d8311610434575b610422818361136e565b810103126102b0575051908380610401565b503d610418565b8251903d90823e3d90fd5b838286346102b057602093847ffffffffffffffffffffffffffffffffffffffffffffffffffffffffffffffffc36011261013d5782359073ffffffffffffffffffffffffffffffffffffffff908183168093036101f957855192610120946104ae868661136e565b80855280898601526060988989870152818a8701528960808701528960a08701528960c087015289848701528161010080970152828252816001938483526024878c842054169a8c519b8c9384927f3ef096d30000000000000000000000000000000000000000000000000000000084528301525afa9788156107dd578298610655575b50846105708a949394519a838c528a511515848d01526affffffffffffffffffffff848c015116818d01528a0151898d8d01526101408c01906114c6565b9a8901511660808a015260808801517fffffffffffffffffffffffffffffffffffffffffffffffffffffffffffffffe09a8b8b82030160a08c0152828083519283815201920190855b818110610640575050506105db9060a08a01518c8c83030160c08d0152611509565b9060c0890151958b8b840301868c0152818088519485815201970194905b8382106106295750505050505090859661061e92860151908783030184880152611509565b920151908301520390f35b8551811688529682019694820194908401906105f9565b825189168452928401929184019185016105b9565b9097503d8083833e610667818361136e565b810188828203126101fe57815167ffffffffffffffff928382116107b157019088828203126107d9578a519261069d8a8561136e565b825180151581036107d55784528a8301516affffffffffffffffffffff811681036107d5578b8501528b8301518181116107d557826106dd918501611627565b8c8501528c83015188811681036107d5578d85015260808301518181116107d5578261070a9185016116b2565b608085015260a08301518181116107d5578261072791850161172d565b60a085015260c08301518181116107d557830182601f820112156107d557808d915161075e6107558261169a565b9351938461136e565b8083528d8084019160051b830101918583116107d1578e01905b8282106107b55750505060c0850152868301519081116107b15782916107a0918a940161172d565b86840152015186820152968a610532565b8480fd5b81518c811681036107cd578152908e01908e01610778565b8980fd5b8880fd5b8580fd5b8380fd5b89513d84823e3d90fd5b5083833461013d57817ffffffffffffffffffffffffffffffffffffffffffffffffffffffffffffffffc36011261013d5760085473ffffffffffffffffffffffffffffffffffffffff91828216948533036108df57507f48f3ba16f452389f15eff21a6164bb71c53da0b32e0c1b8a3874c6ac1ce003e793946108d99160075493827fffffffffffffffffffffffff00000000000000000000000000000000000000008616176007558760031b9086821b8092888b16901b169119161760085551938493168390602090939293604083019473ffffffffffffffffffffffffffffffffffffffff809216845216910152565b0390a180f35b90517f1b9a0c32000000000000000000000000000000000000000000000000000000008152fd5b509050346101fe57827ffffffffffffffffffffffffffffffffffffffffffffffffffffffffffffffffc3601126101fe5760209250549051908152f35b509050346101fe5760207ffffffffffffffffffffffffffffffffffffffffffffffffffffffffffffffffc3601126101fe573573ffffffffffffffffffffffffffffffffffffffff908181168091036101f95783839160209552600185522054169051908152f35b5083833461013d576020807ffffffffffffffffffffffffffffffffffffffffffffffffffffffffffffffffc3601126101fe5783359073ffffffffffffffffffffffffffffffffffffffff82168092036101f957610a07611917565b81845260028152848385200154610b9a5782517f06fdde0300000000000000000000000000000000000000000000000000000000815284818781865afa908115610b90578591610b4c575b5060035490845190610a6560a08361136e565b815283838201528481019180835286606083015242608083015268010000000000000000811015610b2057806001610aa2920160035560036115dd565b610af5577f57d4ed77132570b57702afc3d7a0d2e4a15f96c85297d64fa99f04df00d7125596975090610ad881610ae793611962565b84885260028452858820611962565b51908351928352820152a180f35b602487808a7f4e487b7100000000000000000000000000000000000000000000000000000000825252fd5b60248760418a7f4e487b7100000000000000000000000000000000000000000000000000000000835252fd5b90503d8086833e610b5d818361136e565b81019082818303126107d55780519067ffffffffffffffff8211610b8c57610b86929101611627565b86610a52565b8680fd5b84513d87823e3d90fd5b8483517f955de452000000000000000000000000000000000000000000000000000000008152fd5b509050346101fe5760607ffffffffffffffffffffffffffffffffffffffffffffffffffffffffffffffffc3601126101fe5773ffffffffffffffffffffffffffffffffffffffff9160248035848116908190036107d5576044359067ffffffffffffffff93848311610e9d5736602384011215610e9d5782860135948511610e9d5736848660051b85010111610e9d57610c5a611917565b610c66863560036115dd565b5093600195868601948986541690813b15610e99578b918a918c8588519687957fd9be85310000000000000000000000000000000000000000000000000000000087528b60448801918801528a8a88015252876064860193019186905b828210610e6757505050508383809203925af18015610e5d57610e49575b508289528560205287828a20541615610d82575b5086835416918852846020528088207fffffffffffffffffffffffff000000000000000000000000000000000000000092838254161790558683541688526002602052872095838703610d46578780f35b8594610d5285896117df565b87019254169082541617905560028101546002850155600381015460038501550154910155388080808080808780f35b6003850180547fffffffffffffffffffffffffffffffffffffffffffffffffffffffffffffffff8114610e1e578701905586549068010000000000000000821015610df45750610dd88187859301895588611596565b819291549060031b8a811b9283911b1691191617905538610cf5565b896041897f4e487b7100000000000000000000000000000000000000000000000000000000835252fd5b828b60118b7f4e487b7100000000000000000000000000000000000000000000000000000000835252fd5b89610e56919a929a61136e565b9738610ce1565b83513d8c823e3d90fd5b92955092909395508435918216809203610e95578c918152602080910194019101908e94928694928f610cc3565b8f80fd5b8b80fd5b8780fd5b5050503461013d57817ffffffffffffffffffffffffffffffffffffffffffffffffffffffffffffffffc36011261013d576101f590610ee060066113de565b90519182916020835260208301906114c6565b848285346101fe5760207ffffffffffffffffffffffffffffffffffffffffffffffffffffffffffffffffc3601126101fe5781359173ffffffffffffffffffffffffffffffffffffffff928381168091036107b1576101f5948391610f566115f9565b508152600160205284828220541681526002602052208251936101bb60a08661136e565b509050346101fe57602091827ffffffffffffffffffffffffffffffffffffffffffffffffffffffffffffffffc3601126107d95781359273ffffffffffffffffffffffffffffffffffffffff908185168095036107d55784865285600195868352602484868420541696865197889384927f6cdeb0280000000000000000000000000000000000000000000000000000000084528301525afa9485156111725786918791889489978a996110be575b509796959493929190988551998a9960a08b019060a08c5286518092528460c08d01970193905b8282106110a45750505050509261107b8361109696936101f59998968b6110889703908c0152611509565b9188830390890152611509565b908582036060870152611509565b908382036080850152611509565b8451811688528d9c50968501969385019390830190611050565b9450975095509250503d8087833e6110d6818361136e565b810160a082820312610b8c5781519267ffffffffffffffff938481116107d157826111029185016116b2565b95818401518581116107cd578361111a91860161172d565b938681015186811161116e578461113291830161172d565b936060820151878111610e99578161114b91840161172d565b966080830151908111610e9957611162920161172d565b96939294969738611029565b8a80fd5b83513d88823e3d90fd5b5050503461013d57817ffffffffffffffffffffffffffffffffffffffffffffffffffffffffffffffffc36011261013d5760209073ffffffffffffffffffffffffffffffffffffffff600854169051908152f35b8385833461013d5760207ffffffffffffffffffffffffffffffffffffffffffffffffffffffffffffffffc36011261013d5780359073ffffffffffffffffffffffffffffffffffffffff808316908184036107b15761122d611917565b60075416918282146112b55750600880547fffffffffffffffffffffffff0000000000000000000000000000000000000000169091179055925173ffffffffffffffffffffffffffffffffffffffff938416815292166020830152907ffda15d9c9d426e7a7d0ad84198bef355e30cdb5313c6a8032b18dbd8068998b79080604081016108d9565b85517fb714aaf4000000000000000000000000000000000000000000000000000000008152fd5b5050503461013d57817ffffffffffffffffffffffffffffffffffffffffffffffffffffffffffffffffc36011261013d576101f590610ee060056113de565b90600182811c92168015611364575b602083101461133557565b7f4e487b7100000000000000000000000000000000000000000000000000000000600052602260045260246000fd5b91607f169161132a565b90601f7fffffffffffffffffffffffffffffffffffffffffffffffffffffffffffffffe0910116810190811067ffffffffffffffff8211176113af57604052565b7f4e487b7100000000000000000000000000000000000000000000000000000000600052604160045260246000fd5b90604051918260008254926113f28461131b565b908184526001948581169081600014611461575060011461141e575b505061141c9250038361136e565b565b9093915060005260209081600020936000915b81831061144957505061141c9350820101388061140e565b85548884018501529485019487945091830191611431565b905061141c9550602093507fffffffffffffffffffffffffffffffffffffffffffffffffffffffffffffff0091501682840152151560051b820101388061140e565b60005b8381106114b65750506000910152565b81810151838201526020016114a6565b907fffffffffffffffffffffffffffffffffffffffffffffffffffffffffffffffe0601f602093611502815180928187528780880191016114a3565b0116010190565b90815180825260208080930193019160005b828110611529575050505090565b83518552938101939281019260010161151b565b6020815260a0608061155a845183602086015260c08501906114c6565b9373ffffffffffffffffffffffffffffffffffffffff602082015116604085015260408101516060850152606081015182850152015191015290565b80548210156115ae5760005260206000200190600090565b7f4e487b7100000000000000000000000000000000000000000000000000000000600052603260045260246000fd5b80548210156115ae576000526005602060002091020190600090565b6040519061160860a08361136e565b6000608083606081528260208201528260408201528260608201520152565b81601f820112156101f957805167ffffffffffffffff81116113af576040519261167960207fffffffffffffffffffffffffffffffffffffffffffffffffffffffffffffffe0601f850116018561136e565b818452602082840101116101f95761169791602080850191016114a3565b90565b67ffffffffffffffff81116113af5760051b60200190565b81601f820112156101f9578051916116c98361169a565b926116d7604051948561136e565b808452602092838086019260051b8201019283116101f9578301905b828210611701575050505090565b815173ffffffffffffffffffffffffffffffffffffffff811681036101f95781529083019083016116f3565b81601f820112156101f9578051916117448361169a565b92611752604051948561136e565b808452602092838086019260051b8201019283116101f9578301905b82821061177c575050505090565b8151815290830190830161176e565b90601f811161179957505050565b600091825260208220906020601f850160051c830194106117d5575b601f0160051c01915b8281106117ca57505050565b8181556001016117be565b90925082906117b5565b90808214611913576117f1815461131b565b9067ffffffffffffffff82116113af57819061181782611811865461131b565b8661178b565b600090601f831160011461186b57600092611860575b50507fffffffffffffffffffffffffffffffffffffffffffffffffffffffffffffffff8260011b9260031b1c1916179055565b01549050388061182d565b917fffffffffffffffffffffffffffffffffffffffffffffffffffffffffffffffe016918152602091828220908583528383209383905b8282106118fa5750509084600195949392106118c3575b505050811b019055565b01547fffffffffffffffffffffffffffffffffffffffffffffffffffffffffffffffff60f88460031b161c191690553880806118b9565b84958192958501548155600180910196019401906118a2565b5050565b73ffffffffffffffffffffffffffffffffffffffff60075416330361193857565b60046040517f8c94cc9a000000000000000000000000000000000000000000000000000000008152fd5b90805180519067ffffffffffffffff82116113af5761198582611811865461131b565b602090601f8311600114611a4257918060049492608094600092611a37575b50507fffffffffffffffffffffffffffffffffffffffffffffffffffffffffffffffff8260011b9260031b1c19161784555b6001840173ffffffffffffffffffffffffffffffffffffffff6020830151167fffffffffffffffffffffffff000000000000000000000000000000000000000082541617905560408101516002850155606081015160038501550151910155565b0151905038806119a4565b907fffffffffffffffffffffffffffffffffffffffffffffffffffffffffffffffe083169185600052816000209260005b818110611ad257509260019285926080966004989610611a9b575b505050811b0184556119d6565b01517fffffffffffffffffffffffffffffffffffffffffffffffffffffffffffffffff60f88460031b161c19169055388080611a8e565b92936020600181928786015181550195019301611a7356fea164736f6c6343000811000a",
  "linkReferences": {},
  "deployedLinkReferences": {}
}