{
  "_format": "hh-sol-artifact-1",
  "contractName": "CygnusNebulaRegistry",
  "sourceName": "contracts/all-cygnus-oracles/CygnusNebulaRegistry.sol",
  "abi": [
    {
      "inputs": [],
      "stateMutability": "nonpayable",
      "type": "constructor"
    },
    {
      "inputs": [],
      "name": "CygnusNebulaRegistry__PriceCantBeZero",
      "type": "error"
    },
    {
      "inputs": [],
      "name": "CygnusNebula__AdminAlreadySet",
      "type": "error"
    },
    {
      "inputs": [],
      "name": "CygnusNebula__NebulaAlreadyCreated",
      "type": "error"
    },
    {
      "inputs": [],
      "name": "CygnusNebula__SenderNotAdmin",
      "type": "error"
    },
    {
      "inputs": [],
      "name": "CygnusNebula__SenderNotPendingAdmin",
      "type": "error"
    },
    {
      "inputs": [],
      "name": "ReentrantCall",
      "type": "error"
    },
    {
      "anonymous": false,
      "inputs": [
        {
          "indexed": false,
          "internalType": "address",
          "name": "oldAdmin",
          "type": "address"
        },
        {
          "indexed": false,
          "internalType": "address",
          "name": "newAdmin",
          "type": "address"
        }
      ],
      "name": "NewNebulaAdmin",
      "type": "event"
    },
    {
      "anonymous": false,
      "inputs": [
        {
          "indexed": false,
          "internalType": "address",
          "name": "oracle",
          "type": "address"
        },
        {
          "indexed": false,
          "internalType": "uint256",
          "name": "oracleId",
          "type": "uint256"
        }
      ],
      "name": "NewNebulaOracle",
      "type": "event"
    },
    {
      "anonymous": false,
      "inputs": [
        {
          "indexed": false,
          "internalType": "address",
          "name": "oldPendingAdmin",
          "type": "address"
        },
        {
          "indexed": false,
          "internalType": "address",
          "name": "newPendingAdmin",
          "type": "address"
        }
      ],
      "name": "NewNebulaPendingAdmin",
      "type": "event"
    },
    {
      "inputs": [],
      "name": "acceptRegistryAdmin",
      "outputs": [],
      "stateMutability": "nonpayable",
      "type": "function"
    },
    {
      "inputs": [],
      "name": "admin",
      "outputs": [
        {
          "internalType": "address",
          "name": "",
          "type": "address"
        }
      ],
      "stateMutability": "view",
      "type": "function"
    },
    {
      "inputs": [
        {
          "internalType": "uint256",
          "name": "",
          "type": "uint256"
        }
      ],
      "name": "allLPTokenPairs",
      "outputs": [
        {
          "internalType": "address",
          "name": "",
          "type": "address"
        }
      ],
      "stateMutability": "view",
      "type": "function"
    },
    {
      "inputs": [],
      "name": "allLPTokenPairsLength",
      "outputs": [
        {
          "internalType": "uint256",
          "name": "",
          "type": "uint256"
        }
      ],
      "stateMutability": "view",
      "type": "function"
    },
    {
      "inputs": [
        {
          "internalType": "uint256",
          "name": "",
          "type": "uint256"
        }
      ],
      "name": "allNebulas",
      "outputs": [
        {
          "internalType": "string",
          "name": "name",
          "type": "string"
        },
        {
          "internalType": "address",
          "name": "nebulaAddress",
          "type": "address"
        },
        {
          "internalType": "uint256",
          "name": "nebulaId",
          "type": "uint256"
        },
        {
          "internalType": "uint256",
          "name": "totalOracles",
          "type": "uint256"
        },
        {
          "internalType": "uint256",
          "name": "createdAt",
          "type": "uint256"
        }
      ],
      "stateMutability": "view",
      "type": "function"
    },
    {
      "inputs": [],
      "name": "allNebulasLength",
      "outputs": [
        {
          "internalType": "uint256",
          "name": "",
          "type": "uint256"
        }
      ],
      "stateMutability": "view",
      "type": "function"
    },
    {
      "inputs": [
        {
          "internalType": "address",
          "name": "_nebula",
          "type": "address"
        }
      ],
      "name": "createNebula",
      "outputs": [],
      "stateMutability": "nonpayable",
      "type": "function"
    },
    {
      "inputs": [
        {
          "internalType": "uint256",
          "name": "nebulaId",
          "type": "uint256"
        },
        {
          "internalType": "address",
          "name": "lpTokenPair",
          "type": "address"
        },
        {
          "internalType": "contract AggregatorV3Interface[]",
          "name": "aggregators",
          "type": "address[]"
        },
        {
          "internalType": "bool",
          "name": "isOverride",
          "type": "bool"
        }
      ],
      "name": "createNebulaOracle",
      "outputs": [],
      "stateMutability": "nonpayable",
      "type": "function"
    },
    {
      "inputs": [
        {
          "internalType": "address",
          "name": "lpTokenPair",
          "type": "address"
        }
      ],
      "name": "getLPTokenInfo",
      "outputs": [
        {
          "internalType": "contract IERC20[]",
          "name": "tokens",
          "type": "address[]"
        },
        {
          "internalType": "uint256[]",
          "name": "prices",
          "type": "uint256[]"
        },
        {
          "internalType": "uint256[]",
          "name": "reserves",
          "type": "uint256[]"
        },
        {
          "internalType": "uint256[]",
          "name": "tokenDecimals",
          "type": "uint256[]"
        },
        {
          "internalType": "uint256[]",
          "name": "reservesUsd",
          "type": "uint256[]"
        }
      ],
      "stateMutability": "view",
      "type": "function"
    },
    {
      "inputs": [
        {
          "internalType": "address",
          "name": "lpTokenPair",
          "type": "address"
        }
      ],
      "name": "getLPTokenNebula",
      "outputs": [
        {
          "components": [
            {
              "internalType": "string",
              "name": "name",
              "type": "string"
            },
            {
              "internalType": "address",
              "name": "nebulaAddress",
              "type": "address"
            },
            {
              "internalType": "uint256",
              "name": "nebulaId",
              "type": "uint256"
            },
            {
              "internalType": "uint256",
              "name": "totalOracles",
              "type": "uint256"
            },
            {
              "internalType": "uint256",
              "name": "createdAt",
              "type": "uint256"
            }
          ],
          "internalType": "struct ICygnusNebulaRegistry.CygnusNebula",
          "name": "",
          "type": "tuple"
        }
      ],
      "stateMutability": "view",
      "type": "function"
    },
    {
      "inputs": [
        {
          "internalType": "address",
          "name": "lpTokenPair",
          "type": "address"
        }
      ],
      "name": "getLPTokenNebulaAddress",
      "outputs": [
        {
          "internalType": "address",
          "name": "",
          "type": "address"
        }
      ],
      "stateMutability": "view",
      "type": "function"
    },
    {
      "inputs": [
        {
          "internalType": "address",
          "name": "lpTokenPair",
          "type": "address"
        }
      ],
      "name": "getLPTokenNebulaOracle",
      "outputs": [
        {
          "components": [
            {
              "internalType": "bool",
              "name": "initialized",
              "type": "bool"
            },
            {
              "internalType": "uint88",
              "name": "oracleId",
              "type": "uint88"
            },
            {
              "internalType": "string",
              "name": "name",
              "type": "string"
            },
            {
              "internalType": "address",
              "name": "underlying",
              "type": "address"
            },
            {
              "internalType": "contract IERC20[]",
              "name": "poolTokens",
              "type": "address[]"
            },
            {
              "internalType": "uint256[]",
              "name": "poolTokensDecimals",
              "type": "uint256[]"
            },
            {
              "internalType": "contract AggregatorV3Interface[]",
              "name": "priceFeeds",
              "type": "address[]"
            },
            {
              "internalType": "uint256[]",
              "name": "priceFeedsDecimals",
              "type": "uint256[]"
            },
            {
              "internalType": "uint256",
              "name": "createdAt",
              "type": "uint256"
            }
          ],
          "internalType": "struct ICygnusNebula.NebulaOracle",
          "name": "",
          "type": "tuple"
        }
      ],
      "stateMutability": "view",
      "type": "function"
    },
    {
      "inputs": [
        {
          "internalType": "address",
          "name": "lpTokenPair",
          "type": "address"
        }
      ],
      "name": "getLPTokenPriceUsd",
      "outputs": [
        {
          "internalType": "uint256",
          "name": "",
          "type": "uint256"
        }
      ],
      "stateMutability": "view",
      "type": "function"
    },
    {
      "inputs": [
        {
          "internalType": "address",
          "name": "nebula",
          "type": "address"
        }
      ],
      "name": "getNebula",
      "outputs": [
        {
          "components": [
            {
              "internalType": "string",
              "name": "name",
              "type": "string"
            },
            {
              "internalType": "address",
              "name": "nebulaAddress",
              "type": "address"
            },
            {
              "internalType": "uint256",
              "name": "nebulaId",
              "type": "uint256"
            },
            {
              "internalType": "uint256",
              "name": "totalOracles",
              "type": "uint256"
            },
            {
              "internalType": "uint256",
              "name": "createdAt",
              "type": "uint256"
            }
          ],
          "internalType": "struct ICygnusNebulaRegistry.CygnusNebula",
          "name": "",
          "type": "tuple"
        }
      ],
      "stateMutability": "view",
      "type": "function"
    },
    {
      "inputs": [],
      "name": "name",
      "outputs": [
        {
          "internalType": "string",
          "name": "",
          "type": "string"
        }
      ],
      "stateMutability": "view",
      "type": "function"
    },
    {
      "inputs": [],
      "name": "pendingAdmin",
      "outputs": [
        {
          "internalType": "address",
          "name": "",
          "type": "address"
        }
      ],
      "stateMutability": "view",
      "type": "function"
    },
    {
      "inputs": [
        {
          "internalType": "address",
          "name": "newPendingAdmin",
          "type": "address"
        }
      ],
      "name": "setRegistryPendingAdmin",
      "outputs": [],
      "stateMutability": "nonpayable",
      "type": "function"
    },
    {
      "inputs": [],
      "name": "version",
      "outputs": [
        {
          "internalType": "string",
          "name": "",
          "type": "string"
        }
      ],
      "stateMutability": "view",
      "type": "function"
    }
  ],
  "bytecode": "0x608060405234620000a557600160ff1960005416176000556200003260176200002a600554620000aa565b6005620000e7565b602e7f4379676e75733a204e6562756c61205265676973747279000000000000000000016005556200007460056200006c600654620000aa565b6006620000e7565b600a640312e302e360dc1b01600655600780546001600160a01b03191633179055604051611af99081620001418239f35b600080fd5b90600182811c92168015620000dc575b6020831014620000c657565b634e487b7160e01b600052602260045260246000fd5b91607f1691620000ba565b90601f8111620000f657505050565b600091825260208220906020601f850160051c8301941062000135575b601f0160051c01915b8281106200012957505050565b8181556001016200011c565b90925082906200011356fe6040608081526004908136101561001557600080fd5b60009160e0908335821c91826306fdde03146112de5782630dfe66df146111d2578263267822471461117e578263440bbcd014610f7857826351efa20514610ef157826354fd4d5014610e9f5782637fd5b20d14610c88578263856d7e2314610c205782639ac0b04914610be3578263a7a8ac9c14610ae0578263ab829fe71461074b57508163b563deb21461065f578163bf632691146105f1578163c149e489146105b4578163d02c70e814610503578163e7f2e5bc14610202578163f0ac40c414610141575063f851a440146100ec57600080fd5b3461013d57817ffffffffffffffffffffffffffffffffffffffffffffffffffffffffffffffffc36011261013d5760209073ffffffffffffffffffffffffffffffffffffffff600754169051908152f35b5080fd5b919050346101fe5760207ffffffffffffffffffffffffffffffffffffffffffffffffffffffffffffffffc3601126101fe5781359173ffffffffffffffffffffffffffffffffffffffff928381168091036101f9576101f59483916101a46115fb565b5081526002602052208251936101bb60a086611370565b6101c4826113e0565b855260018201541660208501526002810154838501526003810154606085015201546080830152519182918261153f565b0390f35b600080fd5b8280fd5b9050346101fe5760807ffffffffffffffffffffffffffffffffffffffffffffffffffffffffffffffffc3601126101fe5773ffffffffffffffffffffffffffffffffffffffff9160248035848116908190036104ff576044359067ffffffffffffffff938483116104fb57366023840112156104fb57828601359485116104fb5736848660051b850101116104fb57606435938415948515036104f7576102a7611919565b6102b3873560036115df565b5094600196878701958a87541690813b156104f3578c918b918d8589519687957fd9be85310000000000000000000000000000000000000000000000000000000087528c60448801918801528b8b88015252886064860193019186905b8282106104bf57505050508383809203925af180156104b5576104a1575b50838a528660205288838b20541615610438575b6103d4575b5086835416918852846020528088207fffffffffffffffffffffffff000000000000000000000000000000000000000092838254161790558683541688526002602052872095838703610398578780f35b85946103a485896117e1565b87019254169082541617905560028101546002850155600381015460038501550154910155388080808080808780f35b60038501908154907fffffffffffffffffffffffffffffffffffffffffffffffffffffffffffffffff821461040e57508601905538610347565b8a60118a7f4e487b7100000000000000000000000000000000000000000000000000000000835252fd5b8754680100000000000000008110156104765761045b81898793018b558a611598565b819291549060031b8c811b9283911b16911916179055610342565b828b60418b7f4e487b7100000000000000000000000000000000000000000000000000000000835252fd5b8a6104ae919b929b611370565b983861032e565b84513d8d823e3d90fd5b929550929093955084359182168092036104ee578d918152602080910194019101908f94928f92879593610310565b508f80fd5b8c80fd5b8880fd5b8780fd5b8580fd5b9050346101fe5760207ffffffffffffffffffffffffffffffffffffffffffffffffffffffffffffffffc3601126101fe578035926003548410156105b1575061055061059a9360036115df565b509161055b836113e0565b9273ffffffffffffffffffffffffffffffffffffffff60018201541692600282015490600383015492015492805196879660a0885260a08801906114c8565b946020870152850152606084015260808301520390f35b80fd5b50503461013d57817ffffffffffffffffffffffffffffffffffffffffffffffffffffffffffffffffc36011261013d576020906003549051908152f35b9050346101fe5760207ffffffffffffffffffffffffffffffffffffffffffffffffffffffffffffffffc3601126101fe5780359281548410156105b1575061065060209373ffffffffffffffffffffffffffffffffffffffff92611598565b92905490519260031b1c168152f35b83833461013d57602092837ffffffffffffffffffffffffffffffffffffffffffffffffffffffffffffffffc3601126101fe57803573ffffffffffffffffffffffffffffffffffffffff80821680920361074757906024869282875260018452858720541693855194859384927f17e5a1a10000000000000000000000000000000000000000000000000000000084528301525afa92831561073c57809361070a575b505051908152f35b909192508382813d8311610735575b6107238183611370565b810103126105b1575051908380610702565b503d610719565b8251903d90823e3d90fd5b8480fd5b838286346105b157602093847ffffffffffffffffffffffffffffffffffffffffffffffffffffffffffffffffc36011261013d5782359073ffffffffffffffffffffffffffffffffffffffff90818316809303610ad257855192610120946107b38686611370565b80855280898601526060988989870152818a8701528960808701528960a08701528960c087015289848701528161010080970152828252816001938483526024878c842054169a8c519b8c9384927f3ef096d30000000000000000000000000000000000000000000000000000000084528301525afa978815610ad657829861095a575b50846108758a949394519a838c528a511515848d01526affffffffffffffffffffff848c015116818d01528a0151898d8d01526101408c01906114c8565b9a8901511660808a015260808801517fffffffffffffffffffffffffffffffffffffffffffffffffffffffffffffffe09a8b8b82030160a08c0152828083519283815201920190855b818110610945575050506108e09060a08a01518c8c83030160c08d015261150b565b9060c0890151958b8b840301868c0152818088519485815201970194905b83821061092e575050505050509085966109239286015190878303018488015261150b565b920151908301520390f35b8551811688529682019694820194908401906108fe565b825189168452928401929184019185016108be565b9097503d8083833e61096c8183611370565b810188828203126101fe57815167ffffffffffffffff928382116107475701908882820312610ad2578a51926109a28a85611370565b825180151581036104ff5784528a8301516affffffffffffffffffffff811681036104ff578b8501528b8301518181116104ff57826109e2918501611629565b8c8501528c83015188811681036104ff578d85015260808301518181116104ff5782610a0f9185016116b4565b608085015260a08301518181116104ff5782610a2c91850161172f565b60a085015260c08301518181116104ff57830182601f820112156104ff57808d9151610a63610a5a8261169c565b93519384611370565b8083528d8084019160051b830101918583116104f7578e01905b828210610ab65750505060c085015286830151908111610747578291610aa5918a940161172f565b86840152015186820152968a610837565b81518c81168103610ace578152908e01908e01610a7d565b8980fd5b8380fd5b89513d84823e3d90fd5b5083833461013d57817ffffffffffffffffffffffffffffffffffffffffffffffffffffffffffffffffc36011261013d5760085473ffffffffffffffffffffffffffffffffffffffff9182821694853303610bbc5750600780547fffffffffffffffffffffffff0000000000000000000000000000000000000000808216881790925592166008555173ffffffffffffffffffffffffffffffffffffffff929091168216815292166020830152907f48f3ba16f452389f15eff21a6164bb71c53da0b32e0c1b8a3874c6ac1ce003e79080604081015b0390a180f35b90517f1b9a0c32000000000000000000000000000000000000000000000000000000008152fd5b509050346101fe57827ffffffffffffffffffffffffffffffffffffffffffffffffffffffffffffffffc3601126101fe5760209250549051908152f35b509050346101fe5760207ffffffffffffffffffffffffffffffffffffffffffffffffffffffffffffffffc3601126101fe573573ffffffffffffffffffffffffffffffffffffffff90818116809103610ad25783839160209552600185522054169051908152f35b5083833461013d576020807ffffffffffffffffffffffffffffffffffffffffffffffffffffffffffffffffc3601126101fe5783359073ffffffffffffffffffffffffffffffffffffffff8216809203610ad257610ce4611919565b81845260028152848385200154610e775782517f06fdde0300000000000000000000000000000000000000000000000000000000815284818781865afa908115610e6d578591610e29575b5060035490845190610d4260a083611370565b815283838201528481019180835286606083015242608083015268010000000000000000811015610dfd57806001610d7f920160035560036115df565b610dd2577f57d4ed77132570b57702afc3d7a0d2e4a15f96c85297d64fa99f04df00d7125596975090610db581610dc493611964565b84885260028452858820611964565b51908351928352820152a180f35b602487808a7f4e487b7100000000000000000000000000000000000000000000000000000000825252fd5b60248760418a7f4e487b7100000000000000000000000000000000000000000000000000000000835252fd5b90503d8086833e610e3a8183611370565b81019082818303126104ff5780519067ffffffffffffffff8211610e6957610e63929101611629565b86610d2f565b8680fd5b84513d87823e3d90fd5b8483517f955de452000000000000000000000000000000000000000000000000000000008152fd5b5050503461013d57817ffffffffffffffffffffffffffffffffffffffffffffffffffffffffffffffffc36011261013d576101f590610ede60066113e0565b90519182916020835260208301906114c8565b848285346101fe5760207ffffffffffffffffffffffffffffffffffffffffffffffffffffffffffffffffc3601126101fe5781359173ffffffffffffffffffffffffffffffffffffffff92838116809103610747576101f5948391610f546115fb565b508152600160205284828220541681526002602052208251936101bb60a086611370565b509050346101fe57602091827ffffffffffffffffffffffffffffffffffffffffffffffffffffffffffffffffc360112610ad25781359273ffffffffffffffffffffffffffffffffffffffff908185168095036104ff5784865285600195868352602484868420541696865197889384927f6cdeb0280000000000000000000000000000000000000000000000000000000084528301525afa9485156111745786918791889489978a996110bc575b509796959493929190988551998a9960a08b019060a08c5286518092528460c08d01970193905b8282106110a2575050505050926110798361109496936101f59998968b6110869703908c015261150b565b918883039089015261150b565b90858203606087015261150b565b90838203608085015261150b565b8451811688528d9c5096850196938501939083019061104e565b9450975095509250503d8087833e6110d48183611370565b810160a082820312610e695781519267ffffffffffffffff938481116104f757826111009185016116b4565b9581840151858111610ace578361111891860161172f565b9386810151868111611170578461113091830161172f565b93606082015187811161116c578161114991840161172f565b96608083015190811161116c57611160920161172f565b96939294969738611027565b8b80fd5b8a80fd5b83513d88823e3d90fd5b5050503461013d57817ffffffffffffffffffffffffffffffffffffffffffffffffffffffffffffffffc36011261013d5760209073ffffffffffffffffffffffffffffffffffffffff600854169051908152f35b8385833461013d5760207ffffffffffffffffffffffffffffffffffffffffffffffffffffffffffffffffc36011261013d5780359073ffffffffffffffffffffffffffffffffffffffff808316908184036107475761122f611919565b60075416918282146112b75750600880547fffffffffffffffffffffffff0000000000000000000000000000000000000000169091179055925173ffffffffffffffffffffffffffffffffffffffff938416815292166020830152907ffda15d9c9d426e7a7d0ad84198bef355e30cdb5313c6a8032b18dbd8068998b7908060408101610bb6565b85517fb714aaf4000000000000000000000000000000000000000000000000000000008152fd5b5050503461013d57817ffffffffffffffffffffffffffffffffffffffffffffffffffffffffffffffffc36011261013d576101f590610ede60056113e0565b90600182811c92168015611366575b602083101461133757565b7f4e487b7100000000000000000000000000000000000000000000000000000000600052602260045260246000fd5b91607f169161132c565b90601f7fffffffffffffffffffffffffffffffffffffffffffffffffffffffffffffffe0910116810190811067ffffffffffffffff8211176113b157604052565b7f4e487b7100000000000000000000000000000000000000000000000000000000600052604160045260246000fd5b90604051918260008254926113f48461131d565b9081845260019485811690816000146114635750600114611420575b505061141e92500383611370565b565b9093915060005260209081600020936000915b81831061144b57505061141e93508201013880611410565b85548884018501529485019487945091830191611433565b905061141e9550602093507fffffffffffffffffffffffffffffffffffffffffffffffffffffffffffffff0091501682840152151560051b8201013880611410565b60005b8381106114b85750506000910152565b81810151838201526020016114a8565b907fffffffffffffffffffffffffffffffffffffffffffffffffffffffffffffffe0601f602093611504815180928187528780880191016114a5565b0116010190565b90815180825260208080930193019160005b82811061152b575050505090565b83518552938101939281019260010161151d565b6020815260a0608061155c845183602086015260c08501906114c8565b9373ffffffffffffffffffffffffffffffffffffffff602082015116604085015260408101516060850152606081015182850152015191015290565b80548210156115b05760005260206000200190600090565b7f4e487b7100000000000000000000000000000000000000000000000000000000600052603260045260246000fd5b80548210156115b0576000526005602060002091020190600090565b6040519061160a60a083611370565b6000608083606081528260208201528260408201528260608201520152565b81601f820112156101f957805167ffffffffffffffff81116113b1576040519261167b60207fffffffffffffffffffffffffffffffffffffffffffffffffffffffffffffffe0601f8501160185611370565b818452602082840101116101f95761169991602080850191016114a5565b90565b67ffffffffffffffff81116113b15760051b60200190565b81601f820112156101f9578051916116cb8361169c565b926116d96040519485611370565b808452602092838086019260051b8201019283116101f9578301905b828210611703575050505090565b815173ffffffffffffffffffffffffffffffffffffffff811681036101f95781529083019083016116f5565b81601f820112156101f9578051916117468361169c565b926117546040519485611370565b808452602092838086019260051b8201019283116101f9578301905b82821061177e575050505090565b81518152908301908301611770565b90601f811161179b57505050565b600091825260208220906020601f850160051c830194106117d7575b601f0160051c01915b8281106117cc57505050565b8181556001016117c0565b90925082906117b7565b90808214611915576117f3815461131d565b9067ffffffffffffffff82116113b157819061181982611813865461131d565b8661178d565b600090601f831160011461186d57600092611862575b50507fffffffffffffffffffffffffffffffffffffffffffffffffffffffffffffffff8260011b9260031b1c1916179055565b01549050388061182f565b917fffffffffffffffffffffffffffffffffffffffffffffffffffffffffffffffe016918152602091828220908583528383209383905b8282106118fc5750509084600195949392106118c5575b505050811b019055565b01547fffffffffffffffffffffffffffffffffffffffffffffffffffffffffffffffff60f88460031b161c191690553880806118bb565b84958192958501548155600180910196019401906118a4565b5050565b73ffffffffffffffffffffffffffffffffffffffff60075416330361193a57565b60046040517f8c94cc9a000000000000000000000000000000000000000000000000000000008152fd5b90805180519067ffffffffffffffff82116113b15761198782611813865461131d565b602090601f8311600114611a4457918060049492608094600092611a39575b50507fffffffffffffffffffffffffffffffffffffffffffffffffffffffffffffffff8260011b9260031b1c19161784555b6001840173ffffffffffffffffffffffffffffffffffffffff6020830151167fffffffffffffffffffffffff000000000000000000000000000000000000000082541617905560408101516002850155606081015160038501550151910155565b0151905038806119a6565b907fffffffffffffffffffffffffffffffffffffffffffffffffffffffffffffffe083169185600052816000209260005b818110611ad457509260019285926080966004989610611a9d575b505050811b0184556119d8565b01517fffffffffffffffffffffffffffffffffffffffffffffffffffffffffffffffff60f88460031b161c19169055388080611a90565b92936020600181928786015181550195019301611a7556fea164736f6c6343000811000a",
  "linkReferences": {},
  "deployedLinkReferences": {}
}