{"contracts/all-cygnus-oracles/CygnusNebulaRegistry.sol":{"CygnusNebulaRegistry":{"abi":[{"inputs":[],"stateMutability":"nonpayable","type":"constructor"},{"inputs":[],"name":"CygnusNebulaRegistry__PriceCantBeZero","type":"error"},{"inputs":[],"name":"CygnusNebula__AdminAlreadySet","type":"error"},{"inputs":[],"name":"CygnusNebula__NebulaAlreadyCreated","type":"error"},{"inputs":[],"name":"CygnusNebula__SenderNotAdmin","type":"error"},{"inputs":[],"name":"CygnusNebula__SenderNotPendingAdmin","type":"error"},{"inputs":[],"name":"ReentrantCall","type":"error"},{"anonymous":false,"inputs":[{"indexed":false,"internalType":"address","name":"oldAdmin","type":"address"},{"indexed":false,"internalType":"address","name":"newAdmin","type":"address"}],"name":"NewNebulaAdmin","type":"event"},{"anonymous":false,"inputs":[{"indexed":false,"internalType":"address","name":"oracle","type":"address"},{"indexed":false,"internalType":"uint256","name":"oracleId","type":"uint256"}],"name":"NewNebulaOracle","type":"event"},{"anonymous":false,"inputs":[{"indexed":false,"internalType":"address","name":"oldPendingAdmin","type":"address"},{"indexed":false,"internalType":"address","name":"newPendingAdmin","type":"address"}],"name":"NewNebulaPendingAdmin","type":"event"},{"inputs":[],"name":"acceptRegistryAdmin","outputs":[],"stateMutability":"nonpayable","type":"function"},{"inputs":[],"name":"admin","outputs":[{"internalType":"address","name":"","type":"address"}],"stateMutability":"view","type":"function"},{"inputs":[{"internalType":"uint256","name":"","type":"uint256"}],"name":"allLPTokenPairs","outputs":[{"internalType":"address","name":"","type":"address"}],"stateMutability":"view","type":"function"},{"inputs":[],"name":"allLPTokenPairsLength","outputs":[{"internalType":"uint256","name":"","type":"uint256"}],"stateMutability":"view","type":"function"},{"inputs":[{"internalType":"uint256","name":"","type":"uint256"}],"name":"allNebulas","outputs":[{"internalType":"string","name":"name","type":"string"},{"internalType":"address","name":"nebulaAddress","type":"address"},{"internalType":"uint256","name":"nebulaId","type":"uint256"},{"internalType":"uint256","name":"totalOracles","type":"uint256"},{"internalType":"uint256","name":"createdAt","type":"uint256"}],"stateMutability":"view","type":"function"},{"inputs":[],"name":"allNebulasLength","outputs":[{"internalType":"uint256","name":"","type":"uint256"}],"stateMutability":"view","type":"function"},{"inputs":[{"internalType":"address","name":"_nebula","type":"address"}],"name":"createNebula","outputs":[],"stateMutability":"nonpayable","type":"function"},{"inputs":[{"internalType":"uint256","name":"nebulaId","type":"uint256"},{"internalType":"address","name":"lpTokenPair","type":"address"},{"internalType":"contract AggregatorV3Interface[]","name":"aggregators","type":"address[]"}],"name":"createNebulaOracle","outputs":[],"stateMutability":"nonpayable","type":"function"},{"inputs":[{"internalType":"address","name":"lpTokenPair","type":"address"}],"name":"getLPTokenInfo","outputs":[{"internalType":"contract IERC20[]","name":"tokens","type":"address[]"},{"internalType":"uint256[]","name":"prices","type":"uint256[]"},{"internalType":"uint256[]","name":"reserves","type":"uint256[]"},{"internalType":"uint256[]","name":"tokenDecimals","type":"uint256[]"},{"internalType":"uint256[]","name":"reservesUsd","type":"uint256[]"}],"stateMutability":"view","type":"function"},{"inputs":[{"internalType":"address","name":"lpTokenPair","type":"address"}],"name":"getLPTokenNebula","outputs":[{"components":[{"internalType":"string","name":"name","type":"string"},{"internalType":"address","name":"nebulaAddress","type":"address"},{"internalType":"uint256","name":"nebulaId","type":"uint256"},{"internalType":"uint256","name":"totalOracles","type":"uint256"},{"internalType":"uint256","name":"createdAt","type":"uint256"}],"internalType":"struct ICygnusNebulaRegistry.CygnusNebula","name":"","type":"tuple"}],"stateMutability":"view","type":"function"},{"inputs":[{"internalType":"address","name":"lpTokenPair","type":"address"}],"name":"getLPTokenNebulaAddress","outputs":[{"internalType":"address","name":"","type":"address"}],"stateMutability":"view","type":"function"},{"inputs":[{"internalType":"address","name":"lpTokenPair","type":"address"}],"name":"getLPTokenNebulaOracle","outputs":[{"components":[{"internalType":"bool","name":"initialized","type":"bool"},{"internalType":"uint88","name":"oracleId","type":"uint88"},{"internalType":"string","name":"name","type":"string"},{"internalType":"address","name":"underlying","type":"address"},{"internalType":"contract IERC20[]","name":"poolTokens","type":"address[]"},{"internalType":"uint256[]","name":"poolTokensDecimals","type":"uint256[]"},{"internalType":"contract AggregatorV3Interface[]","name":"priceFeeds","type":"address[]"},{"internalType":"uint256[]","name":"priceFeedsDecimals","type":"uint256[]"},{"internalType":"uint256","name":"createdAt","type":"uint256"}],"internalType":"struct ICygnusNebula.NebulaOracle","name":"","type":"tuple"}],"stateMutability":"view","type":"function"},{"inputs":[{"internalType":"address","name":"lpTokenPair","type":"address"}],"name":"getLPTokenPriceUsd","outputs":[{"internalType":"uint256","name":"","type":"uint256"}],"stateMutability":"view","type":"function"},{"inputs":[{"internalType":"address","name":"nebula","type":"address"}],"name":"getNebula","outputs":[{"components":[{"internalType":"string","name":"name","type":"string"},{"internalType":"address","name":"nebulaAddress","type":"address"},{"internalType":"uint256","name":"nebulaId","type":"uint256"},{"internalType":"uint256","name":"totalOracles","type":"uint256"},{"internalType":"uint256","name":"createdAt","type":"uint256"}],"internalType":"struct ICygnusNebulaRegistry.CygnusNebula","name":"","type":"tuple"}],"stateMutability":"view","type":"function"},{"inputs":[],"name":"name","outputs":[{"internalType":"string","name":"","type":"string"}],"stateMutability":"view","type":"function"},{"inputs":[],"name":"pendingAdmin","outputs":[{"internalType":"address","name":"","type":"address"}],"stateMutability":"view","type":"function"},{"inputs":[{"internalType":"address","name":"newPendingAdmin","type":"address"}],"name":"setRegistryPendingAdmin","outputs":[],"stateMutability":"nonpayable","type":"function"},{"inputs":[],"name":"version","outputs":[{"internalType":"string","name":"","type":"string"}],"stateMutability":"view","type":"function"}],"evm":{"bytecode":{"linkReferences":{},"object":"608060405234620000a557600160ff1960005416176000556200003260176200002a600554620000aa565b6005620000e7565b602e7f4379676e75733a204e6562756c61205265676973747279000000000000000000016005556200007460056200006c600654620000aa565b6006620000e7565b600a640312e302e360dc1b01600655600780546001600160a01b03191633179055604051611af79081620001418239f35b600080fd5b90600182811c92168015620000dc575b6020831014620000c657565b634e487b7160e01b600052602260045260246000fd5b91607f1691620000ba565b90601f8111620000f657505050565b600091825260208220906020601f850160051c8301941062000135575b601f0160051c01915b8281106200012957505050565b8181556001016200011c565b90925082906200011356fe6040608081526004908136101561001557600080fd5b60009160e0908335821c91826306fdde03146112dc5782630dfe66df146111d0578263267822471461117c578263440bbcd014610f7a57826351efa20514610ef357826354fd4d5014610ea157826363189d9c14610bc25782637fd5b20d146109ab578263856d7e23146109435782639ac0b04914610906578263a7a8ac9c146107e7578263ab829fe71461044657508163b563deb21461035e578163bf632691146102f0578163c149e489146102b3578163d02c70e814610202578163f0ac40c414610141575063f851a440146100ec57600080fd5b3461013d57817ffffffffffffffffffffffffffffffffffffffffffffffffffffffffffffffffc36011261013d5760209073ffffffffffffffffffffffffffffffffffffffff600754169051908152f35b5080fd5b919050346101fe5760207ffffffffffffffffffffffffffffffffffffffffffffffffffffffffffffffffc3601126101fe5781359173ffffffffffffffffffffffffffffffffffffffff928381168091036101f9576101f59483916101a46115f9565b5081526002602052208251936101bb60a08661136e565b6101c4826113de565b855260018201541660208501526002810154838501526003810154606085015201546080830152519182918261153d565b0390f35b600080fd5b8280fd5b9050346101fe5760207ffffffffffffffffffffffffffffffffffffffffffffffffffffffffffffffffc3601126101fe578035926003548410156102b0575061024f6102999360036115dd565b509161025a836113de565b9273ffffffffffffffffffffffffffffffffffffffff60018201541692600282015490600383015492015492805196879660a0885260a08801906114c6565b946020870152850152606084015260808301520390f35b80fd5b50503461013d57817ffffffffffffffffffffffffffffffffffffffffffffffffffffffffffffffffc36011261013d576020906003549051908152f35b9050346101fe5760207ffffffffffffffffffffffffffffffffffffffffffffffffffffffffffffffffc3601126101fe5780359281548410156102b0575061034f60209373ffffffffffffffffffffffffffffffffffffffff92611596565b92905490519260031b1c168152f35b83833461013d57602092837ffffffffffffffffffffffffffffffffffffffffffffffffffffffffffffffffc3601126101fe57803573ffffffffffffffffffffffffffffffffffffffff908181168091036101f9576024869282875260018452858720541693855194859384927f17e5a1a10000000000000000000000000000000000000000000000000000000084528301525afa92831561043b578093610409575b505051908152f35b909192508382813d8311610434575b610422818361136e565b810103126102b0575051908380610401565b503d610418565b8251903d90823e3d90fd5b838286346102b057602093847ffffffffffffffffffffffffffffffffffffffffffffffffffffffffffffffffc36011261013d5782359073ffffffffffffffffffffffffffffffffffffffff908183168093036101f957855192610120946104ae868661136e565b80855280898601526060988989870152818a8701528960808701528960a08701528960c087015289848701528161010080970152828252816001938483526024878c842054169a8c519b8c9384927f3ef096d30000000000000000000000000000000000000000000000000000000084528301525afa9788156107dd578298610655575b50846105708a949394519a838c528a511515848d01526affffffffffffffffffffff848c015116818d01528a0151898d8d01526101408c01906114c6565b9a8901511660808a015260808801517fffffffffffffffffffffffffffffffffffffffffffffffffffffffffffffffe09a8b8b82030160a08c0152828083519283815201920190855b818110610640575050506105db9060a08a01518c8c83030160c08d0152611509565b9060c0890151958b8b840301868c0152818088519485815201970194905b8382106106295750505050505090859661061e92860151908783030184880152611509565b920151908301520390f35b8551811688529682019694820194908401906105f9565b825189168452928401929184019185016105b9565b9097503d8083833e610667818361136e565b810188828203126101fe57815167ffffffffffffffff928382116107b157019088828203126107d9578a519261069d8a8561136e565b825180151581036107d55784528a8301516affffffffffffffffffffff811681036107d5578b8501528b8301518181116107d557826106dd918501611627565b8c8501528c83015188811681036107d5578d85015260808301518181116107d5578261070a9185016116b2565b608085015260a08301518181116107d5578261072791850161172d565b60a085015260c08301518181116107d557830182601f820112156107d557808d915161075e6107558261169a565b9351938461136e565b8083528d8084019160051b830101918583116107d1578e01905b8282106107b55750505060c0850152868301519081116107b15782916107a0918a940161172d565b86840152015186820152968a610532565b8480fd5b81518c811681036107cd578152908e01908e01610778565b8980fd5b8880fd5b8580fd5b8380fd5b89513d84823e3d90fd5b5083833461013d57817ffffffffffffffffffffffffffffffffffffffffffffffffffffffffffffffffc36011261013d5760085473ffffffffffffffffffffffffffffffffffffffff91828216948533036108df57507f48f3ba16f452389f15eff21a6164bb71c53da0b32e0c1b8a3874c6ac1ce003e793946108d99160075493827fffffffffffffffffffffffff00000000000000000000000000000000000000008616176007558760031b9086821b8092888b16901b169119161760085551938493168390602090939293604083019473ffffffffffffffffffffffffffffffffffffffff809216845216910152565b0390a180f35b90517f1b9a0c32000000000000000000000000000000000000000000000000000000008152fd5b509050346101fe57827ffffffffffffffffffffffffffffffffffffffffffffffffffffffffffffffffc3601126101fe5760209250549051908152f35b509050346101fe5760207ffffffffffffffffffffffffffffffffffffffffffffffffffffffffffffffffc3601126101fe573573ffffffffffffffffffffffffffffffffffffffff908181168091036101f95783839160209552600185522054169051908152f35b5083833461013d576020807ffffffffffffffffffffffffffffffffffffffffffffffffffffffffffffffffc3601126101fe5783359073ffffffffffffffffffffffffffffffffffffffff82168092036101f957610a07611917565b81845260028152848385200154610b9a5782517f06fdde0300000000000000000000000000000000000000000000000000000000815284818781865afa908115610b90578591610b4c575b5060035490845190610a6560a08361136e565b815283838201528481019180835286606083015242608083015268010000000000000000811015610b2057806001610aa2920160035560036115dd565b610af5577f57d4ed77132570b57702afc3d7a0d2e4a15f96c85297d64fa99f04df00d7125596975090610ad881610ae793611962565b84885260028452858820611962565b51908351928352820152a180f35b602487808a7f4e487b7100000000000000000000000000000000000000000000000000000000825252fd5b60248760418a7f4e487b7100000000000000000000000000000000000000000000000000000000835252fd5b90503d8086833e610b5d818361136e565b81019082818303126107d55780519067ffffffffffffffff8211610b8c57610b86929101611627565b86610a52565b8680fd5b84513d87823e3d90fd5b8483517f955de452000000000000000000000000000000000000000000000000000000008152fd5b509050346101fe5760607ffffffffffffffffffffffffffffffffffffffffffffffffffffffffffffffffc3601126101fe5773ffffffffffffffffffffffffffffffffffffffff9160248035848116908190036107d5576044359067ffffffffffffffff93848311610e9d5736602384011215610e9d5782860135948511610e9d5736848660051b85010111610e9d57610c5a611917565b610c66863560036115dd565b5093600195868601948986541690813b15610e99578b918a918c8588519687957fd9be85310000000000000000000000000000000000000000000000000000000087528b60448801918801528a8a88015252876064860193019186905b828210610e6757505050508383809203925af18015610e5d57610e49575b508289528560205287828a20541615610d82575b5086835416918852846020528088207fffffffffffffffffffffffff000000000000000000000000000000000000000092838254161790558683541688526002602052872095838703610d46578780f35b8594610d5285896117df565b87019254169082541617905560028101546002850155600381015460038501550154910155388080808080808780f35b6003850180547fffffffffffffffffffffffffffffffffffffffffffffffffffffffffffffffff8114610e1e578701905586549068010000000000000000821015610df45750610dd88187859301895588611596565b819291549060031b8a811b9283911b1691191617905538610cf5565b896041897f4e487b7100000000000000000000000000000000000000000000000000000000835252fd5b828b60118b7f4e487b7100000000000000000000000000000000000000000000000000000000835252fd5b89610e56919a929a61136e565b9738610ce1565b83513d8c823e3d90fd5b92955092909395508435918216809203610e95578c918152602080910194019101908e94928694928f610cc3565b8f80fd5b8b80fd5b8780fd5b5050503461013d57817ffffffffffffffffffffffffffffffffffffffffffffffffffffffffffffffffc36011261013d576101f590610ee060066113de565b90519182916020835260208301906114c6565b848285346101fe5760207ffffffffffffffffffffffffffffffffffffffffffffffffffffffffffffffffc3601126101fe5781359173ffffffffffffffffffffffffffffffffffffffff928381168091036107b1576101f5948391610f566115f9565b508152600160205284828220541681526002602052208251936101bb60a08661136e565b509050346101fe57602091827ffffffffffffffffffffffffffffffffffffffffffffffffffffffffffffffffc3601126107d95781359273ffffffffffffffffffffffffffffffffffffffff908185168095036107d55784865285600195868352602484868420541696865197889384927f6cdeb0280000000000000000000000000000000000000000000000000000000084528301525afa9485156111725786918791889489978a996110be575b509796959493929190988551998a9960a08b019060a08c5286518092528460c08d01970193905b8282106110a45750505050509261107b8361109696936101f59998968b6110889703908c0152611509565b9188830390890152611509565b908582036060870152611509565b908382036080850152611509565b8451811688528d9c50968501969385019390830190611050565b9450975095509250503d8087833e6110d6818361136e565b810160a082820312610b8c5781519267ffffffffffffffff938481116107d157826111029185016116b2565b95818401518581116107cd578361111a91860161172d565b938681015186811161116e578461113291830161172d565b936060820151878111610e99578161114b91840161172d565b966080830151908111610e9957611162920161172d565b96939294969738611029565b8a80fd5b83513d88823e3d90fd5b5050503461013d57817ffffffffffffffffffffffffffffffffffffffffffffffffffffffffffffffffc36011261013d5760209073ffffffffffffffffffffffffffffffffffffffff600854169051908152f35b8385833461013d5760207ffffffffffffffffffffffffffffffffffffffffffffffffffffffffffffffffc36011261013d5780359073ffffffffffffffffffffffffffffffffffffffff808316908184036107b15761122d611917565b60075416918282146112b55750600880547fffffffffffffffffffffffff0000000000000000000000000000000000000000169091179055925173ffffffffffffffffffffffffffffffffffffffff938416815292166020830152907ffda15d9c9d426e7a7d0ad84198bef355e30cdb5313c6a8032b18dbd8068998b79080604081016108d9565b85517fb714aaf4000000000000000000000000000000000000000000000000000000008152fd5b5050503461013d57817ffffffffffffffffffffffffffffffffffffffffffffffffffffffffffffffffc36011261013d576101f590610ee060056113de565b90600182811c92168015611364575b602083101461133557565b7f4e487b7100000000000000000000000000000000000000000000000000000000600052602260045260246000fd5b91607f169161132a565b90601f7fffffffffffffffffffffffffffffffffffffffffffffffffffffffffffffffe0910116810190811067ffffffffffffffff8211176113af57604052565b7f4e487b7100000000000000000000000000000000000000000000000000000000600052604160045260246000fd5b90604051918260008254926113f28461131b565b908184526001948581169081600014611461575060011461141e575b505061141c9250038361136e565b565b9093915060005260209081600020936000915b81831061144957505061141c9350820101388061140e565b85548884018501529485019487945091830191611431565b905061141c9550602093507fffffffffffffffffffffffffffffffffffffffffffffffffffffffffffffff0091501682840152151560051b820101388061140e565b60005b8381106114b65750506000910152565b81810151838201526020016114a6565b907fffffffffffffffffffffffffffffffffffffffffffffffffffffffffffffffe0601f602093611502815180928187528780880191016114a3565b0116010190565b90815180825260208080930193019160005b828110611529575050505090565b83518552938101939281019260010161151b565b6020815260a0608061155a845183602086015260c08501906114c6565b9373ffffffffffffffffffffffffffffffffffffffff602082015116604085015260408101516060850152606081015182850152015191015290565b80548210156115ae5760005260206000200190600090565b7f4e487b7100000000000000000000000000000000000000000000000000000000600052603260045260246000fd5b80548210156115ae576000526005602060002091020190600090565b6040519061160860a08361136e565b6000608083606081528260208201528260408201528260608201520152565b81601f820112156101f957805167ffffffffffffffff81116113af576040519261167960207fffffffffffffffffffffffffffffffffffffffffffffffffffffffffffffffe0601f850116018561136e565b818452602082840101116101f95761169791602080850191016114a3565b90565b67ffffffffffffffff81116113af5760051b60200190565b81601f820112156101f9578051916116c98361169a565b926116d7604051948561136e565b808452602092838086019260051b8201019283116101f9578301905b828210611701575050505090565b815173ffffffffffffffffffffffffffffffffffffffff811681036101f95781529083019083016116f3565b81601f820112156101f9578051916117448361169a565b92611752604051948561136e565b808452602092838086019260051b8201019283116101f9578301905b82821061177c575050505090565b8151815290830190830161176e565b90601f811161179957505050565b600091825260208220906020601f850160051c830194106117d5575b601f0160051c01915b8281106117ca57505050565b8181556001016117be565b90925082906117b5565b90808214611913576117f1815461131b565b9067ffffffffffffffff82116113af57819061181782611811865461131b565b8661178b565b600090601f831160011461186b57600092611860575b50507fffffffffffffffffffffffffffffffffffffffffffffffffffffffffffffffff8260011b9260031b1c1916179055565b01549050388061182d565b917fffffffffffffffffffffffffffffffffffffffffffffffffffffffffffffffe016918152602091828220908583528383209383905b8282106118fa5750509084600195949392106118c3575b505050811b019055565b01547fffffffffffffffffffffffffffffffffffffffffffffffffffffffffffffffff60f88460031b161c191690553880806118b9565b84958192958501548155600180910196019401906118a2565b5050565b73ffffffffffffffffffffffffffffffffffffffff60075416330361193857565b60046040517f8c94cc9a000000000000000000000000000000000000000000000000000000008152fd5b90805180519067ffffffffffffffff82116113af5761198582611811865461131b565b602090601f8311600114611a4257918060049492608094600092611a37575b50507fffffffffffffffffffffffffffffffffffffffffffffffffffffffffffffffff8260011b9260031b1c19161784555b6001840173ffffffffffffffffffffffffffffffffffffffff6020830151167fffffffffffffffffffffffff000000000000000000000000000000000000000082541617905560408101516002850155606081015160038501550151910155565b0151905038806119a4565b907fffffffffffffffffffffffffffffffffffffffffffffffffffffffffffffffe083169185600052816000209260005b818110611ad257509260019285926080966004989610611a9b575b505050811b0184556119d6565b01517fffffffffffffffffffffffffffffffffffffffffffffffffffffffffffffffff60f88460031b161c19169055388080611a8e565b92936020600181928786015181550195019301611a7356fea164736f6c6343000811000a","opcodes":"PUSH1 0x80 PUSH1 0x40 MSTORE CALLVALUE PUSH3 0xA5 JUMPI PUSH1 0x1 PUSH1 0xFF NOT PUSH1 0x0 SLOAD AND OR PUSH1 0x0 SSTORE PUSH3 0x32 PUSH1 0x17 PUSH3 0x2A PUSH1 0x5 SLOAD PUSH3 0xAA JUMP JUMPDEST PUSH1 0x5 PUSH3 0xE7 JUMP JUMPDEST PUSH1 0x2E PUSH32 0x4379676E75733A204E6562756C61205265676973747279000000000000000000 ADD PUSH1 0x5 SSTORE PUSH3 0x74 PUSH1 0x5 PUSH3 0x6C PUSH1 0x6 SLOAD PUSH3 0xAA JUMP JUMPDEST PUSH1 0x6 PUSH3 0xE7 JUMP JUMPDEST PUSH1 0xA PUSH5 0x312E302E3 PUSH1 0xDC SHL ADD PUSH1 0x6 SSTORE PUSH1 0x7 DUP1 SLOAD PUSH1 0x1 PUSH1 0x1 PUSH1 0xA0 SHL SUB NOT AND CALLER OR SWAP1 SSTORE PUSH1 0x40 MLOAD PUSH2 0x1AF7 SWAP1 DUP2 PUSH3 0x141 DUP3 CODECOPY RETURN JUMPDEST PUSH1 0x0 DUP1 REVERT JUMPDEST SWAP1 PUSH1 0x1 DUP3 DUP2 SHR SWAP3 AND DUP1 ISZERO PUSH3 0xDC JUMPI JUMPDEST PUSH1 0x20 DUP4 LT EQ PUSH3 0xC6 JUMPI JUMP JUMPDEST PUSH4 0x4E487B71 PUSH1 0xE0 SHL PUSH1 0x0 MSTORE PUSH1 0x22 PUSH1 0x4 MSTORE PUSH1 0x24 PUSH1 0x0 REVERT JUMPDEST SWAP2 PUSH1 0x7F AND SWAP2 PUSH3 0xBA JUMP JUMPDEST SWAP1 PUSH1 0x1F DUP2 GT PUSH3 0xF6 JUMPI POP POP POP JUMP JUMPDEST PUSH1 0x0 SWAP2 DUP3 MSTORE PUSH1 0x20 DUP3 KECCAK256 SWAP1 PUSH1 0x20 PUSH1 0x1F DUP6 ADD PUSH1 0x5 SHR DUP4 ADD SWAP5 LT PUSH3 0x135 JUMPI JUMPDEST PUSH1 0x1F ADD PUSH1 0x5 SHR ADD SWAP2 JUMPDEST DUP3 DUP2 LT PUSH3 0x129 JUMPI POP POP POP JUMP JUMPDEST DUP2 DUP2 SSTORE PUSH1 0x1 ADD PUSH3 0x11C JUMP JUMPDEST SWAP1 SWAP3 POP DUP3 SWAP1 PUSH3 0x113 JUMP INVALID PUSH1 0x40 PUSH1 0x80 DUP2 MSTORE PUSH1 0x4 SWAP1 DUP2 CALLDATASIZE LT ISZERO PUSH2 0x15 JUMPI PUSH1 0x0 DUP1 REVERT JUMPDEST PUSH1 0x0 SWAP2 PUSH1 0xE0 SWAP1 DUP4 CALLDATALOAD DUP3 SHR SWAP2 DUP3 PUSH4 0x6FDDE03 EQ PUSH2 0x12DC JUMPI DUP3 PUSH4 0xDFE66DF EQ PUSH2 0x11D0 JUMPI DUP3 PUSH4 0x26782247 EQ PUSH2 0x117C JUMPI DUP3 PUSH4 0x440BBCD0 EQ PUSH2 0xF7A JUMPI DUP3 PUSH4 0x51EFA205 EQ PUSH2 0xEF3 JUMPI DUP3 PUSH4 0x54FD4D50 EQ PUSH2 0xEA1 JUMPI DUP3 PUSH4 0x63189D9C EQ PUSH2 0xBC2 JUMPI DUP3 PUSH4 0x7FD5B20D EQ PUSH2 0x9AB JUMPI DUP3 PUSH4 0x856D7E23 EQ PUSH2 0x943 JUMPI DUP3 PUSH4 0x9AC0B049 EQ PUSH2 0x906 JUMPI DUP3 PUSH4 0xA7A8AC9C EQ PUSH2 0x7E7 JUMPI DUP3 PUSH4 0xAB829FE7 EQ PUSH2 0x446 JUMPI POP DUP2 PUSH4 0xB563DEB2 EQ PUSH2 0x35E JUMPI DUP2 PUSH4 0xBF632691 EQ PUSH2 0x2F0 JUMPI DUP2 PUSH4 0xC149E489 EQ PUSH2 0x2B3 JUMPI DUP2 PUSH4 0xD02C70E8 EQ PUSH2 0x202 JUMPI DUP2 PUSH4 0xF0AC40C4 EQ PUSH2 0x141 JUMPI POP PUSH4 0xF851A440 EQ PUSH2 0xEC JUMPI PUSH1 0x0 DUP1 REVERT JUMPDEST CALLVALUE PUSH2 0x13D JUMPI DUP2 PUSH32 0xFFFFFFFFFFFFFFFFFFFFFFFFFFFFFFFFFFFFFFFFFFFFFFFFFFFFFFFFFFFFFFFC CALLDATASIZE ADD SLT PUSH2 0x13D JUMPI PUSH1 0x20 SWAP1 PUSH20 0xFFFFFFFFFFFFFFFFFFFFFFFFFFFFFFFFFFFFFFFF PUSH1 0x7 SLOAD AND SWAP1 MLOAD SWAP1 DUP2 MSTORE RETURN JUMPDEST POP DUP1 REVERT JUMPDEST SWAP2 SWAP1 POP CALLVALUE PUSH2 0x1FE JUMPI PUSH1 0x20 PUSH32 0xFFFFFFFFFFFFFFFFFFFFFFFFFFFFFFFFFFFFFFFFFFFFFFFFFFFFFFFFFFFFFFFC CALLDATASIZE ADD SLT PUSH2 0x1FE JUMPI DUP2 CALLDATALOAD SWAP2 PUSH20 0xFFFFFFFFFFFFFFFFFFFFFFFFFFFFFFFFFFFFFFFF SWAP3 DUP4 DUP2 AND DUP1 SWAP2 SUB PUSH2 0x1F9 JUMPI PUSH2 0x1F5 SWAP5 DUP4 SWAP2 PUSH2 0x1A4 PUSH2 0x15F9 JUMP JUMPDEST POP DUP2 MSTORE PUSH1 0x2 PUSH1 0x20 MSTORE KECCAK256 DUP3 MLOAD SWAP4 PUSH2 0x1BB PUSH1 0xA0 DUP7 PUSH2 0x136E JUMP JUMPDEST PUSH2 0x1C4 DUP3 PUSH2 0x13DE JUMP JUMPDEST DUP6 MSTORE PUSH1 0x1 DUP3 ADD SLOAD AND PUSH1 0x20 DUP6 ADD MSTORE PUSH1 0x2 DUP2 ADD SLOAD DUP4 DUP6 ADD MSTORE PUSH1 0x3 DUP2 ADD SLOAD PUSH1 0x60 DUP6 ADD MSTORE ADD SLOAD PUSH1 0x80 DUP4 ADD MSTORE MLOAD SWAP2 DUP3 SWAP2 DUP3 PUSH2 0x153D JUMP JUMPDEST SUB SWAP1 RETURN JUMPDEST PUSH1 0x0 DUP1 REVERT JUMPDEST DUP3 DUP1 REVERT JUMPDEST SWAP1 POP CALLVALUE PUSH2 0x1FE JUMPI PUSH1 0x20 PUSH32 0xFFFFFFFFFFFFFFFFFFFFFFFFFFFFFFFFFFFFFFFFFFFFFFFFFFFFFFFFFFFFFFFC CALLDATASIZE ADD SLT PUSH2 0x1FE JUMPI DUP1 CALLDATALOAD SWAP3 PUSH1 0x3 SLOAD DUP5 LT ISZERO PUSH2 0x2B0 JUMPI POP PUSH2 0x24F PUSH2 0x299 SWAP4 PUSH1 0x3 PUSH2 0x15DD JUMP JUMPDEST POP SWAP2 PUSH2 0x25A DUP4 PUSH2 0x13DE JUMP JUMPDEST SWAP3 PUSH20 0xFFFFFFFFFFFFFFFFFFFFFFFFFFFFFFFFFFFFFFFF PUSH1 0x1 DUP3 ADD SLOAD AND SWAP3 PUSH1 0x2 DUP3 ADD SLOAD SWAP1 PUSH1 0x3 DUP4 ADD SLOAD SWAP3 ADD SLOAD SWAP3 DUP1 MLOAD SWAP7 DUP8 SWAP7 PUSH1 0xA0 DUP9 MSTORE PUSH1 0xA0 DUP9 ADD SWAP1 PUSH2 0x14C6 JUMP JUMPDEST SWAP5 PUSH1 0x20 DUP8 ADD MSTORE DUP6 ADD MSTORE PUSH1 0x60 DUP5 ADD MSTORE PUSH1 0x80 DUP4 ADD MSTORE SUB SWAP1 RETURN JUMPDEST DUP1 REVERT JUMPDEST POP POP CALLVALUE PUSH2 0x13D JUMPI DUP2 PUSH32 0xFFFFFFFFFFFFFFFFFFFFFFFFFFFFFFFFFFFFFFFFFFFFFFFFFFFFFFFFFFFFFFFC CALLDATASIZE ADD SLT PUSH2 0x13D JUMPI PUSH1 0x20 SWAP1 PUSH1 0x3 SLOAD SWAP1 MLOAD SWAP1 DUP2 MSTORE RETURN JUMPDEST SWAP1 POP CALLVALUE PUSH2 0x1FE JUMPI PUSH1 0x20 PUSH32 0xFFFFFFFFFFFFFFFFFFFFFFFFFFFFFFFFFFFFFFFFFFFFFFFFFFFFFFFFFFFFFFFC CALLDATASIZE ADD SLT PUSH2 0x1FE JUMPI DUP1 CALLDATALOAD SWAP3 DUP2 SLOAD DUP5 LT ISZERO PUSH2 0x2B0 JUMPI POP PUSH2 0x34F PUSH1 0x20 SWAP4 PUSH20 0xFFFFFFFFFFFFFFFFFFFFFFFFFFFFFFFFFFFFFFFF SWAP3 PUSH2 0x1596 JUMP JUMPDEST SWAP3 SWAP1 SLOAD SWAP1 MLOAD SWAP3 PUSH1 0x3 SHL SHR AND DUP2 MSTORE RETURN JUMPDEST DUP4 DUP4 CALLVALUE PUSH2 0x13D JUMPI PUSH1 0x20 SWAP3 DUP4 PUSH32 0xFFFFFFFFFFFFFFFFFFFFFFFFFFFFFFFFFFFFFFFFFFFFFFFFFFFFFFFFFFFFFFFC CALLDATASIZE ADD SLT PUSH2 0x1FE JUMPI DUP1 CALLDATALOAD PUSH20 0xFFFFFFFFFFFFFFFFFFFFFFFFFFFFFFFFFFFFFFFF SWAP1 DUP2 DUP2 AND DUP1 SWAP2 SUB PUSH2 0x1F9 JUMPI PUSH1 0x24 DUP7 SWAP3 DUP3 DUP8 MSTORE PUSH1 0x1 DUP5 MSTORE DUP6 DUP8 KECCAK256 SLOAD AND SWAP4 DUP6 MLOAD SWAP5 DUP6 SWAP4 DUP5 SWAP3 PUSH32 0x17E5A1A100000000000000000000000000000000000000000000000000000000 DUP5 MSTORE DUP4 ADD MSTORE GAS STATICCALL SWAP3 DUP4 ISZERO PUSH2 0x43B JUMPI DUP1 SWAP4 PUSH2 0x409 JUMPI JUMPDEST POP POP MLOAD SWAP1 DUP2 MSTORE RETURN JUMPDEST SWAP1 SWAP2 SWAP3 POP DUP4 DUP3 DUP2 RETURNDATASIZE DUP4 GT PUSH2 0x434 JUMPI JUMPDEST PUSH2 0x422 DUP2 DUP4 PUSH2 0x136E JUMP JUMPDEST DUP2 ADD SUB SLT PUSH2 0x2B0 JUMPI POP MLOAD SWAP1 DUP4 DUP1 PUSH2 0x401 JUMP JUMPDEST POP RETURNDATASIZE PUSH2 0x418 JUMP JUMPDEST DUP3 MLOAD SWAP1 RETURNDATASIZE SWAP1 DUP3 RETURNDATACOPY RETURNDATASIZE SWAP1 REVERT JUMPDEST DUP4 DUP3 DUP7 CALLVALUE PUSH2 0x2B0 JUMPI PUSH1 0x20 SWAP4 DUP5 PUSH32 0xFFFFFFFFFFFFFFFFFFFFFFFFFFFFFFFFFFFFFFFFFFFFFFFFFFFFFFFFFFFFFFFC CALLDATASIZE ADD SLT PUSH2 0x13D JUMPI DUP3 CALLDATALOAD SWAP1 PUSH20 0xFFFFFFFFFFFFFFFFFFFFFFFFFFFFFFFFFFFFFFFF SWAP1 DUP2 DUP4 AND DUP1 SWAP4 SUB PUSH2 0x1F9 JUMPI DUP6 MLOAD SWAP3 PUSH2 0x120 SWAP5 PUSH2 0x4AE DUP7 DUP7 PUSH2 0x136E JUMP JUMPDEST DUP1 DUP6 MSTORE DUP1 DUP10 DUP7 ADD MSTORE PUSH1 0x60 SWAP9 DUP10 DUP10 DUP8 ADD MSTORE DUP2 DUP11 DUP8 ADD MSTORE DUP10 PUSH1 0x80 DUP8 ADD MSTORE DUP10 PUSH1 0xA0 DUP8 ADD MSTORE DUP10 PUSH1 0xC0 DUP8 ADD MSTORE DUP10 DUP5 DUP8 ADD MSTORE DUP2 PUSH2 0x100 DUP1 SWAP8 ADD MSTORE DUP3 DUP3 MSTORE DUP2 PUSH1 0x1 SWAP4 DUP5 DUP4 MSTORE PUSH1 0x24 DUP8 DUP13 DUP5 KECCAK256 SLOAD AND SWAP11 DUP13 MLOAD SWAP12 DUP13 SWAP4 DUP5 SWAP3 PUSH32 0x3EF096D300000000000000000000000000000000000000000000000000000000 DUP5 MSTORE DUP4 ADD MSTORE GAS STATICCALL SWAP8 DUP9 ISZERO PUSH2 0x7DD JUMPI DUP3 SWAP9 PUSH2 0x655 JUMPI JUMPDEST POP DUP5 PUSH2 0x570 DUP11 SWAP5 SWAP4 SWAP5 MLOAD SWAP11 DUP4 DUP13 MSTORE DUP11 MLOAD ISZERO ISZERO DUP5 DUP14 ADD MSTORE PUSH11 0xFFFFFFFFFFFFFFFFFFFFFF DUP5 DUP13 ADD MLOAD AND DUP2 DUP14 ADD MSTORE DUP11 ADD MLOAD DUP10 DUP14 DUP14 ADD MSTORE PUSH2 0x140 DUP13 ADD SWAP1 PUSH2 0x14C6 JUMP JUMPDEST SWAP11 DUP10 ADD MLOAD AND PUSH1 0x80 DUP11 ADD MSTORE PUSH1 0x80 DUP9 ADD MLOAD PUSH32 0xFFFFFFFFFFFFFFFFFFFFFFFFFFFFFFFFFFFFFFFFFFFFFFFFFFFFFFFFFFFFFFE0 SWAP11 DUP12 DUP12 DUP3 SUB ADD PUSH1 0xA0 DUP13 ADD MSTORE DUP3 DUP1 DUP4 MLOAD SWAP3 DUP4 DUP2 MSTORE ADD SWAP3 ADD SWAP1 DUP6 JUMPDEST DUP2 DUP2 LT PUSH2 0x640 JUMPI POP POP POP PUSH2 0x5DB SWAP1 PUSH1 0xA0 DUP11 ADD MLOAD DUP13 DUP13 DUP4 SUB ADD PUSH1 0xC0 DUP14 ADD MSTORE PUSH2 0x1509 JUMP JUMPDEST SWAP1 PUSH1 0xC0 DUP10 ADD MLOAD SWAP6 DUP12 DUP12 DUP5 SUB ADD DUP7 DUP13 ADD MSTORE DUP2 DUP1 DUP9 MLOAD SWAP5 DUP6 DUP2 MSTORE ADD SWAP8 ADD SWAP5 SWAP1 JUMPDEST DUP4 DUP3 LT PUSH2 0x629 JUMPI POP POP POP POP POP POP SWAP1 DUP6 SWAP7 PUSH2 0x61E SWAP3 DUP7 ADD MLOAD SWAP1 DUP8 DUP4 SUB ADD DUP5 DUP9 ADD MSTORE PUSH2 0x1509 JUMP JUMPDEST SWAP3 ADD MLOAD SWAP1 DUP4 ADD MSTORE SUB SWAP1 RETURN JUMPDEST DUP6 MLOAD DUP2 AND DUP9 MSTORE SWAP7 DUP3 ADD SWAP7 SWAP5 DUP3 ADD SWAP5 SWAP1 DUP5 ADD SWAP1 PUSH2 0x5F9 JUMP JUMPDEST DUP3 MLOAD DUP10 AND DUP5 MSTORE SWAP3 DUP5 ADD SWAP3 SWAP2 DUP5 ADD SWAP2 DUP6 ADD PUSH2 0x5B9 JUMP JUMPDEST SWAP1 SWAP8 POP RETURNDATASIZE DUP1 DUP4 DUP4 RETURNDATACOPY PUSH2 0x667 DUP2 DUP4 PUSH2 0x136E JUMP JUMPDEST DUP2 ADD DUP9 DUP3 DUP3 SUB SLT PUSH2 0x1FE JUMPI DUP2 MLOAD PUSH8 0xFFFFFFFFFFFFFFFF SWAP3 DUP4 DUP3 GT PUSH2 0x7B1 JUMPI ADD SWAP1 DUP9 DUP3 DUP3 SUB SLT PUSH2 0x7D9 JUMPI DUP11 MLOAD SWAP3 PUSH2 0x69D DUP11 DUP6 PUSH2 0x136E JUMP JUMPDEST DUP3 MLOAD DUP1 ISZERO ISZERO DUP2 SUB PUSH2 0x7D5 JUMPI DUP5 MSTORE DUP11 DUP4 ADD MLOAD PUSH11 0xFFFFFFFFFFFFFFFFFFFFFF DUP2 AND DUP2 SUB PUSH2 0x7D5 JUMPI DUP12 DUP6 ADD MSTORE DUP12 DUP4 ADD MLOAD DUP2 DUP2 GT PUSH2 0x7D5 JUMPI DUP3 PUSH2 0x6DD SWAP2 DUP6 ADD PUSH2 0x1627 JUMP JUMPDEST DUP13 DUP6 ADD MSTORE DUP13 DUP4 ADD MLOAD DUP9 DUP2 AND DUP2 SUB PUSH2 0x7D5 JUMPI DUP14 DUP6 ADD MSTORE PUSH1 0x80 DUP4 ADD MLOAD DUP2 DUP2 GT PUSH2 0x7D5 JUMPI DUP3 PUSH2 0x70A SWAP2 DUP6 ADD PUSH2 0x16B2 JUMP JUMPDEST PUSH1 0x80 DUP6 ADD MSTORE PUSH1 0xA0 DUP4 ADD MLOAD DUP2 DUP2 GT PUSH2 0x7D5 JUMPI DUP3 PUSH2 0x727 SWAP2 DUP6 ADD PUSH2 0x172D JUMP JUMPDEST PUSH1 0xA0 DUP6 ADD MSTORE PUSH1 0xC0 DUP4 ADD MLOAD DUP2 DUP2 GT PUSH2 0x7D5 JUMPI DUP4 ADD DUP3 PUSH1 0x1F DUP3 ADD SLT ISZERO PUSH2 0x7D5 JUMPI DUP1 DUP14 SWAP2 MLOAD PUSH2 0x75E PUSH2 0x755 DUP3 PUSH2 0x169A JUMP JUMPDEST SWAP4 MLOAD SWAP4 DUP5 PUSH2 0x136E JUMP JUMPDEST DUP1 DUP4 MSTORE DUP14 DUP1 DUP5 ADD SWAP2 PUSH1 0x5 SHL DUP4 ADD ADD SWAP2 DUP6 DUP4 GT PUSH2 0x7D1 JUMPI DUP15 ADD SWAP1 JUMPDEST DUP3 DUP3 LT PUSH2 0x7B5 JUMPI POP POP POP PUSH1 0xC0 DUP6 ADD MSTORE DUP7 DUP4 ADD MLOAD SWAP1 DUP2 GT PUSH2 0x7B1 JUMPI DUP3 SWAP2 PUSH2 0x7A0 SWAP2 DUP11 SWAP5 ADD PUSH2 0x172D JUMP JUMPDEST DUP7 DUP5 ADD MSTORE ADD MLOAD DUP7 DUP3 ADD MSTORE SWAP7 DUP11 PUSH2 0x532 JUMP JUMPDEST DUP5 DUP1 REVERT JUMPDEST DUP2 MLOAD DUP13 DUP2 AND DUP2 SUB PUSH2 0x7CD JUMPI DUP2 MSTORE SWAP1 DUP15 ADD SWAP1 DUP15 ADD PUSH2 0x778 JUMP JUMPDEST DUP10 DUP1 REVERT JUMPDEST DUP9 DUP1 REVERT JUMPDEST DUP6 DUP1 REVERT JUMPDEST DUP4 DUP1 REVERT JUMPDEST DUP10 MLOAD RETURNDATASIZE DUP5 DUP3 RETURNDATACOPY RETURNDATASIZE SWAP1 REVERT JUMPDEST POP DUP4 DUP4 CALLVALUE PUSH2 0x13D JUMPI DUP2 PUSH32 0xFFFFFFFFFFFFFFFFFFFFFFFFFFFFFFFFFFFFFFFFFFFFFFFFFFFFFFFFFFFFFFFC CALLDATASIZE ADD SLT PUSH2 0x13D JUMPI PUSH1 0x8 SLOAD PUSH20 0xFFFFFFFFFFFFFFFFFFFFFFFFFFFFFFFFFFFFFFFF SWAP2 DUP3 DUP3 AND SWAP5 DUP6 CALLER SUB PUSH2 0x8DF JUMPI POP PUSH32 0x48F3BA16F452389F15EFF21A6164BB71C53DA0B32E0C1B8A3874C6AC1CE003E7 SWAP4 SWAP5 PUSH2 0x8D9 SWAP2 PUSH1 0x7 SLOAD SWAP4 DUP3 PUSH32 0xFFFFFFFFFFFFFFFFFFFFFFFF0000000000000000000000000000000000000000 DUP7 AND OR PUSH1 0x7 SSTORE DUP8 PUSH1 0x3 SHL SWAP1 DUP7 DUP3 SHL DUP1 SWAP3 DUP9 DUP12 AND SWAP1 SHL AND SWAP2 NOT AND OR PUSH1 0x8 SSTORE MLOAD SWAP4 DUP5 SWAP4 AND DUP4 SWAP1 PUSH1 0x20 SWAP1 SWAP4 SWAP3 SWAP4 PUSH1 0x40 DUP4 ADD SWAP5 PUSH20 0xFFFFFFFFFFFFFFFFFFFFFFFFFFFFFFFFFFFFFFFF DUP1 SWAP3 AND DUP5 MSTORE AND SWAP2 ADD MSTORE JUMP JUMPDEST SUB SWAP1 LOG1 DUP1 RETURN JUMPDEST SWAP1 MLOAD PUSH32 0x1B9A0C3200000000000000000000000000000000000000000000000000000000 DUP2 MSTORE REVERT JUMPDEST POP SWAP1 POP CALLVALUE PUSH2 0x1FE JUMPI DUP3 PUSH32 0xFFFFFFFFFFFFFFFFFFFFFFFFFFFFFFFFFFFFFFFFFFFFFFFFFFFFFFFFFFFFFFFC CALLDATASIZE ADD SLT PUSH2 0x1FE JUMPI PUSH1 0x20 SWAP3 POP SLOAD SWAP1 MLOAD SWAP1 DUP2 MSTORE RETURN JUMPDEST POP SWAP1 POP CALLVALUE PUSH2 0x1FE JUMPI PUSH1 0x20 PUSH32 0xFFFFFFFFFFFFFFFFFFFFFFFFFFFFFFFFFFFFFFFFFFFFFFFFFFFFFFFFFFFFFFFC CALLDATASIZE ADD SLT PUSH2 0x1FE JUMPI CALLDATALOAD PUSH20 0xFFFFFFFFFFFFFFFFFFFFFFFFFFFFFFFFFFFFFFFF SWAP1 DUP2 DUP2 AND DUP1 SWAP2 SUB PUSH2 0x1F9 JUMPI DUP4 DUP4 SWAP2 PUSH1 0x20 SWAP6 MSTORE PUSH1 0x1 DUP6 MSTORE KECCAK256 SLOAD AND SWAP1 MLOAD SWAP1 DUP2 MSTORE RETURN JUMPDEST POP DUP4 DUP4 CALLVALUE PUSH2 0x13D JUMPI PUSH1 0x20 DUP1 PUSH32 0xFFFFFFFFFFFFFFFFFFFFFFFFFFFFFFFFFFFFFFFFFFFFFFFFFFFFFFFFFFFFFFFC CALLDATASIZE ADD SLT PUSH2 0x1FE JUMPI DUP4 CALLDATALOAD SWAP1 PUSH20 0xFFFFFFFFFFFFFFFFFFFFFFFFFFFFFFFFFFFFFFFF DUP3 AND DUP1 SWAP3 SUB PUSH2 0x1F9 JUMPI PUSH2 0xA07 PUSH2 0x1917 JUMP JUMPDEST DUP2 DUP5 MSTORE PUSH1 0x2 DUP2 MSTORE DUP5 DUP4 DUP6 KECCAK256 ADD SLOAD PUSH2 0xB9A JUMPI DUP3 MLOAD PUSH32 0x6FDDE0300000000000000000000000000000000000000000000000000000000 DUP2 MSTORE DUP5 DUP2 DUP8 DUP2 DUP7 GAS STATICCALL SWAP1 DUP2 ISZERO PUSH2 0xB90 JUMPI DUP6 SWAP2 PUSH2 0xB4C JUMPI JUMPDEST POP PUSH1 0x3 SLOAD SWAP1 DUP5 MLOAD SWAP1 PUSH2 0xA65 PUSH1 0xA0 DUP4 PUSH2 0x136E JUMP JUMPDEST DUP2 MSTORE DUP4 DUP4 DUP3 ADD MSTORE DUP5 DUP2 ADD SWAP2 DUP1 DUP4 MSTORE DUP7 PUSH1 0x60 DUP4 ADD MSTORE TIMESTAMP PUSH1 0x80 DUP4 ADD MSTORE PUSH9 0x10000000000000000 DUP2 LT ISZERO PUSH2 0xB20 JUMPI DUP1 PUSH1 0x1 PUSH2 0xAA2 SWAP3 ADD PUSH1 0x3 SSTORE PUSH1 0x3 PUSH2 0x15DD JUMP JUMPDEST PUSH2 0xAF5 JUMPI PUSH32 0x57D4ED77132570B57702AFC3D7A0D2E4A15F96C85297D64FA99F04DF00D71255 SWAP7 SWAP8 POP SWAP1 PUSH2 0xAD8 DUP2 PUSH2 0xAE7 SWAP4 PUSH2 0x1962 JUMP JUMPDEST DUP5 DUP9 MSTORE PUSH1 0x2 DUP5 MSTORE DUP6 DUP9 KECCAK256 PUSH2 0x1962 JUMP JUMPDEST MLOAD SWAP1 DUP4 MLOAD SWAP3 DUP4 MSTORE DUP3 ADD MSTORE LOG1 DUP1 RETURN JUMPDEST PUSH1 0x24 DUP8 DUP1 DUP11 PUSH32 0x4E487B7100000000000000000000000000000000000000000000000000000000 DUP3 MSTORE MSTORE REVERT JUMPDEST PUSH1 0x24 DUP8 PUSH1 0x41 DUP11 PUSH32 0x4E487B7100000000000000000000000000000000000000000000000000000000 DUP4 MSTORE MSTORE REVERT JUMPDEST SWAP1 POP RETURNDATASIZE DUP1 DUP7 DUP4 RETURNDATACOPY PUSH2 0xB5D DUP2 DUP4 PUSH2 0x136E JUMP JUMPDEST DUP2 ADD SWAP1 DUP3 DUP2 DUP4 SUB SLT PUSH2 0x7D5 JUMPI DUP1 MLOAD SWAP1 PUSH8 0xFFFFFFFFFFFFFFFF DUP3 GT PUSH2 0xB8C JUMPI PUSH2 0xB86 SWAP3 SWAP2 ADD PUSH2 0x1627 JUMP JUMPDEST DUP7 PUSH2 0xA52 JUMP JUMPDEST DUP7 DUP1 REVERT JUMPDEST DUP5 MLOAD RETURNDATASIZE DUP8 DUP3 RETURNDATACOPY RETURNDATASIZE SWAP1 REVERT JUMPDEST DUP5 DUP4 MLOAD PUSH32 0x955DE45200000000000000000000000000000000000000000000000000000000 DUP2 MSTORE REVERT JUMPDEST POP SWAP1 POP CALLVALUE PUSH2 0x1FE JUMPI PUSH1 0x60 PUSH32 0xFFFFFFFFFFFFFFFFFFFFFFFFFFFFFFFFFFFFFFFFFFFFFFFFFFFFFFFFFFFFFFFC CALLDATASIZE ADD SLT PUSH2 0x1FE JUMPI PUSH20 0xFFFFFFFFFFFFFFFFFFFFFFFFFFFFFFFFFFFFFFFF SWAP2 PUSH1 0x24 DUP1 CALLDATALOAD DUP5 DUP2 AND SWAP1 DUP2 SWAP1 SUB PUSH2 0x7D5 JUMPI PUSH1 0x44 CALLDATALOAD SWAP1 PUSH8 0xFFFFFFFFFFFFFFFF SWAP4 DUP5 DUP4 GT PUSH2 0xE9D JUMPI CALLDATASIZE PUSH1 0x23 DUP5 ADD SLT ISZERO PUSH2 0xE9D JUMPI DUP3 DUP7 ADD CALLDATALOAD SWAP5 DUP6 GT PUSH2 0xE9D JUMPI CALLDATASIZE DUP5 DUP7 PUSH1 0x5 SHL DUP6 ADD ADD GT PUSH2 0xE9D JUMPI PUSH2 0xC5A PUSH2 0x1917 JUMP JUMPDEST PUSH2 0xC66 DUP7 CALLDATALOAD PUSH1 0x3 PUSH2 0x15DD JUMP JUMPDEST POP SWAP4 PUSH1 0x1 SWAP6 DUP7 DUP7 ADD SWAP5 DUP10 DUP7 SLOAD AND SWAP1 DUP2 EXTCODESIZE ISZERO PUSH2 0xE99 JUMPI DUP12 SWAP2 DUP11 SWAP2 DUP13 DUP6 DUP9 MLOAD SWAP7 DUP8 SWAP6 PUSH32 0xD9BE853100000000000000000000000000000000000000000000000000000000 DUP8 MSTORE DUP12 PUSH1 0x44 DUP9 ADD SWAP2 DUP9 ADD MSTORE DUP11 DUP11 DUP9 ADD MSTORE MSTORE DUP8 PUSH1 0x64 DUP7 ADD SWAP4 ADD SWAP2 DUP7 SWAP1 JUMPDEST DUP3 DUP3 LT PUSH2 0xE67 JUMPI POP POP POP POP DUP4 DUP4 DUP1 SWAP3 SUB SWAP3 GAS CALL DUP1 ISZERO PUSH2 0xE5D JUMPI PUSH2 0xE49 JUMPI JUMPDEST POP DUP3 DUP10 MSTORE DUP6 PUSH1 0x20 MSTORE DUP8 DUP3 DUP11 KECCAK256 SLOAD AND ISZERO PUSH2 0xD82 JUMPI JUMPDEST POP DUP7 DUP4 SLOAD AND SWAP2 DUP9 MSTORE DUP5 PUSH1 0x20 MSTORE DUP1 DUP9 KECCAK256 PUSH32 0xFFFFFFFFFFFFFFFFFFFFFFFF0000000000000000000000000000000000000000 SWAP3 DUP4 DUP3 SLOAD AND OR SWAP1 SSTORE DUP7 DUP4 SLOAD AND DUP9 MSTORE PUSH1 0x2 PUSH1 0x20 MSTORE DUP8 KECCAK256 SWAP6 DUP4 DUP8 SUB PUSH2 0xD46 JUMPI DUP8 DUP1 RETURN JUMPDEST DUP6 SWAP5 PUSH2 0xD52 DUP6 DUP10 PUSH2 0x17DF JUMP JUMPDEST DUP8 ADD SWAP3 SLOAD AND SWAP1 DUP3 SLOAD AND OR SWAP1 SSTORE PUSH1 0x2 DUP2 ADD SLOAD PUSH1 0x2 DUP6 ADD SSTORE PUSH1 0x3 DUP2 ADD SLOAD PUSH1 0x3 DUP6 ADD SSTORE ADD SLOAD SWAP2 ADD SSTORE CODESIZE DUP1 DUP1 DUP1 DUP1 DUP1 DUP1 DUP8 DUP1 RETURN JUMPDEST PUSH1 0x3 DUP6 ADD DUP1 SLOAD PUSH32 0xFFFFFFFFFFFFFFFFFFFFFFFFFFFFFFFFFFFFFFFFFFFFFFFFFFFFFFFFFFFFFFFF DUP2 EQ PUSH2 0xE1E JUMPI DUP8 ADD SWAP1 SSTORE DUP7 SLOAD SWAP1 PUSH9 0x10000000000000000 DUP3 LT ISZERO PUSH2 0xDF4 JUMPI POP PUSH2 0xDD8 DUP2 DUP8 DUP6 SWAP4 ADD DUP10 SSTORE DUP9 PUSH2 0x1596 JUMP JUMPDEST DUP2 SWAP3 SWAP2 SLOAD SWAP1 PUSH1 0x3 SHL DUP11 DUP2 SHL SWAP3 DUP4 SWAP2 SHL AND SWAP2 NOT AND OR SWAP1 SSTORE CODESIZE PUSH2 0xCF5 JUMP JUMPDEST DUP10 PUSH1 0x41 DUP10 PUSH32 0x4E487B7100000000000000000000000000000000000000000000000000000000 DUP4 MSTORE MSTORE REVERT JUMPDEST DUP3 DUP12 PUSH1 0x11 DUP12 PUSH32 0x4E487B7100000000000000000000000000000000000000000000000000000000 DUP4 MSTORE MSTORE REVERT JUMPDEST DUP10 PUSH2 0xE56 SWAP2 SWAP11 SWAP3 SWAP11 PUSH2 0x136E JUMP JUMPDEST SWAP8 CODESIZE PUSH2 0xCE1 JUMP JUMPDEST DUP4 MLOAD RETURNDATASIZE DUP13 DUP3 RETURNDATACOPY RETURNDATASIZE SWAP1 REVERT JUMPDEST SWAP3 SWAP6 POP SWAP3 SWAP1 SWAP4 SWAP6 POP DUP5 CALLDATALOAD SWAP2 DUP3 AND DUP1 SWAP3 SUB PUSH2 0xE95 JUMPI DUP13 SWAP2 DUP2 MSTORE PUSH1 0x20 DUP1 SWAP2 ADD SWAP5 ADD SWAP2 ADD SWAP1 DUP15 SWAP5 SWAP3 DUP7 SWAP5 SWAP3 DUP16 PUSH2 0xCC3 JUMP JUMPDEST DUP16 DUP1 REVERT JUMPDEST DUP12 DUP1 REVERT JUMPDEST DUP8 DUP1 REVERT JUMPDEST POP POP POP CALLVALUE PUSH2 0x13D JUMPI DUP2 PUSH32 0xFFFFFFFFFFFFFFFFFFFFFFFFFFFFFFFFFFFFFFFFFFFFFFFFFFFFFFFFFFFFFFFC CALLDATASIZE ADD SLT PUSH2 0x13D JUMPI PUSH2 0x1F5 SWAP1 PUSH2 0xEE0 PUSH1 0x6 PUSH2 0x13DE JUMP JUMPDEST SWAP1 MLOAD SWAP2 DUP3 SWAP2 PUSH1 0x20 DUP4 MSTORE PUSH1 0x20 DUP4 ADD SWAP1 PUSH2 0x14C6 JUMP JUMPDEST DUP5 DUP3 DUP6 CALLVALUE PUSH2 0x1FE JUMPI PUSH1 0x20 PUSH32 0xFFFFFFFFFFFFFFFFFFFFFFFFFFFFFFFFFFFFFFFFFFFFFFFFFFFFFFFFFFFFFFFC CALLDATASIZE ADD SLT PUSH2 0x1FE JUMPI DUP2 CALLDATALOAD SWAP2 PUSH20 0xFFFFFFFFFFFFFFFFFFFFFFFFFFFFFFFFFFFFFFFF SWAP3 DUP4 DUP2 AND DUP1 SWAP2 SUB PUSH2 0x7B1 JUMPI PUSH2 0x1F5 SWAP5 DUP4 SWAP2 PUSH2 0xF56 PUSH2 0x15F9 JUMP JUMPDEST POP DUP2 MSTORE PUSH1 0x1 PUSH1 0x20 MSTORE DUP5 DUP3 DUP3 KECCAK256 SLOAD AND DUP2 MSTORE PUSH1 0x2 PUSH1 0x20 MSTORE KECCAK256 DUP3 MLOAD SWAP4 PUSH2 0x1BB PUSH1 0xA0 DUP7 PUSH2 0x136E JUMP JUMPDEST POP SWAP1 POP CALLVALUE PUSH2 0x1FE JUMPI PUSH1 0x20 SWAP2 DUP3 PUSH32 0xFFFFFFFFFFFFFFFFFFFFFFFFFFFFFFFFFFFFFFFFFFFFFFFFFFFFFFFFFFFFFFFC CALLDATASIZE ADD SLT PUSH2 0x7D9 JUMPI DUP2 CALLDATALOAD SWAP3 PUSH20 0xFFFFFFFFFFFFFFFFFFFFFFFFFFFFFFFFFFFFFFFF SWAP1 DUP2 DUP6 AND DUP1 SWAP6 SUB PUSH2 0x7D5 JUMPI DUP5 DUP7 MSTORE DUP6 PUSH1 0x1 SWAP6 DUP7 DUP4 MSTORE PUSH1 0x24 DUP5 DUP7 DUP5 KECCAK256 SLOAD AND SWAP7 DUP7 MLOAD SWAP8 DUP9 SWAP4 DUP5 SWAP3 PUSH32 0x6CDEB02800000000000000000000000000000000000000000000000000000000 DUP5 MSTORE DUP4 ADD MSTORE GAS STATICCALL SWAP5 DUP6 ISZERO PUSH2 0x1172 JUMPI DUP7 SWAP2 DUP8 SWAP2 DUP9 SWAP5 DUP10 SWAP8 DUP11 SWAP10 PUSH2 0x10BE JUMPI JUMPDEST POP SWAP8 SWAP7 SWAP6 SWAP5 SWAP4 SWAP3 SWAP2 SWAP1 SWAP9 DUP6 MLOAD SWAP10 DUP11 SWAP10 PUSH1 0xA0 DUP12 ADD SWAP1 PUSH1 0xA0 DUP13 MSTORE DUP7 MLOAD DUP1 SWAP3 MSTORE DUP5 PUSH1 0xC0 DUP14 ADD SWAP8 ADD SWAP4 SWAP1 JUMPDEST DUP3 DUP3 LT PUSH2 0x10A4 JUMPI POP POP POP POP POP SWAP3 PUSH2 0x107B DUP4 PUSH2 0x1096 SWAP7 SWAP4 PUSH2 0x1F5 SWAP10 SWAP9 SWAP7 DUP12 PUSH2 0x1088 SWAP8 SUB SWAP1 DUP13 ADD MSTORE PUSH2 0x1509 JUMP JUMPDEST SWAP2 DUP9 DUP4 SUB SWAP1 DUP10 ADD MSTORE PUSH2 0x1509 JUMP JUMPDEST SWAP1 DUP6 DUP3 SUB PUSH1 0x60 DUP8 ADD MSTORE PUSH2 0x1509 JUMP JUMPDEST SWAP1 DUP4 DUP3 SUB PUSH1 0x80 DUP6 ADD MSTORE PUSH2 0x1509 JUMP JUMPDEST DUP5 MLOAD DUP2 AND DUP9 MSTORE DUP14 SWAP13 POP SWAP7 DUP6 ADD SWAP7 SWAP4 DUP6 ADD SWAP4 SWAP1 DUP4 ADD SWAP1 PUSH2 0x1050 JUMP JUMPDEST SWAP5 POP SWAP8 POP SWAP6 POP SWAP3 POP POP RETURNDATASIZE DUP1 DUP8 DUP4 RETURNDATACOPY PUSH2 0x10D6 DUP2 DUP4 PUSH2 0x136E JUMP JUMPDEST DUP2 ADD PUSH1 0xA0 DUP3 DUP3 SUB SLT PUSH2 0xB8C JUMPI DUP2 MLOAD SWAP3 PUSH8 0xFFFFFFFFFFFFFFFF SWAP4 DUP5 DUP2 GT PUSH2 0x7D1 JUMPI DUP3 PUSH2 0x1102 SWAP2 DUP6 ADD PUSH2 0x16B2 JUMP JUMPDEST SWAP6 DUP2 DUP5 ADD MLOAD DUP6 DUP2 GT PUSH2 0x7CD JUMPI DUP4 PUSH2 0x111A SWAP2 DUP7 ADD PUSH2 0x172D JUMP JUMPDEST SWAP4 DUP7 DUP2 ADD MLOAD DUP7 DUP2 GT PUSH2 0x116E JUMPI DUP5 PUSH2 0x1132 SWAP2 DUP4 ADD PUSH2 0x172D JUMP JUMPDEST SWAP4 PUSH1 0x60 DUP3 ADD MLOAD DUP8 DUP2 GT PUSH2 0xE99 JUMPI DUP2 PUSH2 0x114B SWAP2 DUP5 ADD PUSH2 0x172D JUMP JUMPDEST SWAP7 PUSH1 0x80 DUP4 ADD MLOAD SWAP1 DUP2 GT PUSH2 0xE99 JUMPI PUSH2 0x1162 SWAP3 ADD PUSH2 0x172D JUMP JUMPDEST SWAP7 SWAP4 SWAP3 SWAP5 SWAP7 SWAP8 CODESIZE PUSH2 0x1029 JUMP JUMPDEST DUP11 DUP1 REVERT JUMPDEST DUP4 MLOAD RETURNDATASIZE DUP9 DUP3 RETURNDATACOPY RETURNDATASIZE SWAP1 REVERT JUMPDEST POP POP POP CALLVALUE PUSH2 0x13D JUMPI DUP2 PUSH32 0xFFFFFFFFFFFFFFFFFFFFFFFFFFFFFFFFFFFFFFFFFFFFFFFFFFFFFFFFFFFFFFFC CALLDATASIZE ADD SLT PUSH2 0x13D JUMPI PUSH1 0x20 SWAP1 PUSH20 0xFFFFFFFFFFFFFFFFFFFFFFFFFFFFFFFFFFFFFFFF PUSH1 0x8 SLOAD AND SWAP1 MLOAD SWAP1 DUP2 MSTORE RETURN JUMPDEST DUP4 DUP6 DUP4 CALLVALUE PUSH2 0x13D JUMPI PUSH1 0x20 PUSH32 0xFFFFFFFFFFFFFFFFFFFFFFFFFFFFFFFFFFFFFFFFFFFFFFFFFFFFFFFFFFFFFFFC CALLDATASIZE ADD SLT PUSH2 0x13D JUMPI DUP1 CALLDATALOAD SWAP1 PUSH20 0xFFFFFFFFFFFFFFFFFFFFFFFFFFFFFFFFFFFFFFFF DUP1 DUP4 AND SWAP1 DUP2 DUP5 SUB PUSH2 0x7B1 JUMPI PUSH2 0x122D PUSH2 0x1917 JUMP JUMPDEST PUSH1 0x7 SLOAD AND SWAP2 DUP3 DUP3 EQ PUSH2 0x12B5 JUMPI POP PUSH1 0x8 DUP1 SLOAD PUSH32 0xFFFFFFFFFFFFFFFFFFFFFFFF0000000000000000000000000000000000000000 AND SWAP1 SWAP2 OR SWAP1 SSTORE SWAP3 MLOAD PUSH20 0xFFFFFFFFFFFFFFFFFFFFFFFFFFFFFFFFFFFFFFFF SWAP4 DUP5 AND DUP2 MSTORE SWAP3 AND PUSH1 0x20 DUP4 ADD MSTORE SWAP1 PUSH32 0xFDA15D9C9D426E7A7D0AD84198BEF355E30CDB5313C6A8032B18DBD8068998B7 SWAP1 DUP1 PUSH1 0x40 DUP2 ADD PUSH2 0x8D9 JUMP JUMPDEST DUP6 MLOAD PUSH32 0xB714AAF400000000000000000000000000000000000000000000000000000000 DUP2 MSTORE REVERT JUMPDEST POP POP POP CALLVALUE PUSH2 0x13D JUMPI DUP2 PUSH32 0xFFFFFFFFFFFFFFFFFFFFFFFFFFFFFFFFFFFFFFFFFFFFFFFFFFFFFFFFFFFFFFFC CALLDATASIZE ADD SLT PUSH2 0x13D JUMPI PUSH2 0x1F5 SWAP1 PUSH2 0xEE0 PUSH1 0x5 PUSH2 0x13DE JUMP JUMPDEST SWAP1 PUSH1 0x1 DUP3 DUP2 SHR SWAP3 AND DUP1 ISZERO PUSH2 0x1364 JUMPI JUMPDEST PUSH1 0x20 DUP4 LT EQ PUSH2 0x1335 JUMPI JUMP JUMPDEST PUSH32 0x4E487B7100000000000000000000000000000000000000000000000000000000 PUSH1 0x0 MSTORE PUSH1 0x22 PUSH1 0x4 MSTORE PUSH1 0x24 PUSH1 0x0 REVERT JUMPDEST SWAP2 PUSH1 0x7F AND SWAP2 PUSH2 0x132A JUMP JUMPDEST SWAP1 PUSH1 0x1F PUSH32 0xFFFFFFFFFFFFFFFFFFFFFFFFFFFFFFFFFFFFFFFFFFFFFFFFFFFFFFFFFFFFFFE0 SWAP2 ADD AND DUP2 ADD SWAP1 DUP2 LT PUSH8 0xFFFFFFFFFFFFFFFF DUP3 GT OR PUSH2 0x13AF JUMPI PUSH1 0x40 MSTORE JUMP JUMPDEST PUSH32 0x4E487B7100000000000000000000000000000000000000000000000000000000 PUSH1 0x0 MSTORE PUSH1 0x41 PUSH1 0x4 MSTORE PUSH1 0x24 PUSH1 0x0 REVERT JUMPDEST SWAP1 PUSH1 0x40 MLOAD SWAP2 DUP3 PUSH1 0x0 DUP3 SLOAD SWAP3 PUSH2 0x13F2 DUP5 PUSH2 0x131B JUMP JUMPDEST SWAP1 DUP2 DUP5 MSTORE PUSH1 0x1 SWAP5 DUP6 DUP2 AND SWAP1 DUP2 PUSH1 0x0 EQ PUSH2 0x1461 JUMPI POP PUSH1 0x1 EQ PUSH2 0x141E JUMPI JUMPDEST POP POP PUSH2 0x141C SWAP3 POP SUB DUP4 PUSH2 0x136E JUMP JUMPDEST JUMP JUMPDEST SWAP1 SWAP4 SWAP2 POP PUSH1 0x0 MSTORE PUSH1 0x20 SWAP1 DUP2 PUSH1 0x0 KECCAK256 SWAP4 PUSH1 0x0 SWAP2 JUMPDEST DUP2 DUP4 LT PUSH2 0x1449 JUMPI POP POP PUSH2 0x141C SWAP4 POP DUP3 ADD ADD CODESIZE DUP1 PUSH2 0x140E JUMP JUMPDEST DUP6 SLOAD DUP9 DUP5 ADD DUP6 ADD MSTORE SWAP5 DUP6 ADD SWAP5 DUP8 SWAP5 POP SWAP2 DUP4 ADD SWAP2 PUSH2 0x1431 JUMP JUMPDEST SWAP1 POP PUSH2 0x141C SWAP6 POP PUSH1 0x20 SWAP4 POP PUSH32 0xFFFFFFFFFFFFFFFFFFFFFFFFFFFFFFFFFFFFFFFFFFFFFFFFFFFFFFFFFFFFFF00 SWAP2 POP AND DUP3 DUP5 ADD MSTORE ISZERO ISZERO PUSH1 0x5 SHL DUP3 ADD ADD CODESIZE DUP1 PUSH2 0x140E JUMP JUMPDEST PUSH1 0x0 JUMPDEST DUP4 DUP2 LT PUSH2 0x14B6 JUMPI POP POP PUSH1 0x0 SWAP2 ADD MSTORE JUMP JUMPDEST DUP2 DUP2 ADD MLOAD DUP4 DUP3 ADD MSTORE PUSH1 0x20 ADD PUSH2 0x14A6 JUMP JUMPDEST SWAP1 PUSH32 0xFFFFFFFFFFFFFFFFFFFFFFFFFFFFFFFFFFFFFFFFFFFFFFFFFFFFFFFFFFFFFFE0 PUSH1 0x1F PUSH1 0x20 SWAP4 PUSH2 0x1502 DUP2 MLOAD DUP1 SWAP3 DUP2 DUP8 MSTORE DUP8 DUP1 DUP9 ADD SWAP2 ADD PUSH2 0x14A3 JUMP JUMPDEST ADD AND ADD ADD SWAP1 JUMP JUMPDEST SWAP1 DUP2 MLOAD DUP1 DUP3 MSTORE PUSH1 0x20 DUP1 DUP1 SWAP4 ADD SWAP4 ADD SWAP2 PUSH1 0x0 JUMPDEST DUP3 DUP2 LT PUSH2 0x1529 JUMPI POP POP POP POP SWAP1 JUMP JUMPDEST DUP4 MLOAD DUP6 MSTORE SWAP4 DUP2 ADD SWAP4 SWAP3 DUP2 ADD SWAP3 PUSH1 0x1 ADD PUSH2 0x151B JUMP JUMPDEST PUSH1 0x20 DUP2 MSTORE PUSH1 0xA0 PUSH1 0x80 PUSH2 0x155A DUP5 MLOAD DUP4 PUSH1 0x20 DUP7 ADD MSTORE PUSH1 0xC0 DUP6 ADD SWAP1 PUSH2 0x14C6 JUMP JUMPDEST SWAP4 PUSH20 0xFFFFFFFFFFFFFFFFFFFFFFFFFFFFFFFFFFFFFFFF PUSH1 0x20 DUP3 ADD MLOAD AND PUSH1 0x40 DUP6 ADD MSTORE PUSH1 0x40 DUP2 ADD MLOAD PUSH1 0x60 DUP6 ADD MSTORE PUSH1 0x60 DUP2 ADD MLOAD DUP3 DUP6 ADD MSTORE ADD MLOAD SWAP2 ADD MSTORE SWAP1 JUMP JUMPDEST DUP1 SLOAD DUP3 LT ISZERO PUSH2 0x15AE JUMPI PUSH1 0x0 MSTORE PUSH1 0x20 PUSH1 0x0 KECCAK256 ADD SWAP1 PUSH1 0x0 SWAP1 JUMP JUMPDEST PUSH32 0x4E487B7100000000000000000000000000000000000000000000000000000000 PUSH1 0x0 MSTORE PUSH1 0x32 PUSH1 0x4 MSTORE PUSH1 0x24 PUSH1 0x0 REVERT JUMPDEST DUP1 SLOAD DUP3 LT ISZERO PUSH2 0x15AE JUMPI PUSH1 0x0 MSTORE PUSH1 0x5 PUSH1 0x20 PUSH1 0x0 KECCAK256 SWAP2 MUL ADD SWAP1 PUSH1 0x0 SWAP1 JUMP JUMPDEST PUSH1 0x40 MLOAD SWAP1 PUSH2 0x1608 PUSH1 0xA0 DUP4 PUSH2 0x136E JUMP JUMPDEST PUSH1 0x0 PUSH1 0x80 DUP4 PUSH1 0x60 DUP2 MSTORE DUP3 PUSH1 0x20 DUP3 ADD MSTORE DUP3 PUSH1 0x40 DUP3 ADD MSTORE DUP3 PUSH1 0x60 DUP3 ADD MSTORE ADD MSTORE JUMP JUMPDEST DUP2 PUSH1 0x1F DUP3 ADD SLT ISZERO PUSH2 0x1F9 JUMPI DUP1 MLOAD PUSH8 0xFFFFFFFFFFFFFFFF DUP2 GT PUSH2 0x13AF JUMPI PUSH1 0x40 MLOAD SWAP3 PUSH2 0x1679 PUSH1 0x20 PUSH32 0xFFFFFFFFFFFFFFFFFFFFFFFFFFFFFFFFFFFFFFFFFFFFFFFFFFFFFFFFFFFFFFE0 PUSH1 0x1F DUP6 ADD AND ADD DUP6 PUSH2 0x136E JUMP JUMPDEST DUP2 DUP5 MSTORE PUSH1 0x20 DUP3 DUP5 ADD ADD GT PUSH2 0x1F9 JUMPI PUSH2 0x1697 SWAP2 PUSH1 0x20 DUP1 DUP6 ADD SWAP2 ADD PUSH2 0x14A3 JUMP JUMPDEST SWAP1 JUMP JUMPDEST PUSH8 0xFFFFFFFFFFFFFFFF DUP2 GT PUSH2 0x13AF JUMPI PUSH1 0x5 SHL PUSH1 0x20 ADD SWAP1 JUMP JUMPDEST DUP2 PUSH1 0x1F DUP3 ADD SLT ISZERO PUSH2 0x1F9 JUMPI DUP1 MLOAD SWAP2 PUSH2 0x16C9 DUP4 PUSH2 0x169A JUMP JUMPDEST SWAP3 PUSH2 0x16D7 PUSH1 0x40 MLOAD SWAP5 DUP6 PUSH2 0x136E JUMP JUMPDEST DUP1 DUP5 MSTORE PUSH1 0x20 SWAP3 DUP4 DUP1 DUP7 ADD SWAP3 PUSH1 0x5 SHL DUP3 ADD ADD SWAP3 DUP4 GT PUSH2 0x1F9 JUMPI DUP4 ADD SWAP1 JUMPDEST DUP3 DUP3 LT PUSH2 0x1701 JUMPI POP POP POP POP SWAP1 JUMP JUMPDEST DUP2 MLOAD PUSH20 0xFFFFFFFFFFFFFFFFFFFFFFFFFFFFFFFFFFFFFFFF DUP2 AND DUP2 SUB PUSH2 0x1F9 JUMPI DUP2 MSTORE SWAP1 DUP4 ADD SWAP1 DUP4 ADD PUSH2 0x16F3 JUMP JUMPDEST DUP2 PUSH1 0x1F DUP3 ADD SLT ISZERO PUSH2 0x1F9 JUMPI DUP1 MLOAD SWAP2 PUSH2 0x1744 DUP4 PUSH2 0x169A JUMP JUMPDEST SWAP3 PUSH2 0x1752 PUSH1 0x40 MLOAD SWAP5 DUP6 PUSH2 0x136E JUMP JUMPDEST DUP1 DUP5 MSTORE PUSH1 0x20 SWAP3 DUP4 DUP1 DUP7 ADD SWAP3 PUSH1 0x5 SHL DUP3 ADD ADD SWAP3 DUP4 GT PUSH2 0x1F9 JUMPI DUP4 ADD SWAP1 JUMPDEST DUP3 DUP3 LT PUSH2 0x177C JUMPI POP POP POP POP SWAP1 JUMP JUMPDEST DUP2 MLOAD DUP2 MSTORE SWAP1 DUP4 ADD SWAP1 DUP4 ADD PUSH2 0x176E JUMP JUMPDEST SWAP1 PUSH1 0x1F DUP2 GT PUSH2 0x1799 JUMPI POP POP POP JUMP JUMPDEST PUSH1 0x0 SWAP2 DUP3 MSTORE PUSH1 0x20 DUP3 KECCAK256 SWAP1 PUSH1 0x20 PUSH1 0x1F DUP6 ADD PUSH1 0x5 SHR DUP4 ADD SWAP5 LT PUSH2 0x17D5 JUMPI JUMPDEST PUSH1 0x1F ADD PUSH1 0x5 SHR ADD SWAP2 JUMPDEST DUP3 DUP2 LT PUSH2 0x17CA JUMPI POP POP POP JUMP JUMPDEST DUP2 DUP2 SSTORE PUSH1 0x1 ADD PUSH2 0x17BE JUMP JUMPDEST SWAP1 SWAP3 POP DUP3 SWAP1 PUSH2 0x17B5 JUMP JUMPDEST SWAP1 DUP1 DUP3 EQ PUSH2 0x1913 JUMPI PUSH2 0x17F1 DUP2 SLOAD PUSH2 0x131B JUMP JUMPDEST SWAP1 PUSH8 0xFFFFFFFFFFFFFFFF DUP3 GT PUSH2 0x13AF JUMPI DUP2 SWAP1 PUSH2 0x1817 DUP3 PUSH2 0x1811 DUP7 SLOAD PUSH2 0x131B JUMP JUMPDEST DUP7 PUSH2 0x178B JUMP JUMPDEST PUSH1 0x0 SWAP1 PUSH1 0x1F DUP4 GT PUSH1 0x1 EQ PUSH2 0x186B JUMPI PUSH1 0x0 SWAP3 PUSH2 0x1860 JUMPI JUMPDEST POP POP PUSH32 0xFFFFFFFFFFFFFFFFFFFFFFFFFFFFFFFFFFFFFFFFFFFFFFFFFFFFFFFFFFFFFFFF DUP3 PUSH1 0x1 SHL SWAP3 PUSH1 0x3 SHL SHR NOT AND OR SWAP1 SSTORE JUMP JUMPDEST ADD SLOAD SWAP1 POP CODESIZE DUP1 PUSH2 0x182D JUMP JUMPDEST SWAP2 PUSH32 0xFFFFFFFFFFFFFFFFFFFFFFFFFFFFFFFFFFFFFFFFFFFFFFFFFFFFFFFFFFFFFFE0 AND SWAP2 DUP2 MSTORE PUSH1 0x20 SWAP2 DUP3 DUP3 KECCAK256 SWAP1 DUP6 DUP4 MSTORE DUP4 DUP4 KECCAK256 SWAP4 DUP4 SWAP1 JUMPDEST DUP3 DUP3 LT PUSH2 0x18FA JUMPI POP POP SWAP1 DUP5 PUSH1 0x1 SWAP6 SWAP5 SWAP4 SWAP3 LT PUSH2 0x18C3 JUMPI JUMPDEST POP POP POP DUP2 SHL ADD SWAP1 SSTORE JUMP JUMPDEST ADD SLOAD PUSH32 0xFFFFFFFFFFFFFFFFFFFFFFFFFFFFFFFFFFFFFFFFFFFFFFFFFFFFFFFFFFFFFFFF PUSH1 0xF8 DUP5 PUSH1 0x3 SHL AND SHR NOT AND SWAP1 SSTORE CODESIZE DUP1 DUP1 PUSH2 0x18B9 JUMP JUMPDEST DUP5 SWAP6 DUP2 SWAP3 SWAP6 DUP6 ADD SLOAD DUP2 SSTORE PUSH1 0x1 DUP1 SWAP2 ADD SWAP7 ADD SWAP5 ADD SWAP1 PUSH2 0x18A2 JUMP JUMPDEST POP POP JUMP JUMPDEST PUSH20 0xFFFFFFFFFFFFFFFFFFFFFFFFFFFFFFFFFFFFFFFF PUSH1 0x7 SLOAD AND CALLER SUB PUSH2 0x1938 JUMPI JUMP JUMPDEST PUSH1 0x4 PUSH1 0x40 MLOAD PUSH32 0x8C94CC9A00000000000000000000000000000000000000000000000000000000 DUP2 MSTORE REVERT JUMPDEST SWAP1 DUP1 MLOAD DUP1 MLOAD SWAP1 PUSH8 0xFFFFFFFFFFFFFFFF DUP3 GT PUSH2 0x13AF JUMPI PUSH2 0x1985 DUP3 PUSH2 0x1811 DUP7 SLOAD PUSH2 0x131B JUMP JUMPDEST PUSH1 0x20 SWAP1 PUSH1 0x1F DUP4 GT PUSH1 0x1 EQ PUSH2 0x1A42 JUMPI SWAP2 DUP1 PUSH1 0x4 SWAP5 SWAP3 PUSH1 0x80 SWAP5 PUSH1 0x0 SWAP3 PUSH2 0x1A37 JUMPI JUMPDEST POP POP PUSH32 0xFFFFFFFFFFFFFFFFFFFFFFFFFFFFFFFFFFFFFFFFFFFFFFFFFFFFFFFFFFFFFFFF DUP3 PUSH1 0x1 SHL SWAP3 PUSH1 0x3 SHL SHR NOT AND OR DUP5 SSTORE JUMPDEST PUSH1 0x1 DUP5 ADD PUSH20 0xFFFFFFFFFFFFFFFFFFFFFFFFFFFFFFFFFFFFFFFF PUSH1 0x20 DUP4 ADD MLOAD AND PUSH32 0xFFFFFFFFFFFFFFFFFFFFFFFF0000000000000000000000000000000000000000 DUP3 SLOAD AND OR SWAP1 SSTORE PUSH1 0x40 DUP2 ADD MLOAD PUSH1 0x2 DUP6 ADD SSTORE PUSH1 0x60 DUP2 ADD MLOAD PUSH1 0x3 DUP6 ADD SSTORE ADD MLOAD SWAP2 ADD SSTORE JUMP JUMPDEST ADD MLOAD SWAP1 POP CODESIZE DUP1 PUSH2 0x19A4 JUMP JUMPDEST SWAP1 PUSH32 0xFFFFFFFFFFFFFFFFFFFFFFFFFFFFFFFFFFFFFFFFFFFFFFFFFFFFFFFFFFFFFFE0 DUP4 AND SWAP2 DUP6 PUSH1 0x0 MSTORE DUP2 PUSH1 0x0 KECCAK256 SWAP3 PUSH1 0x0 JUMPDEST DUP2 DUP2 LT PUSH2 0x1AD2 JUMPI POP SWAP3 PUSH1 0x1 SWAP3 DUP6 SWAP3 PUSH1 0x80 SWAP7 PUSH1 0x4 SWAP9 SWAP7 LT PUSH2 0x1A9B JUMPI JUMPDEST POP POP POP DUP2 SHL ADD DUP5 SSTORE PUSH2 0x19D6 JUMP JUMPDEST ADD MLOAD PUSH32 0xFFFFFFFFFFFFFFFFFFFFFFFFFFFFFFFFFFFFFFFFFFFFFFFFFFFFFFFFFFFFFFFF PUSH1 0xF8 DUP5 PUSH1 0x3 SHL AND SHR NOT AND SWAP1 SSTORE CODESIZE DUP1 DUP1 PUSH2 0x1A8E JUMP JUMPDEST SWAP3 SWAP4 PUSH1 0x20 PUSH1 0x1 DUP2 SWAP3 DUP8 DUP7 ADD MLOAD DUP2 SSTORE ADD SWAP6 ADD SWAP4 ADD PUSH2 0x1A73 JUMP INVALID LOG1 PUSH5 0x736F6C6343 STOP ADDMOD GT STOP EXP "},"methodIdentifiers":{"acceptRegistryAdmin()":"a7a8ac9c","admin()":"f851a440","allLPTokenPairs(uint256)":"bf632691","allLPTokenPairsLength()":"9ac0b049","allNebulas(uint256)":"d02c70e8","allNebulasLength()":"c149e489","createNebula(address)":"7fd5b20d","createNebulaOracle(uint256,address,address[])":"63189d9c","getLPTokenInfo(address)":"440bbcd0","getLPTokenNebula(address)":"51efa205","getLPTokenNebulaAddress(address)":"856d7e23","getLPTokenNebulaOracle(address)":"ab829fe7","getLPTokenPriceUsd(address)":"b563deb2","getNebula(address)":"f0ac40c4","name()":"06fdde03","pendingAdmin()":"26782247","setRegistryPendingAdmin(address)":"0dfe66df","version()":"54fd4d50"}}}}}