{"contracts/all-cygnus-oracles/GammaNebula.sol":{"GammaNebula":{"abi":[{"inputs":[{"internalType":"contract IERC20","name":"denomination","type":"address"},{"internalType":"contract AggregatorV3Interface","name":"denominationPrice","type":"address"},{"internalType":"address","name":"_nebulaRegistry","type":"address"}],"stateMutability":"nonpayable","type":"constructor"},{"inputs":[],"name":"CygnusNebulaOracle__AlreadyInContext","type":"error"},{"inputs":[{"internalType":"address","name":"sender","type":"address"}],"name":"CygnusNebulaOracle__MsgSenderNotRegistry","type":"error"},{"inputs":[{"internalType":"address","name":"lpTokenPair","type":"address"}],"name":"CygnusNebulaOracle__PairAlreadyInitialized","type":"error"},{"inputs":[{"internalType":"address","name":"lpTokenPair","type":"address"}],"name":"CygnusNebulaOracle__PairNotInitialized","type":"error"},{"inputs":[{"internalType":"uint256","name":"x","type":"uint256"}],"name":"PRBMathUD60x18__Exp2InputTooBig","type":"error"},{"inputs":[{"internalType":"uint256","name":"x","type":"uint256"}],"name":"PRBMathUD60x18__ExpInputTooBig","type":"error"},{"inputs":[{"internalType":"uint256","name":"x","type":"uint256"}],"name":"PRBMathUD60x18__LogInputTooSmall","type":"error"},{"inputs":[{"internalType":"uint256","name":"prod1","type":"uint256"},{"internalType":"uint256","name":"denominator","type":"uint256"}],"name":"PRBMath__MulDivOverflow","type":"error"},{"anonymous":false,"inputs":[{"indexed":false,"internalType":"bool","name":"initialized","type":"bool"},{"indexed":false,"internalType":"uint88","name":"oracleId","type":"uint88"},{"indexed":false,"internalType":"address","name":"lpTokenPair","type":"address"},{"indexed":false,"internalType":"contract IERC20[]","name":"poolTokens","type":"address[]"},{"indexed":false,"internalType":"uint256[]","name":"poolTokensDecimals","type":"uint256[]"},{"indexed":false,"internalType":"contract AggregatorV3Interface[]","name":"priceFeeds","type":"address[]"},{"indexed":false,"internalType":"uint256[]","name":"priceFeedsDecimals","type":"uint256[]"}],"name":"InitializeNebulaOracle","type":"event"},{"anonymous":false,"inputs":[{"indexed":false,"internalType":"address","name":"oracleOldAdmin","type":"address"},{"indexed":false,"internalType":"address","name":"oracleNewAdmin","type":"address"}],"name":"NewOracleAdmin","type":"event"},{"anonymous":false,"inputs":[{"indexed":false,"internalType":"address","name":"oracleCurrentAdmin","type":"address"},{"indexed":false,"internalType":"address","name":"oraclePendingAdmin","type":"address"}],"name":"NewOraclePendingAdmin","type":"event"},{"inputs":[],"name":"AGGREGATOR_DECIMALS","outputs":[{"internalType":"uint256","name":"","type":"uint256"}],"stateMutability":"view","type":"function"},{"inputs":[],"name":"AGGREGATOR_SCALAR","outputs":[{"internalType":"uint256","name":"","type":"uint256"}],"stateMutability":"view","type":"function"},{"inputs":[],"name":"GRACE_PERIOD","outputs":[{"internalType":"uint256","name":"","type":"uint256"}],"stateMutability":"view","type":"function"},{"inputs":[],"name":"S","outputs":[{"internalType":"bytes4","name":"","type":"bytes4"}],"stateMutability":"view","type":"function"},{"inputs":[],"name":"SECONDS_PER_YEAR","outputs":[{"internalType":"uint256","name":"","type":"uint256"}],"stateMutability":"view","type":"function"},{"inputs":[{"internalType":"uint256","name":"","type":"uint256"}],"name":"allNebulas","outputs":[{"internalType":"address","name":"","type":"address"}],"stateMutability":"view","type":"function"},{"inputs":[],"name":"decimals","outputs":[{"internalType":"uint8","name":"","type":"uint8"}],"stateMutability":"view","type":"function"},{"inputs":[],"name":"denominationAggregator","outputs":[{"internalType":"contract AggregatorV3Interface","name":"","type":"address"}],"stateMutability":"view","type":"function"},{"inputs":[],"name":"denominationToken","outputs":[{"internalType":"contract IERC20","name":"","type":"address"}],"stateMutability":"view","type":"function"},{"inputs":[],"name":"denominationTokenPrice","outputs":[{"internalType":"uint256","name":"","type":"uint256"}],"stateMutability":"view","type":"function"},{"inputs":[{"internalType":"uint256","name":"exchangeRateLast","type":"uint256"},{"internalType":"uint256","name":"exchangeRateCurrent","type":"uint256"},{"internalType":"uint256","name":"timeElapsed","type":"uint256"}],"name":"getAnnualizedBaseRate","outputs":[{"internalType":"uint256","name":"","type":"uint256"}],"stateMutability":"pure","type":"function"},{"inputs":[{"internalType":"address","name":"lpTokenPair","type":"address"}],"name":"getNebulaOracle","outputs":[{"components":[{"internalType":"bool","name":"initialized","type":"bool"},{"internalType":"uint88","name":"oracleId","type":"uint88"},{"internalType":"string","name":"name","type":"string"},{"internalType":"address","name":"underlying","type":"address"},{"internalType":"contract IERC20[]","name":"poolTokens","type":"address[]"},{"internalType":"uint256[]","name":"poolTokensDecimals","type":"uint256[]"},{"internalType":"contract AggregatorV3Interface[]","name":"priceFeeds","type":"address[]"},{"internalType":"uint256[]","name":"priceFeedsDecimals","type":"uint256[]"},{"internalType":"uint256","name":"createdAt","type":"uint256"}],"internalType":"struct ICygnusNebula.NebulaOracle","name":"","type":"tuple"}],"stateMutability":"view","type":"function"},{"inputs":[{"internalType":"address","name":"lpTokenPair","type":"address"},{"internalType":"contract AggregatorV3Interface[]","name":"aggregators","type":"address[]"}],"name":"initializeNebulaOracle","outputs":[],"stateMutability":"nonpayable","type":"function"},{"inputs":[{"internalType":"address","name":"lpTokenPair","type":"address"}],"name":"lpTokenInfo","outputs":[{"internalType":"contract IERC20[]","name":"tokens","type":"address[]"},{"internalType":"uint256[]","name":"prices","type":"uint256[]"},{"internalType":"uint256[]","name":"reserves","type":"uint256[]"},{"internalType":"uint256[]","name":"tokenDecimals","type":"uint256[]"},{"internalType":"uint256[]","name":"reservesUsd","type":"uint256[]"}],"stateMutability":"view","type":"function"},{"inputs":[{"internalType":"address","name":"lpTokenPair","type":"address"}],"name":"lpTokenPriceUsd","outputs":[{"internalType":"uint256","name":"lpTokenPrice","type":"uint256"}],"stateMutability":"view","type":"function"},{"inputs":[],"name":"name","outputs":[{"internalType":"string","name":"","type":"string"}],"stateMutability":"view","type":"function"},{"inputs":[],"name":"nebulaRegistry","outputs":[{"internalType":"address","name":"","type":"address"}],"stateMutability":"view","type":"function"},{"inputs":[],"name":"nebulaSize","outputs":[{"internalType":"uint88","name":"","type":"uint88"}],"stateMutability":"view","type":"function"},{"inputs":[],"name":"version","outputs":[{"internalType":"string","name":"","type":"string"}],"stateMutability":"view","type":"function"}],"evm":{"bytecode":{"linkReferences":{},"object":"6101008060405234620002095760608162003e3580380380916200002482856200020e565b833981010312620002095780516001600160a01b039190828116808203620002095760209182840151938585168503620002095760400151948516850362000209576002549060018083811c93168015620001fe575b85841014620001e85782601f869411620001af575b50507f4379676e75733a2048797065727669736f72204e6562756c610000000000003260025560805260405163313ce56760e01b815291829060049082905afa918215620001a3576000926200015e575b505060a05260c05260e052604051613bec908162000249823960805181610138015260a051818181610dce015281816110e2015281816111c001528181611221015281816116ea0152611dca015260c051818181610da601528181610f52015281816110b50152611da1015260e0518181816101e901526102bb0152f35b81813d83116200019b575b6200017581836200020e565b810103126200019757519060ff821682036200019457503880620000e0565b80fd5b5080fd5b503d62000169565b6040513d6000823e3d90fd5b9391906002600052601f84600020950160051c8501945b858110620001d95750819294506200008f565b600081558694508101620001c6565b634e487b7160e01b600052602260045260246000fd5b92607f16926200007a565b600080fd5b601f909101601f19168101906001600160401b038211908210176200023257604052565b634e487b7160e01b600052604160045260246000fdfe6080604052600436101561001257600080fd5b60003560e01c806306fdde03146129b4578063131ad74e1461204c57806317e5a1a11461170e578063313ce567146116b25780633ef096d3146113d65780634be1c7961461137d57806354fd4d50146112f65780636cdeb02814610fb05780638a790cf214610f765780638eb6f8f014610f075780639ff631dd14610ec9578063ba3941e714610e80578063c1a287e214610e45578063cadbcc2114610d72578063d02c70e814610d04578063d9be85311461020d578063e13d88ac1461019e578063e6a69ab8146101615763f6b9fdfb146100ed57600080fd5b3461015c5760007ffffffffffffffffffffffffffffffffffffffffffffffffffffffffffffffffc36011261015c57602060405173ffffffffffffffffffffffffffffffffffffffff7f0000000000000000000000000000000000000000000000000000000000000000168152f35b600080fd5b3461015c5760007ffffffffffffffffffffffffffffffffffffffffffffffffffffffffffffffffc36011261015c5760206040516301e133808152f35b3461015c5760007ffffffffffffffffffffffffffffffffffffffffffffffffffffffffffffffffc36011261015c57602060405173ffffffffffffffffffffffffffffffffffffffff7f0000000000000000000000000000000000000000000000000000000000000000168152f35b3461015c5760407ffffffffffffffffffffffffffffffffffffffffffffffffffffffffffffffffc36011261015c5760043573ffffffffffffffffffffffffffffffffffffffff8116810361015c5767ffffffffffffffff6024351161015c5736602360243501121561015c5767ffffffffffffffff602435600401351161015c5736602480356004013560051b813501011161015c5773ffffffffffffffffffffffffffffffffffffffff7f0000000000000000000000000000000000000000000000000000000000000000163303610cd45773ffffffffffffffffffffffffffffffffffffffff81166000526000602052604060002090815460ff8116600014610c035750611c20610325600784015442612d76565b11610bbc575b61033a60243560040135612fe1565b916103486040519384612a57565b600460243501358084527fffffffffffffffffffffffffffffffffffffffffffffffffffffffffffffffe09061037d90612fe1565b0136602085013761039360243560040135612ff9565b6103a260243560040135612ff9565b936040517f0dfe168100000000000000000000000000000000000000000000000000000000815260208160048173ffffffffffffffffffffffffffffffffffffffff89165afa908115610a1d57600091610b9d575b5073ffffffffffffffffffffffffffffffffffffffff610418600084613048565b911690526040517fd21220a700000000000000000000000000000000000000000000000000000000815260208160048173ffffffffffffffffffffffffffffffffffffffff89165afa908115610a1d57600091610b6e575b5073ffffffffffffffffffffffffffffffffffffffff610491600184613048565b9116905260005b602435600401358110610a2957506040517f06fdde0300000000000000000000000000000000000000000000000000000000815260008160048173ffffffffffffffffffffffffffffffffffffffff89165afa908115610a1d576000916109a3575b5080519067ffffffffffffffff821161080457819061051c6001870154612a04565b601f8111610963575b50602090601f83116001146108975760009261088c575b50507fffffffffffffffffffffffffffffffffffffffffffffffffffffffffffffffff8260011b9260031b1c19161760018401555b6002830173ffffffffffffffffffffffffffffffffffffffff85167fffffffffffffffffffffffff0000000000000000000000000000000000000000825416179055805167ffffffffffffffff81116108045768010000000000000000811161080457600384016105e782825481845583613106565b6020830190600052602060002060005b8381106108625750505050815167ffffffffffffffff811161080457680100000000000000008111610804576004840161063682825481845583613106565b6020840190600052602060002060005b83811061084e5750505050680100000000000000006024356004013511610804576005830180546004602435013580835561068392909190613106565b602480350192836005820160005260206000209060005b602435600401358110610833575050506006810186519067ffffffffffffffff821161080457680100000000000000008211610804576106df82825481845583613106565b6020880190600052602060002060005b8381106107f057505050509161074f61075d9273ffffffffffffffffffffffffffffffffffffffff6affffffffffffffffffffff6020965460081c16976040519860018a52878a015216604088015260e0606088015260e0870190612bc3565b908582036080870152612c0d565b83810360a0850152602435600401358152019060005b6024356004013581106107ba577f558b57994e63dd3105e23dd47f60a4074d50167448cd407bc457b8a29e3dab0d84806107b5868983820360c0850152612c0d565b0390a1005b909182359073ffffffffffffffffffffffffffffffffffffffff821680920361015c576020816001938293520193019101610773565b6001906020845194019381840155016106ef565b7f4e487b7100000000000000000000000000000000000000000000000000000000600052604160045260246000fd5b6001906020610841846130ce565b930192818501550161069a565b600190602084519401938184015501610646565b600190602073ffffffffffffffffffffffffffffffffffffffff85511694019381840155016105f7565b01519050878061053c565b9250600186016000526020600020906000935b7fffffffffffffffffffffffffffffffffffffffffffffffffffffffffffffffe0841685106109485760019450837fffffffffffffffffffffffffffffffffffffffffffffffffffffffffffffffe0811610610911575b505050811b016001840155610571565b01517fffffffffffffffffffffffffffffffffffffffffffffffffffffffffffffffff60f88460031b161c19169055878080610901565b818101518355602094850194600190930192909101906108aa565b61099390600188016000526020600020601f850160051c81019160208610610999575b601f0160051c01906130ef565b88610525565b9091508190610986565b90503d806000833e6109b58183612a57565b81019060208183031261015c5780519067ffffffffffffffff821161015c570181601f8201121561015c5780516109eb81612c41565b926109f96040519485612a57565b8184526020828401011161015c57610a179160208085019101612b5d565b866104fa565b6040513d6000823e3d90fd5b80602073ffffffffffffffffffffffffffffffffffffffff610a4d60049486613048565b5116604051938480927f313ce5670000000000000000000000000000000000000000000000000000000082525afa918215610a1d5760049260ff91600091610b4f575b5016610a9c8286613048565b52602073ffffffffffffffffffffffffffffffffffffffff610ac660248460051b813501016130ce565b16604051938480927f313ce5670000000000000000000000000000000000000000000000000000000082525afa918215610a1d57610b1b9260ff91600091610b20575b5016610b158289613048565b5261305c565b610498565b610b42915060203d602011610b48575b610b3a8183612a57565b8101906130b5565b89610b09565b503d610b30565b610b68915060203d602011610b4857610b3a8183612a57565b89610a90565b610b90915060203d602011610b96575b610b888183612a57565b810190613089565b86610470565b503d610b7e565b610bb6915060203d602011610b9657610b888183612a57565b866103f7565b60249073ffffffffffffffffffffffffffffffffffffffff604051917f48a979dc000000000000000000000000000000000000000000000000000000008352166004820152fd5b600181817fffffffffffffffffffffffffffffffffffffffffffffffffffffffffffffff008194161785557fffffffffffffffffffffffffffffffffffffffff0000000000000000000000006bffffffffffffffffffffff00835460081b169116171783554260078401558054680100000000000000008110156108045781610c8f9282018155612c7b565b81549060031b9073ffffffffffffffffffffffffffffffffffffffff821b809273ffffffffffffffffffffffffffffffffffffffff8616901b1691191617905561032b565b60246040517f47a51a28000000000000000000000000000000000000000000000000000000008152336004820152fd5b3461015c5760207ffffffffffffffffffffffffffffffffffffffffffffffffffffffffffffffffc36011261015c5760043560015481101561015c5773ffffffffffffffffffffffffffffffffffffffff610d626020926001612c7b565b9190546040519260031b1c168152f35b3461015c5760007ffffffffffffffffffffffffffffffffffffffffffffffffffffffffffffffffc36011261015c57610dca7f0000000000000000000000000000000000000000000000000000000000000000612de0565b60ff7f00000000000000000000000000000000000000000000000000000000000000001660120360ff8111610e1657602091610e08610e0e92612dcf565b90612d96565b604051908152f35b7f4e487b7100000000000000000000000000000000000000000000000000000000600052601160045260246000fd5b3461015c5760007ffffffffffffffffffffffffffffffffffffffffffffffffffffffffffffffffc36011261015c576020604051611c208152f35b3461015c5760007ffffffffffffffffffffffffffffffffffffffffffffffffffffffffffffffffc36011261015c5760206affffffffffffffffffffff60015416604051908152f35b3461015c5760007ffffffffffffffffffffffffffffffffffffffffffffffffffffffffffffffffc36011261015c5760206040516402540be4008152f35b3461015c5760007ffffffffffffffffffffffffffffffffffffffffffffffffffffffffffffffffc36011261015c57602060405173ffffffffffffffffffffffffffffffffffffffff7f0000000000000000000000000000000000000000000000000000000000000000168152f35b3461015c5760007ffffffffffffffffffffffffffffffffffffffffffffffffffffffffffffffffc36011261015c57602060405160088152f35b3461015c5760207ffffffffffffffffffffffffffffffffffffffffffffffffffffffffffffffffc36011261015c5760043573ffffffffffffffffffffffffffffffffffffffff811680910361015c57806000526000602052604060002060ff815416156112c557600381019161102683612cc2565b9161103360048201612d27565b93549061103f82612ff9565b9061104983612ff9565b926004604061105783612ff9565b968151928380927fc4a7761e0000000000000000000000000000000000000000000000000000000082525afa8015610a1d5760009160009161128c575b506110a3600187959495613048565b526110af600086613048565b526110d97f0000000000000000000000000000000000000000000000000000000000000000612de0565b9060009060ff807f000000000000000000000000000000000000000000000000000000000000000016601203115b848310611172576111368961116e8a6111608e6111528d6111448e604051998a9960a08b5260a08b0190612bc3565b9089820360208b0152612c0d565b908782036040890152612c0d565b908582036060870152612c0d565b908382036080850152612c0d565b0390f35b6111a473ffffffffffffffffffffffffffffffffffffffff6111978560058601612c7b565b90549060031b1c16612de0565b90610e16576111f490670de0b6b3a76400006111ee6111e860ff7f000000000000000000000000000000000000000000000000000000000000000016601203612dcf565b87612d83565b91613811565b6111fe8387613048565b5261128661120c8387613048565b519261127c61126061124f60009661124960ff7f000000000000000000000000000000000000000000000000000000000000000016601203612dcf565b90612d83565b611259848c613048565b5190612d83565b610e086112708460048801612c7b565b90549060031b1c612e05565b610b15828b613048565b91611107565b9150506040813d6040116112bd575b816112a860409383612a57565b8101031261015c576020815191015189611094565b3d915061129b565b602482604051907ffb642b4d0000000000000000000000000000000000000000000000000000000082526004820152fd5b3461015c5760007ffffffffffffffffffffffffffffffffffffffffffffffffffffffffffffffffc36011261015c5761116e6113326005612c41565b61133f6040519182612a57565b600581527f312e302e300000000000000000000000000000000000000000000000000000006020820152604051918291602083526020830190612b80565b3461015c5760007ffffffffffffffffffffffffffffffffffffffffffffffffffffffffffffffffc36011261015c5760206040517f8e3c92e4000000000000000000000000000000000000000000000000000000008152f35b3461015c5760207ffffffffffffffffffffffffffffffffffffffffffffffffffffffffffffffffc36011261015c5760043573ffffffffffffffffffffffffffffffffffffffff811680910361015c57600061010060405161143a61012082612a57565b8281528260208201526060604082015282606082015260606080820152606060a0820152606060c0820152606060e082015201526000526000602052604060002060405161148a61012082612a57565b6affffffffffffffffffffff825460ff81161515835260081c1660208201526114b560018301612a98565b604082015273ffffffffffffffffffffffffffffffffffffffff60028301541660608201526114e660038301612cc2565b60808201526114f760048301612d27565b60a08201526005820191604051806020855491828152019460005260206000209060005b8181106116865750505061153481600794950382612a57565b60c084015261154560068201612d27565b60e08401520154610100820152604051602081528151151560208201526affffffffffffffffffffff602083015116604082015261159460408301516101206060840152610140830190612b80565b9173ffffffffffffffffffffffffffffffffffffffff60608201511660808301526116066115f26080830151947fffffffffffffffffffffffffffffffffffffffffffffffffffffffffffffffe095868683030160a0870152612bc3565b60a0830151858583030160c0860152612c0d565b9260c082015193818482030160e08501526020808651928381520195019060005b81811061165a5750505061164d83946101009260e0850151908683030184870152612c0d565b9101516101208301520390f35b825173ffffffffffffffffffffffffffffffffffffffff16875260209687019690920191600101611627565b825473ffffffffffffffffffffffffffffffffffffffff1687526020909601956001928301920161151b565b3461015c5760007ffffffffffffffffffffffffffffffffffffffffffffffffffffffffffffffffc36011261015c57602060405160ff7f0000000000000000000000000000000000000000000000000000000000000000168152f35b3461015c5760207ffffffffffffffffffffffffffffffffffffffffffffffffffffffffffffffffc36011261015c5773ffffffffffffffffffffffffffffffffffffffff600435166004350361015c5760405161176c608082612a57565b6000815260006020820152600060408201526000606082015260405160208101917f8e3c92e40000000000000000000000000000000000000000000000000000000083526000602483015260006044830152600060648301526000608483015260a482016000905b6004821061203657600080868661010481526117f261012482612a57565b5190600435612710fa503d1561202f573d61180c81612c41565b9061181a6040519283612a57565b81523d6000602083013e5b516120055773ffffffffffffffffffffffffffffffffffffffff600435166000526000602052604060002060ff81541615611fbd5760058101600461189273ffffffffffffffffffffffffffffffffffffffff611197600161188c83611197600089612c7b565b95612c7b565b9201906118b260016118a5600085612c7b565b90549060031b1c93612c7b565b90549060031b1c906118cc6118c683612e05565b82612d83565b8060601b908082046c010000000000000000000000001490151715610e165761190461190991610e086118fe87612e05565b88612d83565b6138eb565b60301b74010000000000000000000000000000000000000000811015611faf576040517f16f0115b00000000000000000000000000000000000000000000000000000000815260208160048173ffffffffffffffffffffffffffffffffffffffff8235165afa908115610a1d57600091611f60575b506040517ffa08274300000000000000000000000000000000000000000000000000000000815260208160048173ffffffffffffffffffffffffffffffffffffffff8235165afa908115610a1d57600091611f41575b50604051907f888a913400000000000000000000000000000000000000000000000000000000825260208260048173ffffffffffffffffffffffffffffffffffffffff8235165afa918215610a1d57600092611f04575b506fffffffffffffffffffffffffffffffff80611a7f83611a75611a568888611a8798600435612efa565b98909373ffffffffffffffffffffffffffffffffffffffff8c16612e39565b9490911690612e13565b931690612e13565b92604051927f51e87af700000000000000000000000000000000000000000000000000000000845260208460048173ffffffffffffffffffffffffffffffffffffffff8235165afa938415610a1d57600094611ee3575b506040517f0f35bcac00000000000000000000000000000000000000000000000000000000815260208160048173ffffffffffffffffffffffffffffffffffffffff8235165afa8015610a1d57611b8993611a7573ffffffffffffffffffffffffffffffffffffffff611b81936fffffffffffffffffffffffffffffffff968796600092611eae575b50611b7690828c600435612efa565b9b9193909516612e39565b941690612e13565b9173ffffffffffffffffffffffffffffffffffffffff6004351660005260006020526024602073ffffffffffffffffffffffffffffffffffffffff611bd5600060036040822001612c7b565b90549060031b1c16604051928380927f70a0823100000000000000000000000000000000000000000000000000000000825273ffffffffffffffffffffffffffffffffffffffff6004351660048301525afa908115610a1d57600091611e7a575b50611c4992611c4491612e13565b612e13565b9173ffffffffffffffffffffffffffffffffffffffff6004351660005260006020526024602073ffffffffffffffffffffffffffffffffffffffff611c9660016003604060002001612c7b565b90549060031b1c16604051928380927f70a0823100000000000000000000000000000000000000000000000000000000825273ffffffffffffffffffffffffffffffffffffffff6004351660048301525afa908115610a1d57600091611e3e575b5095610e08611d21611d2195611d1b610e089896611c44611d1b97611d279d612e13565b95612d83565b91612e05565b90604051907f18160ddd00000000000000000000000000000000000000000000000000000000825260208260048173ffffffffffffffffffffffffffffffffffffffff8235165afa908115610a1d57600091611e08575b611d9c9250611d97670de0b6b3a7640000948592612e13565b613811565b611dc57f0000000000000000000000000000000000000000000000000000000000000000612de0565b9060ff7f0000000000000000000000000000000000000000000000000000000000000000166012039260ff8411610e16576111ee610e0e93611249602096612dcf565b90506020823d602011611e36575b81611e2360209383612a57565b8101031261015c57611d9c915190611d7e565b3d9150611e16565b94929690506020853d602011611e72575b81611e5c60209383612a57565b8101031261015c57935193959193610e08611cf7565b3d9150611e4f565b90506020813d602011611ea6575b81611e9560209383612a57565b8101031261015c5751611c49611c36565b3d9150611e88565b611b76919250611ed59060203d602011611edc575b611ecd8183612a57565b810190612e20565b9190611b67565b503d611ec3565b611efd91945060203d602011611edc57611ecd8183612a57565b9289611ade565b611a879192506fffffffffffffffffffffffffffffffff611a7f611f37829360203d602011611edc57611ecd8183612a57565b9493505050611a2b565b611f5a915060203d602011611edc57611ecd8183612a57565b876119d4565b90506020813d602011611fa7575b81611f7b60209383612a57565b8101031261015c575173ffffffffffffffffffffffffffffffffffffffff8116810361015c578661197e565b3d9150611f6e565b6335278d126000526004601cfd5b60246040517ffb642b4d00000000000000000000000000000000000000000000000000000000815273ffffffffffffffffffffffffffffffffffffffff600435166004820152fd5b60046040517f47a08e96000000000000000000000000000000000000000000000000000000008152fd5b6060611825565b60208060019285518152019301910190916117d4565b3461015c5760607ffffffffffffffffffffffffffffffffffffffffffffffffffffffffffffffffc36011261015c576714057b7ef767814f670de0b6b3a76400006120b3828261209d600435613a39565b020483836120ac602435613a39565b0204612d76565b6301e1338090818102918183041490151715610e16576120d69060443590612d96565b91680736ea4425c11ac631831015612983576706f05b59d3b20000908293020104680a688906bd8b00000081101561295257819060401b0490778000000000000000000000000000000000000000000000006780000000000000008316612933575b6740000000000000008316612920575b672000000000000000831661290d575b67100000000000000083166128fa575b67080000000000000083166128e7575b67040000000000000083166128d4575b67020000000000000083166128c1575b67010000000000000083166128ae575b6680000000000000831661289b575b66400000000000008316612888575b66200000000000008316612875575b66100000000000008316612862575b6608000000000000831661284f575b6604000000000000831661283c575b66020000000000008316612829575b66010000000000008316612816575b658000000000008316612803575b6540000000000083166127f0575b6520000000000083166127dd575b6510000000000083166127ca575b6508000000000083166127b7575b6504000000000083166127a4575b650200000000008316612791575b65010000000000831661277e575b648000000000831661276b575b6440000000008316612758575b6420000000008316612745575b6410000000008316612732575b640800000000831661271f575b640400000000831661270c575b64020000000083166126f9575b64010000000083166126e6575b638000000083166126d3575b634000000083166126c0575b632000000083166126ad575b6310000000831661269a575b63080000008316612687575b63040000008316612674575b63020000008316612661575b6301000000831661264e575b62800000831661263b575b624000008316612628575b622000008316612615575b621000008316612602575b6208000083166125ef575b6204000083166125dc575b6202000083166125c9575b6201000083166125b6575b61800083166125a3575b6140008316612590575b612000831661257d575b611000831661256a575b6108008316612557575b6104008316612544575b6102008316612531575b610100831661251e575b6080831661250b575b604083166124f8575b602083166124e5575b601083166124d2575b600883166124bf575b600483166124ac575b60028316612499575b60018316612486575b029060401c60bf031c7ffffffffffffffffffffffffffffffffffffffffffffffffff21f494c589c00008101908111610e1657602090604051908152f35b680100000000000000010260401c612448565b680100000000000000010260401c61243f565b680100000000000000030260401c612436565b680100000000000000060260401c61242d565b6801000000000000000b0260401c612424565b680100000000000000160260401c61241b565b6801000000000000002c0260401c612412565b680100000000000000590260401c612409565b680100000000000000b10260401c612400565b680100000000000001630260401c6123f6565b680100000000000002c60260401c6123ec565b6801000000000000058c0260401c6123e2565b68010000000000000b170260401c6123d8565b6801000000000000162e0260401c6123ce565b68010000000000002c5d0260401c6123c4565b680100000000000058b90260401c6123ba565b6801000000000000b1720260401c6123b0565b680100000000000162e40260401c6123a5565b6801000000000002c5c80260401c61239a565b68010000000000058b910260401c61238f565b680100000000000b17210260401c612384565b68010000000000162e430260401c612379565b680100000000002c5c860260401c61236e565b6801000000000058b90c0260401c612363565b68010000000000b172180260401c612358565b6801000000000162e4300260401c61234c565b68010000000002c5c8600260401c612340565b680100000000058b90c00260401c612334565b6801000000000b17217f0260401c612328565b680100000000162e42ff0260401c61231c565b6801000000002c5c85fe0260401c612310565b68010000000058b90bfc0260401c612304565b680100000000b17217f80260401c6122f8565b68010000000162e42ff10260401c6122eb565b680100000002c5c85fe30260401c6122de565b6801000000058b90bfce0260401c6122d1565b68010000000b17217fbb0260401c6122c4565b6801000000162e42fff00260401c6122b7565b68010000002c5c8601cc0260401c6122aa565b680100000058b90c0b490260401c61229d565b6801000000b1721835510260401c612290565b680100000162e430e5a20260401c612282565b6801000002c5c863b73f0260401c612274565b68010000058b90cf1e6e0260401c612266565b680100000b1721bcfc9a0260401c612258565b68010000162e43f4f8310260401c61224a565b680100002c5c89d5ec6d0260401c61223c565b6801000058b91b5bc9ae0260401c61222e565b68010000b17255775c040260401c612220565b6801000162e525ee05470260401c612211565b68010002c5cc37da94920260401c612202565b680100058ba01fb9f96d0260401c6121f3565b6801000b175effdc76ba0260401c6121e4565b680100162f3904051fa10260401c6121d5565b6801002c605e2e8cec500260401c6121c6565b68010058c86da1c09ea20260401c6121b7565b680100b1afa5abcbed610260401c6121a8565b68010163da9fb33356d80260401c612198565b680102c9a3e778060ee70260401c612188565b6801059b0d31585743ae0260401c612178565b68010b5586cf9890f62a0260401c612168565b6801172b83c7d517adce0260401c612158565b6801306fe0a31b7152df0260401c612148565b5077b504f333f9de648480000000000000000000000000000000612138565b602490604051907f4a4f26f10000000000000000000000000000000000000000000000000000000082526004820152fd5b602483604051907f315da0680000000000000000000000000000000000000000000000000000000082526004820152fd5b3461015c5760007ffffffffffffffffffffffffffffffffffffffffffffffffffffffffffffffffc36011261015c5761116e6129f06002612a98565b604051918291602083526020830190612b80565b90600182811c92168015612a4d575b6020831014612a1e57565b7f4e487b7100000000000000000000000000000000000000000000000000000000600052602260045260246000fd5b91607f1691612a13565b90601f7fffffffffffffffffffffffffffffffffffffffffffffffffffffffffffffffe0910116810190811067ffffffffffffffff82111761080457604052565b9060405191826000825492612aac84612a04565b908184526001948581169081600014612b1b5750600114612ad8575b5050612ad692500383612a57565b565b9093915060005260209081600020936000915b818310612b03575050612ad693508201013880612ac8565b85548884018501529485019487945091830191612aeb565b9050612ad69550602093507fffffffffffffffffffffffffffffffffffffffffffffffffffffffffffffff0091501682840152151560051b8201013880612ac8565b60005b838110612b705750506000910152565b8181015183820152602001612b60565b907fffffffffffffffffffffffffffffffffffffffffffffffffffffffffffffffe0601f602093612bbc81518092818752878088019101612b5d565b0116010190565b90815180825260208080930193019160005b828110612be3575050505090565b835173ffffffffffffffffffffffffffffffffffffffff1685529381019392810192600101612bd5565b90815180825260208080930193019160005b828110612c2d575050505090565b835185529381019392810192600101612c1f565b67ffffffffffffffff811161080457601f017fffffffffffffffffffffffffffffffffffffffffffffffffffffffffffffffe01660200190565b8054821015612c935760005260206000200190600090565b7f4e487b7100000000000000000000000000000000000000000000000000000000600052603260045260246000fd5b9060405191828154918282526020928383019160005283600020936000905b828210612cf757505050612ad692500383612a57565b855473ffffffffffffffffffffffffffffffffffffffff1684526001958601958895509381019390910190612ce1565b9060405191828154918282526020928383019160005283600020936000905b828210612d5c57505050612ad692500383612a57565b855484526001958601958895509381019390910190612d46565b91908203918211610e1657565b81810292918115918404141715610e1657565b8115612da0570490565b7f4e487b7100000000000000000000000000000000000000000000000000000000600052601260045260246000fd5b60ff16604d8111610e1657600a0a90565b604060006004601c6402540be4009463feaf968c84525afa601f3d1116602051020290565b604d8111610e1657600a0a90565b91908201809211610e1657565b9081602091031261015c57518060020b810361015c5790565b93929190612e49612e4f91613219565b91613219565b6000949091908573ffffffffffffffffffffffffffffffffffffffff848482821683821611612ed2575b5050828116908481168211612e9b575050505090612e97929161314f565b9190565b90919294809498501611600014612ec6575090612ebd83612ec394938361314f565b946131bd565b90565b94612ec39392506131bd565b955093503880612e79565b51906fffffffffffffffffffffffffffffffff8216820361015c57565b909260c09273ffffffffffffffffffffffffffffffffffffffff60249260405196879586947f514ea4bf00000000000000000000000000000000000000000000000000000000865262ffffff80911692169060181b1760181b176004840152165afa908115610a1d5760009182918391612f75575b50909192565b9291505060c0823d8211612fd9575b81612f9160c09383612a57565b81010312612fd657612fa282612edd565b90602083015163ffffffff811603612fd65750612fcd60a0612fc660808501612edd565b9301612edd565b90919038612f6f565b80fd5b3d9150612f84565b67ffffffffffffffff81116108045760051b60200190565b9061300382612fe1565b6130106040519182612a57565b8281527fffffffffffffffffffffffffffffffffffffffffffffffffffffffffffffffe061303e8294612fe1565b0190602036910137565b8051821015612c935760209160051b010190565b7fffffffffffffffffffffffffffffffffffffffffffffffffffffffffffffffff8114610e165760010190565b9081602091031261015c575173ffffffffffffffffffffffffffffffffffffffff8116810361015c5790565b9081602091031261015c575160ff8116810361015c5790565b3573ffffffffffffffffffffffffffffffffffffffff8116810361015c5790565b8181106130fa575050565b600081556001016130ef565b9181811061311357505050565b612ad692600052602060002091820191016130ef565b73ffffffffffffffffffffffffffffffffffffffff9182169082160391908211610e1657565b906131af612ec39373ffffffffffffffffffffffffffffffffffffffff92838116848616116131b7575b7bffffffffffffffffffffffffffffffff00000000000000000000000084806131a28885613129565b1692169260601b16613811565b911690612d96565b93613179565b916fffffffffffffffffffffffffffffffff6c010000000000000000000000009261320b612ec39573ffffffffffffffffffffffffffffffffffffffff928381168483161161321357613129565b169116613811565b90613129565b60020b600081121561380b577f80000000000000000000000000000000000000000000000000000000000000008114610e1657806000035b620d89e881116137ad5760018116156137845770ffffffffffffffffffffffffffffffffff6ffffcb933bd6fad37aa2d162d1a5940015b169160028216613758575b60049182811661372c575b60088116613700575b601081166136d4575b602081166136a8575b6040811661367c575b608090818116613651575b6101008116613626575b61020081166135fb575b61040081166135d0575b61080081166135a5575b611000811661357a575b612000811661354f575b6140008116613524575b61800081166134f9575b6201000081166134ce575b6202000081166134a4575b62040000811661344d575b62080000166133f5575b50600012613396575b5061338973ffffffffffffffffffffffffffffffffffffffff9163ffffffff81161560001461338d5760ff60005b169060201c612e13565b1690565b60ff600161337f565b81156133c757507fffffffffffffffffffffffffffffffffffffffffffffffffffffffffffffffff04613389613351565b6012907f4e487b71000000000000000000000000000000000000000000000000000000006000525260246000fd5b6b048a170391f7dc42444e8fa29391939182810292818404149015171561341f571c916000613348565b6011837f4e487b71000000000000000000000000000000000000000000000000000000006000525260246000fd5b936d2216e584f5fa1ea926041bedfe989081810291818304149015171561347657811c9361333e565b6011847f4e487b71000000000000000000000000000000000000000000000000000000006000525260246000fd5b936e5d6af8dedb81196699c329225ee6049081810291818304149015171561347657811c93613333565b936f09aa508b5b7a84e1c677de54f3e99bc99081810291818304149015171561347657811c93613328565b936f31be135f97d08fd981231505542fcfa69081810291818304149015171561347657811c9361331d565b936f70d869a156d2a1b890bb3df62baf32f79081810291818304149015171561347657811c93613313565b936fa9f746462d870fdf8a65dc1f90e061e59081810291818304149015171561347657811c93613309565b936fd097f3bdfd2022b8845ad8f792aa58259081810291818304149015171561347657811c936132ff565b936fe7159475a2c29b7443b29c7fa6e889d99081810291818304149015171561347657811c936132f5565b936ff3392b0822b70005940c7a398e4b70f39081810291818304149015171561347657811c936132eb565b936ff987a7253ac413176f2b074cf7815e549081810291818304149015171561347657811c936132e1565b936ffcbe86c7900a88aedcffc83b479aa3a49081810291818304149015171561347657811c936132d7565b936ffe5dee046a99a2a811c461f1969c30539081810291818304149015171561347657811c936132cd565b926fff2ea16466c96a3843ec78b326b528619081810291818304149015171561341f5760801c926132c2565b926fff973b41fa98c081472e6896dfb254c09081810291818304149015171561341f5760801c926132b9565b926fffcb9843d60f6159c9db58835c9266449081810291818304149015171561341f5760801c926132b0565b926fffe5caca7e10e4e61c3624eaa0941cd09081810291818304149015171561341f5760801c926132a7565b926ffff2e50f5f656932ef12357cf3c7fdcc9081810291818304149015171561341f5760801c9261329e565b916ffff97272373d413259a46990580e213a90818102918183041490151715610e165760801c91613293565b70ffffffffffffffffffffffffffffffffff700100000000000000000000000000000000613288565b60646040517f08c379a000000000000000000000000000000000000000000000000000000000815260206004820152600160248201527f54000000000000000000000000000000000000000000000000000000000000006044820152fd5b80613251565b90917fffffffffffffffffffffffffffffffffffffffffffffffffffffffffffffffff83830992808302928380861095039480860395146138de57828510156138a757908291096001821901821680920460028082600302188083028203028083028203028083028203028083028203028083028203028092029003029360018380600003040190848311900302920304170290565b60448584604051917f773cc18c00000000000000000000000000000000000000000000000000000000835260048301526024820152fd5b505090612ec39250612d96565b8015613a3357806001700100000000000000000000000000000000831015613a1d575b600882680100000000000000006139c5941015613a10575b640100000000811015613a03575b620100008110156139f7575b6101008110156139eb575b60108110156139de575b10156139d6575b6139668184612d96565b0160011c6139748184612d96565b0160011c6139828184612d96565b0160011c6139908184612d96565b0160011c61399e8184612d96565b0160011c6139ac8184612d96565b0160011c6139ba8184612d96565b0160011c8092612d96565b908181106139d1575090565b905090565b60011b61395c565b60041c9160021b91613955565b811c9160041b9161394b565b60101c91811b91613940565b60201c9160101b91613934565b60401c9160201b91613926565b5050608081901c6801000000000000000061390e565b50600090565b90670de0b6b3a7640000808310613bae57600092818104700100000000000000000000000000000000811015613ba3575b68010000000000000000811015613b8e575b640100000000811015613b79575b62010000811015613b64575b610100811015613b4f575b6010811015613b3a575b6004811015613b25575b60021115613b13575b818402931c90808214613b0f576706f05b59d3b2000091825b613ae057505050565b808291020491671bc16d674ec80000831015613b01575b60011c9182613ad7565b809294019360011c91613af7565b5050565b9260018101809111610e165792613abe565b60021c9360028101809111610e165793613ab5565b60041c9360048101809111610e165793613aab565b60081c9360088101809111610e165793613aa1565b60101c9360108101809111610e165793613a96565b60201c9360208101809111610e165793613a8a565b60401c9360408101809111610e165793613a7c565b60809450841c613a6a565b602483604051907fd88504dc0000000000000000000000000000000000000000000000000000000082526004820152fdfea164736f6c6343000811000a","opcodes":"PUSH2 0x100 DUP1 PUSH1 0x40 MSTORE CALLVALUE PUSH3 0x209 JUMPI PUSH1 0x60 DUP2 PUSH3 0x3E35 DUP1 CODESIZE SUB DUP1 SWAP2 PUSH3 0x24 DUP3 DUP6 PUSH3 0x20E JUMP JUMPDEST DUP4 CODECOPY DUP2 ADD SUB SLT PUSH3 0x209 JUMPI DUP1 MLOAD PUSH1 0x1 PUSH1 0x1 PUSH1 0xA0 SHL SUB SWAP2 SWAP1 DUP3 DUP2 AND DUP1 DUP3 SUB PUSH3 0x209 JUMPI PUSH1 0x20 SWAP2 DUP3 DUP5 ADD MLOAD SWAP4 DUP6 DUP6 AND DUP6 SUB PUSH3 0x209 JUMPI PUSH1 0x40 ADD MLOAD SWAP5 DUP6 AND DUP6 SUB PUSH3 0x209 JUMPI PUSH1 0x2 SLOAD SWAP1 PUSH1 0x1 DUP1 DUP4 DUP2 SHR SWAP4 AND DUP1 ISZERO PUSH3 0x1FE JUMPI JUMPDEST DUP6 DUP5 LT EQ PUSH3 0x1E8 JUMPI DUP3 PUSH1 0x1F DUP7 SWAP5 GT PUSH3 0x1AF JUMPI JUMPDEST POP POP PUSH32 0x4379676E75733A2048797065727669736F72204E6562756C6100000000000032 PUSH1 0x2 SSTORE PUSH1 0x80 MSTORE PUSH1 0x40 MLOAD PUSH4 0x313CE567 PUSH1 0xE0 SHL DUP2 MSTORE SWAP2 DUP3 SWAP1 PUSH1 0x4 SWAP1 DUP3 SWAP1 GAS STATICCALL SWAP2 DUP3 ISZERO PUSH3 0x1A3 JUMPI PUSH1 0x0 SWAP3 PUSH3 0x15E JUMPI JUMPDEST POP POP PUSH1 0xA0 MSTORE PUSH1 0xC0 MSTORE PUSH1 0xE0 MSTORE PUSH1 0x40 MLOAD PUSH2 0x3BEC SWAP1 DUP2 PUSH3 0x249 DUP3 CODECOPY PUSH1 0x80 MLOAD DUP2 PUSH2 0x138 ADD MSTORE PUSH1 0xA0 MLOAD DUP2 DUP2 DUP2 PUSH2 0xDCE ADD MSTORE DUP2 DUP2 PUSH2 0x10E2 ADD MSTORE DUP2 DUP2 PUSH2 0x11C0 ADD MSTORE DUP2 DUP2 PUSH2 0x1221 ADD MSTORE DUP2 DUP2 PUSH2 0x16EA ADD MSTORE PUSH2 0x1DCA ADD MSTORE PUSH1 0xC0 MLOAD DUP2 DUP2 DUP2 PUSH2 0xDA6 ADD MSTORE DUP2 DUP2 PUSH2 0xF52 ADD MSTORE DUP2 DUP2 PUSH2 0x10B5 ADD MSTORE PUSH2 0x1DA1 ADD MSTORE PUSH1 0xE0 MLOAD DUP2 DUP2 DUP2 PUSH2 0x1E9 ADD MSTORE PUSH2 0x2BB ADD MSTORE RETURN JUMPDEST DUP2 DUP2 RETURNDATASIZE DUP4 GT PUSH3 0x19B JUMPI JUMPDEST PUSH3 0x175 DUP2 DUP4 PUSH3 0x20E JUMP JUMPDEST DUP2 ADD SUB SLT PUSH3 0x197 JUMPI MLOAD SWAP1 PUSH1 0xFF DUP3 AND DUP3 SUB PUSH3 0x194 JUMPI POP CODESIZE DUP1 PUSH3 0xE0 JUMP JUMPDEST DUP1 REVERT JUMPDEST POP DUP1 REVERT JUMPDEST POP RETURNDATASIZE PUSH3 0x169 JUMP JUMPDEST PUSH1 0x40 MLOAD RETURNDATASIZE PUSH1 0x0 DUP3 RETURNDATACOPY RETURNDATASIZE SWAP1 REVERT JUMPDEST SWAP4 SWAP2 SWAP1 PUSH1 0x2 PUSH1 0x0 MSTORE PUSH1 0x1F DUP5 PUSH1 0x0 KECCAK256 SWAP6 ADD PUSH1 0x5 SHR DUP6 ADD SWAP5 JUMPDEST DUP6 DUP2 LT PUSH3 0x1D9 JUMPI POP DUP2 SWAP3 SWAP5 POP PUSH3 0x8F JUMP JUMPDEST PUSH1 0x0 DUP2 SSTORE DUP7 SWAP5 POP DUP2 ADD PUSH3 0x1C6 JUMP JUMPDEST PUSH4 0x4E487B71 PUSH1 0xE0 SHL PUSH1 0x0 MSTORE PUSH1 0x22 PUSH1 0x4 MSTORE PUSH1 0x24 PUSH1 0x0 REVERT JUMPDEST SWAP3 PUSH1 0x7F AND SWAP3 PUSH3 0x7A JUMP JUMPDEST PUSH1 0x0 DUP1 REVERT JUMPDEST PUSH1 0x1F SWAP1 SWAP2 ADD PUSH1 0x1F NOT AND DUP2 ADD SWAP1 PUSH1 0x1 PUSH1 0x1 PUSH1 0x40 SHL SUB DUP3 GT SWAP1 DUP3 LT OR PUSH3 0x232 JUMPI PUSH1 0x40 MSTORE JUMP JUMPDEST PUSH4 0x4E487B71 PUSH1 0xE0 SHL PUSH1 0x0 MSTORE PUSH1 0x41 PUSH1 0x4 MSTORE PUSH1 0x24 PUSH1 0x0 REVERT INVALID PUSH1 0x80 PUSH1 0x40 MSTORE PUSH1 0x4 CALLDATASIZE LT ISZERO PUSH2 0x12 JUMPI PUSH1 0x0 DUP1 REVERT JUMPDEST PUSH1 0x0 CALLDATALOAD PUSH1 0xE0 SHR DUP1 PUSH4 0x6FDDE03 EQ PUSH2 0x29B4 JUMPI DUP1 PUSH4 0x131AD74E EQ PUSH2 0x204C JUMPI DUP1 PUSH4 0x17E5A1A1 EQ PUSH2 0x170E JUMPI DUP1 PUSH4 0x313CE567 EQ PUSH2 0x16B2 JUMPI DUP1 PUSH4 0x3EF096D3 EQ PUSH2 0x13D6 JUMPI DUP1 PUSH4 0x4BE1C796 EQ PUSH2 0x137D JUMPI DUP1 PUSH4 0x54FD4D50 EQ PUSH2 0x12F6 JUMPI DUP1 PUSH4 0x6CDEB028 EQ PUSH2 0xFB0 JUMPI DUP1 PUSH4 0x8A790CF2 EQ PUSH2 0xF76 JUMPI DUP1 PUSH4 0x8EB6F8F0 EQ PUSH2 0xF07 JUMPI DUP1 PUSH4 0x9FF631DD EQ PUSH2 0xEC9 JUMPI DUP1 PUSH4 0xBA3941E7 EQ PUSH2 0xE80 JUMPI DUP1 PUSH4 0xC1A287E2 EQ PUSH2 0xE45 JUMPI DUP1 PUSH4 0xCADBCC21 EQ PUSH2 0xD72 JUMPI DUP1 PUSH4 0xD02C70E8 EQ PUSH2 0xD04 JUMPI DUP1 PUSH4 0xD9BE8531 EQ PUSH2 0x20D JUMPI DUP1 PUSH4 0xE13D88AC EQ PUSH2 0x19E JUMPI DUP1 PUSH4 0xE6A69AB8 EQ PUSH2 0x161 JUMPI PUSH4 0xF6B9FDFB EQ PUSH2 0xED JUMPI PUSH1 0x0 DUP1 REVERT JUMPDEST CALLVALUE PUSH2 0x15C JUMPI PUSH1 0x0 PUSH32 0xFFFFFFFFFFFFFFFFFFFFFFFFFFFFFFFFFFFFFFFFFFFFFFFFFFFFFFFFFFFFFFFC CALLDATASIZE ADD SLT PUSH2 0x15C JUMPI PUSH1 0x20 PUSH1 0x40 MLOAD PUSH20 0xFFFFFFFFFFFFFFFFFFFFFFFFFFFFFFFFFFFFFFFF PUSH32 0x0 AND DUP2 MSTORE RETURN JUMPDEST PUSH1 0x0 DUP1 REVERT JUMPDEST CALLVALUE PUSH2 0x15C JUMPI PUSH1 0x0 PUSH32 0xFFFFFFFFFFFFFFFFFFFFFFFFFFFFFFFFFFFFFFFFFFFFFFFFFFFFFFFFFFFFFFFC CALLDATASIZE ADD SLT PUSH2 0x15C JUMPI PUSH1 0x20 PUSH1 0x40 MLOAD PUSH4 0x1E13380 DUP2 MSTORE RETURN JUMPDEST CALLVALUE PUSH2 0x15C JUMPI PUSH1 0x0 PUSH32 0xFFFFFFFFFFFFFFFFFFFFFFFFFFFFFFFFFFFFFFFFFFFFFFFFFFFFFFFFFFFFFFFC CALLDATASIZE ADD SLT PUSH2 0x15C JUMPI PUSH1 0x20 PUSH1 0x40 MLOAD PUSH20 0xFFFFFFFFFFFFFFFFFFFFFFFFFFFFFFFFFFFFFFFF PUSH32 0x0 AND DUP2 MSTORE RETURN JUMPDEST CALLVALUE PUSH2 0x15C JUMPI PUSH1 0x40 PUSH32 0xFFFFFFFFFFFFFFFFFFFFFFFFFFFFFFFFFFFFFFFFFFFFFFFFFFFFFFFFFFFFFFFC CALLDATASIZE ADD SLT PUSH2 0x15C JUMPI PUSH1 0x4 CALLDATALOAD PUSH20 0xFFFFFFFFFFFFFFFFFFFFFFFFFFFFFFFFFFFFFFFF DUP2 AND DUP2 SUB PUSH2 0x15C JUMPI PUSH8 0xFFFFFFFFFFFFFFFF PUSH1 0x24 CALLDATALOAD GT PUSH2 0x15C JUMPI CALLDATASIZE PUSH1 0x23 PUSH1 0x24 CALLDATALOAD ADD SLT ISZERO PUSH2 0x15C JUMPI PUSH8 0xFFFFFFFFFFFFFFFF PUSH1 0x24 CALLDATALOAD PUSH1 0x4 ADD CALLDATALOAD GT PUSH2 0x15C JUMPI CALLDATASIZE PUSH1 0x24 DUP1 CALLDATALOAD PUSH1 0x4 ADD CALLDATALOAD PUSH1 0x5 SHL DUP2 CALLDATALOAD ADD ADD GT PUSH2 0x15C JUMPI PUSH20 0xFFFFFFFFFFFFFFFFFFFFFFFFFFFFFFFFFFFFFFFF PUSH32 0x0 AND CALLER SUB PUSH2 0xCD4 JUMPI PUSH20 0xFFFFFFFFFFFFFFFFFFFFFFFFFFFFFFFFFFFFFFFF DUP2 AND PUSH1 0x0 MSTORE PUSH1 0x0 PUSH1 0x20 MSTORE PUSH1 0x40 PUSH1 0x0 KECCAK256 SWAP1 DUP2 SLOAD PUSH1 0xFF DUP2 AND PUSH1 0x0 EQ PUSH2 0xC03 JUMPI POP PUSH2 0x1C20 PUSH2 0x325 PUSH1 0x7 DUP5 ADD SLOAD TIMESTAMP PUSH2 0x2D76 JUMP JUMPDEST GT PUSH2 0xBBC JUMPI JUMPDEST PUSH2 0x33A PUSH1 0x24 CALLDATALOAD PUSH1 0x4 ADD CALLDATALOAD PUSH2 0x2FE1 JUMP JUMPDEST SWAP2 PUSH2 0x348 PUSH1 0x40 MLOAD SWAP4 DUP5 PUSH2 0x2A57 JUMP JUMPDEST PUSH1 0x4 PUSH1 0x24 CALLDATALOAD ADD CALLDATALOAD DUP1 DUP5 MSTORE PUSH32 0xFFFFFFFFFFFFFFFFFFFFFFFFFFFFFFFFFFFFFFFFFFFFFFFFFFFFFFFFFFFFFFE0 SWAP1 PUSH2 0x37D SWAP1 PUSH2 0x2FE1 JUMP JUMPDEST ADD CALLDATASIZE PUSH1 0x20 DUP6 ADD CALLDATACOPY PUSH2 0x393 PUSH1 0x24 CALLDATALOAD PUSH1 0x4 ADD CALLDATALOAD PUSH2 0x2FF9 JUMP JUMPDEST PUSH2 0x3A2 PUSH1 0x24 CALLDATALOAD PUSH1 0x4 ADD CALLDATALOAD PUSH2 0x2FF9 JUMP JUMPDEST SWAP4 PUSH1 0x40 MLOAD PUSH32 0xDFE168100000000000000000000000000000000000000000000000000000000 DUP2 MSTORE PUSH1 0x20 DUP2 PUSH1 0x4 DUP2 PUSH20 0xFFFFFFFFFFFFFFFFFFFFFFFFFFFFFFFFFFFFFFFF DUP10 AND GAS STATICCALL SWAP1 DUP2 ISZERO PUSH2 0xA1D JUMPI PUSH1 0x0 SWAP2 PUSH2 0xB9D JUMPI JUMPDEST POP PUSH20 0xFFFFFFFFFFFFFFFFFFFFFFFFFFFFFFFFFFFFFFFF PUSH2 0x418 PUSH1 0x0 DUP5 PUSH2 0x3048 JUMP JUMPDEST SWAP2 AND SWAP1 MSTORE PUSH1 0x40 MLOAD PUSH32 0xD21220A700000000000000000000000000000000000000000000000000000000 DUP2 MSTORE PUSH1 0x20 DUP2 PUSH1 0x4 DUP2 PUSH20 0xFFFFFFFFFFFFFFFFFFFFFFFFFFFFFFFFFFFFFFFF DUP10 AND GAS STATICCALL SWAP1 DUP2 ISZERO PUSH2 0xA1D JUMPI PUSH1 0x0 SWAP2 PUSH2 0xB6E JUMPI JUMPDEST POP PUSH20 0xFFFFFFFFFFFFFFFFFFFFFFFFFFFFFFFFFFFFFFFF PUSH2 0x491 PUSH1 0x1 DUP5 PUSH2 0x3048 JUMP JUMPDEST SWAP2 AND SWAP1 MSTORE PUSH1 0x0 JUMPDEST PUSH1 0x24 CALLDATALOAD PUSH1 0x4 ADD CALLDATALOAD DUP2 LT PUSH2 0xA29 JUMPI POP PUSH1 0x40 MLOAD PUSH32 0x6FDDE0300000000000000000000000000000000000000000000000000000000 DUP2 MSTORE PUSH1 0x0 DUP2 PUSH1 0x4 DUP2 PUSH20 0xFFFFFFFFFFFFFFFFFFFFFFFFFFFFFFFFFFFFFFFF DUP10 AND GAS STATICCALL SWAP1 DUP2 ISZERO PUSH2 0xA1D JUMPI PUSH1 0x0 SWAP2 PUSH2 0x9A3 JUMPI JUMPDEST POP DUP1 MLOAD SWAP1 PUSH8 0xFFFFFFFFFFFFFFFF DUP3 GT PUSH2 0x804 JUMPI DUP2 SWAP1 PUSH2 0x51C PUSH1 0x1 DUP8 ADD SLOAD PUSH2 0x2A04 JUMP JUMPDEST PUSH1 0x1F DUP2 GT PUSH2 0x963 JUMPI JUMPDEST POP PUSH1 0x20 SWAP1 PUSH1 0x1F DUP4 GT PUSH1 0x1 EQ PUSH2 0x897 JUMPI PUSH1 0x0 SWAP3 PUSH2 0x88C JUMPI JUMPDEST POP POP PUSH32 0xFFFFFFFFFFFFFFFFFFFFFFFFFFFFFFFFFFFFFFFFFFFFFFFFFFFFFFFFFFFFFFFF DUP3 PUSH1 0x1 SHL SWAP3 PUSH1 0x3 SHL SHR NOT AND OR PUSH1 0x1 DUP5 ADD SSTORE JUMPDEST PUSH1 0x2 DUP4 ADD PUSH20 0xFFFFFFFFFFFFFFFFFFFFFFFFFFFFFFFFFFFFFFFF DUP6 AND PUSH32 0xFFFFFFFFFFFFFFFFFFFFFFFF0000000000000000000000000000000000000000 DUP3 SLOAD AND OR SWAP1 SSTORE DUP1 MLOAD PUSH8 0xFFFFFFFFFFFFFFFF DUP2 GT PUSH2 0x804 JUMPI PUSH9 0x10000000000000000 DUP2 GT PUSH2 0x804 JUMPI PUSH1 0x3 DUP5 ADD PUSH2 0x5E7 DUP3 DUP3 SLOAD DUP2 DUP5 SSTORE DUP4 PUSH2 0x3106 JUMP JUMPDEST PUSH1 0x20 DUP4 ADD SWAP1 PUSH1 0x0 MSTORE PUSH1 0x20 PUSH1 0x0 KECCAK256 PUSH1 0x0 JUMPDEST DUP4 DUP2 LT PUSH2 0x862 JUMPI POP POP POP POP DUP2 MLOAD PUSH8 0xFFFFFFFFFFFFFFFF DUP2 GT PUSH2 0x804 JUMPI PUSH9 0x10000000000000000 DUP2 GT PUSH2 0x804 JUMPI PUSH1 0x4 DUP5 ADD PUSH2 0x636 DUP3 DUP3 SLOAD DUP2 DUP5 SSTORE DUP4 PUSH2 0x3106 JUMP JUMPDEST PUSH1 0x20 DUP5 ADD SWAP1 PUSH1 0x0 MSTORE PUSH1 0x20 PUSH1 0x0 KECCAK256 PUSH1 0x0 JUMPDEST DUP4 DUP2 LT PUSH2 0x84E JUMPI POP POP POP POP PUSH9 0x10000000000000000 PUSH1 0x24 CALLDATALOAD PUSH1 0x4 ADD CALLDATALOAD GT PUSH2 0x804 JUMPI PUSH1 0x5 DUP4 ADD DUP1 SLOAD PUSH1 0x4 PUSH1 0x24 CALLDATALOAD ADD CALLDATALOAD DUP1 DUP4 SSTORE PUSH2 0x683 SWAP3 SWAP1 SWAP2 SWAP1 PUSH2 0x3106 JUMP JUMPDEST PUSH1 0x24 DUP1 CALLDATALOAD ADD SWAP3 DUP4 PUSH1 0x5 DUP3 ADD PUSH1 0x0 MSTORE PUSH1 0x20 PUSH1 0x0 KECCAK256 SWAP1 PUSH1 0x0 JUMPDEST PUSH1 0x24 CALLDATALOAD PUSH1 0x4 ADD CALLDATALOAD DUP2 LT PUSH2 0x833 JUMPI POP POP POP PUSH1 0x6 DUP2 ADD DUP7 MLOAD SWAP1 PUSH8 0xFFFFFFFFFFFFFFFF DUP3 GT PUSH2 0x804 JUMPI PUSH9 0x10000000000000000 DUP3 GT PUSH2 0x804 JUMPI PUSH2 0x6DF DUP3 DUP3 SLOAD DUP2 DUP5 SSTORE DUP4 PUSH2 0x3106 JUMP JUMPDEST PUSH1 0x20 DUP9 ADD SWAP1 PUSH1 0x0 MSTORE PUSH1 0x20 PUSH1 0x0 KECCAK256 PUSH1 0x0 JUMPDEST DUP4 DUP2 LT PUSH2 0x7F0 JUMPI POP POP POP POP SWAP2 PUSH2 0x74F PUSH2 0x75D SWAP3 PUSH20 0xFFFFFFFFFFFFFFFFFFFFFFFFFFFFFFFFFFFFFFFF PUSH11 0xFFFFFFFFFFFFFFFFFFFFFF PUSH1 0x20 SWAP7 SLOAD PUSH1 0x8 SHR AND SWAP8 PUSH1 0x40 MLOAD SWAP9 PUSH1 0x1 DUP11 MSTORE DUP8 DUP11 ADD MSTORE AND PUSH1 0x40 DUP9 ADD MSTORE PUSH1 0xE0 PUSH1 0x60 DUP9 ADD MSTORE PUSH1 0xE0 DUP8 ADD SWAP1 PUSH2 0x2BC3 JUMP JUMPDEST SWAP1 DUP6 DUP3 SUB PUSH1 0x80 DUP8 ADD MSTORE PUSH2 0x2C0D JUMP JUMPDEST DUP4 DUP2 SUB PUSH1 0xA0 DUP6 ADD MSTORE PUSH1 0x24 CALLDATALOAD PUSH1 0x4 ADD CALLDATALOAD DUP2 MSTORE ADD SWAP1 PUSH1 0x0 JUMPDEST PUSH1 0x24 CALLDATALOAD PUSH1 0x4 ADD CALLDATALOAD DUP2 LT PUSH2 0x7BA JUMPI PUSH32 0x558B57994E63DD3105E23DD47F60A4074D50167448CD407BC457B8A29E3DAB0D DUP5 DUP1 PUSH2 0x7B5 DUP7 DUP10 DUP4 DUP3 SUB PUSH1 0xC0 DUP6 ADD MSTORE PUSH2 0x2C0D JUMP JUMPDEST SUB SWAP1 LOG1 STOP JUMPDEST SWAP1 SWAP2 DUP3 CALLDATALOAD SWAP1 PUSH20 0xFFFFFFFFFFFFFFFFFFFFFFFFFFFFFFFFFFFFFFFF DUP3 AND DUP1 SWAP3 SUB PUSH2 0x15C JUMPI PUSH1 0x20 DUP2 PUSH1 0x1 SWAP4 DUP3 SWAP4 MSTORE ADD SWAP4 ADD SWAP2 ADD PUSH2 0x773 JUMP JUMPDEST PUSH1 0x1 SWAP1 PUSH1 0x20 DUP5 MLOAD SWAP5 ADD SWAP4 DUP2 DUP5 ADD SSTORE ADD PUSH2 0x6EF JUMP JUMPDEST PUSH32 0x4E487B7100000000000000000000000000000000000000000000000000000000 PUSH1 0x0 MSTORE PUSH1 0x41 PUSH1 0x4 MSTORE PUSH1 0x24 PUSH1 0x0 REVERT JUMPDEST PUSH1 0x1 SWAP1 PUSH1 0x20 PUSH2 0x841 DUP5 PUSH2 0x30CE JUMP JUMPDEST SWAP4 ADD SWAP3 DUP2 DUP6 ADD SSTORE ADD PUSH2 0x69A JUMP JUMPDEST PUSH1 0x1 SWAP1 PUSH1 0x20 DUP5 MLOAD SWAP5 ADD SWAP4 DUP2 DUP5 ADD SSTORE ADD PUSH2 0x646 JUMP JUMPDEST PUSH1 0x1 SWAP1 PUSH1 0x20 PUSH20 0xFFFFFFFFFFFFFFFFFFFFFFFFFFFFFFFFFFFFFFFF DUP6 MLOAD AND SWAP5 ADD SWAP4 DUP2 DUP5 ADD SSTORE ADD PUSH2 0x5F7 JUMP JUMPDEST ADD MLOAD SWAP1 POP DUP8 DUP1 PUSH2 0x53C JUMP JUMPDEST SWAP3 POP PUSH1 0x1 DUP7 ADD PUSH1 0x0 MSTORE PUSH1 0x20 PUSH1 0x0 KECCAK256 SWAP1 PUSH1 0x0 SWAP4 JUMPDEST PUSH32 0xFFFFFFFFFFFFFFFFFFFFFFFFFFFFFFFFFFFFFFFFFFFFFFFFFFFFFFFFFFFFFFE0 DUP5 AND DUP6 LT PUSH2 0x948 JUMPI PUSH1 0x1 SWAP5 POP DUP4 PUSH32 0xFFFFFFFFFFFFFFFFFFFFFFFFFFFFFFFFFFFFFFFFFFFFFFFFFFFFFFFFFFFFFFE0 DUP2 AND LT PUSH2 0x911 JUMPI JUMPDEST POP POP POP DUP2 SHL ADD PUSH1 0x1 DUP5 ADD SSTORE PUSH2 0x571 JUMP JUMPDEST ADD MLOAD PUSH32 0xFFFFFFFFFFFFFFFFFFFFFFFFFFFFFFFFFFFFFFFFFFFFFFFFFFFFFFFFFFFFFFFF PUSH1 0xF8 DUP5 PUSH1 0x3 SHL AND SHR NOT AND SWAP1 SSTORE DUP8 DUP1 DUP1 PUSH2 0x901 JUMP JUMPDEST DUP2 DUP2 ADD MLOAD DUP4 SSTORE PUSH1 0x20 SWAP5 DUP6 ADD SWAP5 PUSH1 0x1 SWAP1 SWAP4 ADD SWAP3 SWAP1 SWAP2 ADD SWAP1 PUSH2 0x8AA JUMP JUMPDEST PUSH2 0x993 SWAP1 PUSH1 0x1 DUP9 ADD PUSH1 0x0 MSTORE PUSH1 0x20 PUSH1 0x0 KECCAK256 PUSH1 0x1F DUP6 ADD PUSH1 0x5 SHR DUP2 ADD SWAP2 PUSH1 0x20 DUP7 LT PUSH2 0x999 JUMPI JUMPDEST PUSH1 0x1F ADD PUSH1 0x5 SHR ADD SWAP1 PUSH2 0x30EF JUMP JUMPDEST DUP9 PUSH2 0x525 JUMP JUMPDEST SWAP1 SWAP2 POP DUP2 SWAP1 PUSH2 0x986 JUMP JUMPDEST SWAP1 POP RETURNDATASIZE DUP1 PUSH1 0x0 DUP4 RETURNDATACOPY PUSH2 0x9B5 DUP2 DUP4 PUSH2 0x2A57 JUMP JUMPDEST DUP2 ADD SWAP1 PUSH1 0x20 DUP2 DUP4 SUB SLT PUSH2 0x15C JUMPI DUP1 MLOAD SWAP1 PUSH8 0xFFFFFFFFFFFFFFFF DUP3 GT PUSH2 0x15C JUMPI ADD DUP2 PUSH1 0x1F DUP3 ADD SLT ISZERO PUSH2 0x15C JUMPI DUP1 MLOAD PUSH2 0x9EB DUP2 PUSH2 0x2C41 JUMP JUMPDEST SWAP3 PUSH2 0x9F9 PUSH1 0x40 MLOAD SWAP5 DUP6 PUSH2 0x2A57 JUMP JUMPDEST DUP2 DUP5 MSTORE PUSH1 0x20 DUP3 DUP5 ADD ADD GT PUSH2 0x15C JUMPI PUSH2 0xA17 SWAP2 PUSH1 0x20 DUP1 DUP6 ADD SWAP2 ADD PUSH2 0x2B5D JUMP JUMPDEST DUP7 PUSH2 0x4FA JUMP JUMPDEST PUSH1 0x40 MLOAD RETURNDATASIZE PUSH1 0x0 DUP3 RETURNDATACOPY RETURNDATASIZE SWAP1 REVERT JUMPDEST DUP1 PUSH1 0x20 PUSH20 0xFFFFFFFFFFFFFFFFFFFFFFFFFFFFFFFFFFFFFFFF PUSH2 0xA4D PUSH1 0x4 SWAP5 DUP7 PUSH2 0x3048 JUMP JUMPDEST MLOAD AND PUSH1 0x40 MLOAD SWAP4 DUP5 DUP1 SWAP3 PUSH32 0x313CE56700000000000000000000000000000000000000000000000000000000 DUP3 MSTORE GAS STATICCALL SWAP2 DUP3 ISZERO PUSH2 0xA1D JUMPI PUSH1 0x4 SWAP3 PUSH1 0xFF SWAP2 PUSH1 0x0 SWAP2 PUSH2 0xB4F JUMPI JUMPDEST POP AND PUSH2 0xA9C DUP3 DUP7 PUSH2 0x3048 JUMP JUMPDEST MSTORE PUSH1 0x20 PUSH20 0xFFFFFFFFFFFFFFFFFFFFFFFFFFFFFFFFFFFFFFFF PUSH2 0xAC6 PUSH1 0x24 DUP5 PUSH1 0x5 SHL DUP2 CALLDATALOAD ADD ADD PUSH2 0x30CE JUMP JUMPDEST AND PUSH1 0x40 MLOAD SWAP4 DUP5 DUP1 SWAP3 PUSH32 0x313CE56700000000000000000000000000000000000000000000000000000000 DUP3 MSTORE GAS STATICCALL SWAP2 DUP3 ISZERO PUSH2 0xA1D JUMPI PUSH2 0xB1B SWAP3 PUSH1 0xFF SWAP2 PUSH1 0x0 SWAP2 PUSH2 0xB20 JUMPI JUMPDEST POP AND PUSH2 0xB15 DUP3 DUP10 PUSH2 0x3048 JUMP JUMPDEST MSTORE PUSH2 0x305C JUMP JUMPDEST PUSH2 0x498 JUMP JUMPDEST PUSH2 0xB42 SWAP2 POP PUSH1 0x20 RETURNDATASIZE PUSH1 0x20 GT PUSH2 0xB48 JUMPI JUMPDEST PUSH2 0xB3A DUP2 DUP4 PUSH2 0x2A57 JUMP JUMPDEST DUP2 ADD SWAP1 PUSH2 0x30B5 JUMP JUMPDEST DUP10 PUSH2 0xB09 JUMP JUMPDEST POP RETURNDATASIZE PUSH2 0xB30 JUMP JUMPDEST PUSH2 0xB68 SWAP2 POP PUSH1 0x20 RETURNDATASIZE PUSH1 0x20 GT PUSH2 0xB48 JUMPI PUSH2 0xB3A DUP2 DUP4 PUSH2 0x2A57 JUMP JUMPDEST DUP10 PUSH2 0xA90 JUMP JUMPDEST PUSH2 0xB90 SWAP2 POP PUSH1 0x20 RETURNDATASIZE PUSH1 0x20 GT PUSH2 0xB96 JUMPI JUMPDEST PUSH2 0xB88 DUP2 DUP4 PUSH2 0x2A57 JUMP JUMPDEST DUP2 ADD SWAP1 PUSH2 0x3089 JUMP JUMPDEST DUP7 PUSH2 0x470 JUMP JUMPDEST POP RETURNDATASIZE PUSH2 0xB7E JUMP JUMPDEST PUSH2 0xBB6 SWAP2 POP PUSH1 0x20 RETURNDATASIZE PUSH1 0x20 GT PUSH2 0xB96 JUMPI PUSH2 0xB88 DUP2 DUP4 PUSH2 0x2A57 JUMP JUMPDEST DUP7 PUSH2 0x3F7 JUMP JUMPDEST PUSH1 0x24 SWAP1 PUSH20 0xFFFFFFFFFFFFFFFFFFFFFFFFFFFFFFFFFFFFFFFF PUSH1 0x40 MLOAD SWAP2 PUSH32 0x48A979DC00000000000000000000000000000000000000000000000000000000 DUP4 MSTORE AND PUSH1 0x4 DUP3 ADD MSTORE REVERT JUMPDEST PUSH1 0x1 DUP2 DUP2 PUSH32 0xFFFFFFFFFFFFFFFFFFFFFFFFFFFFFFFFFFFFFFFFFFFFFFFFFFFFFFFFFFFFFF00 DUP2 SWAP5 AND OR DUP6 SSTORE PUSH32 0xFFFFFFFFFFFFFFFFFFFFFFFFFFFFFFFFFFFFFFFF000000000000000000000000 PUSH12 0xFFFFFFFFFFFFFFFFFFFFFF00 DUP4 SLOAD PUSH1 0x8 SHL AND SWAP2 AND OR OR DUP4 SSTORE TIMESTAMP PUSH1 0x7 DUP5 ADD SSTORE DUP1 SLOAD PUSH9 0x10000000000000000 DUP2 LT ISZERO PUSH2 0x804 JUMPI DUP2 PUSH2 0xC8F SWAP3 DUP3 ADD DUP2 SSTORE PUSH2 0x2C7B JUMP JUMPDEST DUP2 SLOAD SWAP1 PUSH1 0x3 SHL SWAP1 PUSH20 0xFFFFFFFFFFFFFFFFFFFFFFFFFFFFFFFFFFFFFFFF DUP3 SHL DUP1 SWAP3 PUSH20 0xFFFFFFFFFFFFFFFFFFFFFFFFFFFFFFFFFFFFFFFF DUP7 AND SWAP1 SHL AND SWAP2 NOT AND OR SWAP1 SSTORE PUSH2 0x32B JUMP JUMPDEST PUSH1 0x24 PUSH1 0x40 MLOAD PUSH32 0x47A51A2800000000000000000000000000000000000000000000000000000000 DUP2 MSTORE CALLER PUSH1 0x4 DUP3 ADD MSTORE REVERT JUMPDEST CALLVALUE PUSH2 0x15C JUMPI PUSH1 0x20 PUSH32 0xFFFFFFFFFFFFFFFFFFFFFFFFFFFFFFFFFFFFFFFFFFFFFFFFFFFFFFFFFFFFFFFC CALLDATASIZE ADD SLT PUSH2 0x15C JUMPI PUSH1 0x4 CALLDATALOAD PUSH1 0x1 SLOAD DUP2 LT ISZERO PUSH2 0x15C JUMPI PUSH20 0xFFFFFFFFFFFFFFFFFFFFFFFFFFFFFFFFFFFFFFFF PUSH2 0xD62 PUSH1 0x20 SWAP3 PUSH1 0x1 PUSH2 0x2C7B JUMP JUMPDEST SWAP2 SWAP1 SLOAD PUSH1 0x40 MLOAD SWAP3 PUSH1 0x3 SHL SHR AND DUP2 MSTORE RETURN JUMPDEST CALLVALUE PUSH2 0x15C JUMPI PUSH1 0x0 PUSH32 0xFFFFFFFFFFFFFFFFFFFFFFFFFFFFFFFFFFFFFFFFFFFFFFFFFFFFFFFFFFFFFFFC CALLDATASIZE ADD SLT PUSH2 0x15C JUMPI PUSH2 0xDCA PUSH32 0x0 PUSH2 0x2DE0 JUMP JUMPDEST PUSH1 0xFF PUSH32 0x0 AND PUSH1 0x12 SUB PUSH1 0xFF DUP2 GT PUSH2 0xE16 JUMPI PUSH1 0x20 SWAP2 PUSH2 0xE08 PUSH2 0xE0E SWAP3 PUSH2 0x2DCF JUMP JUMPDEST SWAP1 PUSH2 0x2D96 JUMP JUMPDEST PUSH1 0x40 MLOAD SWAP1 DUP2 MSTORE RETURN JUMPDEST PUSH32 0x4E487B7100000000000000000000000000000000000000000000000000000000 PUSH1 0x0 MSTORE PUSH1 0x11 PUSH1 0x4 MSTORE PUSH1 0x24 PUSH1 0x0 REVERT JUMPDEST CALLVALUE PUSH2 0x15C JUMPI PUSH1 0x0 PUSH32 0xFFFFFFFFFFFFFFFFFFFFFFFFFFFFFFFFFFFFFFFFFFFFFFFFFFFFFFFFFFFFFFFC CALLDATASIZE ADD SLT PUSH2 0x15C JUMPI PUSH1 0x20 PUSH1 0x40 MLOAD PUSH2 0x1C20 DUP2 MSTORE RETURN JUMPDEST CALLVALUE PUSH2 0x15C JUMPI PUSH1 0x0 PUSH32 0xFFFFFFFFFFFFFFFFFFFFFFFFFFFFFFFFFFFFFFFFFFFFFFFFFFFFFFFFFFFFFFFC CALLDATASIZE ADD SLT PUSH2 0x15C JUMPI PUSH1 0x20 PUSH11 0xFFFFFFFFFFFFFFFFFFFFFF PUSH1 0x1 SLOAD AND PUSH1 0x40 MLOAD SWAP1 DUP2 MSTORE RETURN JUMPDEST CALLVALUE PUSH2 0x15C JUMPI PUSH1 0x0 PUSH32 0xFFFFFFFFFFFFFFFFFFFFFFFFFFFFFFFFFFFFFFFFFFFFFFFFFFFFFFFFFFFFFFFC CALLDATASIZE ADD SLT PUSH2 0x15C JUMPI PUSH1 0x20 PUSH1 0x40 MLOAD PUSH5 0x2540BE400 DUP2 MSTORE RETURN JUMPDEST CALLVALUE PUSH2 0x15C JUMPI PUSH1 0x0 PUSH32 0xFFFFFFFFFFFFFFFFFFFFFFFFFFFFFFFFFFFFFFFFFFFFFFFFFFFFFFFFFFFFFFFC CALLDATASIZE ADD SLT PUSH2 0x15C JUMPI PUSH1 0x20 PUSH1 0x40 MLOAD PUSH20 0xFFFFFFFFFFFFFFFFFFFFFFFFFFFFFFFFFFFFFFFF PUSH32 0x0 AND DUP2 MSTORE RETURN JUMPDEST CALLVALUE PUSH2 0x15C JUMPI PUSH1 0x0 PUSH32 0xFFFFFFFFFFFFFFFFFFFFFFFFFFFFFFFFFFFFFFFFFFFFFFFFFFFFFFFFFFFFFFFC CALLDATASIZE ADD SLT PUSH2 0x15C JUMPI PUSH1 0x20 PUSH1 0x40 MLOAD PUSH1 0x8 DUP2 MSTORE RETURN JUMPDEST CALLVALUE PUSH2 0x15C JUMPI PUSH1 0x20 PUSH32 0xFFFFFFFFFFFFFFFFFFFFFFFFFFFFFFFFFFFFFFFFFFFFFFFFFFFFFFFFFFFFFFFC CALLDATASIZE ADD SLT PUSH2 0x15C JUMPI PUSH1 0x4 CALLDATALOAD PUSH20 0xFFFFFFFFFFFFFFFFFFFFFFFFFFFFFFFFFFFFFFFF DUP2 AND DUP1 SWAP2 SUB PUSH2 0x15C JUMPI DUP1 PUSH1 0x0 MSTORE PUSH1 0x0 PUSH1 0x20 MSTORE PUSH1 0x40 PUSH1 0x0 KECCAK256 PUSH1 0xFF DUP2 SLOAD AND ISZERO PUSH2 0x12C5 JUMPI PUSH1 0x3 DUP2 ADD SWAP2 PUSH2 0x1026 DUP4 PUSH2 0x2CC2 JUMP JUMPDEST SWAP2 PUSH2 0x1033 PUSH1 0x4 DUP3 ADD PUSH2 0x2D27 JUMP JUMPDEST SWAP4 SLOAD SWAP1 PUSH2 0x103F DUP3 PUSH2 0x2FF9 JUMP JUMPDEST SWAP1 PUSH2 0x1049 DUP4 PUSH2 0x2FF9 JUMP JUMPDEST SWAP3 PUSH1 0x4 PUSH1 0x40 PUSH2 0x1057 DUP4 PUSH2 0x2FF9 JUMP JUMPDEST SWAP7 DUP2 MLOAD SWAP3 DUP4 DUP1 SWAP3 PUSH32 0xC4A7761E00000000000000000000000000000000000000000000000000000000 DUP3 MSTORE GAS STATICCALL DUP1 ISZERO PUSH2 0xA1D JUMPI PUSH1 0x0 SWAP2 PUSH1 0x0 SWAP2 PUSH2 0x128C JUMPI JUMPDEST POP PUSH2 0x10A3 PUSH1 0x1 DUP8 SWAP6 SWAP5 SWAP6 PUSH2 0x3048 JUMP JUMPDEST MSTORE PUSH2 0x10AF PUSH1 0x0 DUP7 PUSH2 0x3048 JUMP JUMPDEST MSTORE PUSH2 0x10D9 PUSH32 0x0 PUSH2 0x2DE0 JUMP JUMPDEST SWAP1 PUSH1 0x0 SWAP1 PUSH1 0xFF DUP1 PUSH32 0x0 AND PUSH1 0x12 SUB GT JUMPDEST DUP5 DUP4 LT PUSH2 0x1172 JUMPI PUSH2 0x1136 DUP10 PUSH2 0x116E DUP11 PUSH2 0x1160 DUP15 PUSH2 0x1152 DUP14 PUSH2 0x1144 DUP15 PUSH1 0x40 MLOAD SWAP10 DUP11 SWAP10 PUSH1 0xA0 DUP12 MSTORE PUSH1 0xA0 DUP12 ADD SWAP1 PUSH2 0x2BC3 JUMP JUMPDEST SWAP1 DUP10 DUP3 SUB PUSH1 0x20 DUP12 ADD MSTORE PUSH2 0x2C0D JUMP JUMPDEST SWAP1 DUP8 DUP3 SUB PUSH1 0x40 DUP10 ADD MSTORE PUSH2 0x2C0D JUMP JUMPDEST SWAP1 DUP6 DUP3 SUB PUSH1 0x60 DUP8 ADD MSTORE PUSH2 0x2C0D JUMP JUMPDEST SWAP1 DUP4 DUP3 SUB PUSH1 0x80 DUP6 ADD MSTORE PUSH2 0x2C0D JUMP JUMPDEST SUB SWAP1 RETURN JUMPDEST PUSH2 0x11A4 PUSH20 0xFFFFFFFFFFFFFFFFFFFFFFFFFFFFFFFFFFFFFFFF PUSH2 0x1197 DUP6 PUSH1 0x5 DUP7 ADD PUSH2 0x2C7B JUMP JUMPDEST SWAP1 SLOAD SWAP1 PUSH1 0x3 SHL SHR AND PUSH2 0x2DE0 JUMP JUMPDEST SWAP1 PUSH2 0xE16 JUMPI PUSH2 0x11F4 SWAP1 PUSH8 0xDE0B6B3A7640000 PUSH2 0x11EE PUSH2 0x11E8 PUSH1 0xFF PUSH32 0x0 AND PUSH1 0x12 SUB PUSH2 0x2DCF JUMP JUMPDEST DUP8 PUSH2 0x2D83 JUMP JUMPDEST SWAP2 PUSH2 0x3811 JUMP JUMPDEST PUSH2 0x11FE DUP4 DUP8 PUSH2 0x3048 JUMP JUMPDEST MSTORE PUSH2 0x1286 PUSH2 0x120C DUP4 DUP8 PUSH2 0x3048 JUMP JUMPDEST MLOAD SWAP3 PUSH2 0x127C PUSH2 0x1260 PUSH2 0x124F PUSH1 0x0 SWAP7 PUSH2 0x1249 PUSH1 0xFF PUSH32 0x0 AND PUSH1 0x12 SUB PUSH2 0x2DCF JUMP JUMPDEST SWAP1 PUSH2 0x2D83 JUMP JUMPDEST PUSH2 0x1259 DUP5 DUP13 PUSH2 0x3048 JUMP JUMPDEST MLOAD SWAP1 PUSH2 0x2D83 JUMP JUMPDEST PUSH2 0xE08 PUSH2 0x1270 DUP5 PUSH1 0x4 DUP9 ADD PUSH2 0x2C7B JUMP JUMPDEST SWAP1 SLOAD SWAP1 PUSH1 0x3 SHL SHR PUSH2 0x2E05 JUMP JUMPDEST PUSH2 0xB15 DUP3 DUP12 PUSH2 0x3048 JUMP JUMPDEST SWAP2 PUSH2 0x1107 JUMP JUMPDEST SWAP2 POP POP PUSH1 0x40 DUP2 RETURNDATASIZE PUSH1 0x40 GT PUSH2 0x12BD JUMPI JUMPDEST DUP2 PUSH2 0x12A8 PUSH1 0x40 SWAP4 DUP4 PUSH2 0x2A57 JUMP JUMPDEST DUP2 ADD SUB SLT PUSH2 0x15C JUMPI PUSH1 0x20 DUP2 MLOAD SWAP2 ADD MLOAD DUP10 PUSH2 0x1094 JUMP JUMPDEST RETURNDATASIZE SWAP2 POP PUSH2 0x129B JUMP JUMPDEST PUSH1 0x24 DUP3 PUSH1 0x40 MLOAD SWAP1 PUSH32 0xFB642B4D00000000000000000000000000000000000000000000000000000000 DUP3 MSTORE PUSH1 0x4 DUP3 ADD MSTORE REVERT JUMPDEST CALLVALUE PUSH2 0x15C JUMPI PUSH1 0x0 PUSH32 0xFFFFFFFFFFFFFFFFFFFFFFFFFFFFFFFFFFFFFFFFFFFFFFFFFFFFFFFFFFFFFFFC CALLDATASIZE ADD SLT PUSH2 0x15C JUMPI PUSH2 0x116E PUSH2 0x1332 PUSH1 0x5 PUSH2 0x2C41 JUMP JUMPDEST PUSH2 0x133F PUSH1 0x40 MLOAD SWAP2 DUP3 PUSH2 0x2A57 JUMP JUMPDEST PUSH1 0x5 DUP2 MSTORE PUSH32 0x312E302E30000000000000000000000000000000000000000000000000000000 PUSH1 0x20 DUP3 ADD MSTORE PUSH1 0x40 MLOAD SWAP2 DUP3 SWAP2 PUSH1 0x20 DUP4 MSTORE PUSH1 0x20 DUP4 ADD SWAP1 PUSH2 0x2B80 JUMP JUMPDEST CALLVALUE PUSH2 0x15C JUMPI PUSH1 0x0 PUSH32 0xFFFFFFFFFFFFFFFFFFFFFFFFFFFFFFFFFFFFFFFFFFFFFFFFFFFFFFFFFFFFFFFC CALLDATASIZE ADD SLT PUSH2 0x15C JUMPI PUSH1 0x20 PUSH1 0x40 MLOAD PUSH32 0x8E3C92E400000000000000000000000000000000000000000000000000000000 DUP2 MSTORE RETURN JUMPDEST CALLVALUE PUSH2 0x15C JUMPI PUSH1 0x20 PUSH32 0xFFFFFFFFFFFFFFFFFFFFFFFFFFFFFFFFFFFFFFFFFFFFFFFFFFFFFFFFFFFFFFFC CALLDATASIZE ADD SLT PUSH2 0x15C JUMPI PUSH1 0x4 CALLDATALOAD PUSH20 0xFFFFFFFFFFFFFFFFFFFFFFFFFFFFFFFFFFFFFFFF DUP2 AND DUP1 SWAP2 SUB PUSH2 0x15C JUMPI PUSH1 0x0 PUSH2 0x100 PUSH1 0x40 MLOAD PUSH2 0x143A PUSH2 0x120 DUP3 PUSH2 0x2A57 JUMP JUMPDEST DUP3 DUP2 MSTORE DUP3 PUSH1 0x20 DUP3 ADD MSTORE PUSH1 0x60 PUSH1 0x40 DUP3 ADD MSTORE DUP3 PUSH1 0x60 DUP3 ADD MSTORE PUSH1 0x60 PUSH1 0x80 DUP3 ADD MSTORE PUSH1 0x60 PUSH1 0xA0 DUP3 ADD MSTORE PUSH1 0x60 PUSH1 0xC0 DUP3 ADD MSTORE PUSH1 0x60 PUSH1 0xE0 DUP3 ADD MSTORE ADD MSTORE PUSH1 0x0 MSTORE PUSH1 0x0 PUSH1 0x20 MSTORE PUSH1 0x40 PUSH1 0x0 KECCAK256 PUSH1 0x40 MLOAD PUSH2 0x148A PUSH2 0x120 DUP3 PUSH2 0x2A57 JUMP JUMPDEST PUSH11 0xFFFFFFFFFFFFFFFFFFFFFF DUP3 SLOAD PUSH1 0xFF DUP2 AND ISZERO ISZERO DUP4 MSTORE PUSH1 0x8 SHR AND PUSH1 0x20 DUP3 ADD MSTORE PUSH2 0x14B5 PUSH1 0x1 DUP4 ADD PUSH2 0x2A98 JUMP JUMPDEST PUSH1 0x40 DUP3 ADD MSTORE PUSH20 0xFFFFFFFFFFFFFFFFFFFFFFFFFFFFFFFFFFFFFFFF PUSH1 0x2 DUP4 ADD SLOAD AND PUSH1 0x60 DUP3 ADD MSTORE PUSH2 0x14E6 PUSH1 0x3 DUP4 ADD PUSH2 0x2CC2 JUMP JUMPDEST PUSH1 0x80 DUP3 ADD MSTORE PUSH2 0x14F7 PUSH1 0x4 DUP4 ADD PUSH2 0x2D27 JUMP JUMPDEST PUSH1 0xA0 DUP3 ADD MSTORE PUSH1 0x5 DUP3 ADD SWAP2 PUSH1 0x40 MLOAD DUP1 PUSH1 0x20 DUP6 SLOAD SWAP2 DUP3 DUP2 MSTORE ADD SWAP5 PUSH1 0x0 MSTORE PUSH1 0x20 PUSH1 0x0 KECCAK256 SWAP1 PUSH1 0x0 JUMPDEST DUP2 DUP2 LT PUSH2 0x1686 JUMPI POP POP POP PUSH2 0x1534 DUP2 PUSH1 0x7 SWAP5 SWAP6 SUB DUP3 PUSH2 0x2A57 JUMP JUMPDEST PUSH1 0xC0 DUP5 ADD MSTORE PUSH2 0x1545 PUSH1 0x6 DUP3 ADD PUSH2 0x2D27 JUMP JUMPDEST PUSH1 0xE0 DUP5 ADD MSTORE ADD SLOAD PUSH2 0x100 DUP3 ADD MSTORE PUSH1 0x40 MLOAD PUSH1 0x20 DUP2 MSTORE DUP2 MLOAD ISZERO ISZERO PUSH1 0x20 DUP3 ADD MSTORE PUSH11 0xFFFFFFFFFFFFFFFFFFFFFF PUSH1 0x20 DUP4 ADD MLOAD AND PUSH1 0x40 DUP3 ADD MSTORE PUSH2 0x1594 PUSH1 0x40 DUP4 ADD MLOAD PUSH2 0x120 PUSH1 0x60 DUP5 ADD MSTORE PUSH2 0x140 DUP4 ADD SWAP1 PUSH2 0x2B80 JUMP JUMPDEST SWAP2 PUSH20 0xFFFFFFFFFFFFFFFFFFFFFFFFFFFFFFFFFFFFFFFF PUSH1 0x60 DUP3 ADD MLOAD AND PUSH1 0x80 DUP4 ADD MSTORE PUSH2 0x1606 PUSH2 0x15F2 PUSH1 0x80 DUP4 ADD MLOAD SWAP5 PUSH32 0xFFFFFFFFFFFFFFFFFFFFFFFFFFFFFFFFFFFFFFFFFFFFFFFFFFFFFFFFFFFFFFE0 SWAP6 DUP7 DUP7 DUP4 SUB ADD PUSH1 0xA0 DUP8 ADD MSTORE PUSH2 0x2BC3 JUMP JUMPDEST PUSH1 0xA0 DUP4 ADD MLOAD DUP6 DUP6 DUP4 SUB ADD PUSH1 0xC0 DUP7 ADD MSTORE PUSH2 0x2C0D JUMP JUMPDEST SWAP3 PUSH1 0xC0 DUP3 ADD MLOAD SWAP4 DUP2 DUP5 DUP3 SUB ADD PUSH1 0xE0 DUP6 ADD MSTORE PUSH1 0x20 DUP1 DUP7 MLOAD SWAP3 DUP4 DUP2 MSTORE ADD SWAP6 ADD SWAP1 PUSH1 0x0 JUMPDEST DUP2 DUP2 LT PUSH2 0x165A JUMPI POP POP POP PUSH2 0x164D DUP4 SWAP5 PUSH2 0x100 SWAP3 PUSH1 0xE0 DUP6 ADD MLOAD SWAP1 DUP7 DUP4 SUB ADD DUP5 DUP8 ADD MSTORE PUSH2 0x2C0D JUMP JUMPDEST SWAP2 ADD MLOAD PUSH2 0x120 DUP4 ADD MSTORE SUB SWAP1 RETURN JUMPDEST DUP3 MLOAD PUSH20 0xFFFFFFFFFFFFFFFFFFFFFFFFFFFFFFFFFFFFFFFF AND DUP8 MSTORE PUSH1 0x20 SWAP7 DUP8 ADD SWAP7 SWAP1 SWAP3 ADD SWAP2 PUSH1 0x1 ADD PUSH2 0x1627 JUMP JUMPDEST DUP3 SLOAD PUSH20 0xFFFFFFFFFFFFFFFFFFFFFFFFFFFFFFFFFFFFFFFF AND DUP8 MSTORE PUSH1 0x20 SWAP1 SWAP7 ADD SWAP6 PUSH1 0x1 SWAP3 DUP4 ADD SWAP3 ADD PUSH2 0x151B JUMP JUMPDEST CALLVALUE PUSH2 0x15C JUMPI PUSH1 0x0 PUSH32 0xFFFFFFFFFFFFFFFFFFFFFFFFFFFFFFFFFFFFFFFFFFFFFFFFFFFFFFFFFFFFFFFC CALLDATASIZE ADD SLT PUSH2 0x15C JUMPI PUSH1 0x20 PUSH1 0x40 MLOAD PUSH1 0xFF PUSH32 0x0 AND DUP2 MSTORE RETURN JUMPDEST CALLVALUE PUSH2 0x15C JUMPI PUSH1 0x20 PUSH32 0xFFFFFFFFFFFFFFFFFFFFFFFFFFFFFFFFFFFFFFFFFFFFFFFFFFFFFFFFFFFFFFFC CALLDATASIZE ADD SLT PUSH2 0x15C JUMPI PUSH20 0xFFFFFFFFFFFFFFFFFFFFFFFFFFFFFFFFFFFFFFFF PUSH1 0x4 CALLDATALOAD AND PUSH1 0x4 CALLDATALOAD SUB PUSH2 0x15C JUMPI PUSH1 0x40 MLOAD PUSH2 0x176C PUSH1 0x80 DUP3 PUSH2 0x2A57 JUMP JUMPDEST PUSH1 0x0 DUP2 MSTORE PUSH1 0x0 PUSH1 0x20 DUP3 ADD MSTORE PUSH1 0x0 PUSH1 0x40 DUP3 ADD MSTORE PUSH1 0x0 PUSH1 0x60 DUP3 ADD MSTORE PUSH1 0x40 MLOAD PUSH1 0x20 DUP2 ADD SWAP2 PUSH32 0x8E3C92E400000000000000000000000000000000000000000000000000000000 DUP4 MSTORE PUSH1 0x0 PUSH1 0x24 DUP4 ADD MSTORE PUSH1 0x0 PUSH1 0x44 DUP4 ADD MSTORE PUSH1 0x0 PUSH1 0x64 DUP4 ADD MSTORE PUSH1 0x0 PUSH1 0x84 DUP4 ADD MSTORE PUSH1 0xA4 DUP3 ADD PUSH1 0x0 SWAP1 JUMPDEST PUSH1 0x4 DUP3 LT PUSH2 0x2036 JUMPI PUSH1 0x0 DUP1 DUP7 DUP7 PUSH2 0x104 DUP2 MSTORE PUSH2 0x17F2 PUSH2 0x124 DUP3 PUSH2 0x2A57 JUMP JUMPDEST MLOAD SWAP1 PUSH1 0x4 CALLDATALOAD PUSH2 0x2710 STATICCALL POP RETURNDATASIZE ISZERO PUSH2 0x202F JUMPI RETURNDATASIZE PUSH2 0x180C DUP2 PUSH2 0x2C41 JUMP JUMPDEST SWAP1 PUSH2 0x181A PUSH1 0x40 MLOAD SWAP3 DUP4 PUSH2 0x2A57 JUMP JUMPDEST DUP2 MSTORE RETURNDATASIZE PUSH1 0x0 PUSH1 0x20 DUP4 ADD RETURNDATACOPY JUMPDEST MLOAD PUSH2 0x2005 JUMPI PUSH20 0xFFFFFFFFFFFFFFFFFFFFFFFFFFFFFFFFFFFFFFFF PUSH1 0x4 CALLDATALOAD AND PUSH1 0x0 MSTORE PUSH1 0x0 PUSH1 0x20 MSTORE PUSH1 0x40 PUSH1 0x0 KECCAK256 PUSH1 0xFF DUP2 SLOAD AND ISZERO PUSH2 0x1FBD JUMPI PUSH1 0x5 DUP2 ADD PUSH1 0x4 PUSH2 0x1892 PUSH20 0xFFFFFFFFFFFFFFFFFFFFFFFFFFFFFFFFFFFFFFFF PUSH2 0x1197 PUSH1 0x1 PUSH2 0x188C DUP4 PUSH2 0x1197 PUSH1 0x0 DUP10 PUSH2 0x2C7B JUMP JUMPDEST SWAP6 PUSH2 0x2C7B JUMP JUMPDEST SWAP3 ADD SWAP1 PUSH2 0x18B2 PUSH1 0x1 PUSH2 0x18A5 PUSH1 0x0 DUP6 PUSH2 0x2C7B JUMP JUMPDEST SWAP1 SLOAD SWAP1 PUSH1 0x3 SHL SHR SWAP4 PUSH2 0x2C7B JUMP JUMPDEST SWAP1 SLOAD SWAP1 PUSH1 0x3 SHL SHR SWAP1 PUSH2 0x18CC PUSH2 0x18C6 DUP4 PUSH2 0x2E05 JUMP JUMPDEST DUP3 PUSH2 0x2D83 JUMP JUMPDEST DUP1 PUSH1 0x60 SHL SWAP1 DUP1 DUP3 DIV PUSH13 0x1000000000000000000000000 EQ SWAP1 ISZERO OR ISZERO PUSH2 0xE16 JUMPI PUSH2 0x1904 PUSH2 0x1909 SWAP2 PUSH2 0xE08 PUSH2 0x18FE DUP8 PUSH2 0x2E05 JUMP JUMPDEST DUP9 PUSH2 0x2D83 JUMP JUMPDEST PUSH2 0x38EB JUMP JUMPDEST PUSH1 0x30 SHL PUSH21 0x10000000000000000000000000000000000000000 DUP2 LT ISZERO PUSH2 0x1FAF JUMPI PUSH1 0x40 MLOAD PUSH32 0x16F0115B00000000000000000000000000000000000000000000000000000000 DUP2 MSTORE PUSH1 0x20 DUP2 PUSH1 0x4 DUP2 PUSH20 0xFFFFFFFFFFFFFFFFFFFFFFFFFFFFFFFFFFFFFFFF DUP3 CALLDATALOAD AND GAS STATICCALL SWAP1 DUP2 ISZERO PUSH2 0xA1D JUMPI PUSH1 0x0 SWAP2 PUSH2 0x1F60 JUMPI JUMPDEST POP PUSH1 0x40 MLOAD PUSH32 0xFA08274300000000000000000000000000000000000000000000000000000000 DUP2 MSTORE PUSH1 0x20 DUP2 PUSH1 0x4 DUP2 PUSH20 0xFFFFFFFFFFFFFFFFFFFFFFFFFFFFFFFFFFFFFFFF DUP3 CALLDATALOAD AND GAS STATICCALL SWAP1 DUP2 ISZERO PUSH2 0xA1D JUMPI PUSH1 0x0 SWAP2 PUSH2 0x1F41 JUMPI JUMPDEST POP PUSH1 0x40 MLOAD SWAP1 PUSH32 0x888A913400000000000000000000000000000000000000000000000000000000 DUP3 MSTORE PUSH1 0x20 DUP3 PUSH1 0x4 DUP2 PUSH20 0xFFFFFFFFFFFFFFFFFFFFFFFFFFFFFFFFFFFFFFFF DUP3 CALLDATALOAD AND GAS STATICCALL SWAP2 DUP3 ISZERO PUSH2 0xA1D JUMPI PUSH1 0x0 SWAP3 PUSH2 0x1F04 JUMPI JUMPDEST POP PUSH16 0xFFFFFFFFFFFFFFFFFFFFFFFFFFFFFFFF DUP1 PUSH2 0x1A7F DUP4 PUSH2 0x1A75 PUSH2 0x1A56 DUP9 DUP9 PUSH2 0x1A87 SWAP9 PUSH1 0x4 CALLDATALOAD PUSH2 0x2EFA JUMP JUMPDEST SWAP9 SWAP1 SWAP4 PUSH20 0xFFFFFFFFFFFFFFFFFFFFFFFFFFFFFFFFFFFFFFFF DUP13 AND PUSH2 0x2E39 JUMP JUMPDEST SWAP5 SWAP1 SWAP2 AND SWAP1 PUSH2 0x2E13 JUMP JUMPDEST SWAP4 AND SWAP1 PUSH2 0x2E13 JUMP JUMPDEST SWAP3 PUSH1 0x40 MLOAD SWAP3 PUSH32 0x51E87AF700000000000000000000000000000000000000000000000000000000 DUP5 MSTORE PUSH1 0x20 DUP5 PUSH1 0x4 DUP2 PUSH20 0xFFFFFFFFFFFFFFFFFFFFFFFFFFFFFFFFFFFFFFFF DUP3 CALLDATALOAD AND GAS STATICCALL SWAP4 DUP5 ISZERO PUSH2 0xA1D JUMPI PUSH1 0x0 SWAP5 PUSH2 0x1EE3 JUMPI JUMPDEST POP PUSH1 0x40 MLOAD PUSH32 0xF35BCAC00000000000000000000000000000000000000000000000000000000 DUP2 MSTORE PUSH1 0x20 DUP2 PUSH1 0x4 DUP2 PUSH20 0xFFFFFFFFFFFFFFFFFFFFFFFFFFFFFFFFFFFFFFFF DUP3 CALLDATALOAD AND GAS STATICCALL DUP1 ISZERO PUSH2 0xA1D JUMPI PUSH2 0x1B89 SWAP4 PUSH2 0x1A75 PUSH20 0xFFFFFFFFFFFFFFFFFFFFFFFFFFFFFFFFFFFFFFFF PUSH2 0x1B81 SWAP4 PUSH16 0xFFFFFFFFFFFFFFFFFFFFFFFFFFFFFFFF SWAP7 DUP8 SWAP7 PUSH1 0x0 SWAP3 PUSH2 0x1EAE JUMPI JUMPDEST POP PUSH2 0x1B76 SWAP1 DUP3 DUP13 PUSH1 0x4 CALLDATALOAD PUSH2 0x2EFA JUMP JUMPDEST SWAP12 SWAP2 SWAP4 SWAP1 SWAP6 AND PUSH2 0x2E39 JUMP JUMPDEST SWAP5 AND SWAP1 PUSH2 0x2E13 JUMP JUMPDEST SWAP2 PUSH20 0xFFFFFFFFFFFFFFFFFFFFFFFFFFFFFFFFFFFFFFFF PUSH1 0x4 CALLDATALOAD AND PUSH1 0x0 MSTORE PUSH1 0x0 PUSH1 0x20 MSTORE PUSH1 0x24 PUSH1 0x20 PUSH20 0xFFFFFFFFFFFFFFFFFFFFFFFFFFFFFFFFFFFFFFFF PUSH2 0x1BD5 PUSH1 0x0 PUSH1 0x3 PUSH1 0x40 DUP3 KECCAK256 ADD PUSH2 0x2C7B JUMP JUMPDEST SWAP1 SLOAD SWAP1 PUSH1 0x3 SHL SHR AND PUSH1 0x40 MLOAD SWAP3 DUP4 DUP1 SWAP3 PUSH32 0x70A0823100000000000000000000000000000000000000000000000000000000 DUP3 MSTORE PUSH20 0xFFFFFFFFFFFFFFFFFFFFFFFFFFFFFFFFFFFFFFFF PUSH1 0x4 CALLDATALOAD AND PUSH1 0x4 DUP4 ADD MSTORE GAS STATICCALL SWAP1 DUP2 ISZERO PUSH2 0xA1D JUMPI PUSH1 0x0 SWAP2 PUSH2 0x1E7A JUMPI JUMPDEST POP PUSH2 0x1C49 SWAP3 PUSH2 0x1C44 SWAP2 PUSH2 0x2E13 JUMP JUMPDEST PUSH2 0x2E13 JUMP JUMPDEST SWAP2 PUSH20 0xFFFFFFFFFFFFFFFFFFFFFFFFFFFFFFFFFFFFFFFF PUSH1 0x4 CALLDATALOAD AND PUSH1 0x0 MSTORE PUSH1 0x0 PUSH1 0x20 MSTORE PUSH1 0x24 PUSH1 0x20 PUSH20 0xFFFFFFFFFFFFFFFFFFFFFFFFFFFFFFFFFFFFFFFF PUSH2 0x1C96 PUSH1 0x1 PUSH1 0x3 PUSH1 0x40 PUSH1 0x0 KECCAK256 ADD PUSH2 0x2C7B JUMP JUMPDEST SWAP1 SLOAD SWAP1 PUSH1 0x3 SHL SHR AND PUSH1 0x40 MLOAD SWAP3 DUP4 DUP1 SWAP3 PUSH32 0x70A0823100000000000000000000000000000000000000000000000000000000 DUP3 MSTORE PUSH20 0xFFFFFFFFFFFFFFFFFFFFFFFFFFFFFFFFFFFFFFFF PUSH1 0x4 CALLDATALOAD AND PUSH1 0x4 DUP4 ADD MSTORE GAS STATICCALL SWAP1 DUP2 ISZERO PUSH2 0xA1D JUMPI PUSH1 0x0 SWAP2 PUSH2 0x1E3E JUMPI JUMPDEST POP SWAP6 PUSH2 0xE08 PUSH2 0x1D21 PUSH2 0x1D21 SWAP6 PUSH2 0x1D1B PUSH2 0xE08 SWAP9 SWAP7 PUSH2 0x1C44 PUSH2 0x1D1B SWAP8 PUSH2 0x1D27 SWAP14 PUSH2 0x2E13 JUMP JUMPDEST SWAP6 PUSH2 0x2D83 JUMP JUMPDEST SWAP2 PUSH2 0x2E05 JUMP JUMPDEST SWAP1 PUSH1 0x40 MLOAD SWAP1 PUSH32 0x18160DDD00000000000000000000000000000000000000000000000000000000 DUP3 MSTORE PUSH1 0x20 DUP3 PUSH1 0x4 DUP2 PUSH20 0xFFFFFFFFFFFFFFFFFFFFFFFFFFFFFFFFFFFFFFFF DUP3 CALLDATALOAD AND GAS STATICCALL SWAP1 DUP2 ISZERO PUSH2 0xA1D JUMPI PUSH1 0x0 SWAP2 PUSH2 0x1E08 JUMPI JUMPDEST PUSH2 0x1D9C SWAP3 POP PUSH2 0x1D97 PUSH8 0xDE0B6B3A7640000 SWAP5 DUP6 SWAP3 PUSH2 0x2E13 JUMP JUMPDEST PUSH2 0x3811 JUMP JUMPDEST PUSH2 0x1DC5 PUSH32 0x0 PUSH2 0x2DE0 JUMP JUMPDEST SWAP1 PUSH1 0xFF PUSH32 0x0 AND PUSH1 0x12 SUB SWAP3 PUSH1 0xFF DUP5 GT PUSH2 0xE16 JUMPI PUSH2 0x11EE PUSH2 0xE0E SWAP4 PUSH2 0x1249 PUSH1 0x20 SWAP7 PUSH2 0x2DCF JUMP JUMPDEST SWAP1 POP PUSH1 0x20 DUP3 RETURNDATASIZE PUSH1 0x20 GT PUSH2 0x1E36 JUMPI JUMPDEST DUP2 PUSH2 0x1E23 PUSH1 0x20 SWAP4 DUP4 PUSH2 0x2A57 JUMP JUMPDEST DUP2 ADD SUB SLT PUSH2 0x15C JUMPI PUSH2 0x1D9C SWAP2 MLOAD SWAP1 PUSH2 0x1D7E JUMP JUMPDEST RETURNDATASIZE SWAP2 POP PUSH2 0x1E16 JUMP JUMPDEST SWAP5 SWAP3 SWAP7 SWAP1 POP PUSH1 0x20 DUP6 RETURNDATASIZE PUSH1 0x20 GT PUSH2 0x1E72 JUMPI JUMPDEST DUP2 PUSH2 0x1E5C PUSH1 0x20 SWAP4 DUP4 PUSH2 0x2A57 JUMP JUMPDEST DUP2 ADD SUB SLT PUSH2 0x15C JUMPI SWAP4 MLOAD SWAP4 SWAP6 SWAP2 SWAP4 PUSH2 0xE08 PUSH2 0x1CF7 JUMP JUMPDEST RETURNDATASIZE SWAP2 POP PUSH2 0x1E4F JUMP JUMPDEST SWAP1 POP PUSH1 0x20 DUP2 RETURNDATASIZE PUSH1 0x20 GT PUSH2 0x1EA6 JUMPI JUMPDEST DUP2 PUSH2 0x1E95 PUSH1 0x20 SWAP4 DUP4 PUSH2 0x2A57 JUMP JUMPDEST DUP2 ADD SUB SLT PUSH2 0x15C JUMPI MLOAD PUSH2 0x1C49 PUSH2 0x1C36 JUMP JUMPDEST RETURNDATASIZE SWAP2 POP PUSH2 0x1E88 JUMP JUMPDEST PUSH2 0x1B76 SWAP2 SWAP3 POP PUSH2 0x1ED5 SWAP1 PUSH1 0x20 RETURNDATASIZE PUSH1 0x20 GT PUSH2 0x1EDC JUMPI JUMPDEST PUSH2 0x1ECD DUP2 DUP4 PUSH2 0x2A57 JUMP JUMPDEST DUP2 ADD SWAP1 PUSH2 0x2E20 JUMP JUMPDEST SWAP2 SWAP1 PUSH2 0x1B67 JUMP JUMPDEST POP RETURNDATASIZE PUSH2 0x1EC3 JUMP JUMPDEST PUSH2 0x1EFD SWAP2 SWAP5 POP PUSH1 0x20 RETURNDATASIZE PUSH1 0x20 GT PUSH2 0x1EDC JUMPI PUSH2 0x1ECD DUP2 DUP4 PUSH2 0x2A57 JUMP JUMPDEST SWAP3 DUP10 PUSH2 0x1ADE JUMP JUMPDEST PUSH2 0x1A87 SWAP2 SWAP3 POP PUSH16 0xFFFFFFFFFFFFFFFFFFFFFFFFFFFFFFFF PUSH2 0x1A7F PUSH2 0x1F37 DUP3 SWAP4 PUSH1 0x20 RETURNDATASIZE PUSH1 0x20 GT PUSH2 0x1EDC JUMPI PUSH2 0x1ECD DUP2 DUP4 PUSH2 0x2A57 JUMP JUMPDEST SWAP5 SWAP4 POP POP POP PUSH2 0x1A2B JUMP JUMPDEST PUSH2 0x1F5A SWAP2 POP PUSH1 0x20 RETURNDATASIZE PUSH1 0x20 GT PUSH2 0x1EDC JUMPI PUSH2 0x1ECD DUP2 DUP4 PUSH2 0x2A57 JUMP JUMPDEST DUP8 PUSH2 0x19D4 JUMP JUMPDEST SWAP1 POP PUSH1 0x20 DUP2 RETURNDATASIZE PUSH1 0x20 GT PUSH2 0x1FA7 JUMPI JUMPDEST DUP2 PUSH2 0x1F7B PUSH1 0x20 SWAP4 DUP4 PUSH2 0x2A57 JUMP JUMPDEST DUP2 ADD SUB SLT PUSH2 0x15C JUMPI MLOAD PUSH20 0xFFFFFFFFFFFFFFFFFFFFFFFFFFFFFFFFFFFFFFFF DUP2 AND DUP2 SUB PUSH2 0x15C JUMPI DUP7 PUSH2 0x197E JUMP JUMPDEST RETURNDATASIZE SWAP2 POP PUSH2 0x1F6E JUMP JUMPDEST PUSH4 0x35278D12 PUSH1 0x0 MSTORE PUSH1 0x4 PUSH1 0x1C REVERT JUMPDEST PUSH1 0x24 PUSH1 0x40 MLOAD PUSH32 0xFB642B4D00000000000000000000000000000000000000000000000000000000 DUP2 MSTORE PUSH20 0xFFFFFFFFFFFFFFFFFFFFFFFFFFFFFFFFFFFFFFFF PUSH1 0x4 CALLDATALOAD AND PUSH1 0x4 DUP3 ADD MSTORE REVERT JUMPDEST PUSH1 0x4 PUSH1 0x40 MLOAD PUSH32 0x47A08E9600000000000000000000000000000000000000000000000000000000 DUP2 MSTORE REVERT JUMPDEST PUSH1 0x60 PUSH2 0x1825 JUMP JUMPDEST PUSH1 0x20 DUP1 PUSH1 0x1 SWAP3 DUP6 MLOAD DUP2 MSTORE ADD SWAP4 ADD SWAP2 ADD SWAP1 SWAP2 PUSH2 0x17D4 JUMP JUMPDEST CALLVALUE PUSH2 0x15C JUMPI PUSH1 0x60 PUSH32 0xFFFFFFFFFFFFFFFFFFFFFFFFFFFFFFFFFFFFFFFFFFFFFFFFFFFFFFFFFFFFFFFC CALLDATASIZE ADD SLT PUSH2 0x15C JUMPI PUSH8 0x14057B7EF767814F PUSH8 0xDE0B6B3A7640000 PUSH2 0x20B3 DUP3 DUP3 PUSH2 0x209D PUSH1 0x4 CALLDATALOAD PUSH2 0x3A39 JUMP JUMPDEST MUL DIV DUP4 DUP4 PUSH2 0x20AC PUSH1 0x24 CALLDATALOAD PUSH2 0x3A39 JUMP JUMPDEST MUL DIV PUSH2 0x2D76 JUMP JUMPDEST PUSH4 0x1E13380 SWAP1 DUP2 DUP2 MUL SWAP2 DUP2 DUP4 DIV EQ SWAP1 ISZERO OR ISZERO PUSH2 0xE16 JUMPI PUSH2 0x20D6 SWAP1 PUSH1 0x44 CALLDATALOAD SWAP1 PUSH2 0x2D96 JUMP JUMPDEST SWAP2 PUSH9 0x736EA4425C11AC631 DUP4 LT ISZERO PUSH2 0x2983 JUMPI PUSH8 0x6F05B59D3B20000 SWAP1 DUP3 SWAP4 MUL ADD DIV PUSH9 0xA688906BD8B000000 DUP2 LT ISZERO PUSH2 0x2952 JUMPI DUP2 SWAP1 PUSH1 0x40 SHL DIV SWAP1 PUSH24 0x800000000000000000000000000000000000000000000000 PUSH8 0x8000000000000000 DUP4 AND PUSH2 0x2933 JUMPI JUMPDEST PUSH8 0x4000000000000000 DUP4 AND PUSH2 0x2920 JUMPI JUMPDEST PUSH8 0x2000000000000000 DUP4 AND PUSH2 0x290D JUMPI JUMPDEST PUSH8 0x1000000000000000 DUP4 AND PUSH2 0x28FA JUMPI JUMPDEST PUSH8 0x800000000000000 DUP4 AND PUSH2 0x28E7 JUMPI JUMPDEST PUSH8 0x400000000000000 DUP4 AND PUSH2 0x28D4 JUMPI JUMPDEST PUSH8 0x200000000000000 DUP4 AND PUSH2 0x28C1 JUMPI JUMPDEST PUSH8 0x100000000000000 DUP4 AND PUSH2 0x28AE JUMPI JUMPDEST PUSH7 0x80000000000000 DUP4 AND PUSH2 0x289B JUMPI JUMPDEST PUSH7 0x40000000000000 DUP4 AND PUSH2 0x2888 JUMPI JUMPDEST PUSH7 0x20000000000000 DUP4 AND PUSH2 0x2875 JUMPI JUMPDEST PUSH7 0x10000000000000 DUP4 AND PUSH2 0x2862 JUMPI JUMPDEST PUSH7 0x8000000000000 DUP4 AND PUSH2 0x284F JUMPI JUMPDEST PUSH7 0x4000000000000 DUP4 AND PUSH2 0x283C JUMPI JUMPDEST PUSH7 0x2000000000000 DUP4 AND PUSH2 0x2829 JUMPI JUMPDEST PUSH7 0x1000000000000 DUP4 AND PUSH2 0x2816 JUMPI JUMPDEST PUSH6 0x800000000000 DUP4 AND PUSH2 0x2803 JUMPI JUMPDEST PUSH6 0x400000000000 DUP4 AND PUSH2 0x27F0 JUMPI JUMPDEST PUSH6 0x200000000000 DUP4 AND PUSH2 0x27DD JUMPI JUMPDEST PUSH6 0x100000000000 DUP4 AND PUSH2 0x27CA JUMPI JUMPDEST PUSH6 0x80000000000 DUP4 AND PUSH2 0x27B7 JUMPI JUMPDEST PUSH6 0x40000000000 DUP4 AND PUSH2 0x27A4 JUMPI JUMPDEST PUSH6 0x20000000000 DUP4 AND PUSH2 0x2791 JUMPI JUMPDEST PUSH6 0x10000000000 DUP4 AND PUSH2 0x277E JUMPI JUMPDEST PUSH5 0x8000000000 DUP4 AND PUSH2 0x276B JUMPI JUMPDEST PUSH5 0x4000000000 DUP4 AND PUSH2 0x2758 JUMPI JUMPDEST PUSH5 0x2000000000 DUP4 AND PUSH2 0x2745 JUMPI JUMPDEST PUSH5 0x1000000000 DUP4 AND PUSH2 0x2732 JUMPI JUMPDEST PUSH5 0x800000000 DUP4 AND PUSH2 0x271F JUMPI JUMPDEST PUSH5 0x400000000 DUP4 AND PUSH2 0x270C JUMPI JUMPDEST PUSH5 0x200000000 DUP4 AND PUSH2 0x26F9 JUMPI JUMPDEST PUSH5 0x100000000 DUP4 AND PUSH2 0x26E6 JUMPI JUMPDEST PUSH4 0x80000000 DUP4 AND PUSH2 0x26D3 JUMPI JUMPDEST PUSH4 0x40000000 DUP4 AND PUSH2 0x26C0 JUMPI JUMPDEST PUSH4 0x20000000 DUP4 AND PUSH2 0x26AD JUMPI JUMPDEST PUSH4 0x10000000 DUP4 AND PUSH2 0x269A JUMPI JUMPDEST PUSH4 0x8000000 DUP4 AND PUSH2 0x2687 JUMPI JUMPDEST PUSH4 0x4000000 DUP4 AND PUSH2 0x2674 JUMPI JUMPDEST PUSH4 0x2000000 DUP4 AND PUSH2 0x2661 JUMPI JUMPDEST PUSH4 0x1000000 DUP4 AND PUSH2 0x264E JUMPI JUMPDEST PUSH3 0x800000 DUP4 AND PUSH2 0x263B JUMPI JUMPDEST PUSH3 0x400000 DUP4 AND PUSH2 0x2628 JUMPI JUMPDEST PUSH3 0x200000 DUP4 AND PUSH2 0x2615 JUMPI JUMPDEST PUSH3 0x100000 DUP4 AND PUSH2 0x2602 JUMPI JUMPDEST PUSH3 0x80000 DUP4 AND PUSH2 0x25EF JUMPI JUMPDEST PUSH3 0x40000 DUP4 AND PUSH2 0x25DC JUMPI JUMPDEST PUSH3 0x20000 DUP4 AND PUSH2 0x25C9 JUMPI JUMPDEST PUSH3 0x10000 DUP4 AND PUSH2 0x25B6 JUMPI JUMPDEST PUSH2 0x8000 DUP4 AND PUSH2 0x25A3 JUMPI JUMPDEST PUSH2 0x4000 DUP4 AND PUSH2 0x2590 JUMPI JUMPDEST PUSH2 0x2000 DUP4 AND PUSH2 0x257D JUMPI JUMPDEST PUSH2 0x1000 DUP4 AND PUSH2 0x256A JUMPI JUMPDEST PUSH2 0x800 DUP4 AND PUSH2 0x2557 JUMPI JUMPDEST PUSH2 0x400 DUP4 AND PUSH2 0x2544 JUMPI JUMPDEST PUSH2 0x200 DUP4 AND PUSH2 0x2531 JUMPI JUMPDEST PUSH2 0x100 DUP4 AND PUSH2 0x251E JUMPI JUMPDEST PUSH1 0x80 DUP4 AND PUSH2 0x250B JUMPI JUMPDEST PUSH1 0x40 DUP4 AND PUSH2 0x24F8 JUMPI JUMPDEST PUSH1 0x20 DUP4 AND PUSH2 0x24E5 JUMPI JUMPDEST PUSH1 0x10 DUP4 AND PUSH2 0x24D2 JUMPI JUMPDEST PUSH1 0x8 DUP4 AND PUSH2 0x24BF JUMPI JUMPDEST PUSH1 0x4 DUP4 AND PUSH2 0x24AC JUMPI JUMPDEST PUSH1 0x2 DUP4 AND PUSH2 0x2499 JUMPI JUMPDEST PUSH1 0x1 DUP4 AND PUSH2 0x2486 JUMPI JUMPDEST MUL SWAP1 PUSH1 0x40 SHR PUSH1 0xBF SUB SHR PUSH32 0xFFFFFFFFFFFFFFFFFFFFFFFFFFFFFFFFFFFFFFFFFFFFFFFFF21F494C589C0000 DUP2 ADD SWAP1 DUP2 GT PUSH2 0xE16 JUMPI PUSH1 0x20 SWAP1 PUSH1 0x40 MLOAD SWAP1 DUP2 MSTORE RETURN JUMPDEST PUSH9 0x10000000000000001 MUL PUSH1 0x40 SHR PUSH2 0x2448 JUMP JUMPDEST PUSH9 0x10000000000000001 MUL PUSH1 0x40 SHR PUSH2 0x243F JUMP JUMPDEST PUSH9 0x10000000000000003 MUL PUSH1 0x40 SHR PUSH2 0x2436 JUMP JUMPDEST PUSH9 0x10000000000000006 MUL PUSH1 0x40 SHR PUSH2 0x242D JUMP JUMPDEST PUSH9 0x1000000000000000B MUL PUSH1 0x40 SHR PUSH2 0x2424 JUMP JUMPDEST PUSH9 0x10000000000000016 MUL PUSH1 0x40 SHR PUSH2 0x241B JUMP JUMPDEST PUSH9 0x1000000000000002C MUL PUSH1 0x40 SHR PUSH2 0x2412 JUMP JUMPDEST PUSH9 0x10000000000000059 MUL PUSH1 0x40 SHR PUSH2 0x2409 JUMP JUMPDEST PUSH9 0x100000000000000B1 MUL PUSH1 0x40 SHR PUSH2 0x2400 JUMP JUMPDEST PUSH9 0x10000000000000163 MUL PUSH1 0x40 SHR PUSH2 0x23F6 JUMP JUMPDEST PUSH9 0x100000000000002C6 MUL PUSH1 0x40 SHR PUSH2 0x23EC JUMP JUMPDEST PUSH9 0x1000000000000058C MUL PUSH1 0x40 SHR PUSH2 0x23E2 JUMP JUMPDEST PUSH9 0x10000000000000B17 MUL PUSH1 0x40 SHR PUSH2 0x23D8 JUMP JUMPDEST PUSH9 0x1000000000000162E MUL PUSH1 0x40 SHR PUSH2 0x23CE JUMP JUMPDEST PUSH9 0x10000000000002C5D MUL PUSH1 0x40 SHR PUSH2 0x23C4 JUMP JUMPDEST PUSH9 0x100000000000058B9 MUL PUSH1 0x40 SHR PUSH2 0x23BA JUMP JUMPDEST PUSH9 0x1000000000000B172 MUL PUSH1 0x40 SHR PUSH2 0x23B0 JUMP JUMPDEST PUSH9 0x100000000000162E4 MUL PUSH1 0x40 SHR PUSH2 0x23A5 JUMP JUMPDEST PUSH9 0x1000000000002C5C8 MUL PUSH1 0x40 SHR PUSH2 0x239A JUMP JUMPDEST PUSH9 0x10000000000058B91 MUL PUSH1 0x40 SHR PUSH2 0x238F JUMP JUMPDEST PUSH9 0x100000000000B1721 MUL PUSH1 0x40 SHR PUSH2 0x2384 JUMP JUMPDEST PUSH9 0x10000000000162E43 MUL PUSH1 0x40 SHR PUSH2 0x2379 JUMP JUMPDEST PUSH9 0x100000000002C5C86 MUL PUSH1 0x40 SHR PUSH2 0x236E JUMP JUMPDEST PUSH9 0x1000000000058B90C MUL PUSH1 0x40 SHR PUSH2 0x2363 JUMP JUMPDEST PUSH9 0x10000000000B17218 MUL PUSH1 0x40 SHR PUSH2 0x2358 JUMP JUMPDEST PUSH9 0x1000000000162E430 MUL PUSH1 0x40 SHR PUSH2 0x234C JUMP JUMPDEST PUSH9 0x10000000002C5C860 MUL PUSH1 0x40 SHR PUSH2 0x2340 JUMP JUMPDEST PUSH9 0x100000000058B90C0 MUL PUSH1 0x40 SHR PUSH2 0x2334 JUMP JUMPDEST PUSH9 0x1000000000B17217F MUL PUSH1 0x40 SHR PUSH2 0x2328 JUMP JUMPDEST PUSH9 0x100000000162E42FF MUL PUSH1 0x40 SHR PUSH2 0x231C JUMP JUMPDEST PUSH9 0x1000000002C5C85FE MUL PUSH1 0x40 SHR PUSH2 0x2310 JUMP JUMPDEST PUSH9 0x10000000058B90BFC MUL PUSH1 0x40 SHR PUSH2 0x2304 JUMP JUMPDEST PUSH9 0x100000000B17217F8 MUL PUSH1 0x40 SHR PUSH2 0x22F8 JUMP JUMPDEST PUSH9 0x10000000162E42FF1 MUL PUSH1 0x40 SHR PUSH2 0x22EB JUMP JUMPDEST PUSH9 0x100000002C5C85FE3 MUL PUSH1 0x40 SHR PUSH2 0x22DE JUMP JUMPDEST PUSH9 0x1000000058B90BFCE MUL PUSH1 0x40 SHR PUSH2 0x22D1 JUMP JUMPDEST PUSH9 0x10000000B17217FBB MUL PUSH1 0x40 SHR PUSH2 0x22C4 JUMP JUMPDEST PUSH9 0x1000000162E42FFF0 MUL PUSH1 0x40 SHR PUSH2 0x22B7 JUMP JUMPDEST PUSH9 0x10000002C5C8601CC MUL PUSH1 0x40 SHR PUSH2 0x22AA JUMP JUMPDEST PUSH9 0x100000058B90C0B49 MUL PUSH1 0x40 SHR PUSH2 0x229D JUMP JUMPDEST PUSH9 0x1000000B172183551 MUL PUSH1 0x40 SHR PUSH2 0x2290 JUMP JUMPDEST PUSH9 0x100000162E430E5A2 MUL PUSH1 0x40 SHR PUSH2 0x2282 JUMP JUMPDEST PUSH9 0x1000002C5C863B73F MUL PUSH1 0x40 SHR PUSH2 0x2274 JUMP JUMPDEST PUSH9 0x10000058B90CF1E6E MUL PUSH1 0x40 SHR PUSH2 0x2266 JUMP JUMPDEST PUSH9 0x100000B1721BCFC9A MUL PUSH1 0x40 SHR PUSH2 0x2258 JUMP JUMPDEST PUSH9 0x10000162E43F4F831 MUL PUSH1 0x40 SHR PUSH2 0x224A JUMP JUMPDEST PUSH9 0x100002C5C89D5EC6D MUL PUSH1 0x40 SHR PUSH2 0x223C JUMP JUMPDEST PUSH9 0x1000058B91B5BC9AE MUL PUSH1 0x40 SHR PUSH2 0x222E JUMP JUMPDEST PUSH9 0x10000B17255775C04 MUL PUSH1 0x40 SHR PUSH2 0x2220 JUMP JUMPDEST PUSH9 0x1000162E525EE0547 MUL PUSH1 0x40 SHR PUSH2 0x2211 JUMP JUMPDEST PUSH9 0x10002C5CC37DA9492 MUL PUSH1 0x40 SHR PUSH2 0x2202 JUMP JUMPDEST PUSH9 0x100058BA01FB9F96D MUL PUSH1 0x40 SHR PUSH2 0x21F3 JUMP JUMPDEST PUSH9 0x1000B175EFFDC76BA MUL PUSH1 0x40 SHR PUSH2 0x21E4 JUMP JUMPDEST PUSH9 0x100162F3904051FA1 MUL PUSH1 0x40 SHR PUSH2 0x21D5 JUMP JUMPDEST PUSH9 0x1002C605E2E8CEC50 MUL PUSH1 0x40 SHR PUSH2 0x21C6 JUMP JUMPDEST PUSH9 0x10058C86DA1C09EA2 MUL PUSH1 0x40 SHR PUSH2 0x21B7 JUMP JUMPDEST PUSH9 0x100B1AFA5ABCBED61 MUL PUSH1 0x40 SHR PUSH2 0x21A8 JUMP JUMPDEST PUSH9 0x10163DA9FB33356D8 MUL PUSH1 0x40 SHR PUSH2 0x2198 JUMP JUMPDEST PUSH9 0x102C9A3E778060EE7 MUL PUSH1 0x40 SHR PUSH2 0x2188 JUMP JUMPDEST PUSH9 0x1059B0D31585743AE MUL PUSH1 0x40 SHR PUSH2 0x2178 JUMP JUMPDEST PUSH9 0x10B5586CF9890F62A MUL PUSH1 0x40 SHR PUSH2 0x2168 JUMP JUMPDEST PUSH9 0x1172B83C7D517ADCE MUL PUSH1 0x40 SHR PUSH2 0x2158 JUMP JUMPDEST PUSH9 0x1306FE0A31B7152DF MUL PUSH1 0x40 SHR PUSH2 0x2148 JUMP JUMPDEST POP PUSH24 0xB504F333F9DE648480000000000000000000000000000000 PUSH2 0x2138 JUMP JUMPDEST PUSH1 0x24 SWAP1 PUSH1 0x40 MLOAD SWAP1 PUSH32 0x4A4F26F100000000000000000000000000000000000000000000000000000000 DUP3 MSTORE PUSH1 0x4 DUP3 ADD MSTORE REVERT JUMPDEST PUSH1 0x24 DUP4 PUSH1 0x40 MLOAD SWAP1 PUSH32 0x315DA06800000000000000000000000000000000000000000000000000000000 DUP3 MSTORE PUSH1 0x4 DUP3 ADD MSTORE REVERT JUMPDEST CALLVALUE PUSH2 0x15C JUMPI PUSH1 0x0 PUSH32 0xFFFFFFFFFFFFFFFFFFFFFFFFFFFFFFFFFFFFFFFFFFFFFFFFFFFFFFFFFFFFFFFC CALLDATASIZE ADD SLT PUSH2 0x15C JUMPI PUSH2 0x116E PUSH2 0x29F0 PUSH1 0x2 PUSH2 0x2A98 JUMP JUMPDEST PUSH1 0x40 MLOAD SWAP2 DUP3 SWAP2 PUSH1 0x20 DUP4 MSTORE PUSH1 0x20 DUP4 ADD SWAP1 PUSH2 0x2B80 JUMP JUMPDEST SWAP1 PUSH1 0x1 DUP3 DUP2 SHR SWAP3 AND DUP1 ISZERO PUSH2 0x2A4D JUMPI JUMPDEST PUSH1 0x20 DUP4 LT EQ PUSH2 0x2A1E JUMPI JUMP JUMPDEST PUSH32 0x4E487B7100000000000000000000000000000000000000000000000000000000 PUSH1 0x0 MSTORE PUSH1 0x22 PUSH1 0x4 MSTORE PUSH1 0x24 PUSH1 0x0 REVERT JUMPDEST SWAP2 PUSH1 0x7F AND SWAP2 PUSH2 0x2A13 JUMP JUMPDEST SWAP1 PUSH1 0x1F PUSH32 0xFFFFFFFFFFFFFFFFFFFFFFFFFFFFFFFFFFFFFFFFFFFFFFFFFFFFFFFFFFFFFFE0 SWAP2 ADD AND DUP2 ADD SWAP1 DUP2 LT PUSH8 0xFFFFFFFFFFFFFFFF DUP3 GT OR PUSH2 0x804 JUMPI PUSH1 0x40 MSTORE JUMP JUMPDEST SWAP1 PUSH1 0x40 MLOAD SWAP2 DUP3 PUSH1 0x0 DUP3 SLOAD SWAP3 PUSH2 0x2AAC DUP5 PUSH2 0x2A04 JUMP JUMPDEST SWAP1 DUP2 DUP5 MSTORE PUSH1 0x1 SWAP5 DUP6 DUP2 AND SWAP1 DUP2 PUSH1 0x0 EQ PUSH2 0x2B1B JUMPI POP PUSH1 0x1 EQ PUSH2 0x2AD8 JUMPI JUMPDEST POP POP PUSH2 0x2AD6 SWAP3 POP SUB DUP4 PUSH2 0x2A57 JUMP JUMPDEST JUMP JUMPDEST SWAP1 SWAP4 SWAP2 POP PUSH1 0x0 MSTORE PUSH1 0x20 SWAP1 DUP2 PUSH1 0x0 KECCAK256 SWAP4 PUSH1 0x0 SWAP2 JUMPDEST DUP2 DUP4 LT PUSH2 0x2B03 JUMPI POP POP PUSH2 0x2AD6 SWAP4 POP DUP3 ADD ADD CODESIZE DUP1 PUSH2 0x2AC8 JUMP JUMPDEST DUP6 SLOAD DUP9 DUP5 ADD DUP6 ADD MSTORE SWAP5 DUP6 ADD SWAP5 DUP8 SWAP5 POP SWAP2 DUP4 ADD SWAP2 PUSH2 0x2AEB JUMP JUMPDEST SWAP1 POP PUSH2 0x2AD6 SWAP6 POP PUSH1 0x20 SWAP4 POP PUSH32 0xFFFFFFFFFFFFFFFFFFFFFFFFFFFFFFFFFFFFFFFFFFFFFFFFFFFFFFFFFFFFFF00 SWAP2 POP AND DUP3 DUP5 ADD MSTORE ISZERO ISZERO PUSH1 0x5 SHL DUP3 ADD ADD CODESIZE DUP1 PUSH2 0x2AC8 JUMP JUMPDEST PUSH1 0x0 JUMPDEST DUP4 DUP2 LT PUSH2 0x2B70 JUMPI POP POP PUSH1 0x0 SWAP2 ADD MSTORE JUMP JUMPDEST DUP2 DUP2 ADD MLOAD DUP4 DUP3 ADD MSTORE PUSH1 0x20 ADD PUSH2 0x2B60 JUMP JUMPDEST SWAP1 PUSH32 0xFFFFFFFFFFFFFFFFFFFFFFFFFFFFFFFFFFFFFFFFFFFFFFFFFFFFFFFFFFFFFFE0 PUSH1 0x1F PUSH1 0x20 SWAP4 PUSH2 0x2BBC DUP2 MLOAD DUP1 SWAP3 DUP2 DUP8 MSTORE DUP8 DUP1 DUP9 ADD SWAP2 ADD PUSH2 0x2B5D JUMP JUMPDEST ADD AND ADD ADD SWAP1 JUMP JUMPDEST SWAP1 DUP2 MLOAD DUP1 DUP3 MSTORE PUSH1 0x20 DUP1 DUP1 SWAP4 ADD SWAP4 ADD SWAP2 PUSH1 0x0 JUMPDEST DUP3 DUP2 LT PUSH2 0x2BE3 JUMPI POP POP POP POP SWAP1 JUMP JUMPDEST DUP4 MLOAD PUSH20 0xFFFFFFFFFFFFFFFFFFFFFFFFFFFFFFFFFFFFFFFF AND DUP6 MSTORE SWAP4 DUP2 ADD SWAP4 SWAP3 DUP2 ADD SWAP3 PUSH1 0x1 ADD PUSH2 0x2BD5 JUMP JUMPDEST SWAP1 DUP2 MLOAD DUP1 DUP3 MSTORE PUSH1 0x20 DUP1 DUP1 SWAP4 ADD SWAP4 ADD SWAP2 PUSH1 0x0 JUMPDEST DUP3 DUP2 LT PUSH2 0x2C2D JUMPI POP POP POP POP SWAP1 JUMP JUMPDEST DUP4 MLOAD DUP6 MSTORE SWAP4 DUP2 ADD SWAP4 SWAP3 DUP2 ADD SWAP3 PUSH1 0x1 ADD PUSH2 0x2C1F JUMP JUMPDEST PUSH8 0xFFFFFFFFFFFFFFFF DUP2 GT PUSH2 0x804 JUMPI PUSH1 0x1F ADD PUSH32 0xFFFFFFFFFFFFFFFFFFFFFFFFFFFFFFFFFFFFFFFFFFFFFFFFFFFFFFFFFFFFFFE0 AND PUSH1 0x20 ADD SWAP1 JUMP JUMPDEST DUP1 SLOAD DUP3 LT ISZERO PUSH2 0x2C93 JUMPI PUSH1 0x0 MSTORE PUSH1 0x20 PUSH1 0x0 KECCAK256 ADD SWAP1 PUSH1 0x0 SWAP1 JUMP JUMPDEST PUSH32 0x4E487B7100000000000000000000000000000000000000000000000000000000 PUSH1 0x0 MSTORE PUSH1 0x32 PUSH1 0x4 MSTORE PUSH1 0x24 PUSH1 0x0 REVERT JUMPDEST SWAP1 PUSH1 0x40 MLOAD SWAP2 DUP3 DUP2 SLOAD SWAP2 DUP3 DUP3 MSTORE PUSH1 0x20 SWAP3 DUP4 DUP4 ADD SWAP2 PUSH1 0x0 MSTORE DUP4 PUSH1 0x0 KECCAK256 SWAP4 PUSH1 0x0 SWAP1 JUMPDEST DUP3 DUP3 LT PUSH2 0x2CF7 JUMPI POP POP POP PUSH2 0x2AD6 SWAP3 POP SUB DUP4 PUSH2 0x2A57 JUMP JUMPDEST DUP6 SLOAD PUSH20 0xFFFFFFFFFFFFFFFFFFFFFFFFFFFFFFFFFFFFFFFF AND DUP5 MSTORE PUSH1 0x1 SWAP6 DUP7 ADD SWAP6 DUP9 SWAP6 POP SWAP4 DUP2 ADD SWAP4 SWAP1 SWAP2 ADD SWAP1 PUSH2 0x2CE1 JUMP JUMPDEST SWAP1 PUSH1 0x40 MLOAD SWAP2 DUP3 DUP2 SLOAD SWAP2 DUP3 DUP3 MSTORE PUSH1 0x20 SWAP3 DUP4 DUP4 ADD SWAP2 PUSH1 0x0 MSTORE DUP4 PUSH1 0x0 KECCAK256 SWAP4 PUSH1 0x0 SWAP1 JUMPDEST DUP3 DUP3 LT PUSH2 0x2D5C JUMPI POP POP POP PUSH2 0x2AD6 SWAP3 POP SUB DUP4 PUSH2 0x2A57 JUMP JUMPDEST DUP6 SLOAD DUP5 MSTORE PUSH1 0x1 SWAP6 DUP7 ADD SWAP6 DUP9 SWAP6 POP SWAP4 DUP2 ADD SWAP4 SWAP1 SWAP2 ADD SWAP1 PUSH2 0x2D46 JUMP JUMPDEST SWAP2 SWAP1 DUP3 SUB SWAP2 DUP3 GT PUSH2 0xE16 JUMPI JUMP JUMPDEST DUP2 DUP2 MUL SWAP3 SWAP2 DUP2 ISZERO SWAP2 DUP5 DIV EQ OR ISZERO PUSH2 0xE16 JUMPI JUMP JUMPDEST DUP2 ISZERO PUSH2 0x2DA0 JUMPI DIV SWAP1 JUMP JUMPDEST PUSH32 0x4E487B7100000000000000000000000000000000000000000000000000000000 PUSH1 0x0 MSTORE PUSH1 0x12 PUSH1 0x4 MSTORE PUSH1 0x24 PUSH1 0x0 REVERT JUMPDEST PUSH1 0xFF AND PUSH1 0x4D DUP2 GT PUSH2 0xE16 JUMPI PUSH1 0xA EXP SWAP1 JUMP JUMPDEST PUSH1 0x40 PUSH1 0x0 PUSH1 0x4 PUSH1 0x1C PUSH5 0x2540BE400 SWAP5 PUSH4 0xFEAF968C DUP5 MSTORE GAS STATICCALL PUSH1 0x1F RETURNDATASIZE GT AND PUSH1 0x20 MLOAD MUL MUL SWAP1 JUMP JUMPDEST PUSH1 0x4D DUP2 GT PUSH2 0xE16 JUMPI PUSH1 0xA EXP SWAP1 JUMP JUMPDEST SWAP2 SWAP1 DUP3 ADD DUP1 SWAP3 GT PUSH2 0xE16 JUMPI JUMP JUMPDEST SWAP1 DUP2 PUSH1 0x20 SWAP2 SUB SLT PUSH2 0x15C JUMPI MLOAD DUP1 PUSH1 0x2 SIGNEXTEND DUP2 SUB PUSH2 0x15C JUMPI SWAP1 JUMP JUMPDEST SWAP4 SWAP3 SWAP2 SWAP1 PUSH2 0x2E49 PUSH2 0x2E4F SWAP2 PUSH2 0x3219 JUMP JUMPDEST SWAP2 PUSH2 0x3219 JUMP JUMPDEST PUSH1 0x0 SWAP5 SWAP1 SWAP2 SWAP1 DUP6 PUSH20 0xFFFFFFFFFFFFFFFFFFFFFFFFFFFFFFFFFFFFFFFF DUP5 DUP5 DUP3 DUP3 AND DUP4 DUP3 AND GT PUSH2 0x2ED2 JUMPI JUMPDEST POP POP DUP3 DUP2 AND SWAP1 DUP5 DUP2 AND DUP3 GT PUSH2 0x2E9B JUMPI POP POP POP POP SWAP1 PUSH2 0x2E97 SWAP3 SWAP2 PUSH2 0x314F JUMP JUMPDEST SWAP2 SWAP1 JUMP JUMPDEST SWAP1 SWAP2 SWAP3 SWAP5 DUP1 SWAP5 SWAP9 POP AND GT PUSH1 0x0 EQ PUSH2 0x2EC6 JUMPI POP SWAP1 PUSH2 0x2EBD DUP4 PUSH2 0x2EC3 SWAP5 SWAP4 DUP4 PUSH2 0x314F JUMP JUMPDEST SWAP5 PUSH2 0x31BD JUMP JUMPDEST SWAP1 JUMP JUMPDEST SWAP5 PUSH2 0x2EC3 SWAP4 SWAP3 POP PUSH2 0x31BD JUMP JUMPDEST SWAP6 POP SWAP4 POP CODESIZE DUP1 PUSH2 0x2E79 JUMP JUMPDEST MLOAD SWAP1 PUSH16 0xFFFFFFFFFFFFFFFFFFFFFFFFFFFFFFFF DUP3 AND DUP3 SUB PUSH2 0x15C JUMPI JUMP JUMPDEST SWAP1 SWAP3 PUSH1 0xC0 SWAP3 PUSH20 0xFFFFFFFFFFFFFFFFFFFFFFFFFFFFFFFFFFFFFFFF PUSH1 0x24 SWAP3 PUSH1 0x40 MLOAD SWAP7 DUP8 SWAP6 DUP7 SWAP5 PUSH32 0x514EA4BF00000000000000000000000000000000000000000000000000000000 DUP7 MSTORE PUSH3 0xFFFFFF DUP1 SWAP2 AND SWAP3 AND SWAP1 PUSH1 0x18 SHL OR PUSH1 0x18 SHL OR PUSH1 0x4 DUP5 ADD MSTORE AND GAS STATICCALL SWAP1 DUP2 ISZERO PUSH2 0xA1D JUMPI PUSH1 0x0 SWAP2 DUP3 SWAP2 DUP4 SWAP2 PUSH2 0x2F75 JUMPI JUMPDEST POP SWAP1 SWAP2 SWAP3 JUMP JUMPDEST SWAP3 SWAP2 POP POP PUSH1 0xC0 DUP3 RETURNDATASIZE DUP3 GT PUSH2 0x2FD9 JUMPI JUMPDEST DUP2 PUSH2 0x2F91 PUSH1 0xC0 SWAP4 DUP4 PUSH2 0x2A57 JUMP JUMPDEST DUP2 ADD SUB SLT PUSH2 0x2FD6 JUMPI PUSH2 0x2FA2 DUP3 PUSH2 0x2EDD JUMP JUMPDEST SWAP1 PUSH1 0x20 DUP4 ADD MLOAD PUSH4 0xFFFFFFFF DUP2 AND SUB PUSH2 0x2FD6 JUMPI POP PUSH2 0x2FCD PUSH1 0xA0 PUSH2 0x2FC6 PUSH1 0x80 DUP6 ADD PUSH2 0x2EDD JUMP JUMPDEST SWAP4 ADD PUSH2 0x2EDD JUMP JUMPDEST SWAP1 SWAP2 SWAP1 CODESIZE PUSH2 0x2F6F JUMP JUMPDEST DUP1 REVERT JUMPDEST RETURNDATASIZE SWAP2 POP PUSH2 0x2F84 JUMP JUMPDEST PUSH8 0xFFFFFFFFFFFFFFFF DUP2 GT PUSH2 0x804 JUMPI PUSH1 0x5 SHL PUSH1 0x20 ADD SWAP1 JUMP JUMPDEST SWAP1 PUSH2 0x3003 DUP3 PUSH2 0x2FE1 JUMP JUMPDEST PUSH2 0x3010 PUSH1 0x40 MLOAD SWAP2 DUP3 PUSH2 0x2A57 JUMP JUMPDEST DUP3 DUP2 MSTORE PUSH32 0xFFFFFFFFFFFFFFFFFFFFFFFFFFFFFFFFFFFFFFFFFFFFFFFFFFFFFFFFFFFFFFE0 PUSH2 0x303E DUP3 SWAP5 PUSH2 0x2FE1 JUMP JUMPDEST ADD SWAP1 PUSH1 0x20 CALLDATASIZE SWAP2 ADD CALLDATACOPY JUMP JUMPDEST DUP1 MLOAD DUP3 LT ISZERO PUSH2 0x2C93 JUMPI PUSH1 0x20 SWAP2 PUSH1 0x5 SHL ADD ADD SWAP1 JUMP JUMPDEST PUSH32 0xFFFFFFFFFFFFFFFFFFFFFFFFFFFFFFFFFFFFFFFFFFFFFFFFFFFFFFFFFFFFFFFF DUP2 EQ PUSH2 0xE16 JUMPI PUSH1 0x1 ADD SWAP1 JUMP JUMPDEST SWAP1 DUP2 PUSH1 0x20 SWAP2 SUB SLT PUSH2 0x15C JUMPI MLOAD PUSH20 0xFFFFFFFFFFFFFFFFFFFFFFFFFFFFFFFFFFFFFFFF DUP2 AND DUP2 SUB PUSH2 0x15C JUMPI SWAP1 JUMP JUMPDEST SWAP1 DUP2 PUSH1 0x20 SWAP2 SUB SLT PUSH2 0x15C JUMPI MLOAD PUSH1 0xFF DUP2 AND DUP2 SUB PUSH2 0x15C JUMPI SWAP1 JUMP JUMPDEST CALLDATALOAD PUSH20 0xFFFFFFFFFFFFFFFFFFFFFFFFFFFFFFFFFFFFFFFF DUP2 AND DUP2 SUB PUSH2 0x15C JUMPI SWAP1 JUMP JUMPDEST DUP2 DUP2 LT PUSH2 0x30FA JUMPI POP POP JUMP JUMPDEST PUSH1 0x0 DUP2 SSTORE PUSH1 0x1 ADD PUSH2 0x30EF JUMP JUMPDEST SWAP2 DUP2 DUP2 LT PUSH2 0x3113 JUMPI POP POP POP JUMP JUMPDEST PUSH2 0x2AD6 SWAP3 PUSH1 0x0 MSTORE PUSH1 0x20 PUSH1 0x0 KECCAK256 SWAP2 DUP3 ADD SWAP2 ADD PUSH2 0x30EF JUMP JUMPDEST PUSH20 0xFFFFFFFFFFFFFFFFFFFFFFFFFFFFFFFFFFFFFFFF SWAP2 DUP3 AND SWAP1 DUP3 AND SUB SWAP2 SWAP1 DUP3 GT PUSH2 0xE16 JUMPI JUMP JUMPDEST SWAP1 PUSH2 0x31AF PUSH2 0x2EC3 SWAP4 PUSH20 0xFFFFFFFFFFFFFFFFFFFFFFFFFFFFFFFFFFFFFFFF SWAP3 DUP4 DUP2 AND DUP5 DUP7 AND GT PUSH2 0x31B7 JUMPI JUMPDEST PUSH28 0xFFFFFFFFFFFFFFFFFFFFFFFFFFFFFFFF000000000000000000000000 DUP5 DUP1 PUSH2 0x31A2 DUP9 DUP6 PUSH2 0x3129 JUMP JUMPDEST AND SWAP3 AND SWAP3 PUSH1 0x60 SHL AND PUSH2 0x3811 JUMP JUMPDEST SWAP2 AND SWAP1 PUSH2 0x2D96 JUMP JUMPDEST SWAP4 PUSH2 0x3179 JUMP JUMPDEST SWAP2 PUSH16 0xFFFFFFFFFFFFFFFFFFFFFFFFFFFFFFFF PUSH13 0x1000000000000000000000000 SWAP3 PUSH2 0x320B PUSH2 0x2EC3 SWAP6 PUSH20 0xFFFFFFFFFFFFFFFFFFFFFFFFFFFFFFFFFFFFFFFF SWAP3 DUP4 DUP2 AND DUP5 DUP4 AND GT PUSH2 0x3213 JUMPI PUSH2 0x3129 JUMP JUMPDEST AND SWAP2 AND PUSH2 0x3811 JUMP JUMPDEST SWAP1 PUSH2 0x3129 JUMP JUMPDEST PUSH1 0x2 SIGNEXTEND PUSH1 0x0 DUP2 SLT ISZERO PUSH2 0x380B JUMPI PUSH32 0x8000000000000000000000000000000000000000000000000000000000000000 DUP2 EQ PUSH2 0xE16 JUMPI DUP1 PUSH1 0x0 SUB JUMPDEST PUSH3 0xD89E8 DUP2 GT PUSH2 0x37AD JUMPI PUSH1 0x1 DUP2 AND ISZERO PUSH2 0x3784 JUMPI PUSH17 0xFFFFFFFFFFFFFFFFFFFFFFFFFFFFFFFFFF PUSH16 0xFFFCB933BD6FAD37AA2D162D1A594001 JUMPDEST AND SWAP2 PUSH1 0x2 DUP3 AND PUSH2 0x3758 JUMPI JUMPDEST PUSH1 0x4 SWAP2 DUP3 DUP2 AND PUSH2 0x372C JUMPI JUMPDEST PUSH1 0x8 DUP2 AND PUSH2 0x3700 JUMPI JUMPDEST PUSH1 0x10 DUP2 AND PUSH2 0x36D4 JUMPI JUMPDEST PUSH1 0x20 DUP2 AND PUSH2 0x36A8 JUMPI JUMPDEST PUSH1 0x40 DUP2 AND PUSH2 0x367C JUMPI JUMPDEST PUSH1 0x80 SWAP1 DUP2 DUP2 AND PUSH2 0x3651 JUMPI JUMPDEST PUSH2 0x100 DUP2 AND PUSH2 0x3626 JUMPI JUMPDEST PUSH2 0x200 DUP2 AND PUSH2 0x35FB JUMPI JUMPDEST PUSH2 0x400 DUP2 AND PUSH2 0x35D0 JUMPI JUMPDEST PUSH2 0x800 DUP2 AND PUSH2 0x35A5 JUMPI JUMPDEST PUSH2 0x1000 DUP2 AND PUSH2 0x357A JUMPI JUMPDEST PUSH2 0x2000 DUP2 AND PUSH2 0x354F JUMPI JUMPDEST PUSH2 0x4000 DUP2 AND PUSH2 0x3524 JUMPI JUMPDEST PUSH2 0x8000 DUP2 AND PUSH2 0x34F9 JUMPI JUMPDEST PUSH3 0x10000 DUP2 AND PUSH2 0x34CE JUMPI JUMPDEST PUSH3 0x20000 DUP2 AND PUSH2 0x34A4 JUMPI JUMPDEST PUSH3 0x40000 DUP2 AND PUSH2 0x344D JUMPI JUMPDEST PUSH3 0x80000 AND PUSH2 0x33F5 JUMPI JUMPDEST POP PUSH1 0x0 SLT PUSH2 0x3396 JUMPI JUMPDEST POP PUSH2 0x3389 PUSH20 0xFFFFFFFFFFFFFFFFFFFFFFFFFFFFFFFFFFFFFFFF SWAP2 PUSH4 0xFFFFFFFF DUP2 AND ISZERO PUSH1 0x0 EQ PUSH2 0x338D JUMPI PUSH1 0xFF PUSH1 0x0 JUMPDEST AND SWAP1 PUSH1 0x20 SHR PUSH2 0x2E13 JUMP JUMPDEST AND SWAP1 JUMP JUMPDEST PUSH1 0xFF PUSH1 0x1 PUSH2 0x337F JUMP JUMPDEST DUP2 ISZERO PUSH2 0x33C7 JUMPI POP PUSH32 0xFFFFFFFFFFFFFFFFFFFFFFFFFFFFFFFFFFFFFFFFFFFFFFFFFFFFFFFFFFFFFFFF DIV PUSH2 0x3389 PUSH2 0x3351 JUMP JUMPDEST PUSH1 0x12 SWAP1 PUSH32 0x4E487B7100000000000000000000000000000000000000000000000000000000 PUSH1 0x0 MSTORE MSTORE PUSH1 0x24 PUSH1 0x0 REVERT JUMPDEST PUSH12 0x48A170391F7DC42444E8FA2 SWAP4 SWAP2 SWAP4 SWAP2 DUP3 DUP2 MUL SWAP3 DUP2 DUP5 DIV EQ SWAP1 ISZERO OR ISZERO PUSH2 0x341F JUMPI SHR SWAP2 PUSH1 0x0 PUSH2 0x3348 JUMP JUMPDEST PUSH1 0x11 DUP4 PUSH32 0x4E487B7100000000000000000000000000000000000000000000000000000000 PUSH1 0x0 MSTORE MSTORE PUSH1 0x24 PUSH1 0x0 REVERT JUMPDEST SWAP4 PUSH14 0x2216E584F5FA1EA926041BEDFE98 SWAP1 DUP2 DUP2 MUL SWAP2 DUP2 DUP4 DIV EQ SWAP1 ISZERO OR ISZERO PUSH2 0x3476 JUMPI DUP2 SHR SWAP4 PUSH2 0x333E JUMP JUMPDEST PUSH1 0x11 DUP5 PUSH32 0x4E487B7100000000000000000000000000000000000000000000000000000000 PUSH1 0x0 MSTORE MSTORE PUSH1 0x24 PUSH1 0x0 REVERT JUMPDEST SWAP4 PUSH15 0x5D6AF8DEDB81196699C329225EE604 SWAP1 DUP2 DUP2 MUL SWAP2 DUP2 DUP4 DIV EQ SWAP1 ISZERO OR ISZERO PUSH2 0x3476 JUMPI DUP2 SHR SWAP4 PUSH2 0x3333 JUMP JUMPDEST SWAP4 PUSH16 0x9AA508B5B7A84E1C677DE54F3E99BC9 SWAP1 DUP2 DUP2 MUL SWAP2 DUP2 DUP4 DIV EQ SWAP1 ISZERO OR ISZERO PUSH2 0x3476 JUMPI DUP2 SHR SWAP4 PUSH2 0x3328 JUMP JUMPDEST SWAP4 PUSH16 0x31BE135F97D08FD981231505542FCFA6 SWAP1 DUP2 DUP2 MUL SWAP2 DUP2 DUP4 DIV EQ SWAP1 ISZERO OR ISZERO PUSH2 0x3476 JUMPI DUP2 SHR SWAP4 PUSH2 0x331D JUMP JUMPDEST SWAP4 PUSH16 0x70D869A156D2A1B890BB3DF62BAF32F7 SWAP1 DUP2 DUP2 MUL SWAP2 DUP2 DUP4 DIV EQ SWAP1 ISZERO OR ISZERO PUSH2 0x3476 JUMPI DUP2 SHR SWAP4 PUSH2 0x3313 JUMP JUMPDEST SWAP4 PUSH16 0xA9F746462D870FDF8A65DC1F90E061E5 SWAP1 DUP2 DUP2 MUL SWAP2 DUP2 DUP4 DIV EQ SWAP1 ISZERO OR ISZERO PUSH2 0x3476 JUMPI DUP2 SHR SWAP4 PUSH2 0x3309 JUMP JUMPDEST SWAP4 PUSH16 0xD097F3BDFD2022B8845AD8F792AA5825 SWAP1 DUP2 DUP2 MUL SWAP2 DUP2 DUP4 DIV EQ SWAP1 ISZERO OR ISZERO PUSH2 0x3476 JUMPI DUP2 SHR SWAP4 PUSH2 0x32FF JUMP JUMPDEST SWAP4 PUSH16 0xE7159475A2C29B7443B29C7FA6E889D9 SWAP1 DUP2 DUP2 MUL SWAP2 DUP2 DUP4 DIV EQ SWAP1 ISZERO OR ISZERO PUSH2 0x3476 JUMPI DUP2 SHR SWAP4 PUSH2 0x32F5 JUMP JUMPDEST SWAP4 PUSH16 0xF3392B0822B70005940C7A398E4B70F3 SWAP1 DUP2 DUP2 MUL SWAP2 DUP2 DUP4 DIV EQ SWAP1 ISZERO OR ISZERO PUSH2 0x3476 JUMPI DUP2 SHR SWAP4 PUSH2 0x32EB JUMP JUMPDEST SWAP4 PUSH16 0xF987A7253AC413176F2B074CF7815E54 SWAP1 DUP2 DUP2 MUL SWAP2 DUP2 DUP4 DIV EQ SWAP1 ISZERO OR ISZERO PUSH2 0x3476 JUMPI DUP2 SHR SWAP4 PUSH2 0x32E1 JUMP JUMPDEST SWAP4 PUSH16 0xFCBE86C7900A88AEDCFFC83B479AA3A4 SWAP1 DUP2 DUP2 MUL SWAP2 DUP2 DUP4 DIV EQ SWAP1 ISZERO OR ISZERO PUSH2 0x3476 JUMPI DUP2 SHR SWAP4 PUSH2 0x32D7 JUMP JUMPDEST SWAP4 PUSH16 0xFE5DEE046A99A2A811C461F1969C3053 SWAP1 DUP2 DUP2 MUL SWAP2 DUP2 DUP4 DIV EQ SWAP1 ISZERO OR ISZERO PUSH2 0x3476 JUMPI DUP2 SHR SWAP4 PUSH2 0x32CD JUMP JUMPDEST SWAP3 PUSH16 0xFF2EA16466C96A3843EC78B326B52861 SWAP1 DUP2 DUP2 MUL SWAP2 DUP2 DUP4 DIV EQ SWAP1 ISZERO OR ISZERO PUSH2 0x341F JUMPI PUSH1 0x80 SHR SWAP3 PUSH2 0x32C2 JUMP JUMPDEST SWAP3 PUSH16 0xFF973B41FA98C081472E6896DFB254C0 SWAP1 DUP2 DUP2 MUL SWAP2 DUP2 DUP4 DIV EQ SWAP1 ISZERO OR ISZERO PUSH2 0x341F JUMPI PUSH1 0x80 SHR SWAP3 PUSH2 0x32B9 JUMP JUMPDEST SWAP3 PUSH16 0xFFCB9843D60F6159C9DB58835C926644 SWAP1 DUP2 DUP2 MUL SWAP2 DUP2 DUP4 DIV EQ SWAP1 ISZERO OR ISZERO PUSH2 0x341F JUMPI PUSH1 0x80 SHR SWAP3 PUSH2 0x32B0 JUMP JUMPDEST SWAP3 PUSH16 0xFFE5CACA7E10E4E61C3624EAA0941CD0 SWAP1 DUP2 DUP2 MUL SWAP2 DUP2 DUP4 DIV EQ SWAP1 ISZERO OR ISZERO PUSH2 0x341F JUMPI PUSH1 0x80 SHR SWAP3 PUSH2 0x32A7 JUMP JUMPDEST SWAP3 PUSH16 0xFFF2E50F5F656932EF12357CF3C7FDCC SWAP1 DUP2 DUP2 MUL SWAP2 DUP2 DUP4 DIV EQ SWAP1 ISZERO OR ISZERO PUSH2 0x341F JUMPI PUSH1 0x80 SHR SWAP3 PUSH2 0x329E JUMP JUMPDEST SWAP2 PUSH16 0xFFF97272373D413259A46990580E213A SWAP1 DUP2 DUP2 MUL SWAP2 DUP2 DUP4 DIV EQ SWAP1 ISZERO OR ISZERO PUSH2 0xE16 JUMPI PUSH1 0x80 SHR SWAP2 PUSH2 0x3293 JUMP JUMPDEST PUSH17 0xFFFFFFFFFFFFFFFFFFFFFFFFFFFFFFFFFF PUSH17 0x100000000000000000000000000000000 PUSH2 0x3288 JUMP JUMPDEST PUSH1 0x64 PUSH1 0x40 MLOAD PUSH32 0x8C379A000000000000000000000000000000000000000000000000000000000 DUP2 MSTORE PUSH1 0x20 PUSH1 0x4 DUP3 ADD MSTORE PUSH1 0x1 PUSH1 0x24 DUP3 ADD MSTORE PUSH32 0x5400000000000000000000000000000000000000000000000000000000000000 PUSH1 0x44 DUP3 ADD MSTORE REVERT JUMPDEST DUP1 PUSH2 0x3251 JUMP JUMPDEST SWAP1 SWAP2 PUSH32 0xFFFFFFFFFFFFFFFFFFFFFFFFFFFFFFFFFFFFFFFFFFFFFFFFFFFFFFFFFFFFFFFF DUP4 DUP4 MULMOD SWAP3 DUP1 DUP4 MUL SWAP3 DUP4 DUP1 DUP7 LT SWAP6 SUB SWAP5 DUP1 DUP7 SUB SWAP6 EQ PUSH2 0x38DE JUMPI DUP3 DUP6 LT ISZERO PUSH2 0x38A7 JUMPI SWAP1 DUP3 SWAP2 MULMOD PUSH1 0x1 DUP3 NOT ADD DUP3 AND DUP1 SWAP3 DIV PUSH1 0x2 DUP1 DUP3 PUSH1 0x3 MUL XOR DUP1 DUP4 MUL DUP3 SUB MUL DUP1 DUP4 MUL DUP3 SUB MUL DUP1 DUP4 MUL DUP3 SUB MUL DUP1 DUP4 MUL DUP3 SUB MUL DUP1 DUP4 MUL DUP3 SUB MUL DUP1 SWAP3 MUL SWAP1 SUB MUL SWAP4 PUSH1 0x1 DUP4 DUP1 PUSH1 0x0 SUB DIV ADD SWAP1 DUP5 DUP4 GT SWAP1 SUB MUL SWAP3 SUB DIV OR MUL SWAP1 JUMP JUMPDEST PUSH1 0x44 DUP6 DUP5 PUSH1 0x40 MLOAD SWAP2 PUSH32 0x773CC18C00000000000000000000000000000000000000000000000000000000 DUP4 MSTORE PUSH1 0x4 DUP4 ADD MSTORE PUSH1 0x24 DUP3 ADD MSTORE REVERT JUMPDEST POP POP SWAP1 PUSH2 0x2EC3 SWAP3 POP PUSH2 0x2D96 JUMP JUMPDEST DUP1 ISZERO PUSH2 0x3A33 JUMPI DUP1 PUSH1 0x1 PUSH17 0x100000000000000000000000000000000 DUP4 LT ISZERO PUSH2 0x3A1D JUMPI JUMPDEST PUSH1 0x8 DUP3 PUSH9 0x10000000000000000 PUSH2 0x39C5 SWAP5 LT ISZERO PUSH2 0x3A10 JUMPI JUMPDEST PUSH5 0x100000000 DUP2 LT ISZERO PUSH2 0x3A03 JUMPI JUMPDEST PUSH3 0x10000 DUP2 LT ISZERO PUSH2 0x39F7 JUMPI JUMPDEST PUSH2 0x100 DUP2 LT ISZERO PUSH2 0x39EB JUMPI JUMPDEST PUSH1 0x10 DUP2 LT ISZERO PUSH2 0x39DE JUMPI JUMPDEST LT ISZERO PUSH2 0x39D6 JUMPI JUMPDEST PUSH2 0x3966 DUP2 DUP5 PUSH2 0x2D96 JUMP JUMPDEST ADD PUSH1 0x1 SHR PUSH2 0x3974 DUP2 DUP5 PUSH2 0x2D96 JUMP JUMPDEST ADD PUSH1 0x1 SHR PUSH2 0x3982 DUP2 DUP5 PUSH2 0x2D96 JUMP JUMPDEST ADD PUSH1 0x1 SHR PUSH2 0x3990 DUP2 DUP5 PUSH2 0x2D96 JUMP JUMPDEST ADD PUSH1 0x1 SHR PUSH2 0x399E DUP2 DUP5 PUSH2 0x2D96 JUMP JUMPDEST ADD PUSH1 0x1 SHR PUSH2 0x39AC DUP2 DUP5 PUSH2 0x2D96 JUMP JUMPDEST ADD PUSH1 0x1 SHR PUSH2 0x39BA DUP2 DUP5 PUSH2 0x2D96 JUMP JUMPDEST ADD PUSH1 0x1 SHR DUP1 SWAP3 PUSH2 0x2D96 JUMP JUMPDEST SWAP1 DUP2 DUP2 LT PUSH2 0x39D1 JUMPI POP SWAP1 JUMP JUMPDEST SWAP1 POP SWAP1 JUMP JUMPDEST PUSH1 0x1 SHL PUSH2 0x395C JUMP JUMPDEST PUSH1 0x4 SHR SWAP2 PUSH1 0x2 SHL SWAP2 PUSH2 0x3955 JUMP JUMPDEST DUP2 SHR SWAP2 PUSH1 0x4 SHL SWAP2 PUSH2 0x394B JUMP JUMPDEST PUSH1 0x10 SHR SWAP2 DUP2 SHL SWAP2 PUSH2 0x3940 JUMP JUMPDEST PUSH1 0x20 SHR SWAP2 PUSH1 0x10 SHL SWAP2 PUSH2 0x3934 JUMP JUMPDEST PUSH1 0x40 SHR SWAP2 PUSH1 0x20 SHL SWAP2 PUSH2 0x3926 JUMP JUMPDEST POP POP PUSH1 0x80 DUP2 SWAP1 SHR PUSH9 0x10000000000000000 PUSH2 0x390E JUMP JUMPDEST POP PUSH1 0x0 SWAP1 JUMP JUMPDEST SWAP1 PUSH8 0xDE0B6B3A7640000 DUP1 DUP4 LT PUSH2 0x3BAE JUMPI PUSH1 0x0 SWAP3 DUP2 DUP2 DIV PUSH17 0x100000000000000000000000000000000 DUP2 LT ISZERO PUSH2 0x3BA3 JUMPI JUMPDEST PUSH9 0x10000000000000000 DUP2 LT ISZERO PUSH2 0x3B8E JUMPI JUMPDEST PUSH5 0x100000000 DUP2 LT ISZERO PUSH2 0x3B79 JUMPI JUMPDEST PUSH3 0x10000 DUP2 LT ISZERO PUSH2 0x3B64 JUMPI JUMPDEST PUSH2 0x100 DUP2 LT ISZERO PUSH2 0x3B4F JUMPI JUMPDEST PUSH1 0x10 DUP2 LT ISZERO PUSH2 0x3B3A JUMPI JUMPDEST PUSH1 0x4 DUP2 LT ISZERO PUSH2 0x3B25 JUMPI JUMPDEST PUSH1 0x2 GT ISZERO PUSH2 0x3B13 JUMPI JUMPDEST DUP2 DUP5 MUL SWAP4 SHR SWAP1 DUP1 DUP3 EQ PUSH2 0x3B0F JUMPI PUSH8 0x6F05B59D3B20000 SWAP2 DUP3 JUMPDEST PUSH2 0x3AE0 JUMPI POP POP POP JUMP JUMPDEST DUP1 DUP3 SWAP2 MUL DIV SWAP2 PUSH8 0x1BC16D674EC80000 DUP4 LT ISZERO PUSH2 0x3B01 JUMPI JUMPDEST PUSH1 0x1 SHR SWAP2 DUP3 PUSH2 0x3AD7 JUMP JUMPDEST DUP1 SWAP3 SWAP5 ADD SWAP4 PUSH1 0x1 SHR SWAP2 PUSH2 0x3AF7 JUMP JUMPDEST POP POP JUMP JUMPDEST SWAP3 PUSH1 0x1 DUP2 ADD DUP1 SWAP2 GT PUSH2 0xE16 JUMPI SWAP3 PUSH2 0x3ABE JUMP JUMPDEST PUSH1 0x2 SHR SWAP4 PUSH1 0x2 DUP2 ADD DUP1 SWAP2 GT PUSH2 0xE16 JUMPI SWAP4 PUSH2 0x3AB5 JUMP JUMPDEST PUSH1 0x4 SHR SWAP4 PUSH1 0x4 DUP2 ADD DUP1 SWAP2 GT PUSH2 0xE16 JUMPI SWAP4 PUSH2 0x3AAB JUMP JUMPDEST PUSH1 0x8 SHR SWAP4 PUSH1 0x8 DUP2 ADD DUP1 SWAP2 GT PUSH2 0xE16 JUMPI SWAP4 PUSH2 0x3AA1 JUMP JUMPDEST PUSH1 0x10 SHR SWAP4 PUSH1 0x10 DUP2 ADD DUP1 SWAP2 GT PUSH2 0xE16 JUMPI SWAP4 PUSH2 0x3A96 JUMP JUMPDEST PUSH1 0x20 SHR SWAP4 PUSH1 0x20 DUP2 ADD DUP1 SWAP2 GT PUSH2 0xE16 JUMPI SWAP4 PUSH2 0x3A8A JUMP JUMPDEST PUSH1 0x40 SHR SWAP4 PUSH1 0x40 DUP2 ADD DUP1 SWAP2 GT PUSH2 0xE16 JUMPI SWAP4 PUSH2 0x3A7C JUMP JUMPDEST PUSH1 0x80 SWAP5 POP DUP5 SHR PUSH2 0x3A6A JUMP JUMPDEST PUSH1 0x24 DUP4 PUSH1 0x40 MLOAD SWAP1 PUSH32 0xD88504DC00000000000000000000000000000000000000000000000000000000 DUP3 MSTORE PUSH1 0x4 DUP3 ADD MSTORE REVERT INVALID LOG1 PUSH5 0x736F6C6343 STOP ADDMOD GT STOP EXP "},"methodIdentifiers":{"AGGREGATOR_DECIMALS()":"8a790cf2","AGGREGATOR_SCALAR()":"9ff631dd","GRACE_PERIOD()":"c1a287e2","S()":"4be1c796","SECONDS_PER_YEAR()":"e6a69ab8","allNebulas(uint256)":"d02c70e8","decimals()":"313ce567","denominationAggregator()":"8eb6f8f0","denominationToken()":"f6b9fdfb","denominationTokenPrice()":"cadbcc21","getAnnualizedBaseRate(uint256,uint256,uint256)":"131ad74e","getNebulaOracle(address)":"3ef096d3","initializeNebulaOracle(address,address[])":"d9be8531","lpTokenInfo(address)":"6cdeb028","lpTokenPriceUsd(address)":"17e5a1a1","name()":"06fdde03","nebulaRegistry()":"e13d88ac","nebulaSize()":"ba3941e7","version()":"54fd4d50"}}}}}