{"contracts/all-cygnus-oracles/BalancerComposableNebula.sol":{"BalancerComposableNebula":{"abi":[{"inputs":[{"internalType":"contract IERC20","name":"denomination","type":"address"},{"internalType":"contract AggregatorV3Interface","name":"denominationPrice","type":"address"},{"internalType":"address","name":"_nebulaRegistry","type":"address"}],"stateMutability":"nonpayable","type":"constructor"},{"inputs":[],"name":"CygnusNebulaOracle__AlreadyInContext","type":"error"},{"inputs":[{"internalType":"address","name":"sender","type":"address"}],"name":"CygnusNebulaOracle__MsgSenderNotRegistry","type":"error"},{"inputs":[{"internalType":"address","name":"lpTokenPair","type":"address"}],"name":"CygnusNebulaOracle__PairAlreadyInitialized","type":"error"},{"inputs":[{"internalType":"address","name":"lpTokenPair","type":"address"}],"name":"CygnusNebulaOracle__PairNotInitialized","type":"error"},{"inputs":[{"internalType":"uint256","name":"x","type":"uint256"}],"name":"PRBMathUD60x18__Exp2InputTooBig","type":"error"},{"inputs":[{"internalType":"uint256","name":"x","type":"uint256"}],"name":"PRBMathUD60x18__ExpInputTooBig","type":"error"},{"inputs":[{"internalType":"uint256","name":"x","type":"uint256"}],"name":"PRBMathUD60x18__LogInputTooSmall","type":"error"},{"inputs":[{"internalType":"uint256","name":"prod1","type":"uint256"}],"name":"PRBMath__MulDivFixedPointOverflow","type":"error"},{"inputs":[{"internalType":"uint256","name":"prod1","type":"uint256"},{"internalType":"uint256","name":"denominator","type":"uint256"}],"name":"PRBMath__MulDivOverflow","type":"error"},{"anonymous":false,"inputs":[{"indexed":false,"internalType":"bool","name":"initialized","type":"bool"},{"indexed":false,"internalType":"uint88","name":"oracleId","type":"uint88"},{"indexed":false,"internalType":"address","name":"lpTokenPair","type":"address"},{"indexed":false,"internalType":"contract IERC20[]","name":"poolTokens","type":"address[]"},{"indexed":false,"internalType":"uint256[]","name":"poolTokensDecimals","type":"uint256[]"},{"indexed":false,"internalType":"contract AggregatorV3Interface[]","name":"priceFeeds","type":"address[]"},{"indexed":false,"internalType":"uint256[]","name":"priceFeedsDecimals","type":"uint256[]"}],"name":"InitializeNebulaOracle","type":"event"},{"anonymous":false,"inputs":[{"indexed":false,"internalType":"address","name":"oracleOldAdmin","type":"address"},{"indexed":false,"internalType":"address","name":"oracleNewAdmin","type":"address"}],"name":"NewOracleAdmin","type":"event"},{"anonymous":false,"inputs":[{"indexed":false,"internalType":"address","name":"oracleCurrentAdmin","type":"address"},{"indexed":false,"internalType":"address","name":"oraclePendingAdmin","type":"address"}],"name":"NewOraclePendingAdmin","type":"event"},{"inputs":[],"name":"AGGREGATOR_DECIMALS","outputs":[{"internalType":"uint256","name":"","type":"uint256"}],"stateMutability":"view","type":"function"},{"inputs":[],"name":"AGGREGATOR_SCALAR","outputs":[{"internalType":"uint256","name":"","type":"uint256"}],"stateMutability":"view","type":"function"},{"inputs":[],"name":"GRACE_PERIOD","outputs":[{"internalType":"uint256","name":"","type":"uint256"}],"stateMutability":"view","type":"function"},{"inputs":[],"name":"S","outputs":[{"internalType":"bytes4","name":"","type":"bytes4"}],"stateMutability":"view","type":"function"},{"inputs":[],"name":"SECONDS_PER_YEAR","outputs":[{"internalType":"uint256","name":"","type":"uint256"}],"stateMutability":"view","type":"function"},{"inputs":[],"name":"VAULT","outputs":[{"internalType":"address","name":"","type":"address"}],"stateMutability":"view","type":"function"},{"inputs":[{"internalType":"uint256","name":"","type":"uint256"}],"name":"allNebulas","outputs":[{"internalType":"address","name":"","type":"address"}],"stateMutability":"view","type":"function"},{"inputs":[],"name":"decimals","outputs":[{"internalType":"uint8","name":"","type":"uint8"}],"stateMutability":"view","type":"function"},{"inputs":[],"name":"denominationAggregator","outputs":[{"internalType":"contract AggregatorV3Interface","name":"","type":"address"}],"stateMutability":"view","type":"function"},{"inputs":[],"name":"denominationToken","outputs":[{"internalType":"contract IERC20","name":"","type":"address"}],"stateMutability":"view","type":"function"},{"inputs":[],"name":"denominationTokenPrice","outputs":[{"internalType":"uint256","name":"","type":"uint256"}],"stateMutability":"view","type":"function"},{"inputs":[{"internalType":"uint256","name":"exchangeRateLast","type":"uint256"},{"internalType":"uint256","name":"exchangeRateCurrent","type":"uint256"},{"internalType":"uint256","name":"timeElapsed","type":"uint256"}],"name":"getAnnualizedBaseRate","outputs":[{"internalType":"uint256","name":"","type":"uint256"}],"stateMutability":"pure","type":"function"},{"inputs":[{"internalType":"address","name":"lpTokenPair","type":"address"}],"name":"getNebulaOracle","outputs":[{"components":[{"internalType":"bool","name":"initialized","type":"bool"},{"internalType":"uint88","name":"oracleId","type":"uint88"},{"internalType":"string","name":"name","type":"string"},{"internalType":"address","name":"underlying","type":"address"},{"internalType":"contract IERC20[]","name":"poolTokens","type":"address[]"},{"internalType":"uint256[]","name":"poolTokensDecimals","type":"uint256[]"},{"internalType":"contract AggregatorV3Interface[]","name":"priceFeeds","type":"address[]"},{"internalType":"uint256[]","name":"priceFeedsDecimals","type":"uint256[]"},{"internalType":"uint256","name":"createdAt","type":"uint256"}],"internalType":"struct ICygnusNebula.NebulaOracle","name":"","type":"tuple"}],"stateMutability":"view","type":"function"},{"inputs":[{"internalType":"address","name":"lpTokenPair","type":"address"},{"internalType":"contract AggregatorV3Interface[]","name":"aggregators","type":"address[]"}],"name":"initializeNebulaOracle","outputs":[],"stateMutability":"nonpayable","type":"function"},{"inputs":[{"internalType":"address","name":"lpTokenPair","type":"address"}],"name":"lpTokenInfo","outputs":[{"internalType":"contract IERC20[]","name":"tokens","type":"address[]"},{"internalType":"uint256[]","name":"prices","type":"uint256[]"},{"internalType":"uint256[]","name":"reserves","type":"uint256[]"},{"internalType":"uint256[]","name":"tokenDecimals","type":"uint256[]"},{"internalType":"uint256[]","name":"reservesUsd","type":"uint256[]"}],"stateMutability":"view","type":"function"},{"inputs":[{"internalType":"address","name":"lpTokenPair","type":"address"}],"name":"lpTokenPriceUsd","outputs":[{"internalType":"uint256","name":"lpTokenPrice","type":"uint256"}],"stateMutability":"view","type":"function"},{"inputs":[],"name":"name","outputs":[{"internalType":"string","name":"","type":"string"}],"stateMutability":"view","type":"function"},{"inputs":[],"name":"nebulaRegistry","outputs":[{"internalType":"address","name":"","type":"address"}],"stateMutability":"view","type":"function"},{"inputs":[],"name":"nebulaSize","outputs":[{"internalType":"uint88","name":"","type":"uint88"}],"stateMutability":"view","type":"function"},{"inputs":[],"name":"version","outputs":[{"internalType":"string","name":"","type":"string"}],"stateMutability":"view","type":"function"}],"evm":{"bytecode":{"linkReferences":{},"object":"6101008060405234620002225760608162003285803803809162000024828562000227565b833981010312620002225780516001600160a01b039190828116808203620002225760209182840151938585168503620002225760400151948516850362000222576002549060018083811c9316801562000217575b85841014620002015782601f869411620001c4575b5090616c6160f01b6004949260456002556002600052846000207f4379676e75733a2042616c616e63657220436f6d706f7361626c65204e656275815501556080526040519283809263313ce56760e01b82525afa918215620001b85760009262000173575b505060a05260c05260e052604051613023908162000262823960805181610143015260a051818181610fae015281816112a80152818161141a01528181611475015281816119ea0152611bbc015260c051818181610f86015281816111320152818161127c0152611b93015260e0518181816101f401526102c70152f35b81813d8311620001b0575b6200018a818362000227565b81010312620001ac57519060ff82168203620001a957503880620000f5565b80fd5b5080fd5b503d6200017e565b6040513d6000823e3d90fd5b6002600095939295526002601f85600020920160051c820191015b818110620001f25750939091936200008f565b600081558694508501620001df565b634e487b7160e01b600052602260045260246000fd5b92607f16926200007a565b600080fd5b601f909101601f19168101906001600160401b038211908210176200024b57604052565b634e487b7160e01b600052604160045260246000fdfe6080604052600436101561001257600080fd5b60003560e01c806306fdde031461270a578063131ad74e14611da257806317e5a1a114611a0e578063313ce567146119b25780633ef096d3146116d6578063411557d1146116895780634be1c7961461163057806354fd4d50146115a95780636cdeb028146111905780638a790cf2146111565780638eb6f8f0146110e75780639ff631dd146110a9578063ba3941e714611060578063c1a287e214611025578063cadbcc2114610f52578063d02c70e814610ee4578063d9be853114610218578063e13d88ac146101a9578063e6a69ab81461016c5763f6b9fdfb146100f857600080fd5b346101675760007ffffffffffffffffffffffffffffffffffffffffffffffffffffffffffffffffc36011261016757602060405173ffffffffffffffffffffffffffffffffffffffff7f0000000000000000000000000000000000000000000000000000000000000000168152f35b600080fd5b346101675760007ffffffffffffffffffffffffffffffffffffffffffffffffffffffffffffffffc3601126101675760206040516301e133808152f35b346101675760007ffffffffffffffffffffffffffffffffffffffffffffffffffffffffffffffffc36011261016757602060405173ffffffffffffffffffffffffffffffffffffffff7f0000000000000000000000000000000000000000000000000000000000000000168152f35b346101675760407ffffffffffffffffffffffffffffffffffffffffffffffffffffffffffffffffc3601126101675773ffffffffffffffffffffffffffffffffffffffff60043516600435036101675767ffffffffffffffff60243511610167573660236024350112156101675767ffffffffffffffff60243560040135116101675736602480356004013560051b81350101116101675773ffffffffffffffffffffffffffffffffffffffff7f0000000000000000000000000000000000000000000000000000000000000000163303610eb45773ffffffffffffffffffffffffffffffffffffffff6004351660005260006020526040600020805460ff8116600014610e235750611c20610332600783015442612acc565b11610ddb575b61034760243560040135612b88565b61035460405191826127ad565b600460243501358082527fffffffffffffffffffffffffffffffffffffffffffffffffffffffffffffffe09061038990612b88565b0136602083013761039f60243560040135612ba0565b906103af60243560040135612ba0565b92604051917f38fff2d000000000000000000000000000000000000000000000000000000000835260208360048173ffffffffffffffffffffffffffffffffffffffff8235165afa928315610b0257600093610da7575b50604051927ff94d4668000000000000000000000000000000000000000000000000000000008452600484015260008360248173ba12222222228d8ba445958a75a0704d566bf2c85afa928315610b0257600093610c4d575b5060009160005b84518110156104fe5773ffffffffffffffffffffffffffffffffffffffff6004351673ffffffffffffffffffffffffffffffffffffffff6104a78388612bef565b5116036104bd575b6104b890612b5b565b610466565b926104f66104b89173ffffffffffffffffffffffffffffffffffffffff6104e48789612bef565b51166104f08287612bef565b52612b5b565b9390506104af565b8683838860005b602435600401358110610b0e575060015482547fffffffffffffffffffffffffffffffffffffffff0000000000000000000000ff1660089190911b6bffffffffffffffffffffff00161782556040517f06fdde0300000000000000000000000000000000000000000000000000000000815260008160048173ffffffffffffffffffffffffffffffffffffffff8235165afa908115610b0257600091610a88575b5080519067ffffffffffffffff82116108e95781906105c8600186015461275a565b601f8111610a48575b50602090601f831160011461097c57600092610971575b50507fffffffffffffffffffffffffffffffffffffffffffffffffffffffffffffffff8260011b9260031b1c19161760018301555b6002820173ffffffffffffffffffffffffffffffffffffffff600435167fffffffffffffffffffffffff0000000000000000000000000000000000000000825416179055825167ffffffffffffffff81116108e9576801000000000000000081116108e9576003830161069582825481845583612ca7565b6020850190600052602060002060005b8381106109475750505050805167ffffffffffffffff81116108e9576801000000000000000081116108e957600483016106e482825481845583612ca7565b6020830190600052602060002060005b83811061093357505050506801000000000000000060243560040135116108e9576005820180546004602435013580835561073192909190612ca7565b602480350191826005820160005260206000209060005b60243560040135811061091857505050845167ffffffffffffffff81116108e9576801000000000000000081116108e9576006820161078c82825481845583612ca7565b6020870190600052602060002060005b8381106108d557505050506020916108346affffffffffffffffffffff8360017fffffffffffffffffffffffffffffffffffffffffffffffffffffffffffffff006108429654161781556107f36004356001612c03565b5460081c169560405196600188528588015273ffffffffffffffffffffffffffffffffffffffff60043516604088015260e0606088015260e0870190612919565b908582036080870152612963565b83810360a0850152602435600401358152019060005b60243560040135811061089f577f558b57994e63dd3105e23dd47f60a4074d50167448cd407bc457b8a29e3dab0d848061089a868983820360c0850152612963565b0390a1005b909182359073ffffffffffffffffffffffffffffffffffffffff8216809203610167576020816001938293520193019101610858565b60019060208451940193818401550161079c565b7f4e487b7100000000000000000000000000000000000000000000000000000000600052604160045260246000fd5b600190602061092684612c6f565b9301928185015501610748565b6001906020845194019381840155016106f4565b600190602073ffffffffffffffffffffffffffffffffffffffff85511694019381840155016106a5565b0151905086806105e8565b9250600185016000526020600020906000935b7fffffffffffffffffffffffffffffffffffffffffffffffffffffffffffffffe084168510610a2d5760019450837fffffffffffffffffffffffffffffffffffffffffffffffffffffffffffffffe08116106109f6575b505050811b01600183015561061d565b01517fffffffffffffffffffffffffffffffffffffffffffffffffffffffffffffffff60f88460031b161c191690558680806109e6565b8181015183556020948501946001909301929091019061098f565b610a7890600187016000526020600020601f850160051c81019160208610610a7e575b601f0160051c0190612c90565b876105d1565b9091508190610a6b565b90503d806000833e610a9a81836127ad565b8101906020818303126101675780519067ffffffffffffffff8211610167570181601f82011215610167578051610ad081612997565b92610ade60405194856127ad565b8184526020828401011161016757610afc91602080850191016128b3565b856105a6565b6040513d6000823e3d90fd5b80602073ffffffffffffffffffffffffffffffffffffffff610b3260049488612bef565b5116604051938480927f313ce5670000000000000000000000000000000000000000000000000000000082525afa918215610b025760049260ff91600091610c2e575b5016610b818285612bef565b52602073ffffffffffffffffffffffffffffffffffffffff610bab60248460051b81350101612c6f565b16604051938480927f313ce5670000000000000000000000000000000000000000000000000000000082525afa918215610b0257610bfa9260ff91600091610bff575b50166104f08288612bef565b610505565b610c21915060203d602011610c27575b610c1981836127ad565b810190612c56565b88610bee565b503d610c0f565b610c47915060203d602011610c2757610c1981836127ad565b88610b75565b9092503d90816000823e610c6182826127ad565b60608183810103126101675780519167ffffffffffffffff831161016757808201601f848401011215610167578282015192610c9c84612b88565b93610caa60405195866127ad565b808552602085019183850160208360051b8388010101116101675791602083860101925b60208360051b82880101018410610d745750505050602082015167ffffffffffffffff811161016757818301601f8285010112156101675780830151926020610d1685612b88565b610d2360405191826127ad565b8581520192810160208560051b8484010101116101675780820160200192915b60208560051b82840101018410610d60575050505050918561045f565b602080809486518152019401939250610d43565b83519173ffffffffffffffffffffffffffffffffffffffff83168303610167576020818194829352019401939150610cce565b9092506020813d602011610dd3575b81610dc3602093836127ad565b8101031261016757519185610406565b3d9150610db6565b60246040517f48a979dc00000000000000000000000000000000000000000000000000000000815273ffffffffffffffffffffffffffffffffffffffff600435166004820152fd5b7fffffffffffffffffffffffffffffffffffffffffffffffffffffffffffffff0060019116178155610e9c6affffffffffffffffffffff6001541682907fffffffffffffffffffffffffffffffffffffffff0000000000000000000000ff6bffffffffffffffffffffff0083549260081b169116179055565b426007820155610eaf6004356001612c03565b610338565b60246040517f47a51a28000000000000000000000000000000000000000000000000000000008152336004820152fd5b346101675760207ffffffffffffffffffffffffffffffffffffffffffffffffffffffffffffffffc360112610167576004356001548110156101675773ffffffffffffffffffffffffffffffffffffffff610f4260209260016129d1565b9190546040519260031b1c168152f35b346101675760007ffffffffffffffffffffffffffffffffffffffffffffffffffffffffffffffffc36011261016757610faa7f0000000000000000000000000000000000000000000000000000000000000000612b36565b60ff7f00000000000000000000000000000000000000000000000000000000000000001660120360ff8111610ff657602091610fe8610fee92612b25565b90612aec565b604051908152f35b7f4e487b7100000000000000000000000000000000000000000000000000000000600052601160045260246000fd5b346101675760007ffffffffffffffffffffffffffffffffffffffffffffffffffffffffffffffffc360112610167576020604051611c208152f35b346101675760007ffffffffffffffffffffffffffffffffffffffffffffffffffffffffffffffffc3601126101675760206affffffffffffffffffffff60015416604051908152f35b346101675760007ffffffffffffffffffffffffffffffffffffffffffffffffffffffffffffffffc3601126101675760206040516402540be4008152f35b346101675760007ffffffffffffffffffffffffffffffffffffffffffffffffffffffffffffffffc36011261016757602060405173ffffffffffffffffffffffffffffffffffffffff7f0000000000000000000000000000000000000000000000000000000000000000168152f35b346101675760007ffffffffffffffffffffffffffffffffffffffffffffffffffffffffffffffffc36011261016757602060405160088152f35b346101675760207ffffffffffffffffffffffffffffffffffffffffffffffffffffffffffffffffc3601126101675760043573ffffffffffffffffffffffffffffffffffffffff81168091036101675780600052600060205260406000209060ff825416156115785761120560038301612a18565b9061121260048401612a7d565b9260038101549061122282612ba0565b9061122c83612ba0565b926004602061123a83612ba0565b96604051928380927f38fff2d00000000000000000000000000000000000000000000000000000000082525afa908115610b0257600091611546575b506112a07f0000000000000000000000000000000000000000000000000000000000000000612b36565b90600060ff807f000000000000000000000000000000000000000000000000000000000000000016601203115b848210611338576112fc8a6113348b6113268f6113188e61130a8f604051998a9960a08b5260a08b0190612919565b9089820360208b0152612963565b908782036040890152612963565b908582036060870152612963565b908382036080850152612963565b0390f35b61136a73ffffffffffffffffffffffffffffffffffffffff61135d8460058a016129d1565b90549060031b1c16612b36565b9073ffffffffffffffffffffffffffffffffffffffff61138d8460038a016129d1565b90549060031b1c16604051907fb05f8e48000000000000000000000000000000000000000000000000000000008252856004830152602482015260808160448173ba12222222228d8ba445958a75a0704d566bf2c85afa908115610b02576000916114f2575b506113fe848b612bef565b52610ff65761144e90670de0b6b3a764000061144861144260ff7f000000000000000000000000000000000000000000000000000000000000000016601203612b25565b87612ad9565b91612cca565b6114588288612bef565b526114638187612bef565b51906114b46114a360009361149d60ff7f000000000000000000000000000000000000000000000000000000000000000016601203612b25565b90612ad9565b6114ad838b612bef565b5190612ad9565b906114c281600489016129d1565b90549060031b1c604d8111610ff6576114ec926114e291600a0a90612aec565b6104f0828c612bef565b906112cd565b90506080813d60801161153e575b8161150d608093836127ad565b81010312610167576060815191015173ffffffffffffffffffffffffffffffffffffffff811603610167578d6113f3565b3d9150611500565b90506020813d602011611570575b81611561602093836127ad565b81010312610167575188611276565b3d9150611554565b602490604051907ffb642b4d0000000000000000000000000000000000000000000000000000000082526004820152fd5b346101675760007ffffffffffffffffffffffffffffffffffffffffffffffffffffffffffffffffc360112610167576113346115e56005612997565b6115f260405191826127ad565b600581527f312e302e3000000000000000000000000000000000000000000000000000000060208201526040519182916020835260208301906128d6565b346101675760007ffffffffffffffffffffffffffffffffffffffffffffffffffffffffffffffffc3601126101675760206040517f0e8e3e84000000000000000000000000000000000000000000000000000000008152f35b346101675760007ffffffffffffffffffffffffffffffffffffffffffffffffffffffffffffffffc36011261016757602060405173ba12222222228d8ba445958a75a0704d566bf2c88152f35b346101675760207ffffffffffffffffffffffffffffffffffffffffffffffffffffffffffffffffc3601126101675760043573ffffffffffffffffffffffffffffffffffffffff811680910361016757600061010060405161173a610120826127ad565b8281528260208201526060604082015282606082015260606080820152606060a0820152606060c0820152606060e082015201526000526000602052604060002060405161178a610120826127ad565b6affffffffffffffffffffff825460ff81161515835260081c1660208201526117b5600183016127ee565b604082015273ffffffffffffffffffffffffffffffffffffffff60028301541660608201526117e660038301612a18565b60808201526117f760048301612a7d565b60a08201526005820191604051806020855491828152019460005260206000209060005b81811061198657505050611834816007949503826127ad565b60c084015261184560068201612a7d565b60e08401520154610100820152604051602081528151151560208201526affffffffffffffffffffff6020830151166040820152611894604083015161012060608401526101408301906128d6565b9173ffffffffffffffffffffffffffffffffffffffff60608201511660808301526119066118f26080830151947fffffffffffffffffffffffffffffffffffffffffffffffffffffffffffffffe095868683030160a0870152612919565b60a0830151858583030160c0860152612963565b9260c082015193818482030160e08501526020808651928381520195019060005b81811061195a5750505061194d83946101009260e0850151908683030184870152612963565b9101516101208301520390f35b825173ffffffffffffffffffffffffffffffffffffffff16875260209687019690920191600101611927565b825473ffffffffffffffffffffffffffffffffffffffff1687526020909601956001928301920161181b565b346101675760007ffffffffffffffffffffffffffffffffffffffffffffffffffffffffffffffffc36011261016757602060405160ff7f0000000000000000000000000000000000000000000000000000000000000000168152f35b34610167576020807ffffffffffffffffffffffffffffffffffffffffffffffffffffffffffffffffc3601126101675760043573ffffffffffffffffffffffffffffffffffffffff80821680920361016757604051916000808585017f0e8e3e840000000000000000000000000000000000000000000000000000000081526024958287820152868152611aa36044826127ad565b519073ba12222222228d8ba445958a75a0704d566bf2c8612710fa503d15611d9b573d611acf81612997565b90611add60405192836127ad565b81523d60008683013e5b51611d71578060005260008452604060002060ff81541615611d4157600380820180546000957fffffffffffffffffffffffffffffffffffffffffffffffffffffffffffffffff9589959094906005015b838910611c6157505050505060049350604051938480927f679aefce0000000000000000000000000000000000000000000000000000000082525afa908115610b0257600091611c30575b611b8d9250612f4d565b90611bb77f0000000000000000000000000000000000000000000000000000000000000000612b36565b9060ff7f0000000000000000000000000000000000000000000000000000000000000000166012039060ff8211611c035750611448610fee939261149d670de0b6b3a764000093612b25565b7f4e487b710000000000000000000000000000000000000000000000000000000060005260116004526000fd5b90508382813d8311611c5a575b611c4781836127ad565b8101031261016757611b8d915190611b83565b503d611c3d565b91939550919395611c8284611c768a856129d1565b905490861b1c16612b36565b9084611c8e8a896129d1565b905490861b1c16604051907f54dea00a00000000000000000000000000000000000000000000000000000000825260048201528b818c818c5afa908115610b0257600091611d12575b50611cee90670de0b6b3a7640000611cfe94612cca565b80821015611d0b57505b97612b5b565b9695939189959391611b38565b9050611cf8565b90508b81813d8311611d3a575b611d2981836127ad565b810103126101675751611cfe611cd7565b503d611d1f565b8382604051907ffb642b4d0000000000000000000000000000000000000000000000000000000082526004820152fd5b60046040517f47a08e96000000000000000000000000000000000000000000000000000000008152fd5b6060611ae7565b346101675760607ffffffffffffffffffffffffffffffffffffffffffffffffffffffffffffffffc360112610167576714057b7ef767814f670de0b6b3a7640000611e098282611df3600435612da7565b02048383611e02602435612da7565b0204612acc565b6301e1338090818102918183041490151715610ff657611e2c9060443590612aec565b91680736ea4425c11ac6318310156126d9576706f05b59d3b20000908293020104680a688906bd8b0000008110156126a857819060401b0490778000000000000000000000000000000000000000000000006780000000000000008316612689575b6740000000000000008316612676575b6720000000000000008316612663575b6710000000000000008316612650575b670800000000000000831661263d575b670400000000000000831661262a575b6702000000000000008316612617575b6701000000000000008316612604575b668000000000000083166125f1575b664000000000000083166125de575b662000000000000083166125cb575b661000000000000083166125b8575b660800000000000083166125a5575b66040000000000008316612592575b6602000000000000831661257f575b6601000000000000831661256c575b658000000000008316612559575b654000000000008316612546575b652000000000008316612533575b651000000000008316612520575b65080000000000831661250d575b6504000000000083166124fa575b6502000000000083166124e7575b6501000000000083166124d4575b64800000000083166124c1575b64400000000083166124ae575b642000000000831661249b575b6410000000008316612488575b6408000000008316612475575b6404000000008316612462575b640200000000831661244f575b640100000000831661243c575b63800000008316612429575b63400000008316612416575b63200000008316612403575b631000000083166123f0575b630800000083166123dd575b630400000083166123ca575b630200000083166123b7575b630100000083166123a4575b628000008316612391575b62400000831661237e575b62200000831661236b575b621000008316612358575b620800008316612345575b620400008316612332575b62020000831661231f575b62010000831661230c575b61800083166122f9575b61400083166122e6575b61200083166122d3575b61100083166122c0575b61080083166122ad575b610400831661229a575b6102008316612287575b6101008316612274575b60808316612261575b6040831661224e575b6020831661223b575b60108316612228575b60088316612215575b60048316612202575b600283166121ef575b600183166121dc575b029060401c60bf031c7ffffffffffffffffffffffffffffffffffffffffffffffffff21f494c589c00008101908111610ff657602090604051908152f35b680100000000000000010260401c61219e565b680100000000000000010260401c612195565b680100000000000000030260401c61218c565b680100000000000000060260401c612183565b6801000000000000000b0260401c61217a565b680100000000000000160260401c612171565b6801000000000000002c0260401c612168565b680100000000000000590260401c61215f565b680100000000000000b10260401c612156565b680100000000000001630260401c61214c565b680100000000000002c60260401c612142565b6801000000000000058c0260401c612138565b68010000000000000b170260401c61212e565b6801000000000000162e0260401c612124565b68010000000000002c5d0260401c61211a565b680100000000000058b90260401c612110565b6801000000000000b1720260401c612106565b680100000000000162e40260401c6120fb565b6801000000000002c5c80260401c6120f0565b68010000000000058b910260401c6120e5565b680100000000000b17210260401c6120da565b68010000000000162e430260401c6120cf565b680100000000002c5c860260401c6120c4565b6801000000000058b90c0260401c6120b9565b68010000000000b172180260401c6120ae565b6801000000000162e4300260401c6120a2565b68010000000002c5c8600260401c612096565b680100000000058b90c00260401c61208a565b6801000000000b17217f0260401c61207e565b680100000000162e42ff0260401c612072565b6801000000002c5c85fe0260401c612066565b68010000000058b90bfc0260401c61205a565b680100000000b17217f80260401c61204e565b68010000000162e42ff10260401c612041565b680100000002c5c85fe30260401c612034565b6801000000058b90bfce0260401c612027565b68010000000b17217fbb0260401c61201a565b6801000000162e42fff00260401c61200d565b68010000002c5c8601cc0260401c612000565b680100000058b90c0b490260401c611ff3565b6801000000b1721835510260401c611fe6565b680100000162e430e5a20260401c611fd8565b6801000002c5c863b73f0260401c611fca565b68010000058b90cf1e6e0260401c611fbc565b680100000b1721bcfc9a0260401c611fae565b68010000162e43f4f8310260401c611fa0565b680100002c5c89d5ec6d0260401c611f92565b6801000058b91b5bc9ae0260401c611f84565b68010000b17255775c040260401c611f76565b6801000162e525ee05470260401c611f67565b68010002c5cc37da94920260401c611f58565b680100058ba01fb9f96d0260401c611f49565b6801000b175effdc76ba0260401c611f3a565b680100162f3904051fa10260401c611f2b565b6801002c605e2e8cec500260401c611f1c565b68010058c86da1c09ea20260401c611f0d565b680100b1afa5abcbed610260401c611efe565b68010163da9fb33356d80260401c611eee565b680102c9a3e778060ee70260401c611ede565b6801059b0d31585743ae0260401c611ece565b68010b5586cf9890f62a0260401c611ebe565b6801172b83c7d517adce0260401c611eae565b6801306fe0a31b7152df0260401c611e9e565b5077b504f333f9de648480000000000000000000000000000000611e8e565b602490604051907f4a4f26f10000000000000000000000000000000000000000000000000000000082526004820152fd5b602483604051907f315da0680000000000000000000000000000000000000000000000000000000082526004820152fd5b346101675760007ffffffffffffffffffffffffffffffffffffffffffffffffffffffffffffffffc3601126101675761133461274660026127ee565b6040519182916020835260208301906128d6565b90600182811c921680156127a3575b602083101461277457565b7f4e487b7100000000000000000000000000000000000000000000000000000000600052602260045260246000fd5b91607f1691612769565b90601f7fffffffffffffffffffffffffffffffffffffffffffffffffffffffffffffffe0910116810190811067ffffffffffffffff8211176108e957604052565b90604051918260008254926128028461275a565b908184526001948581169081600014612871575060011461282e575b505061282c925003836127ad565b565b9093915060005260209081600020936000915b81831061285957505061282c9350820101388061281e565b85548884018501529485019487945091830191612841565b905061282c9550602093507fffffffffffffffffffffffffffffffffffffffffffffffffffffffffffffff0091501682840152151560051b820101388061281e565b60005b8381106128c65750506000910152565b81810151838201526020016128b6565b907fffffffffffffffffffffffffffffffffffffffffffffffffffffffffffffffe0601f602093612912815180928187528780880191016128b3565b0116010190565b90815180825260208080930193019160005b828110612939575050505090565b835173ffffffffffffffffffffffffffffffffffffffff168552938101939281019260010161292b565b90815180825260208080930193019160005b828110612983575050505090565b835185529381019392810192600101612975565b67ffffffffffffffff81116108e957601f017fffffffffffffffffffffffffffffffffffffffffffffffffffffffffffffffe01660200190565b80548210156129e95760005260206000200190600090565b7f4e487b7100000000000000000000000000000000000000000000000000000000600052603260045260246000fd5b9060405191828154918282526020928383019160005283600020936000905b828210612a4d5750505061282c925003836127ad565b855473ffffffffffffffffffffffffffffffffffffffff1684526001958601958895509381019390910190612a37565b9060405191828154918282526020928383019160005283600020936000905b828210612ab25750505061282c925003836127ad565b855484526001958601958895509381019390910190612a9c565b91908203918211610ff657565b81810292918115918404141715610ff657565b8115612af6570490565b7f4e487b7100000000000000000000000000000000000000000000000000000000600052601260045260246000fd5b60ff16604d8111610ff657600a0a90565b604060006004601c6402540be4009463feaf968c84525afa601f3d1116602051020290565b7fffffffffffffffffffffffffffffffffffffffffffffffffffffffffffffffff8114610ff65760010190565b67ffffffffffffffff81116108e95760051b60200190565b90612baa82612b88565b612bb760405191826127ad565b8281527fffffffffffffffffffffffffffffffffffffffffffffffffffffffffffffffe0612be58294612b88565b0190602036910137565b80518210156129e95760209160051b010190565b8054680100000000000000008110156108e957612c25916001820181556129d1565b819291549060031b9173ffffffffffffffffffffffffffffffffffffffff9283811b93849216901b16911916179055565b90816020910312610167575160ff811681036101675790565b3573ffffffffffffffffffffffffffffffffffffffff811681036101675790565b818110612c9b575050565b60008155600101612c90565b91818110612cb457505050565b61282c9260005260206000209182019101612c90565b90917fffffffffffffffffffffffffffffffffffffffffffffffffffffffffffffffff8383099280830292838086109503948086039514612d975782851015612d6057908291096001821901821680920460028082600302188083028203028083028203028083028203028083028203028083028203028092029003029360018380600003040190848311900302920304170290565b60448584604051917f773cc18c00000000000000000000000000000000000000000000000000000000835260048301526024820152fd5b505090612da49250612aec565b90565b90670de0b6b3a7640000808310612f1c57600092818104700100000000000000000000000000000000811015612f11575b68010000000000000000811015612efc575b640100000000811015612ee7575b62010000811015612ed2575b610100811015612ebd575b6010811015612ea8575b6004811015612e93575b60021115612e81575b818402931c90808214612e7d576706f05b59d3b2000091825b612e4e57505050565b808291020491671bc16d674ec80000831015612e6f575b60011c9182612e45565b809294019360011c91612e65565b5050565b9260018101809111610ff65792612e2c565b60021c9360028101809111610ff65793612e23565b60041c9360048101809111610ff65793612e19565b60081c9360088101809111610ff65793612e0f565b60101c9360108101809111610ff65793612e04565b60201c9360208101809111610ff65793612df8565b60401c9360408101809111610ff65793612dea565b60809450841c612dd8565b602483604051907fd88504dc0000000000000000000000000000000000000000000000000000000082526004820152fd5b7fffffffffffffffffffffffffffffffffffffffffffffffffffffffffffffffff828209828202908180821091039381850390670de0b6b3a76400009485831015612fe55790859109916706f05b59d3b1ffff83119514612fde577faccb18165bd6fe31ae1cf318dc5b51eee0e1ba569b88cd74c1773b91fac106699350828211900360ee1b910360121c17020190565b5050040190565b602483604051907fd31b34020000000000000000000000000000000000000000000000000000000082526004820152fdfea164736f6c6343000811000a","opcodes":"PUSH2 0x100 DUP1 PUSH1 0x40 MSTORE CALLVALUE PUSH3 0x222 JUMPI PUSH1 0x60 DUP2 PUSH3 0x3285 DUP1 CODESIZE SUB DUP1 SWAP2 PUSH3 0x24 DUP3 DUP6 PUSH3 0x227 JUMP JUMPDEST DUP4 CODECOPY DUP2 ADD SUB SLT PUSH3 0x222 JUMPI DUP1 MLOAD PUSH1 0x1 PUSH1 0x1 PUSH1 0xA0 SHL SUB SWAP2 SWAP1 DUP3 DUP2 AND DUP1 DUP3 SUB PUSH3 0x222 JUMPI PUSH1 0x20 SWAP2 DUP3 DUP5 ADD MLOAD SWAP4 DUP6 DUP6 AND DUP6 SUB PUSH3 0x222 JUMPI PUSH1 0x40 ADD MLOAD SWAP5 DUP6 AND DUP6 SUB PUSH3 0x222 JUMPI PUSH1 0x2 SLOAD SWAP1 PUSH1 0x1 DUP1 DUP4 DUP2 SHR SWAP4 AND DUP1 ISZERO PUSH3 0x217 JUMPI JUMPDEST DUP6 DUP5 LT EQ PUSH3 0x201 JUMPI DUP3 PUSH1 0x1F DUP7 SWAP5 GT PUSH3 0x1C4 JUMPI JUMPDEST POP SWAP1 PUSH2 0x6C61 PUSH1 0xF0 SHL PUSH1 0x4 SWAP5 SWAP3 PUSH1 0x45 PUSH1 0x2 SSTORE PUSH1 0x2 PUSH1 0x0 MSTORE DUP5 PUSH1 0x0 KECCAK256 PUSH32 0x4379676E75733A2042616C616E63657220436F6D706F7361626C65204E656275 DUP2 SSTORE ADD SSTORE PUSH1 0x80 MSTORE PUSH1 0x40 MLOAD SWAP3 DUP4 DUP1 SWAP3 PUSH4 0x313CE567 PUSH1 0xE0 SHL DUP3 MSTORE GAS STATICCALL SWAP2 DUP3 ISZERO PUSH3 0x1B8 JUMPI PUSH1 0x0 SWAP3 PUSH3 0x173 JUMPI JUMPDEST POP POP PUSH1 0xA0 MSTORE PUSH1 0xC0 MSTORE PUSH1 0xE0 MSTORE PUSH1 0x40 MLOAD PUSH2 0x3023 SWAP1 DUP2 PUSH3 0x262 DUP3 CODECOPY PUSH1 0x80 MLOAD DUP2 PUSH2 0x143 ADD MSTORE PUSH1 0xA0 MLOAD DUP2 DUP2 DUP2 PUSH2 0xFAE ADD MSTORE DUP2 DUP2 PUSH2 0x12A8 ADD MSTORE DUP2 DUP2 PUSH2 0x141A ADD MSTORE DUP2 DUP2 PUSH2 0x1475 ADD MSTORE DUP2 DUP2 PUSH2 0x19EA ADD MSTORE PUSH2 0x1BBC ADD MSTORE PUSH1 0xC0 MLOAD DUP2 DUP2 DUP2 PUSH2 0xF86 ADD MSTORE DUP2 DUP2 PUSH2 0x1132 ADD MSTORE DUP2 DUP2 PUSH2 0x127C ADD MSTORE PUSH2 0x1B93 ADD MSTORE PUSH1 0xE0 MLOAD DUP2 DUP2 DUP2 PUSH2 0x1F4 ADD MSTORE PUSH2 0x2C7 ADD MSTORE RETURN JUMPDEST DUP2 DUP2 RETURNDATASIZE DUP4 GT PUSH3 0x1B0 JUMPI JUMPDEST PUSH3 0x18A DUP2 DUP4 PUSH3 0x227 JUMP JUMPDEST DUP2 ADD SUB SLT PUSH3 0x1AC JUMPI MLOAD SWAP1 PUSH1 0xFF DUP3 AND DUP3 SUB PUSH3 0x1A9 JUMPI POP CODESIZE DUP1 PUSH3 0xF5 JUMP JUMPDEST DUP1 REVERT JUMPDEST POP DUP1 REVERT JUMPDEST POP RETURNDATASIZE PUSH3 0x17E JUMP JUMPDEST PUSH1 0x40 MLOAD RETURNDATASIZE PUSH1 0x0 DUP3 RETURNDATACOPY RETURNDATASIZE SWAP1 REVERT JUMPDEST PUSH1 0x2 PUSH1 0x0 SWAP6 SWAP4 SWAP3 SWAP6 MSTORE PUSH1 0x2 PUSH1 0x1F DUP6 PUSH1 0x0 KECCAK256 SWAP3 ADD PUSH1 0x5 SHR DUP3 ADD SWAP2 ADD JUMPDEST DUP2 DUP2 LT PUSH3 0x1F2 JUMPI POP SWAP4 SWAP1 SWAP2 SWAP4 PUSH3 0x8F JUMP JUMPDEST PUSH1 0x0 DUP2 SSTORE DUP7 SWAP5 POP DUP6 ADD PUSH3 0x1DF JUMP JUMPDEST PUSH4 0x4E487B71 PUSH1 0xE0 SHL PUSH1 0x0 MSTORE PUSH1 0x22 PUSH1 0x4 MSTORE PUSH1 0x24 PUSH1 0x0 REVERT JUMPDEST SWAP3 PUSH1 0x7F AND SWAP3 PUSH3 0x7A JUMP JUMPDEST PUSH1 0x0 DUP1 REVERT JUMPDEST PUSH1 0x1F SWAP1 SWAP2 ADD PUSH1 0x1F NOT AND DUP2 ADD SWAP1 PUSH1 0x1 PUSH1 0x1 PUSH1 0x40 SHL SUB DUP3 GT SWAP1 DUP3 LT OR PUSH3 0x24B JUMPI PUSH1 0x40 MSTORE JUMP JUMPDEST PUSH4 0x4E487B71 PUSH1 0xE0 SHL PUSH1 0x0 MSTORE PUSH1 0x41 PUSH1 0x4 MSTORE PUSH1 0x24 PUSH1 0x0 REVERT INVALID PUSH1 0x80 PUSH1 0x40 MSTORE PUSH1 0x4 CALLDATASIZE LT ISZERO PUSH2 0x12 JUMPI PUSH1 0x0 DUP1 REVERT JUMPDEST PUSH1 0x0 CALLDATALOAD PUSH1 0xE0 SHR DUP1 PUSH4 0x6FDDE03 EQ PUSH2 0x270A JUMPI DUP1 PUSH4 0x131AD74E EQ PUSH2 0x1DA2 JUMPI DUP1 PUSH4 0x17E5A1A1 EQ PUSH2 0x1A0E JUMPI DUP1 PUSH4 0x313CE567 EQ PUSH2 0x19B2 JUMPI DUP1 PUSH4 0x3EF096D3 EQ PUSH2 0x16D6 JUMPI DUP1 PUSH4 0x411557D1 EQ PUSH2 0x1689 JUMPI DUP1 PUSH4 0x4BE1C796 EQ PUSH2 0x1630 JUMPI DUP1 PUSH4 0x54FD4D50 EQ PUSH2 0x15A9 JUMPI DUP1 PUSH4 0x6CDEB028 EQ PUSH2 0x1190 JUMPI DUP1 PUSH4 0x8A790CF2 EQ PUSH2 0x1156 JUMPI DUP1 PUSH4 0x8EB6F8F0 EQ PUSH2 0x10E7 JUMPI DUP1 PUSH4 0x9FF631DD EQ PUSH2 0x10A9 JUMPI DUP1 PUSH4 0xBA3941E7 EQ PUSH2 0x1060 JUMPI DUP1 PUSH4 0xC1A287E2 EQ PUSH2 0x1025 JUMPI DUP1 PUSH4 0xCADBCC21 EQ PUSH2 0xF52 JUMPI DUP1 PUSH4 0xD02C70E8 EQ PUSH2 0xEE4 JUMPI DUP1 PUSH4 0xD9BE8531 EQ PUSH2 0x218 JUMPI DUP1 PUSH4 0xE13D88AC EQ PUSH2 0x1A9 JUMPI DUP1 PUSH4 0xE6A69AB8 EQ PUSH2 0x16C JUMPI PUSH4 0xF6B9FDFB EQ PUSH2 0xF8 JUMPI PUSH1 0x0 DUP1 REVERT JUMPDEST CALLVALUE PUSH2 0x167 JUMPI PUSH1 0x0 PUSH32 0xFFFFFFFFFFFFFFFFFFFFFFFFFFFFFFFFFFFFFFFFFFFFFFFFFFFFFFFFFFFFFFFC CALLDATASIZE ADD SLT PUSH2 0x167 JUMPI PUSH1 0x20 PUSH1 0x40 MLOAD PUSH20 0xFFFFFFFFFFFFFFFFFFFFFFFFFFFFFFFFFFFFFFFF PUSH32 0x0 AND DUP2 MSTORE RETURN JUMPDEST PUSH1 0x0 DUP1 REVERT JUMPDEST CALLVALUE PUSH2 0x167 JUMPI PUSH1 0x0 PUSH32 0xFFFFFFFFFFFFFFFFFFFFFFFFFFFFFFFFFFFFFFFFFFFFFFFFFFFFFFFFFFFFFFFC CALLDATASIZE ADD SLT PUSH2 0x167 JUMPI PUSH1 0x20 PUSH1 0x40 MLOAD PUSH4 0x1E13380 DUP2 MSTORE RETURN JUMPDEST CALLVALUE PUSH2 0x167 JUMPI PUSH1 0x0 PUSH32 0xFFFFFFFFFFFFFFFFFFFFFFFFFFFFFFFFFFFFFFFFFFFFFFFFFFFFFFFFFFFFFFFC CALLDATASIZE ADD SLT PUSH2 0x167 JUMPI PUSH1 0x20 PUSH1 0x40 MLOAD PUSH20 0xFFFFFFFFFFFFFFFFFFFFFFFFFFFFFFFFFFFFFFFF PUSH32 0x0 AND DUP2 MSTORE RETURN JUMPDEST CALLVALUE PUSH2 0x167 JUMPI PUSH1 0x40 PUSH32 0xFFFFFFFFFFFFFFFFFFFFFFFFFFFFFFFFFFFFFFFFFFFFFFFFFFFFFFFFFFFFFFFC CALLDATASIZE ADD SLT PUSH2 0x167 JUMPI PUSH20 0xFFFFFFFFFFFFFFFFFFFFFFFFFFFFFFFFFFFFFFFF PUSH1 0x4 CALLDATALOAD AND PUSH1 0x4 CALLDATALOAD SUB PUSH2 0x167 JUMPI PUSH8 0xFFFFFFFFFFFFFFFF PUSH1 0x24 CALLDATALOAD GT PUSH2 0x167 JUMPI CALLDATASIZE PUSH1 0x23 PUSH1 0x24 CALLDATALOAD ADD SLT ISZERO PUSH2 0x167 JUMPI PUSH8 0xFFFFFFFFFFFFFFFF PUSH1 0x24 CALLDATALOAD PUSH1 0x4 ADD CALLDATALOAD GT PUSH2 0x167 JUMPI CALLDATASIZE PUSH1 0x24 DUP1 CALLDATALOAD PUSH1 0x4 ADD CALLDATALOAD PUSH1 0x5 SHL DUP2 CALLDATALOAD ADD ADD GT PUSH2 0x167 JUMPI PUSH20 0xFFFFFFFFFFFFFFFFFFFFFFFFFFFFFFFFFFFFFFFF PUSH32 0x0 AND CALLER SUB PUSH2 0xEB4 JUMPI PUSH20 0xFFFFFFFFFFFFFFFFFFFFFFFFFFFFFFFFFFFFFFFF PUSH1 0x4 CALLDATALOAD AND PUSH1 0x0 MSTORE PUSH1 0x0 PUSH1 0x20 MSTORE PUSH1 0x40 PUSH1 0x0 KECCAK256 DUP1 SLOAD PUSH1 0xFF DUP2 AND PUSH1 0x0 EQ PUSH2 0xE23 JUMPI POP PUSH2 0x1C20 PUSH2 0x332 PUSH1 0x7 DUP4 ADD SLOAD TIMESTAMP PUSH2 0x2ACC JUMP JUMPDEST GT PUSH2 0xDDB JUMPI JUMPDEST PUSH2 0x347 PUSH1 0x24 CALLDATALOAD PUSH1 0x4 ADD CALLDATALOAD PUSH2 0x2B88 JUMP JUMPDEST PUSH2 0x354 PUSH1 0x40 MLOAD SWAP2 DUP3 PUSH2 0x27AD JUMP JUMPDEST PUSH1 0x4 PUSH1 0x24 CALLDATALOAD ADD CALLDATALOAD DUP1 DUP3 MSTORE PUSH32 0xFFFFFFFFFFFFFFFFFFFFFFFFFFFFFFFFFFFFFFFFFFFFFFFFFFFFFFFFFFFFFFE0 SWAP1 PUSH2 0x389 SWAP1 PUSH2 0x2B88 JUMP JUMPDEST ADD CALLDATASIZE PUSH1 0x20 DUP4 ADD CALLDATACOPY PUSH2 0x39F PUSH1 0x24 CALLDATALOAD PUSH1 0x4 ADD CALLDATALOAD PUSH2 0x2BA0 JUMP JUMPDEST SWAP1 PUSH2 0x3AF PUSH1 0x24 CALLDATALOAD PUSH1 0x4 ADD CALLDATALOAD PUSH2 0x2BA0 JUMP JUMPDEST SWAP3 PUSH1 0x40 MLOAD SWAP2 PUSH32 0x38FFF2D000000000000000000000000000000000000000000000000000000000 DUP4 MSTORE PUSH1 0x20 DUP4 PUSH1 0x4 DUP2 PUSH20 0xFFFFFFFFFFFFFFFFFFFFFFFFFFFFFFFFFFFFFFFF DUP3 CALLDATALOAD AND GAS STATICCALL SWAP3 DUP4 ISZERO PUSH2 0xB02 JUMPI PUSH1 0x0 SWAP4 PUSH2 0xDA7 JUMPI JUMPDEST POP PUSH1 0x40 MLOAD SWAP3 PUSH32 0xF94D466800000000000000000000000000000000000000000000000000000000 DUP5 MSTORE PUSH1 0x4 DUP5 ADD MSTORE PUSH1 0x0 DUP4 PUSH1 0x24 DUP2 PUSH20 0xBA12222222228D8BA445958A75A0704D566BF2C8 GAS STATICCALL SWAP3 DUP4 ISZERO PUSH2 0xB02 JUMPI PUSH1 0x0 SWAP4 PUSH2 0xC4D JUMPI JUMPDEST POP PUSH1 0x0 SWAP2 PUSH1 0x0 JUMPDEST DUP5 MLOAD DUP2 LT ISZERO PUSH2 0x4FE JUMPI PUSH20 0xFFFFFFFFFFFFFFFFFFFFFFFFFFFFFFFFFFFFFFFF PUSH1 0x4 CALLDATALOAD AND PUSH20 0xFFFFFFFFFFFFFFFFFFFFFFFFFFFFFFFFFFFFFFFF PUSH2 0x4A7 DUP4 DUP9 PUSH2 0x2BEF JUMP JUMPDEST MLOAD AND SUB PUSH2 0x4BD JUMPI JUMPDEST PUSH2 0x4B8 SWAP1 PUSH2 0x2B5B JUMP JUMPDEST PUSH2 0x466 JUMP JUMPDEST SWAP3 PUSH2 0x4F6 PUSH2 0x4B8 SWAP2 PUSH20 0xFFFFFFFFFFFFFFFFFFFFFFFFFFFFFFFFFFFFFFFF PUSH2 0x4E4 DUP8 DUP10 PUSH2 0x2BEF JUMP JUMPDEST MLOAD AND PUSH2 0x4F0 DUP3 DUP8 PUSH2 0x2BEF JUMP JUMPDEST MSTORE PUSH2 0x2B5B JUMP JUMPDEST SWAP4 SWAP1 POP PUSH2 0x4AF JUMP JUMPDEST DUP7 DUP4 DUP4 DUP9 PUSH1 0x0 JUMPDEST PUSH1 0x24 CALLDATALOAD PUSH1 0x4 ADD CALLDATALOAD DUP2 LT PUSH2 0xB0E JUMPI POP PUSH1 0x1 SLOAD DUP3 SLOAD PUSH32 0xFFFFFFFFFFFFFFFFFFFFFFFFFFFFFFFFFFFFFFFF0000000000000000000000FF AND PUSH1 0x8 SWAP2 SWAP1 SWAP2 SHL PUSH12 0xFFFFFFFFFFFFFFFFFFFFFF00 AND OR DUP3 SSTORE PUSH1 0x40 MLOAD PUSH32 0x6FDDE0300000000000000000000000000000000000000000000000000000000 DUP2 MSTORE PUSH1 0x0 DUP2 PUSH1 0x4 DUP2 PUSH20 0xFFFFFFFFFFFFFFFFFFFFFFFFFFFFFFFFFFFFFFFF DUP3 CALLDATALOAD AND GAS STATICCALL SWAP1 DUP2 ISZERO PUSH2 0xB02 JUMPI PUSH1 0x0 SWAP2 PUSH2 0xA88 JUMPI JUMPDEST POP DUP1 MLOAD SWAP1 PUSH8 0xFFFFFFFFFFFFFFFF DUP3 GT PUSH2 0x8E9 JUMPI DUP2 SWAP1 PUSH2 0x5C8 PUSH1 0x1 DUP7 ADD SLOAD PUSH2 0x275A JUMP JUMPDEST PUSH1 0x1F DUP2 GT PUSH2 0xA48 JUMPI JUMPDEST POP PUSH1 0x20 SWAP1 PUSH1 0x1F DUP4 GT PUSH1 0x1 EQ PUSH2 0x97C JUMPI PUSH1 0x0 SWAP3 PUSH2 0x971 JUMPI JUMPDEST POP POP PUSH32 0xFFFFFFFFFFFFFFFFFFFFFFFFFFFFFFFFFFFFFFFFFFFFFFFFFFFFFFFFFFFFFFFF DUP3 PUSH1 0x1 SHL SWAP3 PUSH1 0x3 SHL SHR NOT AND OR PUSH1 0x1 DUP4 ADD SSTORE JUMPDEST PUSH1 0x2 DUP3 ADD PUSH20 0xFFFFFFFFFFFFFFFFFFFFFFFFFFFFFFFFFFFFFFFF PUSH1 0x4 CALLDATALOAD AND PUSH32 0xFFFFFFFFFFFFFFFFFFFFFFFF0000000000000000000000000000000000000000 DUP3 SLOAD AND OR SWAP1 SSTORE DUP3 MLOAD PUSH8 0xFFFFFFFFFFFFFFFF DUP2 GT PUSH2 0x8E9 JUMPI PUSH9 0x10000000000000000 DUP2 GT PUSH2 0x8E9 JUMPI PUSH1 0x3 DUP4 ADD PUSH2 0x695 DUP3 DUP3 SLOAD DUP2 DUP5 SSTORE DUP4 PUSH2 0x2CA7 JUMP JUMPDEST PUSH1 0x20 DUP6 ADD SWAP1 PUSH1 0x0 MSTORE PUSH1 0x20 PUSH1 0x0 KECCAK256 PUSH1 0x0 JUMPDEST DUP4 DUP2 LT PUSH2 0x947 JUMPI POP POP POP POP DUP1 MLOAD PUSH8 0xFFFFFFFFFFFFFFFF DUP2 GT PUSH2 0x8E9 JUMPI PUSH9 0x10000000000000000 DUP2 GT PUSH2 0x8E9 JUMPI PUSH1 0x4 DUP4 ADD PUSH2 0x6E4 DUP3 DUP3 SLOAD DUP2 DUP5 SSTORE DUP4 PUSH2 0x2CA7 JUMP JUMPDEST PUSH1 0x20 DUP4 ADD SWAP1 PUSH1 0x0 MSTORE PUSH1 0x20 PUSH1 0x0 KECCAK256 PUSH1 0x0 JUMPDEST DUP4 DUP2 LT PUSH2 0x933 JUMPI POP POP POP POP PUSH9 0x10000000000000000 PUSH1 0x24 CALLDATALOAD PUSH1 0x4 ADD CALLDATALOAD GT PUSH2 0x8E9 JUMPI PUSH1 0x5 DUP3 ADD DUP1 SLOAD PUSH1 0x4 PUSH1 0x24 CALLDATALOAD ADD CALLDATALOAD DUP1 DUP4 SSTORE PUSH2 0x731 SWAP3 SWAP1 SWAP2 SWAP1 PUSH2 0x2CA7 JUMP JUMPDEST PUSH1 0x24 DUP1 CALLDATALOAD ADD SWAP2 DUP3 PUSH1 0x5 DUP3 ADD PUSH1 0x0 MSTORE PUSH1 0x20 PUSH1 0x0 KECCAK256 SWAP1 PUSH1 0x0 JUMPDEST PUSH1 0x24 CALLDATALOAD PUSH1 0x4 ADD CALLDATALOAD DUP2 LT PUSH2 0x918 JUMPI POP POP POP DUP5 MLOAD PUSH8 0xFFFFFFFFFFFFFFFF DUP2 GT PUSH2 0x8E9 JUMPI PUSH9 0x10000000000000000 DUP2 GT PUSH2 0x8E9 JUMPI PUSH1 0x6 DUP3 ADD PUSH2 0x78C DUP3 DUP3 SLOAD DUP2 DUP5 SSTORE DUP4 PUSH2 0x2CA7 JUMP JUMPDEST PUSH1 0x20 DUP8 ADD SWAP1 PUSH1 0x0 MSTORE PUSH1 0x20 PUSH1 0x0 KECCAK256 PUSH1 0x0 JUMPDEST DUP4 DUP2 LT PUSH2 0x8D5 JUMPI POP POP POP POP PUSH1 0x20 SWAP2 PUSH2 0x834 PUSH11 0xFFFFFFFFFFFFFFFFFFFFFF DUP4 PUSH1 0x1 PUSH32 0xFFFFFFFFFFFFFFFFFFFFFFFFFFFFFFFFFFFFFFFFFFFFFFFFFFFFFFFFFFFFFF00 PUSH2 0x842 SWAP7 SLOAD AND OR DUP2 SSTORE PUSH2 0x7F3 PUSH1 0x4 CALLDATALOAD PUSH1 0x1 PUSH2 0x2C03 JUMP JUMPDEST SLOAD PUSH1 0x8 SHR AND SWAP6 PUSH1 0x40 MLOAD SWAP7 PUSH1 0x1 DUP9 MSTORE DUP6 DUP9 ADD MSTORE PUSH20 0xFFFFFFFFFFFFFFFFFFFFFFFFFFFFFFFFFFFFFFFF PUSH1 0x4 CALLDATALOAD AND PUSH1 0x40 DUP9 ADD MSTORE PUSH1 0xE0 PUSH1 0x60 DUP9 ADD MSTORE PUSH1 0xE0 DUP8 ADD SWAP1 PUSH2 0x2919 JUMP JUMPDEST SWAP1 DUP6 DUP3 SUB PUSH1 0x80 DUP8 ADD MSTORE PUSH2 0x2963 JUMP JUMPDEST DUP4 DUP2 SUB PUSH1 0xA0 DUP6 ADD MSTORE PUSH1 0x24 CALLDATALOAD PUSH1 0x4 ADD CALLDATALOAD DUP2 MSTORE ADD SWAP1 PUSH1 0x0 JUMPDEST PUSH1 0x24 CALLDATALOAD PUSH1 0x4 ADD CALLDATALOAD DUP2 LT PUSH2 0x89F JUMPI PUSH32 0x558B57994E63DD3105E23DD47F60A4074D50167448CD407BC457B8A29E3DAB0D DUP5 DUP1 PUSH2 0x89A DUP7 DUP10 DUP4 DUP3 SUB PUSH1 0xC0 DUP6 ADD MSTORE PUSH2 0x2963 JUMP JUMPDEST SUB SWAP1 LOG1 STOP JUMPDEST SWAP1 SWAP2 DUP3 CALLDATALOAD SWAP1 PUSH20 0xFFFFFFFFFFFFFFFFFFFFFFFFFFFFFFFFFFFFFFFF DUP3 AND DUP1 SWAP3 SUB PUSH2 0x167 JUMPI PUSH1 0x20 DUP2 PUSH1 0x1 SWAP4 DUP3 SWAP4 MSTORE ADD SWAP4 ADD SWAP2 ADD PUSH2 0x858 JUMP JUMPDEST PUSH1 0x1 SWAP1 PUSH1 0x20 DUP5 MLOAD SWAP5 ADD SWAP4 DUP2 DUP5 ADD SSTORE ADD PUSH2 0x79C JUMP JUMPDEST PUSH32 0x4E487B7100000000000000000000000000000000000000000000000000000000 PUSH1 0x0 MSTORE PUSH1 0x41 PUSH1 0x4 MSTORE PUSH1 0x24 PUSH1 0x0 REVERT JUMPDEST PUSH1 0x1 SWAP1 PUSH1 0x20 PUSH2 0x926 DUP5 PUSH2 0x2C6F JUMP JUMPDEST SWAP4 ADD SWAP3 DUP2 DUP6 ADD SSTORE ADD PUSH2 0x748 JUMP JUMPDEST PUSH1 0x1 SWAP1 PUSH1 0x20 DUP5 MLOAD SWAP5 ADD SWAP4 DUP2 DUP5 ADD SSTORE ADD PUSH2 0x6F4 JUMP JUMPDEST PUSH1 0x1 SWAP1 PUSH1 0x20 PUSH20 0xFFFFFFFFFFFFFFFFFFFFFFFFFFFFFFFFFFFFFFFF DUP6 MLOAD AND SWAP5 ADD SWAP4 DUP2 DUP5 ADD SSTORE ADD PUSH2 0x6A5 JUMP JUMPDEST ADD MLOAD SWAP1 POP DUP7 DUP1 PUSH2 0x5E8 JUMP JUMPDEST SWAP3 POP PUSH1 0x1 DUP6 ADD PUSH1 0x0 MSTORE PUSH1 0x20 PUSH1 0x0 KECCAK256 SWAP1 PUSH1 0x0 SWAP4 JUMPDEST PUSH32 0xFFFFFFFFFFFFFFFFFFFFFFFFFFFFFFFFFFFFFFFFFFFFFFFFFFFFFFFFFFFFFFE0 DUP5 AND DUP6 LT PUSH2 0xA2D JUMPI PUSH1 0x1 SWAP5 POP DUP4 PUSH32 0xFFFFFFFFFFFFFFFFFFFFFFFFFFFFFFFFFFFFFFFFFFFFFFFFFFFFFFFFFFFFFFE0 DUP2 AND LT PUSH2 0x9F6 JUMPI JUMPDEST POP POP POP DUP2 SHL ADD PUSH1 0x1 DUP4 ADD SSTORE PUSH2 0x61D JUMP JUMPDEST ADD MLOAD PUSH32 0xFFFFFFFFFFFFFFFFFFFFFFFFFFFFFFFFFFFFFFFFFFFFFFFFFFFFFFFFFFFFFFFF PUSH1 0xF8 DUP5 PUSH1 0x3 SHL AND SHR NOT AND SWAP1 SSTORE DUP7 DUP1 DUP1 PUSH2 0x9E6 JUMP JUMPDEST DUP2 DUP2 ADD MLOAD DUP4 SSTORE PUSH1 0x20 SWAP5 DUP6 ADD SWAP5 PUSH1 0x1 SWAP1 SWAP4 ADD SWAP3 SWAP1 SWAP2 ADD SWAP1 PUSH2 0x98F JUMP JUMPDEST PUSH2 0xA78 SWAP1 PUSH1 0x1 DUP8 ADD PUSH1 0x0 MSTORE PUSH1 0x20 PUSH1 0x0 KECCAK256 PUSH1 0x1F DUP6 ADD PUSH1 0x5 SHR DUP2 ADD SWAP2 PUSH1 0x20 DUP7 LT PUSH2 0xA7E JUMPI JUMPDEST PUSH1 0x1F ADD PUSH1 0x5 SHR ADD SWAP1 PUSH2 0x2C90 JUMP JUMPDEST DUP8 PUSH2 0x5D1 JUMP JUMPDEST SWAP1 SWAP2 POP DUP2 SWAP1 PUSH2 0xA6B JUMP JUMPDEST SWAP1 POP RETURNDATASIZE DUP1 PUSH1 0x0 DUP4 RETURNDATACOPY PUSH2 0xA9A DUP2 DUP4 PUSH2 0x27AD JUMP JUMPDEST DUP2 ADD SWAP1 PUSH1 0x20 DUP2 DUP4 SUB SLT PUSH2 0x167 JUMPI DUP1 MLOAD SWAP1 PUSH8 0xFFFFFFFFFFFFFFFF DUP3 GT PUSH2 0x167 JUMPI ADD DUP2 PUSH1 0x1F DUP3 ADD SLT ISZERO PUSH2 0x167 JUMPI DUP1 MLOAD PUSH2 0xAD0 DUP2 PUSH2 0x2997 JUMP JUMPDEST SWAP3 PUSH2 0xADE PUSH1 0x40 MLOAD SWAP5 DUP6 PUSH2 0x27AD JUMP JUMPDEST DUP2 DUP5 MSTORE PUSH1 0x20 DUP3 DUP5 ADD ADD GT PUSH2 0x167 JUMPI PUSH2 0xAFC SWAP2 PUSH1 0x20 DUP1 DUP6 ADD SWAP2 ADD PUSH2 0x28B3 JUMP JUMPDEST DUP6 PUSH2 0x5A6 JUMP JUMPDEST PUSH1 0x40 MLOAD RETURNDATASIZE PUSH1 0x0 DUP3 RETURNDATACOPY RETURNDATASIZE SWAP1 REVERT JUMPDEST DUP1 PUSH1 0x20 PUSH20 0xFFFFFFFFFFFFFFFFFFFFFFFFFFFFFFFFFFFFFFFF PUSH2 0xB32 PUSH1 0x4 SWAP5 DUP9 PUSH2 0x2BEF JUMP JUMPDEST MLOAD AND PUSH1 0x40 MLOAD SWAP4 DUP5 DUP1 SWAP3 PUSH32 0x313CE56700000000000000000000000000000000000000000000000000000000 DUP3 MSTORE GAS STATICCALL SWAP2 DUP3 ISZERO PUSH2 0xB02 JUMPI PUSH1 0x4 SWAP3 PUSH1 0xFF SWAP2 PUSH1 0x0 SWAP2 PUSH2 0xC2E JUMPI JUMPDEST POP AND PUSH2 0xB81 DUP3 DUP6 PUSH2 0x2BEF JUMP JUMPDEST MSTORE PUSH1 0x20 PUSH20 0xFFFFFFFFFFFFFFFFFFFFFFFFFFFFFFFFFFFFFFFF PUSH2 0xBAB PUSH1 0x24 DUP5 PUSH1 0x5 SHL DUP2 CALLDATALOAD ADD ADD PUSH2 0x2C6F JUMP JUMPDEST AND PUSH1 0x40 MLOAD SWAP4 DUP5 DUP1 SWAP3 PUSH32 0x313CE56700000000000000000000000000000000000000000000000000000000 DUP3 MSTORE GAS STATICCALL SWAP2 DUP3 ISZERO PUSH2 0xB02 JUMPI PUSH2 0xBFA SWAP3 PUSH1 0xFF SWAP2 PUSH1 0x0 SWAP2 PUSH2 0xBFF JUMPI JUMPDEST POP AND PUSH2 0x4F0 DUP3 DUP9 PUSH2 0x2BEF JUMP JUMPDEST PUSH2 0x505 JUMP JUMPDEST PUSH2 0xC21 SWAP2 POP PUSH1 0x20 RETURNDATASIZE PUSH1 0x20 GT PUSH2 0xC27 JUMPI JUMPDEST PUSH2 0xC19 DUP2 DUP4 PUSH2 0x27AD JUMP JUMPDEST DUP2 ADD SWAP1 PUSH2 0x2C56 JUMP JUMPDEST DUP9 PUSH2 0xBEE JUMP JUMPDEST POP RETURNDATASIZE PUSH2 0xC0F JUMP JUMPDEST PUSH2 0xC47 SWAP2 POP PUSH1 0x20 RETURNDATASIZE PUSH1 0x20 GT PUSH2 0xC27 JUMPI PUSH2 0xC19 DUP2 DUP4 PUSH2 0x27AD JUMP JUMPDEST DUP9 PUSH2 0xB75 JUMP JUMPDEST SWAP1 SWAP3 POP RETURNDATASIZE SWAP1 DUP2 PUSH1 0x0 DUP3 RETURNDATACOPY PUSH2 0xC61 DUP3 DUP3 PUSH2 0x27AD JUMP JUMPDEST PUSH1 0x60 DUP2 DUP4 DUP2 ADD SUB SLT PUSH2 0x167 JUMPI DUP1 MLOAD SWAP2 PUSH8 0xFFFFFFFFFFFFFFFF DUP4 GT PUSH2 0x167 JUMPI DUP1 DUP3 ADD PUSH1 0x1F DUP5 DUP5 ADD ADD SLT ISZERO PUSH2 0x167 JUMPI DUP3 DUP3 ADD MLOAD SWAP3 PUSH2 0xC9C DUP5 PUSH2 0x2B88 JUMP JUMPDEST SWAP4 PUSH2 0xCAA PUSH1 0x40 MLOAD SWAP6 DUP7 PUSH2 0x27AD JUMP JUMPDEST DUP1 DUP6 MSTORE PUSH1 0x20 DUP6 ADD SWAP2 DUP4 DUP6 ADD PUSH1 0x20 DUP4 PUSH1 0x5 SHL DUP4 DUP9 ADD ADD ADD GT PUSH2 0x167 JUMPI SWAP2 PUSH1 0x20 DUP4 DUP7 ADD ADD SWAP3 JUMPDEST PUSH1 0x20 DUP4 PUSH1 0x5 SHL DUP3 DUP9 ADD ADD ADD DUP5 LT PUSH2 0xD74 JUMPI POP POP POP POP PUSH1 0x20 DUP3 ADD MLOAD PUSH8 0xFFFFFFFFFFFFFFFF DUP2 GT PUSH2 0x167 JUMPI DUP2 DUP4 ADD PUSH1 0x1F DUP3 DUP6 ADD ADD SLT ISZERO PUSH2 0x167 JUMPI DUP1 DUP4 ADD MLOAD SWAP3 PUSH1 0x20 PUSH2 0xD16 DUP6 PUSH2 0x2B88 JUMP JUMPDEST PUSH2 0xD23 PUSH1 0x40 MLOAD SWAP2 DUP3 PUSH2 0x27AD JUMP JUMPDEST DUP6 DUP2 MSTORE ADD SWAP3 DUP2 ADD PUSH1 0x20 DUP6 PUSH1 0x5 SHL DUP5 DUP5 ADD ADD ADD GT PUSH2 0x167 JUMPI DUP1 DUP3 ADD PUSH1 0x20 ADD SWAP3 SWAP2 JUMPDEST PUSH1 0x20 DUP6 PUSH1 0x5 SHL DUP3 DUP5 ADD ADD ADD DUP5 LT PUSH2 0xD60 JUMPI POP POP POP POP POP SWAP2 DUP6 PUSH2 0x45F JUMP JUMPDEST PUSH1 0x20 DUP1 DUP1 SWAP5 DUP7 MLOAD DUP2 MSTORE ADD SWAP5 ADD SWAP4 SWAP3 POP PUSH2 0xD43 JUMP JUMPDEST DUP4 MLOAD SWAP2 PUSH20 0xFFFFFFFFFFFFFFFFFFFFFFFFFFFFFFFFFFFFFFFF DUP4 AND DUP4 SUB PUSH2 0x167 JUMPI PUSH1 0x20 DUP2 DUP2 SWAP5 DUP3 SWAP4 MSTORE ADD SWAP5 ADD SWAP4 SWAP2 POP PUSH2 0xCCE JUMP JUMPDEST SWAP1 SWAP3 POP PUSH1 0x20 DUP2 RETURNDATASIZE PUSH1 0x20 GT PUSH2 0xDD3 JUMPI JUMPDEST DUP2 PUSH2 0xDC3 PUSH1 0x20 SWAP4 DUP4 PUSH2 0x27AD JUMP JUMPDEST DUP2 ADD SUB SLT PUSH2 0x167 JUMPI MLOAD SWAP2 DUP6 PUSH2 0x406 JUMP JUMPDEST RETURNDATASIZE SWAP2 POP PUSH2 0xDB6 JUMP JUMPDEST PUSH1 0x24 PUSH1 0x40 MLOAD PUSH32 0x48A979DC00000000000000000000000000000000000000000000000000000000 DUP2 MSTORE PUSH20 0xFFFFFFFFFFFFFFFFFFFFFFFFFFFFFFFFFFFFFFFF PUSH1 0x4 CALLDATALOAD AND PUSH1 0x4 DUP3 ADD MSTORE REVERT JUMPDEST PUSH32 0xFFFFFFFFFFFFFFFFFFFFFFFFFFFFFFFFFFFFFFFFFFFFFFFFFFFFFFFFFFFFFF00 PUSH1 0x1 SWAP2 AND OR DUP2 SSTORE PUSH2 0xE9C PUSH11 0xFFFFFFFFFFFFFFFFFFFFFF PUSH1 0x1 SLOAD AND DUP3 SWAP1 PUSH32 0xFFFFFFFFFFFFFFFFFFFFFFFFFFFFFFFFFFFFFFFF0000000000000000000000FF PUSH12 0xFFFFFFFFFFFFFFFFFFFFFF00 DUP4 SLOAD SWAP3 PUSH1 0x8 SHL AND SWAP2 AND OR SWAP1 SSTORE JUMP JUMPDEST TIMESTAMP PUSH1 0x7 DUP3 ADD SSTORE PUSH2 0xEAF PUSH1 0x4 CALLDATALOAD PUSH1 0x1 PUSH2 0x2C03 JUMP JUMPDEST PUSH2 0x338 JUMP JUMPDEST PUSH1 0x24 PUSH1 0x40 MLOAD PUSH32 0x47A51A2800000000000000000000000000000000000000000000000000000000 DUP2 MSTORE CALLER PUSH1 0x4 DUP3 ADD MSTORE REVERT JUMPDEST CALLVALUE PUSH2 0x167 JUMPI PUSH1 0x20 PUSH32 0xFFFFFFFFFFFFFFFFFFFFFFFFFFFFFFFFFFFFFFFFFFFFFFFFFFFFFFFFFFFFFFFC CALLDATASIZE ADD SLT PUSH2 0x167 JUMPI PUSH1 0x4 CALLDATALOAD PUSH1 0x1 SLOAD DUP2 LT ISZERO PUSH2 0x167 JUMPI PUSH20 0xFFFFFFFFFFFFFFFFFFFFFFFFFFFFFFFFFFFFFFFF PUSH2 0xF42 PUSH1 0x20 SWAP3 PUSH1 0x1 PUSH2 0x29D1 JUMP JUMPDEST SWAP2 SWAP1 SLOAD PUSH1 0x40 MLOAD SWAP3 PUSH1 0x3 SHL SHR AND DUP2 MSTORE RETURN JUMPDEST CALLVALUE PUSH2 0x167 JUMPI PUSH1 0x0 PUSH32 0xFFFFFFFFFFFFFFFFFFFFFFFFFFFFFFFFFFFFFFFFFFFFFFFFFFFFFFFFFFFFFFFC CALLDATASIZE ADD SLT PUSH2 0x167 JUMPI PUSH2 0xFAA PUSH32 0x0 PUSH2 0x2B36 JUMP JUMPDEST PUSH1 0xFF PUSH32 0x0 AND PUSH1 0x12 SUB PUSH1 0xFF DUP2 GT PUSH2 0xFF6 JUMPI PUSH1 0x20 SWAP2 PUSH2 0xFE8 PUSH2 0xFEE SWAP3 PUSH2 0x2B25 JUMP JUMPDEST SWAP1 PUSH2 0x2AEC JUMP JUMPDEST PUSH1 0x40 MLOAD SWAP1 DUP2 MSTORE RETURN JUMPDEST PUSH32 0x4E487B7100000000000000000000000000000000000000000000000000000000 PUSH1 0x0 MSTORE PUSH1 0x11 PUSH1 0x4 MSTORE PUSH1 0x24 PUSH1 0x0 REVERT JUMPDEST CALLVALUE PUSH2 0x167 JUMPI PUSH1 0x0 PUSH32 0xFFFFFFFFFFFFFFFFFFFFFFFFFFFFFFFFFFFFFFFFFFFFFFFFFFFFFFFFFFFFFFFC CALLDATASIZE ADD SLT PUSH2 0x167 JUMPI PUSH1 0x20 PUSH1 0x40 MLOAD PUSH2 0x1C20 DUP2 MSTORE RETURN JUMPDEST CALLVALUE PUSH2 0x167 JUMPI PUSH1 0x0 PUSH32 0xFFFFFFFFFFFFFFFFFFFFFFFFFFFFFFFFFFFFFFFFFFFFFFFFFFFFFFFFFFFFFFFC CALLDATASIZE ADD SLT PUSH2 0x167 JUMPI PUSH1 0x20 PUSH11 0xFFFFFFFFFFFFFFFFFFFFFF PUSH1 0x1 SLOAD AND PUSH1 0x40 MLOAD SWAP1 DUP2 MSTORE RETURN JUMPDEST CALLVALUE PUSH2 0x167 JUMPI PUSH1 0x0 PUSH32 0xFFFFFFFFFFFFFFFFFFFFFFFFFFFFFFFFFFFFFFFFFFFFFFFFFFFFFFFFFFFFFFFC CALLDATASIZE ADD SLT PUSH2 0x167 JUMPI PUSH1 0x20 PUSH1 0x40 MLOAD PUSH5 0x2540BE400 DUP2 MSTORE RETURN JUMPDEST CALLVALUE PUSH2 0x167 JUMPI PUSH1 0x0 PUSH32 0xFFFFFFFFFFFFFFFFFFFFFFFFFFFFFFFFFFFFFFFFFFFFFFFFFFFFFFFFFFFFFFFC CALLDATASIZE ADD SLT PUSH2 0x167 JUMPI PUSH1 0x20 PUSH1 0x40 MLOAD PUSH20 0xFFFFFFFFFFFFFFFFFFFFFFFFFFFFFFFFFFFFFFFF PUSH32 0x0 AND DUP2 MSTORE RETURN JUMPDEST CALLVALUE PUSH2 0x167 JUMPI PUSH1 0x0 PUSH32 0xFFFFFFFFFFFFFFFFFFFFFFFFFFFFFFFFFFFFFFFFFFFFFFFFFFFFFFFFFFFFFFFC CALLDATASIZE ADD SLT PUSH2 0x167 JUMPI PUSH1 0x20 PUSH1 0x40 MLOAD PUSH1 0x8 DUP2 MSTORE RETURN JUMPDEST CALLVALUE PUSH2 0x167 JUMPI PUSH1 0x20 PUSH32 0xFFFFFFFFFFFFFFFFFFFFFFFFFFFFFFFFFFFFFFFFFFFFFFFFFFFFFFFFFFFFFFFC CALLDATASIZE ADD SLT PUSH2 0x167 JUMPI PUSH1 0x4 CALLDATALOAD PUSH20 0xFFFFFFFFFFFFFFFFFFFFFFFFFFFFFFFFFFFFFFFF DUP2 AND DUP1 SWAP2 SUB PUSH2 0x167 JUMPI DUP1 PUSH1 0x0 MSTORE PUSH1 0x0 PUSH1 0x20 MSTORE PUSH1 0x40 PUSH1 0x0 KECCAK256 SWAP1 PUSH1 0xFF DUP3 SLOAD AND ISZERO PUSH2 0x1578 JUMPI PUSH2 0x1205 PUSH1 0x3 DUP4 ADD PUSH2 0x2A18 JUMP JUMPDEST SWAP1 PUSH2 0x1212 PUSH1 0x4 DUP5 ADD PUSH2 0x2A7D JUMP JUMPDEST SWAP3 PUSH1 0x3 DUP2 ADD SLOAD SWAP1 PUSH2 0x1222 DUP3 PUSH2 0x2BA0 JUMP JUMPDEST SWAP1 PUSH2 0x122C DUP4 PUSH2 0x2BA0 JUMP JUMPDEST SWAP3 PUSH1 0x4 PUSH1 0x20 PUSH2 0x123A DUP4 PUSH2 0x2BA0 JUMP JUMPDEST SWAP7 PUSH1 0x40 MLOAD SWAP3 DUP4 DUP1 SWAP3 PUSH32 0x38FFF2D000000000000000000000000000000000000000000000000000000000 DUP3 MSTORE GAS STATICCALL SWAP1 DUP2 ISZERO PUSH2 0xB02 JUMPI PUSH1 0x0 SWAP2 PUSH2 0x1546 JUMPI JUMPDEST POP PUSH2 0x12A0 PUSH32 0x0 PUSH2 0x2B36 JUMP JUMPDEST SWAP1 PUSH1 0x0 PUSH1 0xFF DUP1 PUSH32 0x0 AND PUSH1 0x12 SUB GT JUMPDEST DUP5 DUP3 LT PUSH2 0x1338 JUMPI PUSH2 0x12FC DUP11 PUSH2 0x1334 DUP12 PUSH2 0x1326 DUP16 PUSH2 0x1318 DUP15 PUSH2 0x130A DUP16 PUSH1 0x40 MLOAD SWAP10 DUP11 SWAP10 PUSH1 0xA0 DUP12 MSTORE PUSH1 0xA0 DUP12 ADD SWAP1 PUSH2 0x2919 JUMP JUMPDEST SWAP1 DUP10 DUP3 SUB PUSH1 0x20 DUP12 ADD MSTORE PUSH2 0x2963 JUMP JUMPDEST SWAP1 DUP8 DUP3 SUB PUSH1 0x40 DUP10 ADD MSTORE PUSH2 0x2963 JUMP JUMPDEST SWAP1 DUP6 DUP3 SUB PUSH1 0x60 DUP8 ADD MSTORE PUSH2 0x2963 JUMP JUMPDEST SWAP1 DUP4 DUP3 SUB PUSH1 0x80 DUP6 ADD MSTORE PUSH2 0x2963 JUMP JUMPDEST SUB SWAP1 RETURN JUMPDEST PUSH2 0x136A PUSH20 0xFFFFFFFFFFFFFFFFFFFFFFFFFFFFFFFFFFFFFFFF PUSH2 0x135D DUP5 PUSH1 0x5 DUP11 ADD PUSH2 0x29D1 JUMP JUMPDEST SWAP1 SLOAD SWAP1 PUSH1 0x3 SHL SHR AND PUSH2 0x2B36 JUMP JUMPDEST SWAP1 PUSH20 0xFFFFFFFFFFFFFFFFFFFFFFFFFFFFFFFFFFFFFFFF PUSH2 0x138D DUP5 PUSH1 0x3 DUP11 ADD PUSH2 0x29D1 JUMP JUMPDEST SWAP1 SLOAD SWAP1 PUSH1 0x3 SHL SHR AND PUSH1 0x40 MLOAD SWAP1 PUSH32 0xB05F8E4800000000000000000000000000000000000000000000000000000000 DUP3 MSTORE DUP6 PUSH1 0x4 DUP4 ADD MSTORE PUSH1 0x24 DUP3 ADD MSTORE PUSH1 0x80 DUP2 PUSH1 0x44 DUP2 PUSH20 0xBA12222222228D8BA445958A75A0704D566BF2C8 GAS STATICCALL SWAP1 DUP2 ISZERO PUSH2 0xB02 JUMPI PUSH1 0x0 SWAP2 PUSH2 0x14F2 JUMPI JUMPDEST POP PUSH2 0x13FE DUP5 DUP12 PUSH2 0x2BEF JUMP JUMPDEST MSTORE PUSH2 0xFF6 JUMPI PUSH2 0x144E SWAP1 PUSH8 0xDE0B6B3A7640000 PUSH2 0x1448 PUSH2 0x1442 PUSH1 0xFF PUSH32 0x0 AND PUSH1 0x12 SUB PUSH2 0x2B25 JUMP JUMPDEST DUP8 PUSH2 0x2AD9 JUMP JUMPDEST SWAP2 PUSH2 0x2CCA JUMP JUMPDEST PUSH2 0x1458 DUP3 DUP9 PUSH2 0x2BEF JUMP JUMPDEST MSTORE PUSH2 0x1463 DUP2 DUP8 PUSH2 0x2BEF JUMP JUMPDEST MLOAD SWAP1 PUSH2 0x14B4 PUSH2 0x14A3 PUSH1 0x0 SWAP4 PUSH2 0x149D PUSH1 0xFF PUSH32 0x0 AND PUSH1 0x12 SUB PUSH2 0x2B25 JUMP JUMPDEST SWAP1 PUSH2 0x2AD9 JUMP JUMPDEST PUSH2 0x14AD DUP4 DUP12 PUSH2 0x2BEF JUMP JUMPDEST MLOAD SWAP1 PUSH2 0x2AD9 JUMP JUMPDEST SWAP1 PUSH2 0x14C2 DUP2 PUSH1 0x4 DUP10 ADD PUSH2 0x29D1 JUMP JUMPDEST SWAP1 SLOAD SWAP1 PUSH1 0x3 SHL SHR PUSH1 0x4D DUP2 GT PUSH2 0xFF6 JUMPI PUSH2 0x14EC SWAP3 PUSH2 0x14E2 SWAP2 PUSH1 0xA EXP SWAP1 PUSH2 0x2AEC JUMP JUMPDEST PUSH2 0x4F0 DUP3 DUP13 PUSH2 0x2BEF JUMP JUMPDEST SWAP1 PUSH2 0x12CD JUMP JUMPDEST SWAP1 POP PUSH1 0x80 DUP2 RETURNDATASIZE PUSH1 0x80 GT PUSH2 0x153E JUMPI JUMPDEST DUP2 PUSH2 0x150D PUSH1 0x80 SWAP4 DUP4 PUSH2 0x27AD JUMP JUMPDEST DUP2 ADD SUB SLT PUSH2 0x167 JUMPI PUSH1 0x60 DUP2 MLOAD SWAP2 ADD MLOAD PUSH20 0xFFFFFFFFFFFFFFFFFFFFFFFFFFFFFFFFFFFFFFFF DUP2 AND SUB PUSH2 0x167 JUMPI DUP14 PUSH2 0x13F3 JUMP JUMPDEST RETURNDATASIZE SWAP2 POP PUSH2 0x1500 JUMP JUMPDEST SWAP1 POP PUSH1 0x20 DUP2 RETURNDATASIZE PUSH1 0x20 GT PUSH2 0x1570 JUMPI JUMPDEST DUP2 PUSH2 0x1561 PUSH1 0x20 SWAP4 DUP4 PUSH2 0x27AD JUMP JUMPDEST DUP2 ADD SUB SLT PUSH2 0x167 JUMPI MLOAD DUP9 PUSH2 0x1276 JUMP JUMPDEST RETURNDATASIZE SWAP2 POP PUSH2 0x1554 JUMP JUMPDEST PUSH1 0x24 SWAP1 PUSH1 0x40 MLOAD SWAP1 PUSH32 0xFB642B4D00000000000000000000000000000000000000000000000000000000 DUP3 MSTORE PUSH1 0x4 DUP3 ADD MSTORE REVERT JUMPDEST CALLVALUE PUSH2 0x167 JUMPI PUSH1 0x0 PUSH32 0xFFFFFFFFFFFFFFFFFFFFFFFFFFFFFFFFFFFFFFFFFFFFFFFFFFFFFFFFFFFFFFFC CALLDATASIZE ADD SLT PUSH2 0x167 JUMPI PUSH2 0x1334 PUSH2 0x15E5 PUSH1 0x5 PUSH2 0x2997 JUMP JUMPDEST PUSH2 0x15F2 PUSH1 0x40 MLOAD SWAP2 DUP3 PUSH2 0x27AD JUMP JUMPDEST PUSH1 0x5 DUP2 MSTORE PUSH32 0x312E302E30000000000000000000000000000000000000000000000000000000 PUSH1 0x20 DUP3 ADD MSTORE PUSH1 0x40 MLOAD SWAP2 DUP3 SWAP2 PUSH1 0x20 DUP4 MSTORE PUSH1 0x20 DUP4 ADD SWAP1 PUSH2 0x28D6 JUMP JUMPDEST CALLVALUE PUSH2 0x167 JUMPI PUSH1 0x0 PUSH32 0xFFFFFFFFFFFFFFFFFFFFFFFFFFFFFFFFFFFFFFFFFFFFFFFFFFFFFFFFFFFFFFFC CALLDATASIZE ADD SLT PUSH2 0x167 JUMPI PUSH1 0x20 PUSH1 0x40 MLOAD PUSH32 0xE8E3E8400000000000000000000000000000000000000000000000000000000 DUP2 MSTORE RETURN JUMPDEST CALLVALUE PUSH2 0x167 JUMPI PUSH1 0x0 PUSH32 0xFFFFFFFFFFFFFFFFFFFFFFFFFFFFFFFFFFFFFFFFFFFFFFFFFFFFFFFFFFFFFFFC CALLDATASIZE ADD SLT PUSH2 0x167 JUMPI PUSH1 0x20 PUSH1 0x40 MLOAD PUSH20 0xBA12222222228D8BA445958A75A0704D566BF2C8 DUP2 MSTORE RETURN JUMPDEST CALLVALUE PUSH2 0x167 JUMPI PUSH1 0x20 PUSH32 0xFFFFFFFFFFFFFFFFFFFFFFFFFFFFFFFFFFFFFFFFFFFFFFFFFFFFFFFFFFFFFFFC CALLDATASIZE ADD SLT PUSH2 0x167 JUMPI PUSH1 0x4 CALLDATALOAD PUSH20 0xFFFFFFFFFFFFFFFFFFFFFFFFFFFFFFFFFFFFFFFF DUP2 AND DUP1 SWAP2 SUB PUSH2 0x167 JUMPI PUSH1 0x0 PUSH2 0x100 PUSH1 0x40 MLOAD PUSH2 0x173A PUSH2 0x120 DUP3 PUSH2 0x27AD JUMP JUMPDEST DUP3 DUP2 MSTORE DUP3 PUSH1 0x20 DUP3 ADD MSTORE PUSH1 0x60 PUSH1 0x40 DUP3 ADD MSTORE DUP3 PUSH1 0x60 DUP3 ADD MSTORE PUSH1 0x60 PUSH1 0x80 DUP3 ADD MSTORE PUSH1 0x60 PUSH1 0xA0 DUP3 ADD MSTORE PUSH1 0x60 PUSH1 0xC0 DUP3 ADD MSTORE PUSH1 0x60 PUSH1 0xE0 DUP3 ADD MSTORE ADD MSTORE PUSH1 0x0 MSTORE PUSH1 0x0 PUSH1 0x20 MSTORE PUSH1 0x40 PUSH1 0x0 KECCAK256 PUSH1 0x40 MLOAD PUSH2 0x178A PUSH2 0x120 DUP3 PUSH2 0x27AD JUMP JUMPDEST PUSH11 0xFFFFFFFFFFFFFFFFFFFFFF DUP3 SLOAD PUSH1 0xFF DUP2 AND ISZERO ISZERO DUP4 MSTORE PUSH1 0x8 SHR AND PUSH1 0x20 DUP3 ADD MSTORE PUSH2 0x17B5 PUSH1 0x1 DUP4 ADD PUSH2 0x27EE JUMP JUMPDEST PUSH1 0x40 DUP3 ADD MSTORE PUSH20 0xFFFFFFFFFFFFFFFFFFFFFFFFFFFFFFFFFFFFFFFF PUSH1 0x2 DUP4 ADD SLOAD AND PUSH1 0x60 DUP3 ADD MSTORE PUSH2 0x17E6 PUSH1 0x3 DUP4 ADD PUSH2 0x2A18 JUMP JUMPDEST PUSH1 0x80 DUP3 ADD MSTORE PUSH2 0x17F7 PUSH1 0x4 DUP4 ADD PUSH2 0x2A7D JUMP JUMPDEST PUSH1 0xA0 DUP3 ADD MSTORE PUSH1 0x5 DUP3 ADD SWAP2 PUSH1 0x40 MLOAD DUP1 PUSH1 0x20 DUP6 SLOAD SWAP2 DUP3 DUP2 MSTORE ADD SWAP5 PUSH1 0x0 MSTORE PUSH1 0x20 PUSH1 0x0 KECCAK256 SWAP1 PUSH1 0x0 JUMPDEST DUP2 DUP2 LT PUSH2 0x1986 JUMPI POP POP POP PUSH2 0x1834 DUP2 PUSH1 0x7 SWAP5 SWAP6 SUB DUP3 PUSH2 0x27AD JUMP JUMPDEST PUSH1 0xC0 DUP5 ADD MSTORE PUSH2 0x1845 PUSH1 0x6 DUP3 ADD PUSH2 0x2A7D JUMP JUMPDEST PUSH1 0xE0 DUP5 ADD MSTORE ADD SLOAD PUSH2 0x100 DUP3 ADD MSTORE PUSH1 0x40 MLOAD PUSH1 0x20 DUP2 MSTORE DUP2 MLOAD ISZERO ISZERO PUSH1 0x20 DUP3 ADD MSTORE PUSH11 0xFFFFFFFFFFFFFFFFFFFFFF PUSH1 0x20 DUP4 ADD MLOAD AND PUSH1 0x40 DUP3 ADD MSTORE PUSH2 0x1894 PUSH1 0x40 DUP4 ADD MLOAD PUSH2 0x120 PUSH1 0x60 DUP5 ADD MSTORE PUSH2 0x140 DUP4 ADD SWAP1 PUSH2 0x28D6 JUMP JUMPDEST SWAP2 PUSH20 0xFFFFFFFFFFFFFFFFFFFFFFFFFFFFFFFFFFFFFFFF PUSH1 0x60 DUP3 ADD MLOAD AND PUSH1 0x80 DUP4 ADD MSTORE PUSH2 0x1906 PUSH2 0x18F2 PUSH1 0x80 DUP4 ADD MLOAD SWAP5 PUSH32 0xFFFFFFFFFFFFFFFFFFFFFFFFFFFFFFFFFFFFFFFFFFFFFFFFFFFFFFFFFFFFFFE0 SWAP6 DUP7 DUP7 DUP4 SUB ADD PUSH1 0xA0 DUP8 ADD MSTORE PUSH2 0x2919 JUMP JUMPDEST PUSH1 0xA0 DUP4 ADD MLOAD DUP6 DUP6 DUP4 SUB ADD PUSH1 0xC0 DUP7 ADD MSTORE PUSH2 0x2963 JUMP JUMPDEST SWAP3 PUSH1 0xC0 DUP3 ADD MLOAD SWAP4 DUP2 DUP5 DUP3 SUB ADD PUSH1 0xE0 DUP6 ADD MSTORE PUSH1 0x20 DUP1 DUP7 MLOAD SWAP3 DUP4 DUP2 MSTORE ADD SWAP6 ADD SWAP1 PUSH1 0x0 JUMPDEST DUP2 DUP2 LT PUSH2 0x195A JUMPI POP POP POP PUSH2 0x194D DUP4 SWAP5 PUSH2 0x100 SWAP3 PUSH1 0xE0 DUP6 ADD MLOAD SWAP1 DUP7 DUP4 SUB ADD DUP5 DUP8 ADD MSTORE PUSH2 0x2963 JUMP JUMPDEST SWAP2 ADD MLOAD PUSH2 0x120 DUP4 ADD MSTORE SUB SWAP1 RETURN JUMPDEST DUP3 MLOAD PUSH20 0xFFFFFFFFFFFFFFFFFFFFFFFFFFFFFFFFFFFFFFFF AND DUP8 MSTORE PUSH1 0x20 SWAP7 DUP8 ADD SWAP7 SWAP1 SWAP3 ADD SWAP2 PUSH1 0x1 ADD PUSH2 0x1927 JUMP JUMPDEST DUP3 SLOAD PUSH20 0xFFFFFFFFFFFFFFFFFFFFFFFFFFFFFFFFFFFFFFFF AND DUP8 MSTORE PUSH1 0x20 SWAP1 SWAP7 ADD SWAP6 PUSH1 0x1 SWAP3 DUP4 ADD SWAP3 ADD PUSH2 0x181B JUMP JUMPDEST CALLVALUE PUSH2 0x167 JUMPI PUSH1 0x0 PUSH32 0xFFFFFFFFFFFFFFFFFFFFFFFFFFFFFFFFFFFFFFFFFFFFFFFFFFFFFFFFFFFFFFFC CALLDATASIZE ADD SLT PUSH2 0x167 JUMPI PUSH1 0x20 PUSH1 0x40 MLOAD PUSH1 0xFF PUSH32 0x0 AND DUP2 MSTORE RETURN JUMPDEST CALLVALUE PUSH2 0x167 JUMPI PUSH1 0x20 DUP1 PUSH32 0xFFFFFFFFFFFFFFFFFFFFFFFFFFFFFFFFFFFFFFFFFFFFFFFFFFFFFFFFFFFFFFFC CALLDATASIZE ADD SLT PUSH2 0x167 JUMPI PUSH1 0x4 CALLDATALOAD PUSH20 0xFFFFFFFFFFFFFFFFFFFFFFFFFFFFFFFFFFFFFFFF DUP1 DUP3 AND DUP1 SWAP3 SUB PUSH2 0x167 JUMPI PUSH1 0x40 MLOAD SWAP2 PUSH1 0x0 DUP1 DUP6 DUP6 ADD PUSH32 0xE8E3E8400000000000000000000000000000000000000000000000000000000 DUP2 MSTORE PUSH1 0x24 SWAP6 DUP3 DUP8 DUP3 ADD MSTORE DUP7 DUP2 MSTORE PUSH2 0x1AA3 PUSH1 0x44 DUP3 PUSH2 0x27AD JUMP JUMPDEST MLOAD SWAP1 PUSH20 0xBA12222222228D8BA445958A75A0704D566BF2C8 PUSH2 0x2710 STATICCALL POP RETURNDATASIZE ISZERO PUSH2 0x1D9B JUMPI RETURNDATASIZE PUSH2 0x1ACF DUP2 PUSH2 0x2997 JUMP JUMPDEST SWAP1 PUSH2 0x1ADD PUSH1 0x40 MLOAD SWAP3 DUP4 PUSH2 0x27AD JUMP JUMPDEST DUP2 MSTORE RETURNDATASIZE PUSH1 0x0 DUP7 DUP4 ADD RETURNDATACOPY JUMPDEST MLOAD PUSH2 0x1D71 JUMPI DUP1 PUSH1 0x0 MSTORE PUSH1 0x0 DUP5 MSTORE PUSH1 0x40 PUSH1 0x0 KECCAK256 PUSH1 0xFF DUP2 SLOAD AND ISZERO PUSH2 0x1D41 JUMPI PUSH1 0x3 DUP1 DUP3 ADD DUP1 SLOAD PUSH1 0x0 SWAP6 PUSH32 0xFFFFFFFFFFFFFFFFFFFFFFFFFFFFFFFFFFFFFFFFFFFFFFFFFFFFFFFFFFFFFFFF SWAP6 DUP10 SWAP6 SWAP1 SWAP5 SWAP1 PUSH1 0x5 ADD JUMPDEST DUP4 DUP10 LT PUSH2 0x1C61 JUMPI POP POP POP POP POP PUSH1 0x4 SWAP4 POP PUSH1 0x40 MLOAD SWAP4 DUP5 DUP1 SWAP3 PUSH32 0x679AEFCE00000000000000000000000000000000000000000000000000000000 DUP3 MSTORE GAS STATICCALL SWAP1 DUP2 ISZERO PUSH2 0xB02 JUMPI PUSH1 0x0 SWAP2 PUSH2 0x1C30 JUMPI JUMPDEST PUSH2 0x1B8D SWAP3 POP PUSH2 0x2F4D JUMP JUMPDEST SWAP1 PUSH2 0x1BB7 PUSH32 0x0 PUSH2 0x2B36 JUMP JUMPDEST SWAP1 PUSH1 0xFF PUSH32 0x0 AND PUSH1 0x12 SUB SWAP1 PUSH1 0xFF DUP3 GT PUSH2 0x1C03 JUMPI POP PUSH2 0x1448 PUSH2 0xFEE SWAP4 SWAP3 PUSH2 0x149D PUSH8 0xDE0B6B3A7640000 SWAP4 PUSH2 0x2B25 JUMP JUMPDEST PUSH32 0x4E487B7100000000000000000000000000000000000000000000000000000000 PUSH1 0x0 MSTORE PUSH1 0x11 PUSH1 0x4 MSTORE PUSH1 0x0 REVERT JUMPDEST SWAP1 POP DUP4 DUP3 DUP2 RETURNDATASIZE DUP4 GT PUSH2 0x1C5A JUMPI JUMPDEST PUSH2 0x1C47 DUP2 DUP4 PUSH2 0x27AD JUMP JUMPDEST DUP2 ADD SUB SLT PUSH2 0x167 JUMPI PUSH2 0x1B8D SWAP2 MLOAD SWAP1 PUSH2 0x1B83 JUMP JUMPDEST POP RETURNDATASIZE PUSH2 0x1C3D JUMP JUMPDEST SWAP2 SWAP4 SWAP6 POP SWAP2 SWAP4 SWAP6 PUSH2 0x1C82 DUP5 PUSH2 0x1C76 DUP11 DUP6 PUSH2 0x29D1 JUMP JUMPDEST SWAP1 SLOAD SWAP1 DUP7 SHL SHR AND PUSH2 0x2B36 JUMP JUMPDEST SWAP1 DUP5 PUSH2 0x1C8E DUP11 DUP10 PUSH2 0x29D1 JUMP JUMPDEST SWAP1 SLOAD SWAP1 DUP7 SHL SHR AND PUSH1 0x40 MLOAD SWAP1 PUSH32 0x54DEA00A00000000000000000000000000000000000000000000000000000000 DUP3 MSTORE PUSH1 0x4 DUP3 ADD MSTORE DUP12 DUP2 DUP13 DUP2 DUP13 GAS STATICCALL SWAP1 DUP2 ISZERO PUSH2 0xB02 JUMPI PUSH1 0x0 SWAP2 PUSH2 0x1D12 JUMPI JUMPDEST POP PUSH2 0x1CEE SWAP1 PUSH8 0xDE0B6B3A7640000 PUSH2 0x1CFE SWAP5 PUSH2 0x2CCA JUMP JUMPDEST DUP1 DUP3 LT ISZERO PUSH2 0x1D0B JUMPI POP JUMPDEST SWAP8 PUSH2 0x2B5B JUMP JUMPDEST SWAP7 SWAP6 SWAP4 SWAP2 DUP10 SWAP6 SWAP4 SWAP2 PUSH2 0x1B38 JUMP JUMPDEST SWAP1 POP PUSH2 0x1CF8 JUMP JUMPDEST SWAP1 POP DUP12 DUP2 DUP2 RETURNDATASIZE DUP4 GT PUSH2 0x1D3A JUMPI JUMPDEST PUSH2 0x1D29 DUP2 DUP4 PUSH2 0x27AD JUMP JUMPDEST DUP2 ADD SUB SLT PUSH2 0x167 JUMPI MLOAD PUSH2 0x1CFE PUSH2 0x1CD7 JUMP JUMPDEST POP RETURNDATASIZE PUSH2 0x1D1F JUMP JUMPDEST DUP4 DUP3 PUSH1 0x40 MLOAD SWAP1 PUSH32 0xFB642B4D00000000000000000000000000000000000000000000000000000000 DUP3 MSTORE PUSH1 0x4 DUP3 ADD MSTORE REVERT JUMPDEST PUSH1 0x4 PUSH1 0x40 MLOAD PUSH32 0x47A08E9600000000000000000000000000000000000000000000000000000000 DUP2 MSTORE REVERT JUMPDEST PUSH1 0x60 PUSH2 0x1AE7 JUMP JUMPDEST CALLVALUE PUSH2 0x167 JUMPI PUSH1 0x60 PUSH32 0xFFFFFFFFFFFFFFFFFFFFFFFFFFFFFFFFFFFFFFFFFFFFFFFFFFFFFFFFFFFFFFFC CALLDATASIZE ADD SLT PUSH2 0x167 JUMPI PUSH8 0x14057B7EF767814F PUSH8 0xDE0B6B3A7640000 PUSH2 0x1E09 DUP3 DUP3 PUSH2 0x1DF3 PUSH1 0x4 CALLDATALOAD PUSH2 0x2DA7 JUMP JUMPDEST MUL DIV DUP4 DUP4 PUSH2 0x1E02 PUSH1 0x24 CALLDATALOAD PUSH2 0x2DA7 JUMP JUMPDEST MUL DIV PUSH2 0x2ACC JUMP JUMPDEST PUSH4 0x1E13380 SWAP1 DUP2 DUP2 MUL SWAP2 DUP2 DUP4 DIV EQ SWAP1 ISZERO OR ISZERO PUSH2 0xFF6 JUMPI PUSH2 0x1E2C SWAP1 PUSH1 0x44 CALLDATALOAD SWAP1 PUSH2 0x2AEC JUMP JUMPDEST SWAP2 PUSH9 0x736EA4425C11AC631 DUP4 LT ISZERO PUSH2 0x26D9 JUMPI PUSH8 0x6F05B59D3B20000 SWAP1 DUP3 SWAP4 MUL ADD DIV PUSH9 0xA688906BD8B000000 DUP2 LT ISZERO PUSH2 0x26A8 JUMPI DUP2 SWAP1 PUSH1 0x40 SHL DIV SWAP1 PUSH24 0x800000000000000000000000000000000000000000000000 PUSH8 0x8000000000000000 DUP4 AND PUSH2 0x2689 JUMPI JUMPDEST PUSH8 0x4000000000000000 DUP4 AND PUSH2 0x2676 JUMPI JUMPDEST PUSH8 0x2000000000000000 DUP4 AND PUSH2 0x2663 JUMPI JUMPDEST PUSH8 0x1000000000000000 DUP4 AND PUSH2 0x2650 JUMPI JUMPDEST PUSH8 0x800000000000000 DUP4 AND PUSH2 0x263D JUMPI JUMPDEST PUSH8 0x400000000000000 DUP4 AND PUSH2 0x262A JUMPI JUMPDEST PUSH8 0x200000000000000 DUP4 AND PUSH2 0x2617 JUMPI JUMPDEST PUSH8 0x100000000000000 DUP4 AND PUSH2 0x2604 JUMPI JUMPDEST PUSH7 0x80000000000000 DUP4 AND PUSH2 0x25F1 JUMPI JUMPDEST PUSH7 0x40000000000000 DUP4 AND PUSH2 0x25DE JUMPI JUMPDEST PUSH7 0x20000000000000 DUP4 AND PUSH2 0x25CB JUMPI JUMPDEST PUSH7 0x10000000000000 DUP4 AND PUSH2 0x25B8 JUMPI JUMPDEST PUSH7 0x8000000000000 DUP4 AND PUSH2 0x25A5 JUMPI JUMPDEST PUSH7 0x4000000000000 DUP4 AND PUSH2 0x2592 JUMPI JUMPDEST PUSH7 0x2000000000000 DUP4 AND PUSH2 0x257F JUMPI JUMPDEST PUSH7 0x1000000000000 DUP4 AND PUSH2 0x256C JUMPI JUMPDEST PUSH6 0x800000000000 DUP4 AND PUSH2 0x2559 JUMPI JUMPDEST PUSH6 0x400000000000 DUP4 AND PUSH2 0x2546 JUMPI JUMPDEST PUSH6 0x200000000000 DUP4 AND PUSH2 0x2533 JUMPI JUMPDEST PUSH6 0x100000000000 DUP4 AND PUSH2 0x2520 JUMPI JUMPDEST PUSH6 0x80000000000 DUP4 AND PUSH2 0x250D JUMPI JUMPDEST PUSH6 0x40000000000 DUP4 AND PUSH2 0x24FA JUMPI JUMPDEST PUSH6 0x20000000000 DUP4 AND PUSH2 0x24E7 JUMPI JUMPDEST PUSH6 0x10000000000 DUP4 AND PUSH2 0x24D4 JUMPI JUMPDEST PUSH5 0x8000000000 DUP4 AND PUSH2 0x24C1 JUMPI JUMPDEST PUSH5 0x4000000000 DUP4 AND PUSH2 0x24AE JUMPI JUMPDEST PUSH5 0x2000000000 DUP4 AND PUSH2 0x249B JUMPI JUMPDEST PUSH5 0x1000000000 DUP4 AND PUSH2 0x2488 JUMPI JUMPDEST PUSH5 0x800000000 DUP4 AND PUSH2 0x2475 JUMPI JUMPDEST PUSH5 0x400000000 DUP4 AND PUSH2 0x2462 JUMPI JUMPDEST PUSH5 0x200000000 DUP4 AND PUSH2 0x244F JUMPI JUMPDEST PUSH5 0x100000000 DUP4 AND PUSH2 0x243C JUMPI JUMPDEST PUSH4 0x80000000 DUP4 AND PUSH2 0x2429 JUMPI JUMPDEST PUSH4 0x40000000 DUP4 AND PUSH2 0x2416 JUMPI JUMPDEST PUSH4 0x20000000 DUP4 AND PUSH2 0x2403 JUMPI JUMPDEST PUSH4 0x10000000 DUP4 AND PUSH2 0x23F0 JUMPI JUMPDEST PUSH4 0x8000000 DUP4 AND PUSH2 0x23DD JUMPI JUMPDEST PUSH4 0x4000000 DUP4 AND PUSH2 0x23CA JUMPI JUMPDEST PUSH4 0x2000000 DUP4 AND PUSH2 0x23B7 JUMPI JUMPDEST PUSH4 0x1000000 DUP4 AND PUSH2 0x23A4 JUMPI JUMPDEST PUSH3 0x800000 DUP4 AND PUSH2 0x2391 JUMPI JUMPDEST PUSH3 0x400000 DUP4 AND PUSH2 0x237E JUMPI JUMPDEST PUSH3 0x200000 DUP4 AND PUSH2 0x236B JUMPI JUMPDEST PUSH3 0x100000 DUP4 AND PUSH2 0x2358 JUMPI JUMPDEST PUSH3 0x80000 DUP4 AND PUSH2 0x2345 JUMPI JUMPDEST PUSH3 0x40000 DUP4 AND PUSH2 0x2332 JUMPI JUMPDEST PUSH3 0x20000 DUP4 AND PUSH2 0x231F JUMPI JUMPDEST PUSH3 0x10000 DUP4 AND PUSH2 0x230C JUMPI JUMPDEST PUSH2 0x8000 DUP4 AND PUSH2 0x22F9 JUMPI JUMPDEST PUSH2 0x4000 DUP4 AND PUSH2 0x22E6 JUMPI JUMPDEST PUSH2 0x2000 DUP4 AND PUSH2 0x22D3 JUMPI JUMPDEST PUSH2 0x1000 DUP4 AND PUSH2 0x22C0 JUMPI JUMPDEST PUSH2 0x800 DUP4 AND PUSH2 0x22AD JUMPI JUMPDEST PUSH2 0x400 DUP4 AND PUSH2 0x229A JUMPI JUMPDEST PUSH2 0x200 DUP4 AND PUSH2 0x2287 JUMPI JUMPDEST PUSH2 0x100 DUP4 AND PUSH2 0x2274 JUMPI JUMPDEST PUSH1 0x80 DUP4 AND PUSH2 0x2261 JUMPI JUMPDEST PUSH1 0x40 DUP4 AND PUSH2 0x224E JUMPI JUMPDEST PUSH1 0x20 DUP4 AND PUSH2 0x223B JUMPI JUMPDEST PUSH1 0x10 DUP4 AND PUSH2 0x2228 JUMPI JUMPDEST PUSH1 0x8 DUP4 AND PUSH2 0x2215 JUMPI JUMPDEST PUSH1 0x4 DUP4 AND PUSH2 0x2202 JUMPI JUMPDEST PUSH1 0x2 DUP4 AND PUSH2 0x21EF JUMPI JUMPDEST PUSH1 0x1 DUP4 AND PUSH2 0x21DC JUMPI JUMPDEST MUL SWAP1 PUSH1 0x40 SHR PUSH1 0xBF SUB SHR PUSH32 0xFFFFFFFFFFFFFFFFFFFFFFFFFFFFFFFFFFFFFFFFFFFFFFFFF21F494C589C0000 DUP2 ADD SWAP1 DUP2 GT PUSH2 0xFF6 JUMPI PUSH1 0x20 SWAP1 PUSH1 0x40 MLOAD SWAP1 DUP2 MSTORE RETURN JUMPDEST PUSH9 0x10000000000000001 MUL PUSH1 0x40 SHR PUSH2 0x219E JUMP JUMPDEST PUSH9 0x10000000000000001 MUL PUSH1 0x40 SHR PUSH2 0x2195 JUMP JUMPDEST PUSH9 0x10000000000000003 MUL PUSH1 0x40 SHR PUSH2 0x218C JUMP JUMPDEST PUSH9 0x10000000000000006 MUL PUSH1 0x40 SHR PUSH2 0x2183 JUMP JUMPDEST PUSH9 0x1000000000000000B MUL PUSH1 0x40 SHR PUSH2 0x217A JUMP JUMPDEST PUSH9 0x10000000000000016 MUL PUSH1 0x40 SHR PUSH2 0x2171 JUMP JUMPDEST PUSH9 0x1000000000000002C MUL PUSH1 0x40 SHR PUSH2 0x2168 JUMP JUMPDEST PUSH9 0x10000000000000059 MUL PUSH1 0x40 SHR PUSH2 0x215F JUMP JUMPDEST PUSH9 0x100000000000000B1 MUL PUSH1 0x40 SHR PUSH2 0x2156 JUMP JUMPDEST PUSH9 0x10000000000000163 MUL PUSH1 0x40 SHR PUSH2 0x214C JUMP JUMPDEST PUSH9 0x100000000000002C6 MUL PUSH1 0x40 SHR PUSH2 0x2142 JUMP JUMPDEST PUSH9 0x1000000000000058C MUL PUSH1 0x40 SHR PUSH2 0x2138 JUMP JUMPDEST PUSH9 0x10000000000000B17 MUL PUSH1 0x40 SHR PUSH2 0x212E JUMP JUMPDEST PUSH9 0x1000000000000162E MUL PUSH1 0x40 SHR PUSH2 0x2124 JUMP JUMPDEST PUSH9 0x10000000000002C5D MUL PUSH1 0x40 SHR PUSH2 0x211A JUMP JUMPDEST PUSH9 0x100000000000058B9 MUL PUSH1 0x40 SHR PUSH2 0x2110 JUMP JUMPDEST PUSH9 0x1000000000000B172 MUL PUSH1 0x40 SHR PUSH2 0x2106 JUMP JUMPDEST PUSH9 0x100000000000162E4 MUL PUSH1 0x40 SHR PUSH2 0x20FB JUMP JUMPDEST PUSH9 0x1000000000002C5C8 MUL PUSH1 0x40 SHR PUSH2 0x20F0 JUMP JUMPDEST PUSH9 0x10000000000058B91 MUL PUSH1 0x40 SHR PUSH2 0x20E5 JUMP JUMPDEST PUSH9 0x100000000000B1721 MUL PUSH1 0x40 SHR PUSH2 0x20DA JUMP JUMPDEST PUSH9 0x10000000000162E43 MUL PUSH1 0x40 SHR PUSH2 0x20CF JUMP JUMPDEST PUSH9 0x100000000002C5C86 MUL PUSH1 0x40 SHR PUSH2 0x20C4 JUMP JUMPDEST PUSH9 0x1000000000058B90C MUL PUSH1 0x40 SHR PUSH2 0x20B9 JUMP JUMPDEST PUSH9 0x10000000000B17218 MUL PUSH1 0x40 SHR PUSH2 0x20AE JUMP JUMPDEST PUSH9 0x1000000000162E430 MUL PUSH1 0x40 SHR PUSH2 0x20A2 JUMP JUMPDEST PUSH9 0x10000000002C5C860 MUL PUSH1 0x40 SHR PUSH2 0x2096 JUMP JUMPDEST PUSH9 0x100000000058B90C0 MUL PUSH1 0x40 SHR PUSH2 0x208A JUMP JUMPDEST PUSH9 0x1000000000B17217F MUL PUSH1 0x40 SHR PUSH2 0x207E JUMP JUMPDEST PUSH9 0x100000000162E42FF MUL PUSH1 0x40 SHR PUSH2 0x2072 JUMP JUMPDEST PUSH9 0x1000000002C5C85FE MUL PUSH1 0x40 SHR PUSH2 0x2066 JUMP JUMPDEST PUSH9 0x10000000058B90BFC MUL PUSH1 0x40 SHR PUSH2 0x205A JUMP JUMPDEST PUSH9 0x100000000B17217F8 MUL PUSH1 0x40 SHR PUSH2 0x204E JUMP JUMPDEST PUSH9 0x10000000162E42FF1 MUL PUSH1 0x40 SHR PUSH2 0x2041 JUMP JUMPDEST PUSH9 0x100000002C5C85FE3 MUL PUSH1 0x40 SHR PUSH2 0x2034 JUMP JUMPDEST PUSH9 0x1000000058B90BFCE MUL PUSH1 0x40 SHR PUSH2 0x2027 JUMP JUMPDEST PUSH9 0x10000000B17217FBB MUL PUSH1 0x40 SHR PUSH2 0x201A JUMP JUMPDEST PUSH9 0x1000000162E42FFF0 MUL PUSH1 0x40 SHR PUSH2 0x200D JUMP JUMPDEST PUSH9 0x10000002C5C8601CC MUL PUSH1 0x40 SHR PUSH2 0x2000 JUMP JUMPDEST PUSH9 0x100000058B90C0B49 MUL PUSH1 0x40 SHR PUSH2 0x1FF3 JUMP JUMPDEST PUSH9 0x1000000B172183551 MUL PUSH1 0x40 SHR PUSH2 0x1FE6 JUMP JUMPDEST PUSH9 0x100000162E430E5A2 MUL PUSH1 0x40 SHR PUSH2 0x1FD8 JUMP JUMPDEST PUSH9 0x1000002C5C863B73F MUL PUSH1 0x40 SHR PUSH2 0x1FCA JUMP JUMPDEST PUSH9 0x10000058B90CF1E6E MUL PUSH1 0x40 SHR PUSH2 0x1FBC JUMP JUMPDEST PUSH9 0x100000B1721BCFC9A MUL PUSH1 0x40 SHR PUSH2 0x1FAE JUMP JUMPDEST PUSH9 0x10000162E43F4F831 MUL PUSH1 0x40 SHR PUSH2 0x1FA0 JUMP JUMPDEST PUSH9 0x100002C5C89D5EC6D MUL PUSH1 0x40 SHR PUSH2 0x1F92 JUMP JUMPDEST PUSH9 0x1000058B91B5BC9AE MUL PUSH1 0x40 SHR PUSH2 0x1F84 JUMP JUMPDEST PUSH9 0x10000B17255775C04 MUL PUSH1 0x40 SHR PUSH2 0x1F76 JUMP JUMPDEST PUSH9 0x1000162E525EE0547 MUL PUSH1 0x40 SHR PUSH2 0x1F67 JUMP JUMPDEST PUSH9 0x10002C5CC37DA9492 MUL PUSH1 0x40 SHR PUSH2 0x1F58 JUMP JUMPDEST PUSH9 0x100058BA01FB9F96D MUL PUSH1 0x40 SHR PUSH2 0x1F49 JUMP JUMPDEST PUSH9 0x1000B175EFFDC76BA MUL PUSH1 0x40 SHR PUSH2 0x1F3A JUMP JUMPDEST PUSH9 0x100162F3904051FA1 MUL PUSH1 0x40 SHR PUSH2 0x1F2B JUMP JUMPDEST PUSH9 0x1002C605E2E8CEC50 MUL PUSH1 0x40 SHR PUSH2 0x1F1C JUMP JUMPDEST PUSH9 0x10058C86DA1C09EA2 MUL PUSH1 0x40 SHR PUSH2 0x1F0D JUMP JUMPDEST PUSH9 0x100B1AFA5ABCBED61 MUL PUSH1 0x40 SHR PUSH2 0x1EFE JUMP JUMPDEST PUSH9 0x10163DA9FB33356D8 MUL PUSH1 0x40 SHR PUSH2 0x1EEE JUMP JUMPDEST PUSH9 0x102C9A3E778060EE7 MUL PUSH1 0x40 SHR PUSH2 0x1EDE JUMP JUMPDEST PUSH9 0x1059B0D31585743AE MUL PUSH1 0x40 SHR PUSH2 0x1ECE JUMP JUMPDEST PUSH9 0x10B5586CF9890F62A MUL PUSH1 0x40 SHR PUSH2 0x1EBE JUMP JUMPDEST PUSH9 0x1172B83C7D517ADCE MUL PUSH1 0x40 SHR PUSH2 0x1EAE JUMP JUMPDEST PUSH9 0x1306FE0A31B7152DF MUL PUSH1 0x40 SHR PUSH2 0x1E9E JUMP JUMPDEST POP PUSH24 0xB504F333F9DE648480000000000000000000000000000000 PUSH2 0x1E8E JUMP JUMPDEST PUSH1 0x24 SWAP1 PUSH1 0x40 MLOAD SWAP1 PUSH32 0x4A4F26F100000000000000000000000000000000000000000000000000000000 DUP3 MSTORE PUSH1 0x4 DUP3 ADD MSTORE REVERT JUMPDEST PUSH1 0x24 DUP4 PUSH1 0x40 MLOAD SWAP1 PUSH32 0x315DA06800000000000000000000000000000000000000000000000000000000 DUP3 MSTORE PUSH1 0x4 DUP3 ADD MSTORE REVERT JUMPDEST CALLVALUE PUSH2 0x167 JUMPI PUSH1 0x0 PUSH32 0xFFFFFFFFFFFFFFFFFFFFFFFFFFFFFFFFFFFFFFFFFFFFFFFFFFFFFFFFFFFFFFFC CALLDATASIZE ADD SLT PUSH2 0x167 JUMPI PUSH2 0x1334 PUSH2 0x2746 PUSH1 0x2 PUSH2 0x27EE JUMP JUMPDEST PUSH1 0x40 MLOAD SWAP2 DUP3 SWAP2 PUSH1 0x20 DUP4 MSTORE PUSH1 0x20 DUP4 ADD SWAP1 PUSH2 0x28D6 JUMP JUMPDEST SWAP1 PUSH1 0x1 DUP3 DUP2 SHR SWAP3 AND DUP1 ISZERO PUSH2 0x27A3 JUMPI JUMPDEST PUSH1 0x20 DUP4 LT EQ PUSH2 0x2774 JUMPI JUMP JUMPDEST PUSH32 0x4E487B7100000000000000000000000000000000000000000000000000000000 PUSH1 0x0 MSTORE PUSH1 0x22 PUSH1 0x4 MSTORE PUSH1 0x24 PUSH1 0x0 REVERT JUMPDEST SWAP2 PUSH1 0x7F AND SWAP2 PUSH2 0x2769 JUMP JUMPDEST SWAP1 PUSH1 0x1F PUSH32 0xFFFFFFFFFFFFFFFFFFFFFFFFFFFFFFFFFFFFFFFFFFFFFFFFFFFFFFFFFFFFFFE0 SWAP2 ADD AND DUP2 ADD SWAP1 DUP2 LT PUSH8 0xFFFFFFFFFFFFFFFF DUP3 GT OR PUSH2 0x8E9 JUMPI PUSH1 0x40 MSTORE JUMP JUMPDEST SWAP1 PUSH1 0x40 MLOAD SWAP2 DUP3 PUSH1 0x0 DUP3 SLOAD SWAP3 PUSH2 0x2802 DUP5 PUSH2 0x275A JUMP JUMPDEST SWAP1 DUP2 DUP5 MSTORE PUSH1 0x1 SWAP5 DUP6 DUP2 AND SWAP1 DUP2 PUSH1 0x0 EQ PUSH2 0x2871 JUMPI POP PUSH1 0x1 EQ PUSH2 0x282E JUMPI JUMPDEST POP POP PUSH2 0x282C SWAP3 POP SUB DUP4 PUSH2 0x27AD JUMP JUMPDEST JUMP JUMPDEST SWAP1 SWAP4 SWAP2 POP PUSH1 0x0 MSTORE PUSH1 0x20 SWAP1 DUP2 PUSH1 0x0 KECCAK256 SWAP4 PUSH1 0x0 SWAP2 JUMPDEST DUP2 DUP4 LT PUSH2 0x2859 JUMPI POP POP PUSH2 0x282C SWAP4 POP DUP3 ADD ADD CODESIZE DUP1 PUSH2 0x281E JUMP JUMPDEST DUP6 SLOAD DUP9 DUP5 ADD DUP6 ADD MSTORE SWAP5 DUP6 ADD SWAP5 DUP8 SWAP5 POP SWAP2 DUP4 ADD SWAP2 PUSH2 0x2841 JUMP JUMPDEST SWAP1 POP PUSH2 0x282C SWAP6 POP PUSH1 0x20 SWAP4 POP PUSH32 0xFFFFFFFFFFFFFFFFFFFFFFFFFFFFFFFFFFFFFFFFFFFFFFFFFFFFFFFFFFFFFF00 SWAP2 POP AND DUP3 DUP5 ADD MSTORE ISZERO ISZERO PUSH1 0x5 SHL DUP3 ADD ADD CODESIZE DUP1 PUSH2 0x281E JUMP JUMPDEST PUSH1 0x0 JUMPDEST DUP4 DUP2 LT PUSH2 0x28C6 JUMPI POP POP PUSH1 0x0 SWAP2 ADD MSTORE JUMP JUMPDEST DUP2 DUP2 ADD MLOAD DUP4 DUP3 ADD MSTORE PUSH1 0x20 ADD PUSH2 0x28B6 JUMP JUMPDEST SWAP1 PUSH32 0xFFFFFFFFFFFFFFFFFFFFFFFFFFFFFFFFFFFFFFFFFFFFFFFFFFFFFFFFFFFFFFE0 PUSH1 0x1F PUSH1 0x20 SWAP4 PUSH2 0x2912 DUP2 MLOAD DUP1 SWAP3 DUP2 DUP8 MSTORE DUP8 DUP1 DUP9 ADD SWAP2 ADD PUSH2 0x28B3 JUMP JUMPDEST ADD AND ADD ADD SWAP1 JUMP JUMPDEST SWAP1 DUP2 MLOAD DUP1 DUP3 MSTORE PUSH1 0x20 DUP1 DUP1 SWAP4 ADD SWAP4 ADD SWAP2 PUSH1 0x0 JUMPDEST DUP3 DUP2 LT PUSH2 0x2939 JUMPI POP POP POP POP SWAP1 JUMP JUMPDEST DUP4 MLOAD PUSH20 0xFFFFFFFFFFFFFFFFFFFFFFFFFFFFFFFFFFFFFFFF AND DUP6 MSTORE SWAP4 DUP2 ADD SWAP4 SWAP3 DUP2 ADD SWAP3 PUSH1 0x1 ADD PUSH2 0x292B JUMP JUMPDEST SWAP1 DUP2 MLOAD DUP1 DUP3 MSTORE PUSH1 0x20 DUP1 DUP1 SWAP4 ADD SWAP4 ADD SWAP2 PUSH1 0x0 JUMPDEST DUP3 DUP2 LT PUSH2 0x2983 JUMPI POP POP POP POP SWAP1 JUMP JUMPDEST DUP4 MLOAD DUP6 MSTORE SWAP4 DUP2 ADD SWAP4 SWAP3 DUP2 ADD SWAP3 PUSH1 0x1 ADD PUSH2 0x2975 JUMP JUMPDEST PUSH8 0xFFFFFFFFFFFFFFFF DUP2 GT PUSH2 0x8E9 JUMPI PUSH1 0x1F ADD PUSH32 0xFFFFFFFFFFFFFFFFFFFFFFFFFFFFFFFFFFFFFFFFFFFFFFFFFFFFFFFFFFFFFFE0 AND PUSH1 0x20 ADD SWAP1 JUMP JUMPDEST DUP1 SLOAD DUP3 LT ISZERO PUSH2 0x29E9 JUMPI PUSH1 0x0 MSTORE PUSH1 0x20 PUSH1 0x0 KECCAK256 ADD SWAP1 PUSH1 0x0 SWAP1 JUMP JUMPDEST PUSH32 0x4E487B7100000000000000000000000000000000000000000000000000000000 PUSH1 0x0 MSTORE PUSH1 0x32 PUSH1 0x4 MSTORE PUSH1 0x24 PUSH1 0x0 REVERT JUMPDEST SWAP1 PUSH1 0x40 MLOAD SWAP2 DUP3 DUP2 SLOAD SWAP2 DUP3 DUP3 MSTORE PUSH1 0x20 SWAP3 DUP4 DUP4 ADD SWAP2 PUSH1 0x0 MSTORE DUP4 PUSH1 0x0 KECCAK256 SWAP4 PUSH1 0x0 SWAP1 JUMPDEST DUP3 DUP3 LT PUSH2 0x2A4D JUMPI POP POP POP PUSH2 0x282C SWAP3 POP SUB DUP4 PUSH2 0x27AD JUMP JUMPDEST DUP6 SLOAD PUSH20 0xFFFFFFFFFFFFFFFFFFFFFFFFFFFFFFFFFFFFFFFF AND DUP5 MSTORE PUSH1 0x1 SWAP6 DUP7 ADD SWAP6 DUP9 SWAP6 POP SWAP4 DUP2 ADD SWAP4 SWAP1 SWAP2 ADD SWAP1 PUSH2 0x2A37 JUMP JUMPDEST SWAP1 PUSH1 0x40 MLOAD SWAP2 DUP3 DUP2 SLOAD SWAP2 DUP3 DUP3 MSTORE PUSH1 0x20 SWAP3 DUP4 DUP4 ADD SWAP2 PUSH1 0x0 MSTORE DUP4 PUSH1 0x0 KECCAK256 SWAP4 PUSH1 0x0 SWAP1 JUMPDEST DUP3 DUP3 LT PUSH2 0x2AB2 JUMPI POP POP POP PUSH2 0x282C SWAP3 POP SUB DUP4 PUSH2 0x27AD JUMP JUMPDEST DUP6 SLOAD DUP5 MSTORE PUSH1 0x1 SWAP6 DUP7 ADD SWAP6 DUP9 SWAP6 POP SWAP4 DUP2 ADD SWAP4 SWAP1 SWAP2 ADD SWAP1 PUSH2 0x2A9C JUMP JUMPDEST SWAP2 SWAP1 DUP3 SUB SWAP2 DUP3 GT PUSH2 0xFF6 JUMPI JUMP JUMPDEST DUP2 DUP2 MUL SWAP3 SWAP2 DUP2 ISZERO SWAP2 DUP5 DIV EQ OR ISZERO PUSH2 0xFF6 JUMPI JUMP JUMPDEST DUP2 ISZERO PUSH2 0x2AF6 JUMPI DIV SWAP1 JUMP JUMPDEST PUSH32 0x4E487B7100000000000000000000000000000000000000000000000000000000 PUSH1 0x0 MSTORE PUSH1 0x12 PUSH1 0x4 MSTORE PUSH1 0x24 PUSH1 0x0 REVERT JUMPDEST PUSH1 0xFF AND PUSH1 0x4D DUP2 GT PUSH2 0xFF6 JUMPI PUSH1 0xA EXP SWAP1 JUMP JUMPDEST PUSH1 0x40 PUSH1 0x0 PUSH1 0x4 PUSH1 0x1C PUSH5 0x2540BE400 SWAP5 PUSH4 0xFEAF968C DUP5 MSTORE GAS STATICCALL PUSH1 0x1F RETURNDATASIZE GT AND PUSH1 0x20 MLOAD MUL MUL SWAP1 JUMP JUMPDEST PUSH32 0xFFFFFFFFFFFFFFFFFFFFFFFFFFFFFFFFFFFFFFFFFFFFFFFFFFFFFFFFFFFFFFFF DUP2 EQ PUSH2 0xFF6 JUMPI PUSH1 0x1 ADD SWAP1 JUMP JUMPDEST PUSH8 0xFFFFFFFFFFFFFFFF DUP2 GT PUSH2 0x8E9 JUMPI PUSH1 0x5 SHL PUSH1 0x20 ADD SWAP1 JUMP JUMPDEST SWAP1 PUSH2 0x2BAA DUP3 PUSH2 0x2B88 JUMP JUMPDEST PUSH2 0x2BB7 PUSH1 0x40 MLOAD SWAP2 DUP3 PUSH2 0x27AD JUMP JUMPDEST DUP3 DUP2 MSTORE PUSH32 0xFFFFFFFFFFFFFFFFFFFFFFFFFFFFFFFFFFFFFFFFFFFFFFFFFFFFFFFFFFFFFFE0 PUSH2 0x2BE5 DUP3 SWAP5 PUSH2 0x2B88 JUMP JUMPDEST ADD SWAP1 PUSH1 0x20 CALLDATASIZE SWAP2 ADD CALLDATACOPY JUMP JUMPDEST DUP1 MLOAD DUP3 LT ISZERO PUSH2 0x29E9 JUMPI PUSH1 0x20 SWAP2 PUSH1 0x5 SHL ADD ADD SWAP1 JUMP JUMPDEST DUP1 SLOAD PUSH9 0x10000000000000000 DUP2 LT ISZERO PUSH2 0x8E9 JUMPI PUSH2 0x2C25 SWAP2 PUSH1 0x1 DUP3 ADD DUP2 SSTORE PUSH2 0x29D1 JUMP JUMPDEST DUP2 SWAP3 SWAP2 SLOAD SWAP1 PUSH1 0x3 SHL SWAP2 PUSH20 0xFFFFFFFFFFFFFFFFFFFFFFFFFFFFFFFFFFFFFFFF SWAP3 DUP4 DUP2 SHL SWAP4 DUP5 SWAP3 AND SWAP1 SHL AND SWAP2 NOT AND OR SWAP1 SSTORE JUMP JUMPDEST SWAP1 DUP2 PUSH1 0x20 SWAP2 SUB SLT PUSH2 0x167 JUMPI MLOAD PUSH1 0xFF DUP2 AND DUP2 SUB PUSH2 0x167 JUMPI SWAP1 JUMP JUMPDEST CALLDATALOAD PUSH20 0xFFFFFFFFFFFFFFFFFFFFFFFFFFFFFFFFFFFFFFFF DUP2 AND DUP2 SUB PUSH2 0x167 JUMPI SWAP1 JUMP JUMPDEST DUP2 DUP2 LT PUSH2 0x2C9B JUMPI POP POP JUMP JUMPDEST PUSH1 0x0 DUP2 SSTORE PUSH1 0x1 ADD PUSH2 0x2C90 JUMP JUMPDEST SWAP2 DUP2 DUP2 LT PUSH2 0x2CB4 JUMPI POP POP POP JUMP JUMPDEST PUSH2 0x282C SWAP3 PUSH1 0x0 MSTORE PUSH1 0x20 PUSH1 0x0 KECCAK256 SWAP2 DUP3 ADD SWAP2 ADD PUSH2 0x2C90 JUMP JUMPDEST SWAP1 SWAP2 PUSH32 0xFFFFFFFFFFFFFFFFFFFFFFFFFFFFFFFFFFFFFFFFFFFFFFFFFFFFFFFFFFFFFFFF DUP4 DUP4 MULMOD SWAP3 DUP1 DUP4 MUL SWAP3 DUP4 DUP1 DUP7 LT SWAP6 SUB SWAP5 DUP1 DUP7 SUB SWAP6 EQ PUSH2 0x2D97 JUMPI DUP3 DUP6 LT ISZERO PUSH2 0x2D60 JUMPI SWAP1 DUP3 SWAP2 MULMOD PUSH1 0x1 DUP3 NOT ADD DUP3 AND DUP1 SWAP3 DIV PUSH1 0x2 DUP1 DUP3 PUSH1 0x3 MUL XOR DUP1 DUP4 MUL DUP3 SUB MUL DUP1 DUP4 MUL DUP3 SUB MUL DUP1 DUP4 MUL DUP3 SUB MUL DUP1 DUP4 MUL DUP3 SUB MUL DUP1 DUP4 MUL DUP3 SUB MUL DUP1 SWAP3 MUL SWAP1 SUB MUL SWAP4 PUSH1 0x1 DUP4 DUP1 PUSH1 0x0 SUB DIV ADD SWAP1 DUP5 DUP4 GT SWAP1 SUB MUL SWAP3 SUB DIV OR MUL SWAP1 JUMP JUMPDEST PUSH1 0x44 DUP6 DUP5 PUSH1 0x40 MLOAD SWAP2 PUSH32 0x773CC18C00000000000000000000000000000000000000000000000000000000 DUP4 MSTORE PUSH1 0x4 DUP4 ADD MSTORE PUSH1 0x24 DUP3 ADD MSTORE REVERT JUMPDEST POP POP SWAP1 PUSH2 0x2DA4 SWAP3 POP PUSH2 0x2AEC JUMP JUMPDEST SWAP1 JUMP JUMPDEST SWAP1 PUSH8 0xDE0B6B3A7640000 DUP1 DUP4 LT PUSH2 0x2F1C JUMPI PUSH1 0x0 SWAP3 DUP2 DUP2 DIV PUSH17 0x100000000000000000000000000000000 DUP2 LT ISZERO PUSH2 0x2F11 JUMPI JUMPDEST PUSH9 0x10000000000000000 DUP2 LT ISZERO PUSH2 0x2EFC JUMPI JUMPDEST PUSH5 0x100000000 DUP2 LT ISZERO PUSH2 0x2EE7 JUMPI JUMPDEST PUSH3 0x10000 DUP2 LT ISZERO PUSH2 0x2ED2 JUMPI JUMPDEST PUSH2 0x100 DUP2 LT ISZERO PUSH2 0x2EBD JUMPI JUMPDEST PUSH1 0x10 DUP2 LT ISZERO PUSH2 0x2EA8 JUMPI JUMPDEST PUSH1 0x4 DUP2 LT ISZERO PUSH2 0x2E93 JUMPI JUMPDEST PUSH1 0x2 GT ISZERO PUSH2 0x2E81 JUMPI JUMPDEST DUP2 DUP5 MUL SWAP4 SHR SWAP1 DUP1 DUP3 EQ PUSH2 0x2E7D JUMPI PUSH8 0x6F05B59D3B20000 SWAP2 DUP3 JUMPDEST PUSH2 0x2E4E JUMPI POP POP POP JUMP JUMPDEST DUP1 DUP3 SWAP2 MUL DIV SWAP2 PUSH8 0x1BC16D674EC80000 DUP4 LT ISZERO PUSH2 0x2E6F JUMPI JUMPDEST PUSH1 0x1 SHR SWAP2 DUP3 PUSH2 0x2E45 JUMP JUMPDEST DUP1 SWAP3 SWAP5 ADD SWAP4 PUSH1 0x1 SHR SWAP2 PUSH2 0x2E65 JUMP JUMPDEST POP POP JUMP JUMPDEST SWAP3 PUSH1 0x1 DUP2 ADD DUP1 SWAP2 GT PUSH2 0xFF6 JUMPI SWAP3 PUSH2 0x2E2C JUMP JUMPDEST PUSH1 0x2 SHR SWAP4 PUSH1 0x2 DUP2 ADD DUP1 SWAP2 GT PUSH2 0xFF6 JUMPI SWAP4 PUSH2 0x2E23 JUMP JUMPDEST PUSH1 0x4 SHR SWAP4 PUSH1 0x4 DUP2 ADD DUP1 SWAP2 GT PUSH2 0xFF6 JUMPI SWAP4 PUSH2 0x2E19 JUMP JUMPDEST PUSH1 0x8 SHR SWAP4 PUSH1 0x8 DUP2 ADD DUP1 SWAP2 GT PUSH2 0xFF6 JUMPI SWAP4 PUSH2 0x2E0F JUMP JUMPDEST PUSH1 0x10 SHR SWAP4 PUSH1 0x10 DUP2 ADD DUP1 SWAP2 GT PUSH2 0xFF6 JUMPI SWAP4 PUSH2 0x2E04 JUMP JUMPDEST PUSH1 0x20 SHR SWAP4 PUSH1 0x20 DUP2 ADD DUP1 SWAP2 GT PUSH2 0xFF6 JUMPI SWAP4 PUSH2 0x2DF8 JUMP JUMPDEST PUSH1 0x40 SHR SWAP4 PUSH1 0x40 DUP2 ADD DUP1 SWAP2 GT PUSH2 0xFF6 JUMPI SWAP4 PUSH2 0x2DEA JUMP JUMPDEST PUSH1 0x80 SWAP5 POP DUP5 SHR PUSH2 0x2DD8 JUMP JUMPDEST PUSH1 0x24 DUP4 PUSH1 0x40 MLOAD SWAP1 PUSH32 0xD88504DC00000000000000000000000000000000000000000000000000000000 DUP3 MSTORE PUSH1 0x4 DUP3 ADD MSTORE REVERT JUMPDEST PUSH32 0xFFFFFFFFFFFFFFFFFFFFFFFFFFFFFFFFFFFFFFFFFFFFFFFFFFFFFFFFFFFFFFFF DUP3 DUP3 MULMOD DUP3 DUP3 MUL SWAP1 DUP2 DUP1 DUP3 LT SWAP2 SUB SWAP4 DUP2 DUP6 SUB SWAP1 PUSH8 0xDE0B6B3A7640000 SWAP5 DUP6 DUP4 LT ISZERO PUSH2 0x2FE5 JUMPI SWAP1 DUP6 SWAP2 MULMOD SWAP2 PUSH8 0x6F05B59D3B1FFFF DUP4 GT SWAP6 EQ PUSH2 0x2FDE JUMPI PUSH32 0xACCB18165BD6FE31AE1CF318DC5B51EEE0E1BA569B88CD74C1773B91FAC10669 SWAP4 POP DUP3 DUP3 GT SWAP1 SUB PUSH1 0xEE SHL SWAP2 SUB PUSH1 0x12 SHR OR MUL ADD SWAP1 JUMP JUMPDEST POP POP DIV ADD SWAP1 JUMP JUMPDEST PUSH1 0x24 DUP4 PUSH1 0x40 MLOAD SWAP1 PUSH32 0xD31B340200000000000000000000000000000000000000000000000000000000 DUP3 MSTORE PUSH1 0x4 DUP3 ADD MSTORE REVERT INVALID LOG1 PUSH5 0x736F6C6343 STOP ADDMOD GT STOP EXP "},"methodIdentifiers":{"AGGREGATOR_DECIMALS()":"8a790cf2","AGGREGATOR_SCALAR()":"9ff631dd","GRACE_PERIOD()":"c1a287e2","S()":"4be1c796","SECONDS_PER_YEAR()":"e6a69ab8","VAULT()":"411557d1","allNebulas(uint256)":"d02c70e8","decimals()":"313ce567","denominationAggregator()":"8eb6f8f0","denominationToken()":"f6b9fdfb","denominationTokenPrice()":"cadbcc21","getAnnualizedBaseRate(uint256,uint256,uint256)":"131ad74e","getNebulaOracle(address)":"3ef096d3","initializeNebulaOracle(address,address[])":"d9be8531","lpTokenInfo(address)":"6cdeb028","lpTokenPriceUsd(address)":"17e5a1a1","name()":"06fdde03","nebulaRegistry()":"e13d88ac","nebulaSize()":"ba3941e7","version()":"54fd4d50"}}}}}