{
  "_format": "hh-sol-artifact-1",
  "contractName": "UniswapV2Nebula",
  "sourceName": "contracts/all-cygnus-oracles/UniswapV2Nebula.sol",
  "abi": [
    {
      "inputs": [
        {
          "internalType": "contract IERC20",
          "name": "denomination",
          "type": "address"
        },
        {
          "internalType": "contract AggregatorV3Interface",
          "name": "denominationPrice",
          "type": "address"
        },
        {
          "internalType": "address",
          "name": "_nebulaRegistry",
          "type": "address"
        }
      ],
      "stateMutability": "nonpayable",
      "type": "constructor"
    },
    {
      "inputs": [],
      "name": "CygnusNebulaOracle__AlreadyInContext",
      "type": "error"
    },
    {
      "inputs": [
        {
          "internalType": "address",
          "name": "sender",
          "type": "address"
        }
      ],
      "name": "CygnusNebulaOracle__MsgSenderNotRegistry",
      "type": "error"
    },
    {
      "inputs": [
        {
          "internalType": "address",
          "name": "lpTokenPair",
          "type": "address"
        }
      ],
      "name": "CygnusNebulaOracle__PairAlreadyInitialized",
      "type": "error"
    },
    {
      "inputs": [
        {
          "internalType": "address",
          "name": "lpTokenPair",
          "type": "address"
        }
      ],
      "name": "CygnusNebulaOracle__PairNotInitialized",
      "type": "error"
    },
    {
      "inputs": [
        {
          "internalType": "uint256",
          "name": "x",
          "type": "uint256"
        }
      ],
      "name": "PRBMathUD60x18__Exp2InputTooBig",
      "type": "error"
    },
    {
      "inputs": [
        {
          "internalType": "uint256",
          "name": "x",
          "type": "uint256"
        }
      ],
      "name": "PRBMathUD60x18__ExpInputTooBig",
      "type": "error"
    },
    {
      "inputs": [
        {
          "internalType": "uint256",
          "name": "x",
          "type": "uint256"
        },
        {
          "internalType": "uint256",
          "name": "y",
          "type": "uint256"
        }
      ],
      "name": "PRBMathUD60x18__GmOverflow",
      "type": "error"
    },
    {
      "inputs": [
        {
          "internalType": "uint256",
          "name": "x",
          "type": "uint256"
        }
      ],
      "name": "PRBMathUD60x18__LogInputTooSmall",
      "type": "error"
    },
    {
      "inputs": [
        {
          "internalType": "uint256",
          "name": "prod1",
          "type": "uint256"
        },
        {
          "internalType": "uint256",
          "name": "denominator",
          "type": "uint256"
        }
      ],
      "name": "PRBMath__MulDivOverflow",
      "type": "error"
    },
    {
      "anonymous": false,
      "inputs": [
        {
          "indexed": false,
          "internalType": "bool",
          "name": "initialized",
          "type": "bool"
        },
        {
          "indexed": false,
          "internalType": "uint88",
          "name": "oracleId",
          "type": "uint88"
        },
        {
          "indexed": false,
          "internalType": "address",
          "name": "lpTokenPair",
          "type": "address"
        },
        {
          "indexed": false,
          "internalType": "contract IERC20[]",
          "name": "poolTokens",
          "type": "address[]"
        },
        {
          "indexed": false,
          "internalType": "uint256[]",
          "name": "poolTokensDecimals",
          "type": "uint256[]"
        },
        {
          "indexed": false,
          "internalType": "contract AggregatorV3Interface[]",
          "name": "priceFeeds",
          "type": "address[]"
        },
        {
          "indexed": false,
          "internalType": "uint256[]",
          "name": "priceFeedsDecimals",
          "type": "uint256[]"
        }
      ],
      "name": "InitializeNebulaOracle",
      "type": "event"
    },
    {
      "anonymous": false,
      "inputs": [
        {
          "indexed": false,
          "internalType": "address",
          "name": "oracleOldAdmin",
          "type": "address"
        },
        {
          "indexed": false,
          "internalType": "address",
          "name": "oracleNewAdmin",
          "type": "address"
        }
      ],
      "name": "NewOracleAdmin",
      "type": "event"
    },
    {
      "anonymous": false,
      "inputs": [
        {
          "indexed": false,
          "internalType": "address",
          "name": "oracleCurrentAdmin",
          "type": "address"
        },
        {
          "indexed": false,
          "internalType": "address",
          "name": "oraclePendingAdmin",
          "type": "address"
        }
      ],
      "name": "NewOraclePendingAdmin",
      "type": "event"
    },
    {
      "inputs": [],
      "name": "AGGREGATOR_DECIMALS",
      "outputs": [
        {
          "internalType": "uint256",
          "name": "",
          "type": "uint256"
        }
      ],
      "stateMutability": "view",
      "type": "function"
    },
    {
      "inputs": [],
      "name": "AGGREGATOR_SCALAR",
      "outputs": [
        {
          "internalType": "uint256",
          "name": "",
          "type": "uint256"
        }
      ],
      "stateMutability": "view",
      "type": "function"
    },
    {
      "inputs": [],
      "name": "GRACE_PERIOD",
      "outputs": [
        {
          "internalType": "uint256",
          "name": "",
          "type": "uint256"
        }
      ],
      "stateMutability": "view",
      "type": "function"
    },
    {
      "inputs": [],
      "name": "S",
      "outputs": [
        {
          "internalType": "bytes4",
          "name": "",
          "type": "bytes4"
        }
      ],
      "stateMutability": "view",
      "type": "function"
    },
    {
      "inputs": [],
      "name": "SECONDS_PER_YEAR",
      "outputs": [
        {
          "internalType": "uint256",
          "name": "",
          "type": "uint256"
        }
      ],
      "stateMutability": "view",
      "type": "function"
    },
    {
      "inputs": [
        {
          "internalType": "uint256",
          "name": "",
          "type": "uint256"
        }
      ],
      "name": "allNebulas",
      "outputs": [
        {
          "internalType": "address",
          "name": "",
          "type": "address"
        }
      ],
      "stateMutability": "view",
      "type": "function"
    },
    {
      "inputs": [],
      "name": "decimals",
      "outputs": [
        {
          "internalType": "uint8",
          "name": "",
          "type": "uint8"
        }
      ],
      "stateMutability": "view",
      "type": "function"
    },
    {
      "inputs": [],
      "name": "denominationAggregator",
      "outputs": [
        {
          "internalType": "contract AggregatorV3Interface",
          "name": "",
          "type": "address"
        }
      ],
      "stateMutability": "view",
      "type": "function"
    },
    {
      "inputs": [],
      "name": "denominationToken",
      "outputs": [
        {
          "internalType": "contract IERC20",
          "name": "",
          "type": "address"
        }
      ],
      "stateMutability": "view",
      "type": "function"
    },
    {
      "inputs": [],
      "name": "denominationTokenPrice",
      "outputs": [
        {
          "internalType": "uint256",
          "name": "",
          "type": "uint256"
        }
      ],
      "stateMutability": "view",
      "type": "function"
    },
    {
      "inputs": [
        {
          "internalType": "uint256",
          "name": "exchangeRateLast",
          "type": "uint256"
        },
        {
          "internalType": "uint256",
          "name": "exchangeRateCurrent",
          "type": "uint256"
        },
        {
          "internalType": "uint256",
          "name": "timeElapsed",
          "type": "uint256"
        }
      ],
      "name": "getAnnualizedBaseRate",
      "outputs": [
        {
          "internalType": "uint256",
          "name": "",
          "type": "uint256"
        }
      ],
      "stateMutability": "pure",
      "type": "function"
    },
    {
      "inputs": [
        {
          "internalType": "address",
          "name": "lpTokenPair",
          "type": "address"
        }
      ],
      "name": "getNebulaOracle",
      "outputs": [
        {
          "components": [
            {
              "internalType": "bool",
              "name": "initialized",
              "type": "bool"
            },
            {
              "internalType": "uint88",
              "name": "oracleId",
              "type": "uint88"
            },
            {
              "internalType": "string",
              "name": "name",
              "type": "string"
            },
            {
              "internalType": "address",
              "name": "underlying",
              "type": "address"
            },
            {
              "internalType": "contract IERC20[]",
              "name": "poolTokens",
              "type": "address[]"
            },
            {
              "internalType": "uint256[]",
              "name": "poolTokensDecimals",
              "type": "uint256[]"
            },
            {
              "internalType": "contract AggregatorV3Interface[]",
              "name": "priceFeeds",
              "type": "address[]"
            },
            {
              "internalType": "uint256[]",
              "name": "priceFeedsDecimals",
              "type": "uint256[]"
            },
            {
              "internalType": "uint256",
              "name": "createdAt",
              "type": "uint256"
            }
          ],
          "internalType": "struct ICygnusNebula.NebulaOracle",
          "name": "",
          "type": "tuple"
        }
      ],
      "stateMutability": "view",
      "type": "function"
    },
    {
      "inputs": [
        {
          "internalType": "address",
          "name": "lpTokenPair",
          "type": "address"
        },
        {
          "internalType": "contract AggregatorV3Interface[]",
          "name": "aggregators",
          "type": "address[]"
        }
      ],
      "name": "initializeNebulaOracle",
      "outputs": [],
      "stateMutability": "nonpayable",
      "type": "function"
    },
    {
      "inputs": [
        {
          "internalType": "address",
          "name": "lpTokenPair",
          "type": "address"
        }
      ],
      "name": "lpTokenInfo",
      "outputs": [
        {
          "internalType": "contract IERC20[]",
          "name": "tokens",
          "type": "address[]"
        },
        {
          "internalType": "uint256[]",
          "name": "prices",
          "type": "uint256[]"
        },
        {
          "internalType": "uint256[]",
          "name": "reserves",
          "type": "uint256[]"
        },
        {
          "internalType": "uint256[]",
          "name": "tokenDecimals",
          "type": "uint256[]"
        },
        {
          "internalType": "uint256[]",
          "name": "reservesUsd",
          "type": "uint256[]"
        }
      ],
      "stateMutability": "view",
      "type": "function"
    },
    {
      "inputs": [
        {
          "internalType": "address",
          "name": "lpTokenPair",
          "type": "address"
        }
      ],
      "name": "lpTokenPriceUsd",
      "outputs": [
        {
          "internalType": "uint256",
          "name": "lpTokenPrice",
          "type": "uint256"
        }
      ],
      "stateMutability": "view",
      "type": "function"
    },
    {
      "inputs": [],
      "name": "name",
      "outputs": [
        {
          "internalType": "string",
          "name": "",
          "type": "string"
        }
      ],
      "stateMutability": "view",
      "type": "function"
    },
    {
      "inputs": [],
      "name": "nebulaRegistry",
      "outputs": [
        {
          "internalType": "address",
          "name": "",
          "type": "address"
        }
      ],
      "stateMutability": "view",
      "type": "function"
    },
    {
      "inputs": [],
      "name": "nebulaSize",
      "outputs": [
        {
          "internalType": "uint88",
          "name": "",
          "type": "uint88"
        }
      ],
      "stateMutability": "view",
      "type": "function"
    },
    {
      "inputs": [],
      "name": "version",
      "outputs": [
        {
          "internalType": "string",
          "name": "",
          "type": "string"
        }
      ],
      "stateMutability": "view",
      "type": "function"
    }
  ],
  "bytecode": "0x610100806040523462000209576060816200309180380380916200002482856200020e565b833981010312620002095780516001600160a01b039190828116808203620002095760209182840151938585168503620002095760400151948516850362000209576002549060018083811c93168015620001fe575b85841014620001e85782601f869411620001af575b50507f4379676e75733a20556e69737761705632204e6562756c61000000000000003060025560805260405163313ce56760e01b815291829060049082905afa918215620001a3576000926200015e575b505060a05260c05260e052604051612e48908162000249823960805181610138015260a051818181610db5015281816110de015281816111bc0152818161121d015281816116df0152611934015260c051818181610d8d01528181610f39015281816110b1015261190b015260e0518181816101e901526102bc0152f35b81813d83116200019b575b6200017581836200020e565b810103126200019757519060ff821682036200019457503880620000e0565b80fd5b5080fd5b503d62000169565b6040513d6000823e3d90fd5b9391906002600052601f84600020950160051c8501945b858110620001d95750819294506200008f565b600081558694508101620001c6565b634e487b7160e01b600052602260045260246000fd5b92607f16926200007a565b600080fd5b601f909101601f19168101906001600160401b038211908210176200023257604052565b634e487b7160e01b600052604160045260246000fdfe6080604052600436101561001257600080fd5b60003560e01c806306fdde03146123bd578063131ad74e14611a5557806317e5a1a114611703578063313ce567146116a75780633ef096d3146113cb5780634be1c7961461137257806354fd4d50146112eb5780636cdeb02814610f975780638a790cf214610f5d5780638eb6f8f014610eee5780639ff631dd14610eb0578063ba3941e714610e67578063c1a287e214610e2c578063cadbcc2114610d59578063d02c70e814610ceb578063d9be85311461020d578063e13d88ac1461019e578063e6a69ab8146101615763f6b9fdfb146100ed57600080fd5b3461015c5760007ffffffffffffffffffffffffffffffffffffffffffffffffffffffffffffffffc36011261015c57602060405173ffffffffffffffffffffffffffffffffffffffff7f0000000000000000000000000000000000000000000000000000000000000000168152f35b600080fd5b3461015c5760007ffffffffffffffffffffffffffffffffffffffffffffffffffffffffffffffffc36011261015c5760206040516301e133808152f35b3461015c5760007ffffffffffffffffffffffffffffffffffffffffffffffffffffffffffffffffc36011261015c57602060405173ffffffffffffffffffffffffffffffffffffffff7f0000000000000000000000000000000000000000000000000000000000000000168152f35b3461015c5760407ffffffffffffffffffffffffffffffffffffffffffffffffffffffffffffffffc36011261015c5773ffffffffffffffffffffffffffffffffffffffff600435166004350361015c5767ffffffffffffffff6024351161015c5736602360243501121561015c5767ffffffffffffffff602435600401351161015c5736602480356004013560051b813501011161015c5773ffffffffffffffffffffffffffffffffffffffff7f0000000000000000000000000000000000000000000000000000000000000000163303610cbb5773ffffffffffffffffffffffffffffffffffffffff6004351660005260006020526040600020805460ff8116600014610c3f5750611c2061032760078301544261277f565b11610bf7575b61033c6024356004013561286d565b6103496040519182612460565b600460243501358082527fffffffffffffffffffffffffffffffffffffffffffffffffffffffffffffffe09061037e9061286d565b0136602083013761039460243560040135612885565b916103a460243560040135612885565b926040517f0dfe168100000000000000000000000000000000000000000000000000000000815260208160048173ffffffffffffffffffffffffffffffffffffffff8235165afa8015610a585773ffffffffffffffffffffffffffffffffffffffff91600091610bd8575b501661041c6000856128d4565b526040517fd21220a700000000000000000000000000000000000000000000000000000000815260208160048173ffffffffffffffffffffffffffffffffffffffff8235165afa8015610a585773ffffffffffffffffffffffffffffffffffffffff91600091610ba9575b50166104946001856128d4565b5260005b602435600401358110610a6457506040517f06fdde0300000000000000000000000000000000000000000000000000000000815260008160048173ffffffffffffffffffffffffffffffffffffffff8235165afa908115610a58576000916109de575b5080519067ffffffffffffffff821161083f57819061051d600186015461240d565b601f811161099e575b50602090601f83116001146108d2576000926108c7575b50507fffffffffffffffffffffffffffffffffffffffffffffffffffffffffffffffff8260011b9260031b1c19161760018301555b6002820173ffffffffffffffffffffffffffffffffffffffff600435167fffffffffffffffffffffffff0000000000000000000000000000000000000000825416179055825167ffffffffffffffff811161083f5768010000000000000000811161083f57600383016105ea828254818455836129e5565b6020850190600052602060002060005b83811061089d5750505050805167ffffffffffffffff811161083f5768010000000000000000811161083f5760048301610639828254818455836129e5565b6020830190600052602060002060005b838110610889575050505068010000000000000000602435600401351161083f5760058201805460046024350135808355610686929091906129e5565b602480350191826005820160005260206000209060005b60243560040135811061086e575050506006810185519067ffffffffffffffff821161083f5768010000000000000000821161083f576106e2828254818455836129e5565b6020870190600052602060002060005b83811061082b575050505060209161078a6affffffffffffffffffffff8360017fffffffffffffffffffffffffffffffffffffffffffffffffffffffffffffff006107989654161781556107496004356001612915565b5460081c169560405196600188528588015273ffffffffffffffffffffffffffffffffffffffff60043516604088015260e0606088015260e08701906125cc565b908582036080870152612616565b83810360a0850152602435600401358152019060005b6024356004013581106107f5577f558b57994e63dd3105e23dd47f60a4074d50167448cd407bc457b8a29e3dab0d84806107f0868983820360c0850152612616565b0390a1005b909182359073ffffffffffffffffffffffffffffffffffffffff821680920361015c5760208160019382935201930191016107ae565b6001906020845194019381840155016106f2565b7f4e487b7100000000000000000000000000000000000000000000000000000000600052604160045260246000fd5b600190602061087c846129ad565b930192818501550161069d565b600190602084519401938184015501610649565b600190602073ffffffffffffffffffffffffffffffffffffffff85511694019381840155016105fa565b01519050868061053d565b9250600185016000526020600020906000935b7fffffffffffffffffffffffffffffffffffffffffffffffffffffffffffffffe0841685106109835760019450837fffffffffffffffffffffffffffffffffffffffffffffffffffffffffffffffe081161061094c575b505050811b016001830155610572565b01517fffffffffffffffffffffffffffffffffffffffffffffffffffffffffffffffff60f88460031b161c1916905586808061093c565b818101518355602094850194600190930192909101906108e5565b6109ce90600187016000526020600020601f850160051c810191602086106109d4575b601f0160051c01906129ce565b87610526565b90915081906109c1565b90503d806000833e6109f08183612460565b81019060208183031261015c5780519067ffffffffffffffff821161015c570181601f8201121561015c578051610a268161264a565b92610a346040519485612460565b8184526020828401011161015c57610a529160208085019101612566565b856104fb565b6040513d6000823e3d90fd5b80602073ffffffffffffffffffffffffffffffffffffffff610a88600494886128d4565b5116604051938480927f313ce5670000000000000000000000000000000000000000000000000000000082525afa918215610a585760049260ff91600091610b8a575b5016610ad782856128d4565b52602073ffffffffffffffffffffffffffffffffffffffff610b0160248460051b813501016129ad565b16604051938480927f313ce5670000000000000000000000000000000000000000000000000000000082525afa918215610a5857610b569260ff91600091610b5b575b5016610b5082886128d4565b526128e8565b610498565b610b7d915060203d602011610b83575b610b758183612460565b810190612994565b88610b44565b503d610b6b565b610ba3915060203d602011610b8357610b758183612460565b88610acb565b610bcb915060203d602011610bd1575b610bc38183612460565b810190612968565b86610487565b503d610bb9565b610bf1915060203d602011610bd157610bc38183612460565b8661040f565b60246040517f48a979dc00000000000000000000000000000000000000000000000000000000815273ffffffffffffffffffffffffffffffffffffffff600435166004820152fd5b8060017fffffffffffffffffffffffffffffffffffffffffffffffffffffffffffffff008193161783557fffffffffffffffffffffffffffffffffffffffff0000000000000000000000006bffffffffffffffffffffff00835460081b16911617178155426007820155610cb66004356001612915565b61032d565b60246040517f47a51a28000000000000000000000000000000000000000000000000000000008152336004820152fd5b3461015c5760207ffffffffffffffffffffffffffffffffffffffffffffffffffffffffffffffffc36011261015c5760043560015481101561015c5773ffffffffffffffffffffffffffffffffffffffff610d496020926001612684565b9190546040519260031b1c168152f35b3461015c5760007ffffffffffffffffffffffffffffffffffffffffffffffffffffffffffffffffc36011261015c57610db17f00000000000000000000000000000000000000000000000000000000000000006127e9565b60ff7f00000000000000000000000000000000000000000000000000000000000000001660120360ff8111610dfd57602091610def610df5926127d8565b9061279f565b604051908152f35b7f4e487b7100000000000000000000000000000000000000000000000000000000600052601160045260246000fd5b3461015c5760007ffffffffffffffffffffffffffffffffffffffffffffffffffffffffffffffffc36011261015c576020604051611c208152f35b3461015c5760007ffffffffffffffffffffffffffffffffffffffffffffffffffffffffffffffffc36011261015c5760206affffffffffffffffffffff60015416604051908152f35b3461015c5760007ffffffffffffffffffffffffffffffffffffffffffffffffffffffffffffffffc36011261015c5760206040516402540be4008152f35b3461015c5760007ffffffffffffffffffffffffffffffffffffffffffffffffffffffffffffffffc36011261015c57602060405173ffffffffffffffffffffffffffffffffffffffff7f0000000000000000000000000000000000000000000000000000000000000000168152f35b3461015c5760007ffffffffffffffffffffffffffffffffffffffffffffffffffffffffffffffffc36011261015c57602060405160088152f35b3461015c5760207ffffffffffffffffffffffffffffffffffffffffffffffffffffffffffffffffc36011261015c5760043573ffffffffffffffffffffffffffffffffffffffff811680910361015c57806000526000602052604060002060ff815416156112ba57600381019161100d836126cb565b9161101a60048201612730565b93549061102682612885565b9061103083612885565b926004606061103e83612885565b96604051928380927f0902f1ac0000000000000000000000000000000000000000000000000000000082525afa908115610a5857600090600092611288575b506dffffffffffffffffffffffffffff93929380921661109e6001886128d4565b52166110ab6000866128d4565b526110d57f00000000000000000000000000000000000000000000000000000000000000006127e9565b9060009060ff807f000000000000000000000000000000000000000000000000000000000000000016601203115b84831061116e576111328961116a8a61115c8e61114e8d6111408e604051998a9960a08b5260a08b01906125cc565b9089820360208b0152612616565b908782036040890152612616565b908582036060870152612616565b908382036080850152612616565b0390f35b6111a073ffffffffffffffffffffffffffffffffffffffff6111938560058601612684565b90549060031b1c166127e9565b90610dfd576111f090670de0b6b3a76400006111ea6111e460ff7f0000000000000000000000000000000000000000000000000000000000000000166012036127d8565b8761278c565b91612a08565b6111fa83876128d4565b5261128261120883876128d4565b519261127861125c61124b60009661124560ff7f0000000000000000000000000000000000000000000000000000000000000000166012036127d8565b9061278c565b611255848c6128d4565b519061278c565b610def61126c8460048801612684565b90549060031b1c61285f565b610b50828b6128d4565b91611103565b90506112ab915060603d81116112b3575b6112a38183612460565b810190612829565b50908961107d565b503d611299565b602482604051907ffb642b4d0000000000000000000000000000000000000000000000000000000082526004820152fd5b3461015c5760007ffffffffffffffffffffffffffffffffffffffffffffffffffffffffffffffffc36011261015c5761116a611327600561264a565b6113346040519182612460565b600581527f312e302e300000000000000000000000000000000000000000000000000000006020820152604051918291602083526020830190612589565b3461015c5760007ffffffffffffffffffffffffffffffffffffffffffffffffffffffffffffffffc36011261015c5760206040517f6a627842000000000000000000000000000000000000000000000000000000008152f35b3461015c5760207ffffffffffffffffffffffffffffffffffffffffffffffffffffffffffffffffc36011261015c5760043573ffffffffffffffffffffffffffffffffffffffff811680910361015c57600061010060405161142f61012082612460565b8281528260208201526060604082015282606082015260606080820152606060a0820152606060c0820152606060e082015201526000526000602052604060002060405161147f61012082612460565b6affffffffffffffffffffff825460ff81161515835260081c1660208201526114aa600183016124a1565b604082015273ffffffffffffffffffffffffffffffffffffffff60028301541660608201526114db600383016126cb565b60808201526114ec60048301612730565b60a08201526005820191604051806020855491828152019460005260206000209060005b81811061167b5750505061152981600794950382612460565b60c084015261153a60068201612730565b60e08401520154610100820152604051602081528151151560208201526affffffffffffffffffffff602083015116604082015261158960408301516101206060840152610140830190612589565b9173ffffffffffffffffffffffffffffffffffffffff60608201511660808301526115fb6115e76080830151947fffffffffffffffffffffffffffffffffffffffffffffffffffffffffffffffe095868683030160a08701526125cc565b60a0830151858583030160c0860152612616565b9260c082015193818482030160e08501526020808651928381520195019060005b81811061164f5750505061164283946101009260e0850151908683030184870152612616565b9101516101208301520390f35b825173ffffffffffffffffffffffffffffffffffffffff1687526020968701969092019160010161161c565b825473ffffffffffffffffffffffffffffffffffffffff16875260209096019560019283019201611510565b3461015c5760007ffffffffffffffffffffffffffffffffffffffffffffffffffffffffffffffffc36011261015c57602060405160ff7f0000000000000000000000000000000000000000000000000000000000000000168152f35b3461015c576020807ffffffffffffffffffffffffffffffffffffffffffffffffffffffffffffffffc36011261015c5773ffffffffffffffffffffffffffffffffffffffff6004358181169081810361015c5760008091604051868101907f6a62784200000000000000000000000000000000000000000000000000000000825283602482015260248152611799604482612460565b5191612710fa503d15611a4e573d6117b08161264a565b906117be6040519283612460565b81523d60008583013e5b51611a2457806000526000835260406000209060ff825416156119f357611807600583019361119360016118018361119360008a612684565b96612684565b91604051907f0902f1ac000000000000000000000000000000000000000000000000000000008252606082600481865afa938415610a585786926000906000966119aa575b5061126c600161189a6118a09594610def946118926004611881819d9e6dffffffffffffffffffffffffffff8095169061278c565b980197610def61126c60008b612684565b9b169061278c565b93612684565b91604051938480927f18160ddd0000000000000000000000000000000000000000000000000000000082525afa918215610a5857600092611979575b506118e79192612ae5565b90671bc16d674ec800009180830292830403610dfd576119069161279f565b61192f7f00000000000000000000000000000000000000000000000000000000000000006127e9565b9060ff7f0000000000000000000000000000000000000000000000000000000000000000166012039160ff8311610dfd576111ea670de0b6b3a764000091611245610df5956127d8565b91508382813d83116119a3575b6119908183612460565b8101031261015c576118e79151916118dc565b503d611986565b60049650610def9150600161189a6118a095946118816118928b6119de61126c9760603d81116112b3576112a38183612460565b509390939d505050509450949550505061184c565b602490604051907ffb642b4d0000000000000000000000000000000000000000000000000000000082526004820152fd5b60046040517f47a08e96000000000000000000000000000000000000000000000000000000008152fd5b60606117c8565b3461015c5760607ffffffffffffffffffffffffffffffffffffffffffffffffffffffffffffffffc36011261015c576714057b7ef767814f670de0b6b3a7640000611abc8282611aa6600435612c95565b02048383611ab5602435612c95565b020461277f565b6301e1338090818102918183041490151715610dfd57611adf906044359061279f565b91680736ea4425c11ac63183101561238c576706f05b59d3b20000908293020104680a688906bd8b00000081101561235b57819060401b049077800000000000000000000000000000000000000000000000678000000000000000831661233c575b6740000000000000008316612329575b6720000000000000008316612316575b6710000000000000008316612303575b67080000000000000083166122f0575b67040000000000000083166122dd575b67020000000000000083166122ca575b67010000000000000083166122b7575b668000000000000083166122a4575b66400000000000008316612291575b6620000000000000831661227e575b6610000000000000831661226b575b66080000000000008316612258575b66040000000000008316612245575b66020000000000008316612232575b6601000000000000831661221f575b65800000000000831661220c575b6540000000000083166121f9575b6520000000000083166121e6575b6510000000000083166121d3575b6508000000000083166121c0575b6504000000000083166121ad575b65020000000000831661219a575b650100000000008316612187575b6480000000008316612174575b6440000000008316612161575b642000000000831661214e575b641000000000831661213b575b6408000000008316612128575b6404000000008316612115575b6402000000008316612102575b64010000000083166120ef575b638000000083166120dc575b634000000083166120c9575b632000000083166120b6575b631000000083166120a3575b63080000008316612090575b6304000000831661207d575b6302000000831661206a575b63010000008316612057575b628000008316612044575b624000008316612031575b62200000831661201e575b62100000831661200b575b620800008316611ff8575b620400008316611fe5575b620200008316611fd2575b620100008316611fbf575b6180008316611fac575b6140008316611f99575b6120008316611f86575b6110008316611f73575b6108008316611f60575b6104008316611f4d575b6102008316611f3a575b6101008316611f27575b60808316611f14575b60408316611f01575b60208316611eee575b60108316611edb575b60088316611ec8575b60048316611eb5575b60028316611ea2575b60018316611e8f575b029060401c60bf031c7ffffffffffffffffffffffffffffffffffffffffffffffffff21f494c589c00008101908111610dfd57602090604051908152f35b680100000000000000010260401c611e51565b680100000000000000010260401c611e48565b680100000000000000030260401c611e3f565b680100000000000000060260401c611e36565b6801000000000000000b0260401c611e2d565b680100000000000000160260401c611e24565b6801000000000000002c0260401c611e1b565b680100000000000000590260401c611e12565b680100000000000000b10260401c611e09565b680100000000000001630260401c611dff565b680100000000000002c60260401c611df5565b6801000000000000058c0260401c611deb565b68010000000000000b170260401c611de1565b6801000000000000162e0260401c611dd7565b68010000000000002c5d0260401c611dcd565b680100000000000058b90260401c611dc3565b6801000000000000b1720260401c611db9565b680100000000000162e40260401c611dae565b6801000000000002c5c80260401c611da3565b68010000000000058b910260401c611d98565b680100000000000b17210260401c611d8d565b68010000000000162e430260401c611d82565b680100000000002c5c860260401c611d77565b6801000000000058b90c0260401c611d6c565b68010000000000b172180260401c611d61565b6801000000000162e4300260401c611d55565b68010000000002c5c8600260401c611d49565b680100000000058b90c00260401c611d3d565b6801000000000b17217f0260401c611d31565b680100000000162e42ff0260401c611d25565b6801000000002c5c85fe0260401c611d19565b68010000000058b90bfc0260401c611d0d565b680100000000b17217f80260401c611d01565b68010000000162e42ff10260401c611cf4565b680100000002c5c85fe30260401c611ce7565b6801000000058b90bfce0260401c611cda565b68010000000b17217fbb0260401c611ccd565b6801000000162e42fff00260401c611cc0565b68010000002c5c8601cc0260401c611cb3565b680100000058b90c0b490260401c611ca6565b6801000000b1721835510260401c611c99565b680100000162e430e5a20260401c611c8b565b6801000002c5c863b73f0260401c611c7d565b68010000058b90cf1e6e0260401c611c6f565b680100000b1721bcfc9a0260401c611c61565b68010000162e43f4f8310260401c611c53565b680100002c5c89d5ec6d0260401c611c45565b6801000058b91b5bc9ae0260401c611c37565b68010000b17255775c040260401c611c29565b6801000162e525ee05470260401c611c1a565b68010002c5cc37da94920260401c611c0b565b680100058ba01fb9f96d0260401c611bfc565b6801000b175effdc76ba0260401c611bed565b680100162f3904051fa10260401c611bde565b6801002c605e2e8cec500260401c611bcf565b68010058c86da1c09ea20260401c611bc0565b680100b1afa5abcbed610260401c611bb1565b68010163da9fb33356d80260401c611ba1565b680102c9a3e778060ee70260401c611b91565b6801059b0d31585743ae0260401c611b81565b68010b5586cf9890f62a0260401c611b71565b6801172b83c7d517adce0260401c611b61565b6801306fe0a31b7152df0260401c611b51565b5077b504f333f9de648480000000000000000000000000000000611b41565b602490604051907f4a4f26f10000000000000000000000000000000000000000000000000000000082526004820152fd5b602483604051907f315da0680000000000000000000000000000000000000000000000000000000082526004820152fd5b3461015c5760007ffffffffffffffffffffffffffffffffffffffffffffffffffffffffffffffffc36011261015c5761116a6123f960026124a1565b604051918291602083526020830190612589565b90600182811c92168015612456575b602083101461242757565b7f4e487b7100000000000000000000000000000000000000000000000000000000600052602260045260246000fd5b91607f169161241c565b90601f7fffffffffffffffffffffffffffffffffffffffffffffffffffffffffffffffe0910116810190811067ffffffffffffffff82111761083f57604052565b90604051918260008254926124b58461240d565b90818452600194858116908160001461252457506001146124e1575b50506124df92500383612460565b565b9093915060005260209081600020936000915b81831061250c5750506124df935082010138806124d1565b855488840185015294850194879450918301916124f4565b90506124df9550602093507fffffffffffffffffffffffffffffffffffffffffffffffffffffffffffffff0091501682840152151560051b82010138806124d1565b60005b8381106125795750506000910152565b8181015183820152602001612569565b907fffffffffffffffffffffffffffffffffffffffffffffffffffffffffffffffe0601f6020936125c581518092818752878088019101612566565b0116010190565b90815180825260208080930193019160005b8281106125ec575050505090565b835173ffffffffffffffffffffffffffffffffffffffff16855293810193928101926001016125de565b90815180825260208080930193019160005b828110612636575050505090565b835185529381019392810192600101612628565b67ffffffffffffffff811161083f57601f017fffffffffffffffffffffffffffffffffffffffffffffffffffffffffffffffe01660200190565b805482101561269c5760005260206000200190600090565b7f4e487b7100000000000000000000000000000000000000000000000000000000600052603260045260246000fd5b9060405191828154918282526020928383019160005283600020936000905b828210612700575050506124df92500383612460565b855473ffffffffffffffffffffffffffffffffffffffff16845260019586019588955093810193909101906126ea565b9060405191828154918282526020928383019160005283600020936000905b828210612765575050506124df92500383612460565b85548452600195860195889550938101939091019061274f565b91908203918211610dfd57565b81810292918115918404141715610dfd57565b81156127a9570490565b7f4e487b7100000000000000000000000000000000000000000000000000000000600052601260045260246000fd5b60ff16604d8111610dfd57600a0a90565b604060006004601c6402540be4009463feaf968c84525afa601f3d1116602051020290565b51906dffffffffffffffffffffffffffff8216820361015c57565b9081606091031261015c5761283d8161280e565b91604061284c6020840161280e565b92015163ffffffff8116810361015c5790565b604d8111610dfd57600a0a90565b67ffffffffffffffff811161083f5760051b60200190565b9061288f8261286d565b61289c6040519182612460565b8281527fffffffffffffffffffffffffffffffffffffffffffffffffffffffffffffffe06128ca829461286d565b0190602036910137565b805182101561269c5760209160051b010190565b7fffffffffffffffffffffffffffffffffffffffffffffffffffffffffffffffff8114610dfd5760010190565b80546801000000000000000081101561083f5761293791600182018155612684565b819291549060031b9173ffffffffffffffffffffffffffffffffffffffff9283811b93849216901b16911916179055565b9081602091031261015c575173ffffffffffffffffffffffffffffffffffffffff8116810361015c5790565b9081602091031261015c575160ff8116810361015c5790565b3573ffffffffffffffffffffffffffffffffffffffff8116810361015c5790565b8181106129d9575050565b600081556001016129ce565b918181106129f257505050565b6124df92600052602060002091820191016129ce565b90917fffffffffffffffffffffffffffffffffffffffffffffffffffffffffffffffff8383099280830292838086109503948086039514612ad55782851015612a9e57908291096001821901821680920460028082600302188083028203028083028203028083028203028083028203028083028203028092029003029360018380600003040190848311900302920304170290565b60448584604051917f773cc18c00000000000000000000000000000000000000000000000000000000835260048301526024820152fd5b505090612ae2925061279f565b90565b8015612b40578181029180612afa838561279f565b03612b0a575050612ae290612b47565b60449250604051917ec3efdf00000000000000000000000000000000000000000000000000000000835260048301526024820152fd5b5050600090565b8015612c8f57806001700100000000000000000000000000000000831015612c79575b60088268010000000000000000612c21941015612c6c575b640100000000811015612c5f575b62010000811015612c53575b610100811015612c47575b6010811015612c3a575b1015612c32575b612bc2818461279f565b0160011c612bd0818461279f565b0160011c612bde818461279f565b0160011c612bec818461279f565b0160011c612bfa818461279f565b0160011c612c08818461279f565b0160011c612c16818461279f565b0160011c809261279f565b90818110612c2d575090565b905090565b60011b612bb8565b60041c9160021b91612bb1565b811c9160041b91612ba7565b60101c91811b91612b9c565b60201c9160101b91612b90565b60401c9160201b91612b82565b5050608081901c68010000000000000000612b6a565b50600090565b90670de0b6b3a7640000808310612e0a57600092818104700100000000000000000000000000000000811015612dff575b68010000000000000000811015612dea575b640100000000811015612dd5575b62010000811015612dc0575b610100811015612dab575b6010811015612d96575b6004811015612d81575b60021115612d6f575b818402931c90808214612d6b576706f05b59d3b2000091825b612d3c57505050565b808291020491671bc16d674ec80000831015612d5d575b60011c9182612d33565b809294019360011c91612d53565b5050565b9260018101809111610dfd5792612d1a565b60021c9360028101809111610dfd5793612d11565b60041c9360048101809111610dfd5793612d07565b60081c9360088101809111610dfd5793612cfd565b60101c9360108101809111610dfd5793612cf2565b60201c9360208101809111610dfd5793612ce6565b60401c9360408101809111610dfd5793612cd8565b60809450841c612cc6565b602483604051907fd88504dc0000000000000000000000000000000000000000000000000000000082526004820152fdfea164736f6c6343000811000a",
  "linkReferences": {},
  "deployedLinkReferences": {}
}