{
  "_format": "hh-sol-artifact-1",
  "contractName": "BalancerComposableNebula",
  "sourceName": "contracts/all-cygnus-oracles/BalancerComposableNebula.sol",
  "abi": [
    {
      "inputs": [
        {
          "internalType": "contract IERC20",
          "name": "denomination",
          "type": "address"
        },
        {
          "internalType": "contract AggregatorV3Interface",
          "name": "denominationPrice",
          "type": "address"
        },
        {
          "internalType": "address",
          "name": "_nebulaRegistry",
          "type": "address"
        }
      ],
      "stateMutability": "nonpayable",
      "type": "constructor"
    },
    {
      "inputs": [],
      "name": "CygnusNebulaOracle__AlreadyInContext",
      "type": "error"
    },
    {
      "inputs": [
        {
          "internalType": "address",
          "name": "sender",
          "type": "address"
        }
      ],
      "name": "CygnusNebulaOracle__MsgSenderNotRegistry",
      "type": "error"
    },
    {
      "inputs": [
        {
          "internalType": "address",
          "name": "lpTokenPair",
          "type": "address"
        }
      ],
      "name": "CygnusNebulaOracle__PairAlreadyInitialized",
      "type": "error"
    },
    {
      "inputs": [
        {
          "internalType": "address",
          "name": "lpTokenPair",
          "type": "address"
        }
      ],
      "name": "CygnusNebulaOracle__PairNotInitialized",
      "type": "error"
    },
    {
      "inputs": [
        {
          "internalType": "uint256",
          "name": "x",
          "type": "uint256"
        }
      ],
      "name": "PRBMathUD60x18__Exp2InputTooBig",
      "type": "error"
    },
    {
      "inputs": [
        {
          "internalType": "uint256",
          "name": "x",
          "type": "uint256"
        }
      ],
      "name": "PRBMathUD60x18__ExpInputTooBig",
      "type": "error"
    },
    {
      "inputs": [
        {
          "internalType": "uint256",
          "name": "x",
          "type": "uint256"
        }
      ],
      "name": "PRBMathUD60x18__LogInputTooSmall",
      "type": "error"
    },
    {
      "inputs": [
        {
          "internalType": "uint256",
          "name": "prod1",
          "type": "uint256"
        }
      ],
      "name": "PRBMath__MulDivFixedPointOverflow",
      "type": "error"
    },
    {
      "inputs": [
        {
          "internalType": "uint256",
          "name": "prod1",
          "type": "uint256"
        },
        {
          "internalType": "uint256",
          "name": "denominator",
          "type": "uint256"
        }
      ],
      "name": "PRBMath__MulDivOverflow",
      "type": "error"
    },
    {
      "anonymous": false,
      "inputs": [
        {
          "indexed": false,
          "internalType": "bool",
          "name": "initialized",
          "type": "bool"
        },
        {
          "indexed": false,
          "internalType": "uint88",
          "name": "oracleId",
          "type": "uint88"
        },
        {
          "indexed": false,
          "internalType": "address",
          "name": "lpTokenPair",
          "type": "address"
        },
        {
          "indexed": false,
          "internalType": "contract IERC20[]",
          "name": "poolTokens",
          "type": "address[]"
        },
        {
          "indexed": false,
          "internalType": "uint256[]",
          "name": "poolTokensDecimals",
          "type": "uint256[]"
        },
        {
          "indexed": false,
          "internalType": "contract AggregatorV3Interface[]",
          "name": "priceFeeds",
          "type": "address[]"
        },
        {
          "indexed": false,
          "internalType": "uint256[]",
          "name": "priceFeedsDecimals",
          "type": "uint256[]"
        }
      ],
      "name": "InitializeNebulaOracle",
      "type": "event"
    },
    {
      "anonymous": false,
      "inputs": [
        {
          "indexed": false,
          "internalType": "address",
          "name": "oracleOldAdmin",
          "type": "address"
        },
        {
          "indexed": false,
          "internalType": "address",
          "name": "oracleNewAdmin",
          "type": "address"
        }
      ],
      "name": "NewOracleAdmin",
      "type": "event"
    },
    {
      "anonymous": false,
      "inputs": [
        {
          "indexed": false,
          "internalType": "address",
          "name": "oracleCurrentAdmin",
          "type": "address"
        },
        {
          "indexed": false,
          "internalType": "address",
          "name": "oraclePendingAdmin",
          "type": "address"
        }
      ],
      "name": "NewOraclePendingAdmin",
      "type": "event"
    },
    {
      "inputs": [],
      "name": "AGGREGATOR_DECIMALS",
      "outputs": [
        {
          "internalType": "uint256",
          "name": "",
          "type": "uint256"
        }
      ],
      "stateMutability": "view",
      "type": "function"
    },
    {
      "inputs": [],
      "name": "AGGREGATOR_SCALAR",
      "outputs": [
        {
          "internalType": "uint256",
          "name": "",
          "type": "uint256"
        }
      ],
      "stateMutability": "view",
      "type": "function"
    },
    {
      "inputs": [],
      "name": "GRACE_PERIOD",
      "outputs": [
        {
          "internalType": "uint256",
          "name": "",
          "type": "uint256"
        }
      ],
      "stateMutability": "view",
      "type": "function"
    },
    {
      "inputs": [],
      "name": "S",
      "outputs": [
        {
          "internalType": "bytes4",
          "name": "",
          "type": "bytes4"
        }
      ],
      "stateMutability": "view",
      "type": "function"
    },
    {
      "inputs": [],
      "name": "SECONDS_PER_YEAR",
      "outputs": [
        {
          "internalType": "uint256",
          "name": "",
          "type": "uint256"
        }
      ],
      "stateMutability": "view",
      "type": "function"
    },
    {
      "inputs": [],
      "name": "VAULT",
      "outputs": [
        {
          "internalType": "address",
          "name": "",
          "type": "address"
        }
      ],
      "stateMutability": "view",
      "type": "function"
    },
    {
      "inputs": [
        {
          "internalType": "uint256",
          "name": "",
          "type": "uint256"
        }
      ],
      "name": "allNebulas",
      "outputs": [
        {
          "internalType": "address",
          "name": "",
          "type": "address"
        }
      ],
      "stateMutability": "view",
      "type": "function"
    },
    {
      "inputs": [],
      "name": "decimals",
      "outputs": [
        {
          "internalType": "uint8",
          "name": "",
          "type": "uint8"
        }
      ],
      "stateMutability": "view",
      "type": "function"
    },
    {
      "inputs": [],
      "name": "denominationAggregator",
      "outputs": [
        {
          "internalType": "contract AggregatorV3Interface",
          "name": "",
          "type": "address"
        }
      ],
      "stateMutability": "view",
      "type": "function"
    },
    {
      "inputs": [],
      "name": "denominationToken",
      "outputs": [
        {
          "internalType": "contract IERC20",
          "name": "",
          "type": "address"
        }
      ],
      "stateMutability": "view",
      "type": "function"
    },
    {
      "inputs": [],
      "name": "denominationTokenPrice",
      "outputs": [
        {
          "internalType": "uint256",
          "name": "",
          "type": "uint256"
        }
      ],
      "stateMutability": "view",
      "type": "function"
    },
    {
      "inputs": [
        {
          "internalType": "uint256",
          "name": "exchangeRateLast",
          "type": "uint256"
        },
        {
          "internalType": "uint256",
          "name": "exchangeRateCurrent",
          "type": "uint256"
        },
        {
          "internalType": "uint256",
          "name": "timeElapsed",
          "type": "uint256"
        }
      ],
      "name": "getAnnualizedBaseRate",
      "outputs": [
        {
          "internalType": "uint256",
          "name": "",
          "type": "uint256"
        }
      ],
      "stateMutability": "pure",
      "type": "function"
    },
    {
      "inputs": [
        {
          "internalType": "address",
          "name": "lpTokenPair",
          "type": "address"
        }
      ],
      "name": "getNebulaOracle",
      "outputs": [
        {
          "components": [
            {
              "internalType": "bool",
              "name": "initialized",
              "type": "bool"
            },
            {
              "internalType": "uint88",
              "name": "oracleId",
              "type": "uint88"
            },
            {
              "internalType": "string",
              "name": "name",
              "type": "string"
            },
            {
              "internalType": "address",
              "name": "underlying",
              "type": "address"
            },
            {
              "internalType": "contract IERC20[]",
              "name": "poolTokens",
              "type": "address[]"
            },
            {
              "internalType": "uint256[]",
              "name": "poolTokensDecimals",
              "type": "uint256[]"
            },
            {
              "internalType": "contract AggregatorV3Interface[]",
              "name": "priceFeeds",
              "type": "address[]"
            },
            {
              "internalType": "uint256[]",
              "name": "priceFeedsDecimals",
              "type": "uint256[]"
            },
            {
              "internalType": "uint256",
              "name": "createdAt",
              "type": "uint256"
            }
          ],
          "internalType": "struct ICygnusNebula.NebulaOracle",
          "name": "",
          "type": "tuple"
        }
      ],
      "stateMutability": "view",
      "type": "function"
    },
    {
      "inputs": [
        {
          "internalType": "address",
          "name": "lpTokenPair",
          "type": "address"
        },
        {
          "internalType": "contract AggregatorV3Interface[]",
          "name": "aggregators",
          "type": "address[]"
        }
      ],
      "name": "initializeNebulaOracle",
      "outputs": [],
      "stateMutability": "nonpayable",
      "type": "function"
    },
    {
      "inputs": [
        {
          "internalType": "address",
          "name": "lpTokenPair",
          "type": "address"
        }
      ],
      "name": "lpTokenInfo",
      "outputs": [
        {
          "internalType": "contract IERC20[]",
          "name": "tokens",
          "type": "address[]"
        },
        {
          "internalType": "uint256[]",
          "name": "prices",
          "type": "uint256[]"
        },
        {
          "internalType": "uint256[]",
          "name": "reserves",
          "type": "uint256[]"
        },
        {
          "internalType": "uint256[]",
          "name": "tokenDecimals",
          "type": "uint256[]"
        },
        {
          "internalType": "uint256[]",
          "name": "reservesUsd",
          "type": "uint256[]"
        }
      ],
      "stateMutability": "view",
      "type": "function"
    },
    {
      "inputs": [
        {
          "internalType": "address",
          "name": "lpTokenPair",
          "type": "address"
        }
      ],
      "name": "lpTokenPriceUsd",
      "outputs": [
        {
          "internalType": "uint256",
          "name": "lpTokenPrice",
          "type": "uint256"
        }
      ],
      "stateMutability": "view",
      "type": "function"
    },
    {
      "inputs": [],
      "name": "name",
      "outputs": [
        {
          "internalType": "string",
          "name": "",
          "type": "string"
        }
      ],
      "stateMutability": "view",
      "type": "function"
    },
    {
      "inputs": [],
      "name": "nebulaRegistry",
      "outputs": [
        {
          "internalType": "address",
          "name": "",
          "type": "address"
        }
      ],
      "stateMutability": "view",
      "type": "function"
    },
    {
      "inputs": [],
      "name": "nebulaSize",
      "outputs": [
        {
          "internalType": "uint88",
          "name": "",
          "type": "uint88"
        }
      ],
      "stateMutability": "view",
      "type": "function"
    },
    {
      "inputs": [],
      "name": "version",
      "outputs": [
        {
          "internalType": "string",
          "name": "",
          "type": "string"
        }
      ],
      "stateMutability": "view",
      "type": "function"
    }
  ],
  "bytecode": "0x610100806040523462000217576060816200327a80380380916200002482856200021c565b833981010312620002175780516001600160a01b039190828116808203620002175760209182840151938585168503620002175760400151948516850362000217576002549060018083811c931680156200020c575b85841014620001f65782601f869411620001bb575b505091600492604160025560026000527f4379676e75733a2042616c616e636572205765696768746564204e6562756c6183600020556080526040519283809263313ce56760e01b82525afa918215620001af576000926200016a575b505060a05260c05260e052604051613023908162000257823960805181610143015260a051818181610fae015281816112a80152818161141a01528181611475015281816119ea0152611bbc015260c051818181610f86015281816111320152818161127c0152611b93015260e0518181816101f401526102c70152f35b81813d8311620001a7575b6200018181836200021c565b81010312620001a357519060ff82168203620001a057503880620000ec565b80fd5b5080fd5b503d62000175565b6040513d6000823e3d90fd5b939190600260005280601f85600020960160051c860195015b858110620001e75750819294506200008f565b600081558694508101620001d4565b634e487b7160e01b600052602260045260246000fd5b92607f16926200007a565b600080fd5b601f909101601f19168101906001600160401b038211908210176200024057604052565b634e487b7160e01b600052604160045260246000fdfe6080604052600436101561001257600080fd5b60003560e01c806306fdde031461270a578063131ad74e14611da257806317e5a1a114611a0e578063313ce567146119b25780633ef096d3146116d6578063411557d1146116895780634be1c7961461163057806354fd4d50146115a95780636cdeb028146111905780638a790cf2146111565780638eb6f8f0146110e75780639ff631dd146110a9578063ba3941e714611060578063c1a287e214611025578063cadbcc2114610f52578063d02c70e814610ee4578063d9be853114610218578063e13d88ac146101a9578063e6a69ab81461016c5763f6b9fdfb146100f857600080fd5b346101675760007ffffffffffffffffffffffffffffffffffffffffffffffffffffffffffffffffc36011261016757602060405173ffffffffffffffffffffffffffffffffffffffff7f0000000000000000000000000000000000000000000000000000000000000000168152f35b600080fd5b346101675760007ffffffffffffffffffffffffffffffffffffffffffffffffffffffffffffffffc3601126101675760206040516301e133808152f35b346101675760007ffffffffffffffffffffffffffffffffffffffffffffffffffffffffffffffffc36011261016757602060405173ffffffffffffffffffffffffffffffffffffffff7f0000000000000000000000000000000000000000000000000000000000000000168152f35b346101675760407ffffffffffffffffffffffffffffffffffffffffffffffffffffffffffffffffc3601126101675773ffffffffffffffffffffffffffffffffffffffff60043516600435036101675767ffffffffffffffff60243511610167573660236024350112156101675767ffffffffffffffff60243560040135116101675736602480356004013560051b81350101116101675773ffffffffffffffffffffffffffffffffffffffff7f0000000000000000000000000000000000000000000000000000000000000000163303610eb45773ffffffffffffffffffffffffffffffffffffffff6004351660005260006020526040600020805460ff8116600014610e235750611c20610332600783015442612acc565b11610ddb575b61034760243560040135612b88565b61035460405191826127ad565b600460243501358082527fffffffffffffffffffffffffffffffffffffffffffffffffffffffffffffffe09061038990612b88565b0136602083013761039f60243560040135612ba0565b906103af60243560040135612ba0565b92604051917f38fff2d000000000000000000000000000000000000000000000000000000000835260208360048173ffffffffffffffffffffffffffffffffffffffff8235165afa928315610b0257600093610da7575b50604051927ff94d4668000000000000000000000000000000000000000000000000000000008452600484015260008360248173ba12222222228d8ba445958a75a0704d566bf2c85afa928315610b0257600093610c4d575b5060009160005b84518110156104fe5773ffffffffffffffffffffffffffffffffffffffff6004351673ffffffffffffffffffffffffffffffffffffffff6104a78388612bef565b5116036104bd575b6104b890612b5b565b610466565b926104f66104b89173ffffffffffffffffffffffffffffffffffffffff6104e48789612bef565b51166104f08287612bef565b52612b5b565b9390506104af565b8683838860005b602435600401358110610b0e575060015482547fffffffffffffffffffffffffffffffffffffffff0000000000000000000000ff1660089190911b6bffffffffffffffffffffff00161782556040517f06fdde0300000000000000000000000000000000000000000000000000000000815260008160048173ffffffffffffffffffffffffffffffffffffffff8235165afa908115610b0257600091610a88575b5080519067ffffffffffffffff82116108e95781906105c8600186015461275a565b601f8111610a48575b50602090601f831160011461097c57600092610971575b50507fffffffffffffffffffffffffffffffffffffffffffffffffffffffffffffffff8260011b9260031b1c19161760018301555b6002820173ffffffffffffffffffffffffffffffffffffffff600435167fffffffffffffffffffffffff0000000000000000000000000000000000000000825416179055825167ffffffffffffffff81116108e9576801000000000000000081116108e9576003830161069582825481845583612ca7565b6020850190600052602060002060005b8381106109475750505050805167ffffffffffffffff81116108e9576801000000000000000081116108e957600483016106e482825481845583612ca7565b6020830190600052602060002060005b83811061093357505050506801000000000000000060243560040135116108e9576005820180546004602435013580835561073192909190612ca7565b602480350191826005820160005260206000209060005b60243560040135811061091857505050845167ffffffffffffffff81116108e9576801000000000000000081116108e9576006820161078c82825481845583612ca7565b6020870190600052602060002060005b8381106108d557505050506020916108346affffffffffffffffffffff8360017fffffffffffffffffffffffffffffffffffffffffffffffffffffffffffffff006108429654161781556107f36004356001612c03565b5460081c169560405196600188528588015273ffffffffffffffffffffffffffffffffffffffff60043516604088015260e0606088015260e0870190612919565b908582036080870152612963565b83810360a0850152602435600401358152019060005b60243560040135811061089f577f558b57994e63dd3105e23dd47f60a4074d50167448cd407bc457b8a29e3dab0d848061089a868983820360c0850152612963565b0390a1005b909182359073ffffffffffffffffffffffffffffffffffffffff8216809203610167576020816001938293520193019101610858565b60019060208451940193818401550161079c565b7f4e487b7100000000000000000000000000000000000000000000000000000000600052604160045260246000fd5b600190602061092684612c6f565b9301928185015501610748565b6001906020845194019381840155016106f4565b600190602073ffffffffffffffffffffffffffffffffffffffff85511694019381840155016106a5565b0151905086806105e8565b9250600185016000526020600020906000935b7fffffffffffffffffffffffffffffffffffffffffffffffffffffffffffffffe084168510610a2d5760019450837fffffffffffffffffffffffffffffffffffffffffffffffffffffffffffffffe08116106109f6575b505050811b01600183015561061d565b01517fffffffffffffffffffffffffffffffffffffffffffffffffffffffffffffffff60f88460031b161c191690558680806109e6565b8181015183556020948501946001909301929091019061098f565b610a7890600187016000526020600020601f850160051c81019160208610610a7e575b601f0160051c0190612c90565b876105d1565b9091508190610a6b565b90503d806000833e610a9a81836127ad565b8101906020818303126101675780519067ffffffffffffffff8211610167570181601f82011215610167578051610ad081612997565b92610ade60405194856127ad565b8184526020828401011161016757610afc91602080850191016128b3565b856105a6565b6040513d6000823e3d90fd5b80602073ffffffffffffffffffffffffffffffffffffffff610b3260049488612bef565b5116604051938480927f313ce5670000000000000000000000000000000000000000000000000000000082525afa918215610b025760049260ff91600091610c2e575b5016610b818285612bef565b52602073ffffffffffffffffffffffffffffffffffffffff610bab60248460051b81350101612c6f565b16604051938480927f313ce5670000000000000000000000000000000000000000000000000000000082525afa918215610b0257610bfa9260ff91600091610bff575b50166104f08288612bef565b610505565b610c21915060203d602011610c27575b610c1981836127ad565b810190612c56565b88610bee565b503d610c0f565b610c47915060203d602011610c2757610c1981836127ad565b88610b75565b9092503d90816000823e610c6182826127ad565b60608183810103126101675780519167ffffffffffffffff831161016757808201601f848401011215610167578282015192610c9c84612b88565b93610caa60405195866127ad565b808552602085019183850160208360051b8388010101116101675791602083860101925b60208360051b82880101018410610d745750505050602082015167ffffffffffffffff811161016757818301601f8285010112156101675780830151926020610d1685612b88565b610d2360405191826127ad565b8581520192810160208560051b8484010101116101675780820160200192915b60208560051b82840101018410610d60575050505050918561045f565b602080809486518152019401939250610d43565b83519173ffffffffffffffffffffffffffffffffffffffff83168303610167576020818194829352019401939150610cce565b9092506020813d602011610dd3575b81610dc3602093836127ad565b8101031261016757519185610406565b3d9150610db6565b60246040517f48a979dc00000000000000000000000000000000000000000000000000000000815273ffffffffffffffffffffffffffffffffffffffff600435166004820152fd5b7fffffffffffffffffffffffffffffffffffffffffffffffffffffffffffffff0060019116178155610e9c6affffffffffffffffffffff6001541682907fffffffffffffffffffffffffffffffffffffffff0000000000000000000000ff6bffffffffffffffffffffff0083549260081b169116179055565b426007820155610eaf6004356001612c03565b610338565b60246040517f47a51a28000000000000000000000000000000000000000000000000000000008152336004820152fd5b346101675760207ffffffffffffffffffffffffffffffffffffffffffffffffffffffffffffffffc360112610167576004356001548110156101675773ffffffffffffffffffffffffffffffffffffffff610f4260209260016129d1565b9190546040519260031b1c168152f35b346101675760007ffffffffffffffffffffffffffffffffffffffffffffffffffffffffffffffffc36011261016757610faa7f0000000000000000000000000000000000000000000000000000000000000000612b36565b60ff7f00000000000000000000000000000000000000000000000000000000000000001660120360ff8111610ff657602091610fe8610fee92612b25565b90612aec565b604051908152f35b7f4e487b7100000000000000000000000000000000000000000000000000000000600052601160045260246000fd5b346101675760007ffffffffffffffffffffffffffffffffffffffffffffffffffffffffffffffffc360112610167576020604051611c208152f35b346101675760007ffffffffffffffffffffffffffffffffffffffffffffffffffffffffffffffffc3601126101675760206affffffffffffffffffffff60015416604051908152f35b346101675760007ffffffffffffffffffffffffffffffffffffffffffffffffffffffffffffffffc3601126101675760206040516402540be4008152f35b346101675760007ffffffffffffffffffffffffffffffffffffffffffffffffffffffffffffffffc36011261016757602060405173ffffffffffffffffffffffffffffffffffffffff7f0000000000000000000000000000000000000000000000000000000000000000168152f35b346101675760007ffffffffffffffffffffffffffffffffffffffffffffffffffffffffffffffffc36011261016757602060405160088152f35b346101675760207ffffffffffffffffffffffffffffffffffffffffffffffffffffffffffffffffc3601126101675760043573ffffffffffffffffffffffffffffffffffffffff81168091036101675780600052600060205260406000209060ff825416156115785761120560038301612a18565b9061121260048401612a7d565b9260038101549061122282612ba0565b9061122c83612ba0565b926004602061123a83612ba0565b96604051928380927f38fff2d00000000000000000000000000000000000000000000000000000000082525afa908115610b0257600091611546575b506112a07f0000000000000000000000000000000000000000000000000000000000000000612b36565b90600060ff807f000000000000000000000000000000000000000000000000000000000000000016601203115b848210611338576112fc8a6113348b6113268f6113188e61130a8f604051998a9960a08b5260a08b0190612919565b9089820360208b0152612963565b908782036040890152612963565b908582036060870152612963565b908382036080850152612963565b0390f35b61136a73ffffffffffffffffffffffffffffffffffffffff61135d8460058a016129d1565b90549060031b1c16612b36565b9073ffffffffffffffffffffffffffffffffffffffff61138d8460038a016129d1565b90549060031b1c16604051907fb05f8e48000000000000000000000000000000000000000000000000000000008252856004830152602482015260808160448173ba12222222228d8ba445958a75a0704d566bf2c85afa908115610b02576000916114f2575b506113fe848b612bef565b52610ff65761144e90670de0b6b3a764000061144861144260ff7f000000000000000000000000000000000000000000000000000000000000000016601203612b25565b87612ad9565b91612cca565b6114588288612bef565b526114638187612bef565b51906114b46114a360009361149d60ff7f000000000000000000000000000000000000000000000000000000000000000016601203612b25565b90612ad9565b6114ad838b612bef565b5190612ad9565b906114c281600489016129d1565b90549060031b1c604d8111610ff6576114ec926114e291600a0a90612aec565b6104f0828c612bef565b906112cd565b90506080813d60801161153e575b8161150d608093836127ad565b81010312610167576060815191015173ffffffffffffffffffffffffffffffffffffffff811603610167578d6113f3565b3d9150611500565b90506020813d602011611570575b81611561602093836127ad565b81010312610167575188611276565b3d9150611554565b602490604051907ffb642b4d0000000000000000000000000000000000000000000000000000000082526004820152fd5b346101675760007ffffffffffffffffffffffffffffffffffffffffffffffffffffffffffffffffc360112610167576113346115e56005612997565b6115f260405191826127ad565b600581527f312e302e3000000000000000000000000000000000000000000000000000000060208201526040519182916020835260208301906128d6565b346101675760007ffffffffffffffffffffffffffffffffffffffffffffffffffffffffffffffffc3601126101675760206040517f0e8e3e84000000000000000000000000000000000000000000000000000000008152f35b346101675760007ffffffffffffffffffffffffffffffffffffffffffffffffffffffffffffffffc36011261016757602060405173ba12222222228d8ba445958a75a0704d566bf2c88152f35b346101675760207ffffffffffffffffffffffffffffffffffffffffffffffffffffffffffffffffc3601126101675760043573ffffffffffffffffffffffffffffffffffffffff811680910361016757600061010060405161173a610120826127ad565b8281528260208201526060604082015282606082015260606080820152606060a0820152606060c0820152606060e082015201526000526000602052604060002060405161178a610120826127ad565b6affffffffffffffffffffff825460ff81161515835260081c1660208201526117b5600183016127ee565b604082015273ffffffffffffffffffffffffffffffffffffffff60028301541660608201526117e660038301612a18565b60808201526117f760048301612a7d565b60a08201526005820191604051806020855491828152019460005260206000209060005b81811061198657505050611834816007949503826127ad565b60c084015261184560068201612a7d565b60e08401520154610100820152604051602081528151151560208201526affffffffffffffffffffff6020830151166040820152611894604083015161012060608401526101408301906128d6565b9173ffffffffffffffffffffffffffffffffffffffff60608201511660808301526119066118f26080830151947fffffffffffffffffffffffffffffffffffffffffffffffffffffffffffffffe095868683030160a0870152612919565b60a0830151858583030160c0860152612963565b9260c082015193818482030160e08501526020808651928381520195019060005b81811061195a5750505061194d83946101009260e0850151908683030184870152612963565b9101516101208301520390f35b825173ffffffffffffffffffffffffffffffffffffffff16875260209687019690920191600101611927565b825473ffffffffffffffffffffffffffffffffffffffff1687526020909601956001928301920161181b565b346101675760007ffffffffffffffffffffffffffffffffffffffffffffffffffffffffffffffffc36011261016757602060405160ff7f0000000000000000000000000000000000000000000000000000000000000000168152f35b34610167576020807ffffffffffffffffffffffffffffffffffffffffffffffffffffffffffffffffc3601126101675760043573ffffffffffffffffffffffffffffffffffffffff80821680920361016757604051916000808585017f0e8e3e840000000000000000000000000000000000000000000000000000000081526024958287820152868152611aa36044826127ad565b519073ba12222222228d8ba445958a75a0704d566bf2c8612710fa503d15611d9b573d611acf81612997565b90611add60405192836127ad565b81523d60008683013e5b51611d71578060005260008452604060002060ff81541615611d4157600380820180546000957fffffffffffffffffffffffffffffffffffffffffffffffffffffffffffffffff9589959094906005015b838910611c6157505050505060049350604051938480927f679aefce0000000000000000000000000000000000000000000000000000000082525afa908115610b0257600091611c30575b611b8d9250612f4d565b90611bb77f0000000000000000000000000000000000000000000000000000000000000000612b36565b9060ff7f0000000000000000000000000000000000000000000000000000000000000000166012039060ff8211611c035750611448610fee939261149d670de0b6b3a764000093612b25565b7f4e487b710000000000000000000000000000000000000000000000000000000060005260116004526000fd5b90508382813d8311611c5a575b611c4781836127ad565b8101031261016757611b8d915190611b83565b503d611c3d565b91939550919395611c8284611c768a856129d1565b905490861b1c16612b36565b9084611c8e8a896129d1565b905490861b1c16604051907f54dea00a00000000000000000000000000000000000000000000000000000000825260048201528b818c818c5afa908115610b0257600091611d12575b50611cee90670de0b6b3a7640000611cfe94612cca565b80821015611d0b57505b97612b5b565b9695939189959391611b38565b9050611cf8565b90508b81813d8311611d3a575b611d2981836127ad565b810103126101675751611cfe611cd7565b503d611d1f565b8382604051907ffb642b4d0000000000000000000000000000000000000000000000000000000082526004820152fd5b60046040517f47a08e96000000000000000000000000000000000000000000000000000000008152fd5b6060611ae7565b346101675760607ffffffffffffffffffffffffffffffffffffffffffffffffffffffffffffffffc360112610167576714057b7ef767814f670de0b6b3a7640000611e098282611df3600435612da7565b02048383611e02602435612da7565b0204612acc565b6301e1338090818102918183041490151715610ff657611e2c9060443590612aec565b91680736ea4425c11ac6318310156126d9576706f05b59d3b20000908293020104680a688906bd8b0000008110156126a857819060401b0490778000000000000000000000000000000000000000000000006780000000000000008316612689575b6740000000000000008316612676575b6720000000000000008316612663575b6710000000000000008316612650575b670800000000000000831661263d575b670400000000000000831661262a575b6702000000000000008316612617575b6701000000000000008316612604575b668000000000000083166125f1575b664000000000000083166125de575b662000000000000083166125cb575b661000000000000083166125b8575b660800000000000083166125a5575b66040000000000008316612592575b6602000000000000831661257f575b6601000000000000831661256c575b658000000000008316612559575b654000000000008316612546575b652000000000008316612533575b651000000000008316612520575b65080000000000831661250d575b6504000000000083166124fa575b6502000000000083166124e7575b6501000000000083166124d4575b64800000000083166124c1575b64400000000083166124ae575b642000000000831661249b575b6410000000008316612488575b6408000000008316612475575b6404000000008316612462575b640200000000831661244f575b640100000000831661243c575b63800000008316612429575b63400000008316612416575b63200000008316612403575b631000000083166123f0575b630800000083166123dd575b630400000083166123ca575b630200000083166123b7575b630100000083166123a4575b628000008316612391575b62400000831661237e575b62200000831661236b575b621000008316612358575b620800008316612345575b620400008316612332575b62020000831661231f575b62010000831661230c575b61800083166122f9575b61400083166122e6575b61200083166122d3575b61100083166122c0575b61080083166122ad575b610400831661229a575b6102008316612287575b6101008316612274575b60808316612261575b6040831661224e575b6020831661223b575b60108316612228575b60088316612215575b60048316612202575b600283166121ef575b600183166121dc575b029060401c60bf031c7ffffffffffffffffffffffffffffffffffffffffffffffffff21f494c589c00008101908111610ff657602090604051908152f35b680100000000000000010260401c61219e565b680100000000000000010260401c612195565b680100000000000000030260401c61218c565b680100000000000000060260401c612183565b6801000000000000000b0260401c61217a565b680100000000000000160260401c612171565b6801000000000000002c0260401c612168565b680100000000000000590260401c61215f565b680100000000000000b10260401c612156565b680100000000000001630260401c61214c565b680100000000000002c60260401c612142565b6801000000000000058c0260401c612138565b68010000000000000b170260401c61212e565b6801000000000000162e0260401c612124565b68010000000000002c5d0260401c61211a565b680100000000000058b90260401c612110565b6801000000000000b1720260401c612106565b680100000000000162e40260401c6120fb565b6801000000000002c5c80260401c6120f0565b68010000000000058b910260401c6120e5565b680100000000000b17210260401c6120da565b68010000000000162e430260401c6120cf565b680100000000002c5c860260401c6120c4565b6801000000000058b90c0260401c6120b9565b68010000000000b172180260401c6120ae565b6801000000000162e4300260401c6120a2565b68010000000002c5c8600260401c612096565b680100000000058b90c00260401c61208a565b6801000000000b17217f0260401c61207e565b680100000000162e42ff0260401c612072565b6801000000002c5c85fe0260401c612066565b68010000000058b90bfc0260401c61205a565b680100000000b17217f80260401c61204e565b68010000000162e42ff10260401c612041565b680100000002c5c85fe30260401c612034565b6801000000058b90bfce0260401c612027565b68010000000b17217fbb0260401c61201a565b6801000000162e42fff00260401c61200d565b68010000002c5c8601cc0260401c612000565b680100000058b90c0b490260401c611ff3565b6801000000b1721835510260401c611fe6565b680100000162e430e5a20260401c611fd8565b6801000002c5c863b73f0260401c611fca565b68010000058b90cf1e6e0260401c611fbc565b680100000b1721bcfc9a0260401c611fae565b68010000162e43f4f8310260401c611fa0565b680100002c5c89d5ec6d0260401c611f92565b6801000058b91b5bc9ae0260401c611f84565b68010000b17255775c040260401c611f76565b6801000162e525ee05470260401c611f67565b68010002c5cc37da94920260401c611f58565b680100058ba01fb9f96d0260401c611f49565b6801000b175effdc76ba0260401c611f3a565b680100162f3904051fa10260401c611f2b565b6801002c605e2e8cec500260401c611f1c565b68010058c86da1c09ea20260401c611f0d565b680100b1afa5abcbed610260401c611efe565b68010163da9fb33356d80260401c611eee565b680102c9a3e778060ee70260401c611ede565b6801059b0d31585743ae0260401c611ece565b68010b5586cf9890f62a0260401c611ebe565b6801172b83c7d517adce0260401c611eae565b6801306fe0a31b7152df0260401c611e9e565b5077b504f333f9de648480000000000000000000000000000000611e8e565b602490604051907f4a4f26f10000000000000000000000000000000000000000000000000000000082526004820152fd5b602483604051907f315da0680000000000000000000000000000000000000000000000000000000082526004820152fd5b346101675760007ffffffffffffffffffffffffffffffffffffffffffffffffffffffffffffffffc3601126101675761133461274660026127ee565b6040519182916020835260208301906128d6565b90600182811c921680156127a3575b602083101461277457565b7f4e487b7100000000000000000000000000000000000000000000000000000000600052602260045260246000fd5b91607f1691612769565b90601f7fffffffffffffffffffffffffffffffffffffffffffffffffffffffffffffffe0910116810190811067ffffffffffffffff8211176108e957604052565b90604051918260008254926128028461275a565b908184526001948581169081600014612871575060011461282e575b505061282c925003836127ad565b565b9093915060005260209081600020936000915b81831061285957505061282c9350820101388061281e565b85548884018501529485019487945091830191612841565b905061282c9550602093507fffffffffffffffffffffffffffffffffffffffffffffffffffffffffffffff0091501682840152151560051b820101388061281e565b60005b8381106128c65750506000910152565b81810151838201526020016128b6565b907fffffffffffffffffffffffffffffffffffffffffffffffffffffffffffffffe0601f602093612912815180928187528780880191016128b3565b0116010190565b90815180825260208080930193019160005b828110612939575050505090565b835173ffffffffffffffffffffffffffffffffffffffff168552938101939281019260010161292b565b90815180825260208080930193019160005b828110612983575050505090565b835185529381019392810192600101612975565b67ffffffffffffffff81116108e957601f017fffffffffffffffffffffffffffffffffffffffffffffffffffffffffffffffe01660200190565b80548210156129e95760005260206000200190600090565b7f4e487b7100000000000000000000000000000000000000000000000000000000600052603260045260246000fd5b9060405191828154918282526020928383019160005283600020936000905b828210612a4d5750505061282c925003836127ad565b855473ffffffffffffffffffffffffffffffffffffffff1684526001958601958895509381019390910190612a37565b9060405191828154918282526020928383019160005283600020936000905b828210612ab25750505061282c925003836127ad565b855484526001958601958895509381019390910190612a9c565b91908203918211610ff657565b81810292918115918404141715610ff657565b8115612af6570490565b7f4e487b7100000000000000000000000000000000000000000000000000000000600052601260045260246000fd5b60ff16604d8111610ff657600a0a90565b604060006004601c6402540be4009463feaf968c84525afa601f3d1116602051020290565b7fffffffffffffffffffffffffffffffffffffffffffffffffffffffffffffffff8114610ff65760010190565b67ffffffffffffffff81116108e95760051b60200190565b90612baa82612b88565b612bb760405191826127ad565b8281527fffffffffffffffffffffffffffffffffffffffffffffffffffffffffffffffe0612be58294612b88565b0190602036910137565b80518210156129e95760209160051b010190565b8054680100000000000000008110156108e957612c25916001820181556129d1565b819291549060031b9173ffffffffffffffffffffffffffffffffffffffff9283811b93849216901b16911916179055565b90816020910312610167575160ff811681036101675790565b3573ffffffffffffffffffffffffffffffffffffffff811681036101675790565b818110612c9b575050565b60008155600101612c90565b91818110612cb457505050565b61282c9260005260206000209182019101612c90565b90917fffffffffffffffffffffffffffffffffffffffffffffffffffffffffffffffff8383099280830292838086109503948086039514612d975782851015612d6057908291096001821901821680920460028082600302188083028203028083028203028083028203028083028203028083028203028092029003029360018380600003040190848311900302920304170290565b60448584604051917f773cc18c00000000000000000000000000000000000000000000000000000000835260048301526024820152fd5b505090612da49250612aec565b90565b90670de0b6b3a7640000808310612f1c57600092818104700100000000000000000000000000000000811015612f11575b68010000000000000000811015612efc575b640100000000811015612ee7575b62010000811015612ed2575b610100811015612ebd575b6010811015612ea8575b6004811015612e93575b60021115612e81575b818402931c90808214612e7d576706f05b59d3b2000091825b612e4e57505050565b808291020491671bc16d674ec80000831015612e6f575b60011c9182612e45565b809294019360011c91612e65565b5050565b9260018101809111610ff65792612e2c565b60021c9360028101809111610ff65793612e23565b60041c9360048101809111610ff65793612e19565b60081c9360088101809111610ff65793612e0f565b60101c9360108101809111610ff65793612e04565b60201c9360208101809111610ff65793612df8565b60401c9360408101809111610ff65793612dea565b60809450841c612dd8565b602483604051907fd88504dc0000000000000000000000000000000000000000000000000000000082526004820152fd5b7fffffffffffffffffffffffffffffffffffffffffffffffffffffffffffffffff828209828202908180821091039381850390670de0b6b3a76400009485831015612fe55790859109916706f05b59d3b1ffff83119514612fde577faccb18165bd6fe31ae1cf318dc5b51eee0e1ba569b88cd74c1773b91fac106699350828211900360ee1b910360121c17020190565b5050040190565b602483604051907fd31b34020000000000000000000000000000000000000000000000000000000082526004820152fdfea164736f6c6343000811000a",
  "linkReferences": {},
  "deployedLinkReferences": {}
}