{
  "_format": "hh-sol-artifact-1",
  "contractName": "GammaNebula",
  "sourceName": "contracts/all-cygnus-oracles/GammaNebula.sol",
  "abi": [
    {
      "inputs": [
        {
          "internalType": "contract IERC20",
          "name": "denomination",
          "type": "address"
        },
        {
          "internalType": "contract AggregatorV3Interface",
          "name": "denominationPrice",
          "type": "address"
        },
        {
          "internalType": "address",
          "name": "_nebulaRegistry",
          "type": "address"
        }
      ],
      "stateMutability": "nonpayable",
      "type": "constructor"
    },
    {
      "inputs": [],
      "name": "CygnusNebulaOracle__AlreadyInContext",
      "type": "error"
    },
    {
      "inputs": [
        {
          "internalType": "address",
          "name": "sender",
          "type": "address"
        }
      ],
      "name": "CygnusNebulaOracle__MsgSenderNotRegistry",
      "type": "error"
    },
    {
      "inputs": [
        {
          "internalType": "address",
          "name": "lpTokenPair",
          "type": "address"
        }
      ],
      "name": "CygnusNebulaOracle__PairAlreadyInitialized",
      "type": "error"
    },
    {
      "inputs": [
        {
          "internalType": "address",
          "name": "lpTokenPair",
          "type": "address"
        }
      ],
      "name": "CygnusNebulaOracle__PairNotInitialized",
      "type": "error"
    },
    {
      "inputs": [
        {
          "internalType": "uint256",
          "name": "x",
          "type": "uint256"
        }
      ],
      "name": "PRBMathUD60x18__Exp2InputTooBig",
      "type": "error"
    },
    {
      "inputs": [
        {
          "internalType": "uint256",
          "name": "x",
          "type": "uint256"
        }
      ],
      "name": "PRBMathUD60x18__ExpInputTooBig",
      "type": "error"
    },
    {
      "inputs": [
        {
          "internalType": "uint256",
          "name": "x",
          "type": "uint256"
        }
      ],
      "name": "PRBMathUD60x18__LogInputTooSmall",
      "type": "error"
    },
    {
      "inputs": [
        {
          "internalType": "uint256",
          "name": "prod1",
          "type": "uint256"
        },
        {
          "internalType": "uint256",
          "name": "denominator",
          "type": "uint256"
        }
      ],
      "name": "PRBMath__MulDivOverflow",
      "type": "error"
    },
    {
      "anonymous": false,
      "inputs": [
        {
          "indexed": false,
          "internalType": "bool",
          "name": "initialized",
          "type": "bool"
        },
        {
          "indexed": false,
          "internalType": "uint88",
          "name": "oracleId",
          "type": "uint88"
        },
        {
          "indexed": false,
          "internalType": "address",
          "name": "lpTokenPair",
          "type": "address"
        },
        {
          "indexed": false,
          "internalType": "contract IERC20[]",
          "name": "poolTokens",
          "type": "address[]"
        },
        {
          "indexed": false,
          "internalType": "uint256[]",
          "name": "poolTokensDecimals",
          "type": "uint256[]"
        },
        {
          "indexed": false,
          "internalType": "contract AggregatorV3Interface[]",
          "name": "priceFeeds",
          "type": "address[]"
        },
        {
          "indexed": false,
          "internalType": "uint256[]",
          "name": "priceFeedsDecimals",
          "type": "uint256[]"
        }
      ],
      "name": "InitializeNebulaOracle",
      "type": "event"
    },
    {
      "anonymous": false,
      "inputs": [
        {
          "indexed": false,
          "internalType": "address",
          "name": "oracleOldAdmin",
          "type": "address"
        },
        {
          "indexed": false,
          "internalType": "address",
          "name": "oracleNewAdmin",
          "type": "address"
        }
      ],
      "name": "NewOracleAdmin",
      "type": "event"
    },
    {
      "anonymous": false,
      "inputs": [
        {
          "indexed": false,
          "internalType": "address",
          "name": "oracleCurrentAdmin",
          "type": "address"
        },
        {
          "indexed": false,
          "internalType": "address",
          "name": "oraclePendingAdmin",
          "type": "address"
        }
      ],
      "name": "NewOraclePendingAdmin",
      "type": "event"
    },
    {
      "inputs": [],
      "name": "AGGREGATOR_DECIMALS",
      "outputs": [
        {
          "internalType": "uint256",
          "name": "",
          "type": "uint256"
        }
      ],
      "stateMutability": "view",
      "type": "function"
    },
    {
      "inputs": [],
      "name": "AGGREGATOR_SCALAR",
      "outputs": [
        {
          "internalType": "uint256",
          "name": "",
          "type": "uint256"
        }
      ],
      "stateMutability": "view",
      "type": "function"
    },
    {
      "inputs": [],
      "name": "GRACE_PERIOD",
      "outputs": [
        {
          "internalType": "uint256",
          "name": "",
          "type": "uint256"
        }
      ],
      "stateMutability": "view",
      "type": "function"
    },
    {
      "inputs": [],
      "name": "S",
      "outputs": [
        {
          "internalType": "bytes4",
          "name": "",
          "type": "bytes4"
        }
      ],
      "stateMutability": "view",
      "type": "function"
    },
    {
      "inputs": [],
      "name": "SECONDS_PER_YEAR",
      "outputs": [
        {
          "internalType": "uint256",
          "name": "",
          "type": "uint256"
        }
      ],
      "stateMutability": "view",
      "type": "function"
    },
    {
      "inputs": [
        {
          "internalType": "uint256",
          "name": "",
          "type": "uint256"
        }
      ],
      "name": "allNebulas",
      "outputs": [
        {
          "internalType": "address",
          "name": "",
          "type": "address"
        }
      ],
      "stateMutability": "view",
      "type": "function"
    },
    {
      "inputs": [],
      "name": "decimals",
      "outputs": [
        {
          "internalType": "uint8",
          "name": "",
          "type": "uint8"
        }
      ],
      "stateMutability": "view",
      "type": "function"
    },
    {
      "inputs": [],
      "name": "denominationAggregator",
      "outputs": [
        {
          "internalType": "contract AggregatorV3Interface",
          "name": "",
          "type": "address"
        }
      ],
      "stateMutability": "view",
      "type": "function"
    },
    {
      "inputs": [],
      "name": "denominationToken",
      "outputs": [
        {
          "internalType": "contract IERC20",
          "name": "",
          "type": "address"
        }
      ],
      "stateMutability": "view",
      "type": "function"
    },
    {
      "inputs": [],
      "name": "denominationTokenPrice",
      "outputs": [
        {
          "internalType": "uint256",
          "name": "",
          "type": "uint256"
        }
      ],
      "stateMutability": "view",
      "type": "function"
    },
    {
      "inputs": [
        {
          "internalType": "uint256",
          "name": "exchangeRateLast",
          "type": "uint256"
        },
        {
          "internalType": "uint256",
          "name": "exchangeRateCurrent",
          "type": "uint256"
        },
        {
          "internalType": "uint256",
          "name": "timeElapsed",
          "type": "uint256"
        }
      ],
      "name": "getAnnualizedBaseRate",
      "outputs": [
        {
          "internalType": "uint256",
          "name": "",
          "type": "uint256"
        }
      ],
      "stateMutability": "pure",
      "type": "function"
    },
    {
      "inputs": [
        {
          "internalType": "address",
          "name": "lpTokenPair",
          "type": "address"
        }
      ],
      "name": "getNebulaOracle",
      "outputs": [
        {
          "components": [
            {
              "internalType": "bool",
              "name": "initialized",
              "type": "bool"
            },
            {
              "internalType": "uint88",
              "name": "oracleId",
              "type": "uint88"
            },
            {
              "internalType": "string",
              "name": "name",
              "type": "string"
            },
            {
              "internalType": "address",
              "name": "underlying",
              "type": "address"
            },
            {
              "internalType": "contract IERC20[]",
              "name": "poolTokens",
              "type": "address[]"
            },
            {
              "internalType": "uint256[]",
              "name": "poolTokensDecimals",
              "type": "uint256[]"
            },
            {
              "internalType": "contract AggregatorV3Interface[]",
              "name": "priceFeeds",
              "type": "address[]"
            },
            {
              "internalType": "uint256[]",
              "name": "priceFeedsDecimals",
              "type": "uint256[]"
            },
            {
              "internalType": "uint256",
              "name": "createdAt",
              "type": "uint256"
            }
          ],
          "internalType": "struct ICygnusNebula.NebulaOracle",
          "name": "",
          "type": "tuple"
        }
      ],
      "stateMutability": "view",
      "type": "function"
    },
    {
      "inputs": [
        {
          "internalType": "address",
          "name": "lpTokenPair",
          "type": "address"
        },
        {
          "internalType": "contract AggregatorV3Interface[]",
          "name": "aggregators",
          "type": "address[]"
        }
      ],
      "name": "initializeNebulaOracle",
      "outputs": [],
      "stateMutability": "nonpayable",
      "type": "function"
    },
    {
      "inputs": [
        {
          "internalType": "address",
          "name": "lpTokenPair",
          "type": "address"
        }
      ],
      "name": "lpTokenInfo",
      "outputs": [
        {
          "internalType": "contract IERC20[]",
          "name": "tokens",
          "type": "address[]"
        },
        {
          "internalType": "uint256[]",
          "name": "prices",
          "type": "uint256[]"
        },
        {
          "internalType": "uint256[]",
          "name": "reserves",
          "type": "uint256[]"
        },
        {
          "internalType": "uint256[]",
          "name": "tokenDecimals",
          "type": "uint256[]"
        },
        {
          "internalType": "uint256[]",
          "name": "reservesUsd",
          "type": "uint256[]"
        }
      ],
      "stateMutability": "view",
      "type": "function"
    },
    {
      "inputs": [
        {
          "internalType": "address",
          "name": "lpTokenPair",
          "type": "address"
        }
      ],
      "name": "lpTokenPriceUsd",
      "outputs": [
        {
          "internalType": "uint256",
          "name": "lpTokenPrice",
          "type": "uint256"
        }
      ],
      "stateMutability": "view",
      "type": "function"
    },
    {
      "inputs": [],
      "name": "name",
      "outputs": [
        {
          "internalType": "string",
          "name": "",
          "type": "string"
        }
      ],
      "stateMutability": "view",
      "type": "function"
    },
    {
      "inputs": [],
      "name": "nebulaRegistry",
      "outputs": [
        {
          "internalType": "address",
          "name": "",
          "type": "address"
        }
      ],
      "stateMutability": "view",
      "type": "function"
    },
    {
      "inputs": [],
      "name": "nebulaSize",
      "outputs": [
        {
          "internalType": "uint88",
          "name": "",
          "type": "uint88"
        }
      ],
      "stateMutability": "view",
      "type": "function"
    },
    {
      "inputs": [],
      "name": "version",
      "outputs": [
        {
          "internalType": "string",
          "name": "",
          "type": "string"
        }
      ],
      "stateMutability": "view",
      "type": "function"
    }
  ],
  "bytecode": "0x6101008060405234620002095760608162003e3580380380916200002482856200020e565b833981010312620002095780516001600160a01b039190828116808203620002095760209182840151938585168503620002095760400151948516850362000209576002549060018083811c93168015620001fe575b85841014620001e85782601f869411620001af575b50507f4379676e75733a2048797065727669736f72204e6562756c610000000000003260025560805260405163313ce56760e01b815291829060049082905afa918215620001a3576000926200015e575b505060a05260c05260e052604051613bec908162000249823960805181610138015260a051818181610dce015281816110e2015281816111c001528181611221015281816116ea0152611dca015260c051818181610da601528181610f52015281816110b50152611da1015260e0518181816101e901526102bb0152f35b81813d83116200019b575b6200017581836200020e565b810103126200019757519060ff821682036200019457503880620000e0565b80fd5b5080fd5b503d62000169565b6040513d6000823e3d90fd5b9391906002600052601f84600020950160051c8501945b858110620001d95750819294506200008f565b600081558694508101620001c6565b634e487b7160e01b600052602260045260246000fd5b92607f16926200007a565b600080fd5b601f909101601f19168101906001600160401b038211908210176200023257604052565b634e487b7160e01b600052604160045260246000fdfe6080604052600436101561001257600080fd5b60003560e01c806306fdde03146129b4578063131ad74e1461204c57806317e5a1a11461170e578063313ce567146116b25780633ef096d3146113d65780634be1c7961461137d57806354fd4d50146112f65780636cdeb02814610fb05780638a790cf214610f765780638eb6f8f014610f075780639ff631dd14610ec9578063ba3941e714610e80578063c1a287e214610e45578063cadbcc2114610d72578063d02c70e814610d04578063d9be85311461020d578063e13d88ac1461019e578063e6a69ab8146101615763f6b9fdfb146100ed57600080fd5b3461015c5760007ffffffffffffffffffffffffffffffffffffffffffffffffffffffffffffffffc36011261015c57602060405173ffffffffffffffffffffffffffffffffffffffff7f0000000000000000000000000000000000000000000000000000000000000000168152f35b600080fd5b3461015c5760007ffffffffffffffffffffffffffffffffffffffffffffffffffffffffffffffffc36011261015c5760206040516301e133808152f35b3461015c5760007ffffffffffffffffffffffffffffffffffffffffffffffffffffffffffffffffc36011261015c57602060405173ffffffffffffffffffffffffffffffffffffffff7f0000000000000000000000000000000000000000000000000000000000000000168152f35b3461015c5760407ffffffffffffffffffffffffffffffffffffffffffffffffffffffffffffffffc36011261015c5760043573ffffffffffffffffffffffffffffffffffffffff8116810361015c5767ffffffffffffffff6024351161015c5736602360243501121561015c5767ffffffffffffffff602435600401351161015c5736602480356004013560051b813501011161015c5773ffffffffffffffffffffffffffffffffffffffff7f0000000000000000000000000000000000000000000000000000000000000000163303610cd45773ffffffffffffffffffffffffffffffffffffffff81166000526000602052604060002090815460ff8116600014610c035750611c20610325600784015442612d76565b11610bbc575b61033a60243560040135612fe1565b916103486040519384612a57565b600460243501358084527fffffffffffffffffffffffffffffffffffffffffffffffffffffffffffffffe09061037d90612fe1565b0136602085013761039360243560040135612ff9565b6103a260243560040135612ff9565b936040517f0dfe168100000000000000000000000000000000000000000000000000000000815260208160048173ffffffffffffffffffffffffffffffffffffffff89165afa908115610a1d57600091610b9d575b5073ffffffffffffffffffffffffffffffffffffffff610418600084613048565b911690526040517fd21220a700000000000000000000000000000000000000000000000000000000815260208160048173ffffffffffffffffffffffffffffffffffffffff89165afa908115610a1d57600091610b6e575b5073ffffffffffffffffffffffffffffffffffffffff610491600184613048565b9116905260005b602435600401358110610a2957506040517f06fdde0300000000000000000000000000000000000000000000000000000000815260008160048173ffffffffffffffffffffffffffffffffffffffff89165afa908115610a1d576000916109a3575b5080519067ffffffffffffffff821161080457819061051c6001870154612a04565b601f8111610963575b50602090601f83116001146108975760009261088c575b50507fffffffffffffffffffffffffffffffffffffffffffffffffffffffffffffffff8260011b9260031b1c19161760018401555b6002830173ffffffffffffffffffffffffffffffffffffffff85167fffffffffffffffffffffffff0000000000000000000000000000000000000000825416179055805167ffffffffffffffff81116108045768010000000000000000811161080457600384016105e782825481845583613106565b6020830190600052602060002060005b8381106108625750505050815167ffffffffffffffff811161080457680100000000000000008111610804576004840161063682825481845583613106565b6020840190600052602060002060005b83811061084e5750505050680100000000000000006024356004013511610804576005830180546004602435013580835561068392909190613106565b602480350192836005820160005260206000209060005b602435600401358110610833575050506006810186519067ffffffffffffffff821161080457680100000000000000008211610804576106df82825481845583613106565b6020880190600052602060002060005b8381106107f057505050509161074f61075d9273ffffffffffffffffffffffffffffffffffffffff6affffffffffffffffffffff6020965460081c16976040519860018a52878a015216604088015260e0606088015260e0870190612bc3565b908582036080870152612c0d565b83810360a0850152602435600401358152019060005b6024356004013581106107ba577f558b57994e63dd3105e23dd47f60a4074d50167448cd407bc457b8a29e3dab0d84806107b5868983820360c0850152612c0d565b0390a1005b909182359073ffffffffffffffffffffffffffffffffffffffff821680920361015c576020816001938293520193019101610773565b6001906020845194019381840155016106ef565b7f4e487b7100000000000000000000000000000000000000000000000000000000600052604160045260246000fd5b6001906020610841846130ce565b930192818501550161069a565b600190602084519401938184015501610646565b600190602073ffffffffffffffffffffffffffffffffffffffff85511694019381840155016105f7565b01519050878061053c565b9250600186016000526020600020906000935b7fffffffffffffffffffffffffffffffffffffffffffffffffffffffffffffffe0841685106109485760019450837fffffffffffffffffffffffffffffffffffffffffffffffffffffffffffffffe0811610610911575b505050811b016001840155610571565b01517fffffffffffffffffffffffffffffffffffffffffffffffffffffffffffffffff60f88460031b161c19169055878080610901565b818101518355602094850194600190930192909101906108aa565b61099390600188016000526020600020601f850160051c81019160208610610999575b601f0160051c01906130ef565b88610525565b9091508190610986565b90503d806000833e6109b58183612a57565b81019060208183031261015c5780519067ffffffffffffffff821161015c570181601f8201121561015c5780516109eb81612c41565b926109f96040519485612a57565b8184526020828401011161015c57610a179160208085019101612b5d565b866104fa565b6040513d6000823e3d90fd5b80602073ffffffffffffffffffffffffffffffffffffffff610a4d60049486613048565b5116604051938480927f313ce5670000000000000000000000000000000000000000000000000000000082525afa918215610a1d5760049260ff91600091610b4f575b5016610a9c8286613048565b52602073ffffffffffffffffffffffffffffffffffffffff610ac660248460051b813501016130ce565b16604051938480927f313ce5670000000000000000000000000000000000000000000000000000000082525afa918215610a1d57610b1b9260ff91600091610b20575b5016610b158289613048565b5261305c565b610498565b610b42915060203d602011610b48575b610b3a8183612a57565b8101906130b5565b89610b09565b503d610b30565b610b68915060203d602011610b4857610b3a8183612a57565b89610a90565b610b90915060203d602011610b96575b610b888183612a57565b810190613089565b86610470565b503d610b7e565b610bb6915060203d602011610b9657610b888183612a57565b866103f7565b60249073ffffffffffffffffffffffffffffffffffffffff604051917f48a979dc000000000000000000000000000000000000000000000000000000008352166004820152fd5b600181817fffffffffffffffffffffffffffffffffffffffffffffffffffffffffffffff008194161785557fffffffffffffffffffffffffffffffffffffffff0000000000000000000000006bffffffffffffffffffffff00835460081b169116171783554260078401558054680100000000000000008110156108045781610c8f9282018155612c7b565b81549060031b9073ffffffffffffffffffffffffffffffffffffffff821b809273ffffffffffffffffffffffffffffffffffffffff8616901b1691191617905561032b565b60246040517f47a51a28000000000000000000000000000000000000000000000000000000008152336004820152fd5b3461015c5760207ffffffffffffffffffffffffffffffffffffffffffffffffffffffffffffffffc36011261015c5760043560015481101561015c5773ffffffffffffffffffffffffffffffffffffffff610d626020926001612c7b565b9190546040519260031b1c168152f35b3461015c5760007ffffffffffffffffffffffffffffffffffffffffffffffffffffffffffffffffc36011261015c57610dca7f0000000000000000000000000000000000000000000000000000000000000000612de0565b60ff7f00000000000000000000000000000000000000000000000000000000000000001660120360ff8111610e1657602091610e08610e0e92612dcf565b90612d96565b604051908152f35b7f4e487b7100000000000000000000000000000000000000000000000000000000600052601160045260246000fd5b3461015c5760007ffffffffffffffffffffffffffffffffffffffffffffffffffffffffffffffffc36011261015c576020604051611c208152f35b3461015c5760007ffffffffffffffffffffffffffffffffffffffffffffffffffffffffffffffffc36011261015c5760206affffffffffffffffffffff60015416604051908152f35b3461015c5760007ffffffffffffffffffffffffffffffffffffffffffffffffffffffffffffffffc36011261015c5760206040516402540be4008152f35b3461015c5760007ffffffffffffffffffffffffffffffffffffffffffffffffffffffffffffffffc36011261015c57602060405173ffffffffffffffffffffffffffffffffffffffff7f0000000000000000000000000000000000000000000000000000000000000000168152f35b3461015c5760007ffffffffffffffffffffffffffffffffffffffffffffffffffffffffffffffffc36011261015c57602060405160088152f35b3461015c5760207ffffffffffffffffffffffffffffffffffffffffffffffffffffffffffffffffc36011261015c5760043573ffffffffffffffffffffffffffffffffffffffff811680910361015c57806000526000602052604060002060ff815416156112c557600381019161102683612cc2565b9161103360048201612d27565b93549061103f82612ff9565b9061104983612ff9565b926004604061105783612ff9565b968151928380927fc4a7761e0000000000000000000000000000000000000000000000000000000082525afa8015610a1d5760009160009161128c575b506110a3600187959495613048565b526110af600086613048565b526110d97f0000000000000000000000000000000000000000000000000000000000000000612de0565b9060009060ff807f000000000000000000000000000000000000000000000000000000000000000016601203115b848310611172576111368961116e8a6111608e6111528d6111448e604051998a9960a08b5260a08b0190612bc3565b9089820360208b0152612c0d565b908782036040890152612c0d565b908582036060870152612c0d565b908382036080850152612c0d565b0390f35b6111a473ffffffffffffffffffffffffffffffffffffffff6111978560058601612c7b565b90549060031b1c16612de0565b90610e16576111f490670de0b6b3a76400006111ee6111e860ff7f000000000000000000000000000000000000000000000000000000000000000016601203612dcf565b87612d83565b91613811565b6111fe8387613048565b5261128661120c8387613048565b519261127c61126061124f60009661124960ff7f000000000000000000000000000000000000000000000000000000000000000016601203612dcf565b90612d83565b611259848c613048565b5190612d83565b610e086112708460048801612c7b565b90549060031b1c612e05565b610b15828b613048565b91611107565b9150506040813d6040116112bd575b816112a860409383612a57565b8101031261015c576020815191015189611094565b3d915061129b565b602482604051907ffb642b4d0000000000000000000000000000000000000000000000000000000082526004820152fd5b3461015c5760007ffffffffffffffffffffffffffffffffffffffffffffffffffffffffffffffffc36011261015c5761116e6113326005612c41565b61133f6040519182612a57565b600581527f312e302e300000000000000000000000000000000000000000000000000000006020820152604051918291602083526020830190612b80565b3461015c5760007ffffffffffffffffffffffffffffffffffffffffffffffffffffffffffffffffc36011261015c5760206040517f8e3c92e4000000000000000000000000000000000000000000000000000000008152f35b3461015c5760207ffffffffffffffffffffffffffffffffffffffffffffffffffffffffffffffffc36011261015c5760043573ffffffffffffffffffffffffffffffffffffffff811680910361015c57600061010060405161143a61012082612a57565b8281528260208201526060604082015282606082015260606080820152606060a0820152606060c0820152606060e082015201526000526000602052604060002060405161148a61012082612a57565b6affffffffffffffffffffff825460ff81161515835260081c1660208201526114b560018301612a98565b604082015273ffffffffffffffffffffffffffffffffffffffff60028301541660608201526114e660038301612cc2565b60808201526114f760048301612d27565b60a08201526005820191604051806020855491828152019460005260206000209060005b8181106116865750505061153481600794950382612a57565b60c084015261154560068201612d27565b60e08401520154610100820152604051602081528151151560208201526affffffffffffffffffffff602083015116604082015261159460408301516101206060840152610140830190612b80565b9173ffffffffffffffffffffffffffffffffffffffff60608201511660808301526116066115f26080830151947fffffffffffffffffffffffffffffffffffffffffffffffffffffffffffffffe095868683030160a0870152612bc3565b60a0830151858583030160c0860152612c0d565b9260c082015193818482030160e08501526020808651928381520195019060005b81811061165a5750505061164d83946101009260e0850151908683030184870152612c0d565b9101516101208301520390f35b825173ffffffffffffffffffffffffffffffffffffffff16875260209687019690920191600101611627565b825473ffffffffffffffffffffffffffffffffffffffff1687526020909601956001928301920161151b565b3461015c5760007ffffffffffffffffffffffffffffffffffffffffffffffffffffffffffffffffc36011261015c57602060405160ff7f0000000000000000000000000000000000000000000000000000000000000000168152f35b3461015c5760207ffffffffffffffffffffffffffffffffffffffffffffffffffffffffffffffffc36011261015c5773ffffffffffffffffffffffffffffffffffffffff600435166004350361015c5760405161176c608082612a57565b6000815260006020820152600060408201526000606082015260405160208101917f8e3c92e40000000000000000000000000000000000000000000000000000000083526000602483015260006044830152600060648301526000608483015260a482016000905b6004821061203657600080868661010481526117f261012482612a57565b5190600435612710fa503d1561202f573d61180c81612c41565b9061181a6040519283612a57565b81523d6000602083013e5b516120055773ffffffffffffffffffffffffffffffffffffffff600435166000526000602052604060002060ff81541615611fbd5760058101600461189273ffffffffffffffffffffffffffffffffffffffff611197600161188c83611197600089612c7b565b95612c7b565b9201906118b260016118a5600085612c7b565b90549060031b1c93612c7b565b90549060031b1c906118cc6118c683612e05565b82612d83565b8060601b908082046c010000000000000000000000001490151715610e165761190461190991610e086118fe87612e05565b88612d83565b6138eb565b60301b74010000000000000000000000000000000000000000811015611faf576040517f16f0115b00000000000000000000000000000000000000000000000000000000815260208160048173ffffffffffffffffffffffffffffffffffffffff8235165afa908115610a1d57600091611f60575b506040517ffa08274300000000000000000000000000000000000000000000000000000000815260208160048173ffffffffffffffffffffffffffffffffffffffff8235165afa908115610a1d57600091611f41575b50604051907f888a913400000000000000000000000000000000000000000000000000000000825260208260048173ffffffffffffffffffffffffffffffffffffffff8235165afa918215610a1d57600092611f04575b506fffffffffffffffffffffffffffffffff80611a7f83611a75611a568888611a8798600435612efa565b98909373ffffffffffffffffffffffffffffffffffffffff8c16612e39565b9490911690612e13565b931690612e13565b92604051927f51e87af700000000000000000000000000000000000000000000000000000000845260208460048173ffffffffffffffffffffffffffffffffffffffff8235165afa938415610a1d57600094611ee3575b506040517f0f35bcac00000000000000000000000000000000000000000000000000000000815260208160048173ffffffffffffffffffffffffffffffffffffffff8235165afa8015610a1d57611b8993611a7573ffffffffffffffffffffffffffffffffffffffff611b81936fffffffffffffffffffffffffffffffff968796600092611eae575b50611b7690828c600435612efa565b9b9193909516612e39565b941690612e13565b9173ffffffffffffffffffffffffffffffffffffffff6004351660005260006020526024602073ffffffffffffffffffffffffffffffffffffffff611bd5600060036040822001612c7b565b90549060031b1c16604051928380927f70a0823100000000000000000000000000000000000000000000000000000000825273ffffffffffffffffffffffffffffffffffffffff6004351660048301525afa908115610a1d57600091611e7a575b50611c4992611c4491612e13565b612e13565b9173ffffffffffffffffffffffffffffffffffffffff6004351660005260006020526024602073ffffffffffffffffffffffffffffffffffffffff611c9660016003604060002001612c7b565b90549060031b1c16604051928380927f70a0823100000000000000000000000000000000000000000000000000000000825273ffffffffffffffffffffffffffffffffffffffff6004351660048301525afa908115610a1d57600091611e3e575b5095610e08611d21611d2195611d1b610e089896611c44611d1b97611d279d612e13565b95612d83565b91612e05565b90604051907f18160ddd00000000000000000000000000000000000000000000000000000000825260208260048173ffffffffffffffffffffffffffffffffffffffff8235165afa908115610a1d57600091611e08575b611d9c9250611d97670de0b6b3a7640000948592612e13565b613811565b611dc57f0000000000000000000000000000000000000000000000000000000000000000612de0565b9060ff7f0000000000000000000000000000000000000000000000000000000000000000166012039260ff8411610e16576111ee610e0e93611249602096612dcf565b90506020823d602011611e36575b81611e2360209383612a57565b8101031261015c57611d9c915190611d7e565b3d9150611e16565b94929690506020853d602011611e72575b81611e5c60209383612a57565b8101031261015c57935193959193610e08611cf7565b3d9150611e4f565b90506020813d602011611ea6575b81611e9560209383612a57565b8101031261015c5751611c49611c36565b3d9150611e88565b611b76919250611ed59060203d602011611edc575b611ecd8183612a57565b810190612e20565b9190611b67565b503d611ec3565b611efd91945060203d602011611edc57611ecd8183612a57565b9289611ade565b611a879192506fffffffffffffffffffffffffffffffff611a7f611f37829360203d602011611edc57611ecd8183612a57565b9493505050611a2b565b611f5a915060203d602011611edc57611ecd8183612a57565b876119d4565b90506020813d602011611fa7575b81611f7b60209383612a57565b8101031261015c575173ffffffffffffffffffffffffffffffffffffffff8116810361015c578661197e565b3d9150611f6e565b6335278d126000526004601cfd5b60246040517ffb642b4d00000000000000000000000000000000000000000000000000000000815273ffffffffffffffffffffffffffffffffffffffff600435166004820152fd5b60046040517f47a08e96000000000000000000000000000000000000000000000000000000008152fd5b6060611825565b60208060019285518152019301910190916117d4565b3461015c5760607ffffffffffffffffffffffffffffffffffffffffffffffffffffffffffffffffc36011261015c576714057b7ef767814f670de0b6b3a76400006120b3828261209d600435613a39565b020483836120ac602435613a39565b0204612d76565b6301e1338090818102918183041490151715610e16576120d69060443590612d96565b91680736ea4425c11ac631831015612983576706f05b59d3b20000908293020104680a688906bd8b00000081101561295257819060401b0490778000000000000000000000000000000000000000000000006780000000000000008316612933575b6740000000000000008316612920575b672000000000000000831661290d575b67100000000000000083166128fa575b67080000000000000083166128e7575b67040000000000000083166128d4575b67020000000000000083166128c1575b67010000000000000083166128ae575b6680000000000000831661289b575b66400000000000008316612888575b66200000000000008316612875575b66100000000000008316612862575b6608000000000000831661284f575b6604000000000000831661283c575b66020000000000008316612829575b66010000000000008316612816575b658000000000008316612803575b6540000000000083166127f0575b6520000000000083166127dd575b6510000000000083166127ca575b6508000000000083166127b7575b6504000000000083166127a4575b650200000000008316612791575b65010000000000831661277e575b648000000000831661276b575b6440000000008316612758575b6420000000008316612745575b6410000000008316612732575b640800000000831661271f575b640400000000831661270c575b64020000000083166126f9575b64010000000083166126e6575b638000000083166126d3575b634000000083166126c0575b632000000083166126ad575b6310000000831661269a575b63080000008316612687575b63040000008316612674575b63020000008316612661575b6301000000831661264e575b62800000831661263b575b624000008316612628575b622000008316612615575b621000008316612602575b6208000083166125ef575b6204000083166125dc575b6202000083166125c9575b6201000083166125b6575b61800083166125a3575b6140008316612590575b612000831661257d575b611000831661256a575b6108008316612557575b6104008316612544575b6102008316612531575b610100831661251e575b6080831661250b575b604083166124f8575b602083166124e5575b601083166124d2575b600883166124bf575b600483166124ac575b60028316612499575b60018316612486575b029060401c60bf031c7ffffffffffffffffffffffffffffffffffffffffffffffffff21f494c589c00008101908111610e1657602090604051908152f35b680100000000000000010260401c612448565b680100000000000000010260401c61243f565b680100000000000000030260401c612436565b680100000000000000060260401c61242d565b6801000000000000000b0260401c612424565b680100000000000000160260401c61241b565b6801000000000000002c0260401c612412565b680100000000000000590260401c612409565b680100000000000000b10260401c612400565b680100000000000001630260401c6123f6565b680100000000000002c60260401c6123ec565b6801000000000000058c0260401c6123e2565b68010000000000000b170260401c6123d8565b6801000000000000162e0260401c6123ce565b68010000000000002c5d0260401c6123c4565b680100000000000058b90260401c6123ba565b6801000000000000b1720260401c6123b0565b680100000000000162e40260401c6123a5565b6801000000000002c5c80260401c61239a565b68010000000000058b910260401c61238f565b680100000000000b17210260401c612384565b68010000000000162e430260401c612379565b680100000000002c5c860260401c61236e565b6801000000000058b90c0260401c612363565b68010000000000b172180260401c612358565b6801000000000162e4300260401c61234c565b68010000000002c5c8600260401c612340565b680100000000058b90c00260401c612334565b6801000000000b17217f0260401c612328565b680100000000162e42ff0260401c61231c565b6801000000002c5c85fe0260401c612310565b68010000000058b90bfc0260401c612304565b680100000000b17217f80260401c6122f8565b68010000000162e42ff10260401c6122eb565b680100000002c5c85fe30260401c6122de565b6801000000058b90bfce0260401c6122d1565b68010000000b17217fbb0260401c6122c4565b6801000000162e42fff00260401c6122b7565b68010000002c5c8601cc0260401c6122aa565b680100000058b90c0b490260401c61229d565b6801000000b1721835510260401c612290565b680100000162e430e5a20260401c612282565b6801000002c5c863b73f0260401c612274565b68010000058b90cf1e6e0260401c612266565b680100000b1721bcfc9a0260401c612258565b68010000162e43f4f8310260401c61224a565b680100002c5c89d5ec6d0260401c61223c565b6801000058b91b5bc9ae0260401c61222e565b68010000b17255775c040260401c612220565b6801000162e525ee05470260401c612211565b68010002c5cc37da94920260401c612202565b680100058ba01fb9f96d0260401c6121f3565b6801000b175effdc76ba0260401c6121e4565b680100162f3904051fa10260401c6121d5565b6801002c605e2e8cec500260401c6121c6565b68010058c86da1c09ea20260401c6121b7565b680100b1afa5abcbed610260401c6121a8565b68010163da9fb33356d80260401c612198565b680102c9a3e778060ee70260401c612188565b6801059b0d31585743ae0260401c612178565b68010b5586cf9890f62a0260401c612168565b6801172b83c7d517adce0260401c612158565b6801306fe0a31b7152df0260401c612148565b5077b504f333f9de648480000000000000000000000000000000612138565b602490604051907f4a4f26f10000000000000000000000000000000000000000000000000000000082526004820152fd5b602483604051907f315da0680000000000000000000000000000000000000000000000000000000082526004820152fd5b3461015c5760007ffffffffffffffffffffffffffffffffffffffffffffffffffffffffffffffffc36011261015c5761116e6129f06002612a98565b604051918291602083526020830190612b80565b90600182811c92168015612a4d575b6020831014612a1e57565b7f4e487b7100000000000000000000000000000000000000000000000000000000600052602260045260246000fd5b91607f1691612a13565b90601f7fffffffffffffffffffffffffffffffffffffffffffffffffffffffffffffffe0910116810190811067ffffffffffffffff82111761080457604052565b9060405191826000825492612aac84612a04565b908184526001948581169081600014612b1b5750600114612ad8575b5050612ad692500383612a57565b565b9093915060005260209081600020936000915b818310612b03575050612ad693508201013880612ac8565b85548884018501529485019487945091830191612aeb565b9050612ad69550602093507fffffffffffffffffffffffffffffffffffffffffffffffffffffffffffffff0091501682840152151560051b8201013880612ac8565b60005b838110612b705750506000910152565b8181015183820152602001612b60565b907fffffffffffffffffffffffffffffffffffffffffffffffffffffffffffffffe0601f602093612bbc81518092818752878088019101612b5d565b0116010190565b90815180825260208080930193019160005b828110612be3575050505090565b835173ffffffffffffffffffffffffffffffffffffffff1685529381019392810192600101612bd5565b90815180825260208080930193019160005b828110612c2d575050505090565b835185529381019392810192600101612c1f565b67ffffffffffffffff811161080457601f017fffffffffffffffffffffffffffffffffffffffffffffffffffffffffffffffe01660200190565b8054821015612c935760005260206000200190600090565b7f4e487b7100000000000000000000000000000000000000000000000000000000600052603260045260246000fd5b9060405191828154918282526020928383019160005283600020936000905b828210612cf757505050612ad692500383612a57565b855473ffffffffffffffffffffffffffffffffffffffff1684526001958601958895509381019390910190612ce1565b9060405191828154918282526020928383019160005283600020936000905b828210612d5c57505050612ad692500383612a57565b855484526001958601958895509381019390910190612d46565b91908203918211610e1657565b81810292918115918404141715610e1657565b8115612da0570490565b7f4e487b7100000000000000000000000000000000000000000000000000000000600052601260045260246000fd5b60ff16604d8111610e1657600a0a90565b604060006004601c6402540be4009463feaf968c84525afa601f3d1116602051020290565b604d8111610e1657600a0a90565b91908201809211610e1657565b9081602091031261015c57518060020b810361015c5790565b93929190612e49612e4f91613219565b91613219565b6000949091908573ffffffffffffffffffffffffffffffffffffffff848482821683821611612ed2575b5050828116908481168211612e9b575050505090612e97929161314f565b9190565b90919294809498501611600014612ec6575090612ebd83612ec394938361314f565b946131bd565b90565b94612ec39392506131bd565b955093503880612e79565b51906fffffffffffffffffffffffffffffffff8216820361015c57565b909260c09273ffffffffffffffffffffffffffffffffffffffff60249260405196879586947f514ea4bf00000000000000000000000000000000000000000000000000000000865262ffffff80911692169060181b1760181b176004840152165afa908115610a1d5760009182918391612f75575b50909192565b9291505060c0823d8211612fd9575b81612f9160c09383612a57565b81010312612fd657612fa282612edd565b90602083015163ffffffff811603612fd65750612fcd60a0612fc660808501612edd565b9301612edd565b90919038612f6f565b80fd5b3d9150612f84565b67ffffffffffffffff81116108045760051b60200190565b9061300382612fe1565b6130106040519182612a57565b8281527fffffffffffffffffffffffffffffffffffffffffffffffffffffffffffffffe061303e8294612fe1565b0190602036910137565b8051821015612c935760209160051b010190565b7fffffffffffffffffffffffffffffffffffffffffffffffffffffffffffffffff8114610e165760010190565b9081602091031261015c575173ffffffffffffffffffffffffffffffffffffffff8116810361015c5790565b9081602091031261015c575160ff8116810361015c5790565b3573ffffffffffffffffffffffffffffffffffffffff8116810361015c5790565b8181106130fa575050565b600081556001016130ef565b9181811061311357505050565b612ad692600052602060002091820191016130ef565b73ffffffffffffffffffffffffffffffffffffffff9182169082160391908211610e1657565b906131af612ec39373ffffffffffffffffffffffffffffffffffffffff92838116848616116131b7575b7bffffffffffffffffffffffffffffffff00000000000000000000000084806131a28885613129565b1692169260601b16613811565b911690612d96565b93613179565b916fffffffffffffffffffffffffffffffff6c010000000000000000000000009261320b612ec39573ffffffffffffffffffffffffffffffffffffffff928381168483161161321357613129565b169116613811565b90613129565b60020b600081121561380b577f80000000000000000000000000000000000000000000000000000000000000008114610e1657806000035b620d89e881116137ad5760018116156137845770ffffffffffffffffffffffffffffffffff6ffffcb933bd6fad37aa2d162d1a5940015b169160028216613758575b60049182811661372c575b60088116613700575b601081166136d4575b602081166136a8575b6040811661367c575b608090818116613651575b6101008116613626575b61020081166135fb575b61040081166135d0575b61080081166135a5575b611000811661357a575b612000811661354f575b6140008116613524575b61800081166134f9575b6201000081166134ce575b6202000081166134a4575b62040000811661344d575b62080000166133f5575b50600012613396575b5061338973ffffffffffffffffffffffffffffffffffffffff9163ffffffff81161560001461338d5760ff60005b169060201c612e13565b1690565b60ff600161337f565b81156133c757507fffffffffffffffffffffffffffffffffffffffffffffffffffffffffffffffff04613389613351565b6012907f4e487b71000000000000000000000000000000000000000000000000000000006000525260246000fd5b6b048a170391f7dc42444e8fa29391939182810292818404149015171561341f571c916000613348565b6011837f4e487b71000000000000000000000000000000000000000000000000000000006000525260246000fd5b936d2216e584f5fa1ea926041bedfe989081810291818304149015171561347657811c9361333e565b6011847f4e487b71000000000000000000000000000000000000000000000000000000006000525260246000fd5b936e5d6af8dedb81196699c329225ee6049081810291818304149015171561347657811c93613333565b936f09aa508b5b7a84e1c677de54f3e99bc99081810291818304149015171561347657811c93613328565b936f31be135f97d08fd981231505542fcfa69081810291818304149015171561347657811c9361331d565b936f70d869a156d2a1b890bb3df62baf32f79081810291818304149015171561347657811c93613313565b936fa9f746462d870fdf8a65dc1f90e061e59081810291818304149015171561347657811c93613309565b936fd097f3bdfd2022b8845ad8f792aa58259081810291818304149015171561347657811c936132ff565b936fe7159475a2c29b7443b29c7fa6e889d99081810291818304149015171561347657811c936132f5565b936ff3392b0822b70005940c7a398e4b70f39081810291818304149015171561347657811c936132eb565b936ff987a7253ac413176f2b074cf7815e549081810291818304149015171561347657811c936132e1565b936ffcbe86c7900a88aedcffc83b479aa3a49081810291818304149015171561347657811c936132d7565b936ffe5dee046a99a2a811c461f1969c30539081810291818304149015171561347657811c936132cd565b926fff2ea16466c96a3843ec78b326b528619081810291818304149015171561341f5760801c926132c2565b926fff973b41fa98c081472e6896dfb254c09081810291818304149015171561341f5760801c926132b9565b926fffcb9843d60f6159c9db58835c9266449081810291818304149015171561341f5760801c926132b0565b926fffe5caca7e10e4e61c3624eaa0941cd09081810291818304149015171561341f5760801c926132a7565b926ffff2e50f5f656932ef12357cf3c7fdcc9081810291818304149015171561341f5760801c9261329e565b916ffff97272373d413259a46990580e213a90818102918183041490151715610e165760801c91613293565b70ffffffffffffffffffffffffffffffffff700100000000000000000000000000000000613288565b60646040517f08c379a000000000000000000000000000000000000000000000000000000000815260206004820152600160248201527f54000000000000000000000000000000000000000000000000000000000000006044820152fd5b80613251565b90917fffffffffffffffffffffffffffffffffffffffffffffffffffffffffffffffff83830992808302928380861095039480860395146138de57828510156138a757908291096001821901821680920460028082600302188083028203028083028203028083028203028083028203028083028203028092029003029360018380600003040190848311900302920304170290565b60448584604051917f773cc18c00000000000000000000000000000000000000000000000000000000835260048301526024820152fd5b505090612ec39250612d96565b8015613a3357806001700100000000000000000000000000000000831015613a1d575b600882680100000000000000006139c5941015613a10575b640100000000811015613a03575b620100008110156139f7575b6101008110156139eb575b60108110156139de575b10156139d6575b6139668184612d96565b0160011c6139748184612d96565b0160011c6139828184612d96565b0160011c6139908184612d96565b0160011c61399e8184612d96565b0160011c6139ac8184612d96565b0160011c6139ba8184612d96565b0160011c8092612d96565b908181106139d1575090565b905090565b60011b61395c565b60041c9160021b91613955565b811c9160041b9161394b565b60101c91811b91613940565b60201c9160101b91613934565b60401c9160201b91613926565b5050608081901c6801000000000000000061390e565b50600090565b90670de0b6b3a7640000808310613bae57600092818104700100000000000000000000000000000000811015613ba3575b68010000000000000000811015613b8e575b640100000000811015613b79575b62010000811015613b64575b610100811015613b4f575b6010811015613b3a575b6004811015613b25575b60021115613b13575b818402931c90808214613b0f576706f05b59d3b2000091825b613ae057505050565b808291020491671bc16d674ec80000831015613b01575b60011c9182613ad7565b809294019360011c91613af7565b5050565b9260018101809111610e165792613abe565b60021c9360028101809111610e165793613ab5565b60041c9360048101809111610e165793613aab565b60081c9360088101809111610e165793613aa1565b60101c9360108101809111610e165793613a96565b60201c9360208101809111610e165793613a8a565b60401c9360408101809111610e165793613a7c565b60809450841c613a6a565b602483604051907fd88504dc0000000000000000000000000000000000000000000000000000000082526004820152fdfea164736f6c6343000811000a",
  "linkReferences": {},
  "deployedLinkReferences": {}
}