{
  "_format": "hh-sol-artifact-1",
  "contractName": "Gyro2CLPNebula",
  "sourceName": "contracts/all-cygnus-oracles/Gyro2CLPNebula.sol",
  "abi": [
    {
      "inputs": [
        {
          "internalType": "contract IERC20",
          "name": "denomination",
          "type": "address"
        },
        {
          "internalType": "contract AggregatorV3Interface",
          "name": "denominationPrice",
          "type": "address"
        },
        {
          "internalType": "address",
          "name": "_nebulaRegistry",
          "type": "address"
        }
      ],
      "stateMutability": "nonpayable",
      "type": "constructor"
    },
    {
      "inputs": [],
      "name": "CygnusNebulaOracle__AlreadyInContext",
      "type": "error"
    },
    {
      "inputs": [
        {
          "internalType": "address",
          "name": "sender",
          "type": "address"
        }
      ],
      "name": "CygnusNebulaOracle__MsgSenderNotRegistry",
      "type": "error"
    },
    {
      "inputs": [
        {
          "internalType": "address",
          "name": "lpTokenPair",
          "type": "address"
        }
      ],
      "name": "CygnusNebulaOracle__PairAlreadyInitialized",
      "type": "error"
    },
    {
      "inputs": [
        {
          "internalType": "address",
          "name": "lpTokenPair",
          "type": "address"
        }
      ],
      "name": "CygnusNebulaOracle__PairNotInitialized",
      "type": "error"
    },
    {
      "inputs": [
        {
          "internalType": "uint256",
          "name": "x",
          "type": "uint256"
        }
      ],
      "name": "PRBMathUD60x18__Exp2InputTooBig",
      "type": "error"
    },
    {
      "inputs": [
        {
          "internalType": "uint256",
          "name": "x",
          "type": "uint256"
        }
      ],
      "name": "PRBMathUD60x18__ExpInputTooBig",
      "type": "error"
    },
    {
      "inputs": [
        {
          "internalType": "uint256",
          "name": "x",
          "type": "uint256"
        },
        {
          "internalType": "uint256",
          "name": "y",
          "type": "uint256"
        }
      ],
      "name": "PRBMathUD60x18__GmOverflow",
      "type": "error"
    },
    {
      "inputs": [
        {
          "internalType": "uint256",
          "name": "x",
          "type": "uint256"
        }
      ],
      "name": "PRBMathUD60x18__LogInputTooSmall",
      "type": "error"
    },
    {
      "inputs": [
        {
          "internalType": "uint256",
          "name": "prod1",
          "type": "uint256"
        }
      ],
      "name": "PRBMath__MulDivFixedPointOverflow",
      "type": "error"
    },
    {
      "inputs": [
        {
          "internalType": "uint256",
          "name": "prod1",
          "type": "uint256"
        },
        {
          "internalType": "uint256",
          "name": "denominator",
          "type": "uint256"
        }
      ],
      "name": "PRBMath__MulDivOverflow",
      "type": "error"
    },
    {
      "anonymous": false,
      "inputs": [
        {
          "indexed": false,
          "internalType": "bool",
          "name": "initialized",
          "type": "bool"
        },
        {
          "indexed": false,
          "internalType": "uint88",
          "name": "oracleId",
          "type": "uint88"
        },
        {
          "indexed": false,
          "internalType": "address",
          "name": "lpTokenPair",
          "type": "address"
        },
        {
          "indexed": false,
          "internalType": "contract IERC20[]",
          "name": "poolTokens",
          "type": "address[]"
        },
        {
          "indexed": false,
          "internalType": "uint256[]",
          "name": "poolTokensDecimals",
          "type": "uint256[]"
        },
        {
          "indexed": false,
          "internalType": "contract AggregatorV3Interface[]",
          "name": "priceFeeds",
          "type": "address[]"
        },
        {
          "indexed": false,
          "internalType": "uint256[]",
          "name": "priceFeedsDecimals",
          "type": "uint256[]"
        }
      ],
      "name": "InitializeNebulaOracle",
      "type": "event"
    },
    {
      "anonymous": false,
      "inputs": [
        {
          "indexed": false,
          "internalType": "address",
          "name": "oracleOldAdmin",
          "type": "address"
        },
        {
          "indexed": false,
          "internalType": "address",
          "name": "oracleNewAdmin",
          "type": "address"
        }
      ],
      "name": "NewOracleAdmin",
      "type": "event"
    },
    {
      "anonymous": false,
      "inputs": [
        {
          "indexed": false,
          "internalType": "address",
          "name": "oracleCurrentAdmin",
          "type": "address"
        },
        {
          "indexed": false,
          "internalType": "address",
          "name": "oraclePendingAdmin",
          "type": "address"
        }
      ],
      "name": "NewOraclePendingAdmin",
      "type": "event"
    },
    {
      "inputs": [],
      "name": "AGGREGATOR_DECIMALS",
      "outputs": [
        {
          "internalType": "uint256",
          "name": "",
          "type": "uint256"
        }
      ],
      "stateMutability": "view",
      "type": "function"
    },
    {
      "inputs": [],
      "name": "AGGREGATOR_SCALAR",
      "outputs": [
        {
          "internalType": "uint256",
          "name": "",
          "type": "uint256"
        }
      ],
      "stateMutability": "view",
      "type": "function"
    },
    {
      "inputs": [],
      "name": "GRACE_PERIOD",
      "outputs": [
        {
          "internalType": "uint256",
          "name": "",
          "type": "uint256"
        }
      ],
      "stateMutability": "view",
      "type": "function"
    },
    {
      "inputs": [],
      "name": "S",
      "outputs": [
        {
          "internalType": "bytes4",
          "name": "",
          "type": "bytes4"
        }
      ],
      "stateMutability": "view",
      "type": "function"
    },
    {
      "inputs": [],
      "name": "SECONDS_PER_YEAR",
      "outputs": [
        {
          "internalType": "uint256",
          "name": "",
          "type": "uint256"
        }
      ],
      "stateMutability": "view",
      "type": "function"
    },
    {
      "inputs": [],
      "name": "VAULT",
      "outputs": [
        {
          "internalType": "address",
          "name": "",
          "type": "address"
        }
      ],
      "stateMutability": "view",
      "type": "function"
    },
    {
      "inputs": [
        {
          "internalType": "uint256",
          "name": "",
          "type": "uint256"
        }
      ],
      "name": "allNebulas",
      "outputs": [
        {
          "internalType": "address",
          "name": "",
          "type": "address"
        }
      ],
      "stateMutability": "view",
      "type": "function"
    },
    {
      "inputs": [],
      "name": "decimals",
      "outputs": [
        {
          "internalType": "uint8",
          "name": "",
          "type": "uint8"
        }
      ],
      "stateMutability": "view",
      "type": "function"
    },
    {
      "inputs": [],
      "name": "denominationAggregator",
      "outputs": [
        {
          "internalType": "contract AggregatorV3Interface",
          "name": "",
          "type": "address"
        }
      ],
      "stateMutability": "view",
      "type": "function"
    },
    {
      "inputs": [],
      "name": "denominationToken",
      "outputs": [
        {
          "internalType": "contract IERC20",
          "name": "",
          "type": "address"
        }
      ],
      "stateMutability": "view",
      "type": "function"
    },
    {
      "inputs": [],
      "name": "denominationTokenPrice",
      "outputs": [
        {
          "internalType": "uint256",
          "name": "",
          "type": "uint256"
        }
      ],
      "stateMutability": "view",
      "type": "function"
    },
    {
      "inputs": [
        {
          "internalType": "uint256",
          "name": "exchangeRateLast",
          "type": "uint256"
        },
        {
          "internalType": "uint256",
          "name": "exchangeRateCurrent",
          "type": "uint256"
        },
        {
          "internalType": "uint256",
          "name": "timeElapsed",
          "type": "uint256"
        }
      ],
      "name": "getAnnualizedBaseRate",
      "outputs": [
        {
          "internalType": "uint256",
          "name": "",
          "type": "uint256"
        }
      ],
      "stateMutability": "pure",
      "type": "function"
    },
    {
      "inputs": [
        {
          "internalType": "address",
          "name": "lpTokenPair",
          "type": "address"
        }
      ],
      "name": "getNebulaOracle",
      "outputs": [
        {
          "components": [
            {
              "internalType": "bool",
              "name": "initialized",
              "type": "bool"
            },
            {
              "internalType": "uint88",
              "name": "oracleId",
              "type": "uint88"
            },
            {
              "internalType": "string",
              "name": "name",
              "type": "string"
            },
            {
              "internalType": "address",
              "name": "underlying",
              "type": "address"
            },
            {
              "internalType": "contract IERC20[]",
              "name": "poolTokens",
              "type": "address[]"
            },
            {
              "internalType": "uint256[]",
              "name": "poolTokensDecimals",
              "type": "uint256[]"
            },
            {
              "internalType": "contract AggregatorV3Interface[]",
              "name": "priceFeeds",
              "type": "address[]"
            },
            {
              "internalType": "uint256[]",
              "name": "priceFeedsDecimals",
              "type": "uint256[]"
            },
            {
              "internalType": "uint256",
              "name": "createdAt",
              "type": "uint256"
            }
          ],
          "internalType": "struct ICygnusNebula.NebulaOracle",
          "name": "",
          "type": "tuple"
        }
      ],
      "stateMutability": "view",
      "type": "function"
    },
    {
      "inputs": [
        {
          "internalType": "address",
          "name": "lpTokenPair",
          "type": "address"
        },
        {
          "internalType": "contract AggregatorV3Interface[]",
          "name": "aggregators",
          "type": "address[]"
        }
      ],
      "name": "initializeNebulaOracle",
      "outputs": [],
      "stateMutability": "nonpayable",
      "type": "function"
    },
    {
      "inputs": [
        {
          "internalType": "address",
          "name": "lpTokenPair",
          "type": "address"
        }
      ],
      "name": "lpTokenInfo",
      "outputs": [
        {
          "internalType": "contract IERC20[]",
          "name": "tokens",
          "type": "address[]"
        },
        {
          "internalType": "uint256[]",
          "name": "prices",
          "type": "uint256[]"
        },
        {
          "internalType": "uint256[]",
          "name": "reserves",
          "type": "uint256[]"
        },
        {
          "internalType": "uint256[]",
          "name": "tokenDecimals",
          "type": "uint256[]"
        },
        {
          "internalType": "uint256[]",
          "name": "reservesUsd",
          "type": "uint256[]"
        }
      ],
      "stateMutability": "view",
      "type": "function"
    },
    {
      "inputs": [
        {
          "internalType": "address",
          "name": "lpTokenPair",
          "type": "address"
        }
      ],
      "name": "lpTokenPriceUsd",
      "outputs": [
        {
          "internalType": "uint256",
          "name": "lpTokenPrice",
          "type": "uint256"
        }
      ],
      "stateMutability": "view",
      "type": "function"
    },
    {
      "inputs": [],
      "name": "name",
      "outputs": [
        {
          "internalType": "string",
          "name": "",
          "type": "string"
        }
      ],
      "stateMutability": "view",
      "type": "function"
    },
    {
      "inputs": [],
      "name": "nebulaRegistry",
      "outputs": [
        {
          "internalType": "address",
          "name": "",
          "type": "address"
        }
      ],
      "stateMutability": "view",
      "type": "function"
    },
    {
      "inputs": [],
      "name": "nebulaSize",
      "outputs": [
        {
          "internalType": "uint88",
          "name": "",
          "type": "uint88"
        }
      ],
      "stateMutability": "view",
      "type": "function"
    },
    {
      "inputs": [],
      "name": "version",
      "outputs": [
        {
          "internalType": "string",
          "name": "",
          "type": "string"
        }
      ],
      "stateMutability": "view",
      "type": "function"
    }
  ],
  "bytecode": "0x610100806040523462000209576060816200347580380380916200002482856200020e565b833981010312620002095780516001600160a01b039190828116808203620002095760209182840151938585168503620002095760400151948516850362000209576002549060018083811c93168015620001fe575b85841014620001e85782601f869411620001af575b50507f4379676e75733a204779726f73636f70652032434c50204e6562756c6100003a60025560805260405163313ce56760e01b815291829060049082905afa918215620001a3576000926200015e575b505060a05260c05260e05260405161322c908162000249823960805181610143015260a051818181610d8d015281816110db015281816111b901528181611214015281816117570152611a06015260c051818181610d6501528181610f11015281816110b001526119dd015260e0518181816101f401526102c70152f35b81813d83116200019b575b6200017581836200020e565b810103126200019757519060ff821682036200019457503880620000e0565b80fd5b5080fd5b503d62000169565b6040513d6000823e3d90fd5b9391906002600052601f84600020950160051c8501945b858110620001d95750819294506200008f565b600081558694508101620001c6565b634e487b7160e01b600052602260045260246000fd5b92607f16926200007a565b600080fd5b601f909101601f19168101906001600160401b038211908210176200023257604052565b634e487b7160e01b600052604160045260246000fdfe6080604052600436101561001257600080fd5b60003560e01c806306fdde031461265a578063131ad74e14611cf257806317e5a1a11461177b578063313ce5671461171f5780633ef096d314611443578063411557d1146113f65780634be1c7961461139d57806354fd4d50146113165780636cdeb02814610f6f5780638a790cf214610f355780638eb6f8f014610ec65780639ff631dd14610e88578063ba3941e714610e3f578063c1a287e214610e04578063cadbcc2114610d31578063d02c70e814610cc3578063d9be853114610218578063e13d88ac146101a9578063e6a69ab81461016c5763f6b9fdfb146100f857600080fd5b346101675760007ffffffffffffffffffffffffffffffffffffffffffffffffffffffffffffffffc36011261016757602060405173ffffffffffffffffffffffffffffffffffffffff7f0000000000000000000000000000000000000000000000000000000000000000168152f35b600080fd5b346101675760007ffffffffffffffffffffffffffffffffffffffffffffffffffffffffffffffffc3601126101675760206040516301e133808152f35b346101675760007ffffffffffffffffffffffffffffffffffffffffffffffffffffffffffffffffc36011261016757602060405173ffffffffffffffffffffffffffffffffffffffff7f0000000000000000000000000000000000000000000000000000000000000000168152f35b346101675760407ffffffffffffffffffffffffffffffffffffffffffffffffffffffffffffffffc3601126101675773ffffffffffffffffffffffffffffffffffffffff60043516600435036101675767ffffffffffffffff60243511610167573660236024350112156101675767ffffffffffffffff60243560040135116101675736602480356004013560051b81350101116101675773ffffffffffffffffffffffffffffffffffffffff7f0000000000000000000000000000000000000000000000000000000000000000163303610c935773ffffffffffffffffffffffffffffffffffffffff6004351660005260006020526040600020805460ff8116600014610c175750611c20610332600783015442612a1c565b11610bcf575b61034760243560040135612aab565b61035460405191826126fd565b600460243501358082527fffffffffffffffffffffffffffffffffffffffffffffffffffffffffffffffe09061038990612aab565b01906020369101376103a060243560040135612ac3565b6103af60243560040135612ac3565b91604051917f38fff2d000000000000000000000000000000000000000000000000000000000835260208360048173ffffffffffffffffffffffffffffffffffffffff8235165afa928315610a2357600093610b9b575b50604051927ff94d4668000000000000000000000000000000000000000000000000000000008452600484015260008360248173ba12222222228d8ba445958a75a0704d566bf2c85afa928315610a2357600093610b74575b5060005b602435600401358110610a2f57506040517f06fdde0300000000000000000000000000000000000000000000000000000000815260008160048173ffffffffffffffffffffffffffffffffffffffff8235165afa908115610a23576000916109a9575b5080519067ffffffffffffffff821161080a5781906104e860018601546126aa565b601f8111610969575b50602090601f831160011461089d57600092610892575b50507fffffffffffffffffffffffffffffffffffffffffffffffffffffffffffffffff8260011b9260031b1c19161760018301555b6002820173ffffffffffffffffffffffffffffffffffffffff600435167fffffffffffffffffffffffff0000000000000000000000000000000000000000825416179055825167ffffffffffffffff811161080a5768010000000000000000811161080a57600383016105b582825481845583612d00565b6020850190600052602060002060005b8381106108685750505050805167ffffffffffffffff811161080a5768010000000000000000811161080a576004830161060482825481845583612d00565b6020830190600052602060002060005b838110610854575050505068010000000000000000602435600401351161080a576005820180546004602435013580835561065192909190612d00565b602480350191826005820160005260206000209060005b602435600401358110610839575050506006810185519067ffffffffffffffff821161080a5768010000000000000000821161080a576106ad82825481845583612d00565b6020870190600052602060002060005b8381106107f657505050506020916107556affffffffffffffffffffff8360017fffffffffffffffffffffffffffffffffffffffffffffffffffffffffffffff006107639654161781556107146004356001612c5c565b5460081c169560405196600188528588015273ffffffffffffffffffffffffffffffffffffffff60043516604088015260e0606088015260e0870190612869565b9085820360808701526128b3565b83810360a0850152602435600401358152019060005b6024356004013581106107c0577f558b57994e63dd3105e23dd47f60a4074d50167448cd407bc457b8a29e3dab0d84806107bb868983820360c08501526128b3565b0390a1005b909182359073ffffffffffffffffffffffffffffffffffffffff8216809203610167576020816001938293520193019101610779565b6001906020845194019381840155016106bd565b7f4e487b7100000000000000000000000000000000000000000000000000000000600052604160045260246000fd5b600190602061084784612cc8565b9301928185015501610668565b600190602084519401938184015501610614565b600190602073ffffffffffffffffffffffffffffffffffffffff85511694019381840155016105c5565b015190508680610508565b9250600185016000526020600020906000935b7fffffffffffffffffffffffffffffffffffffffffffffffffffffffffffffffe08416851061094e5760019450837fffffffffffffffffffffffffffffffffffffffffffffffffffffffffffffffe0811610610917575b505050811b01600183015561053d565b01517fffffffffffffffffffffffffffffffffffffffffffffffffffffffffffffffff60f88460031b161c19169055868080610907565b818101518355602094850194600190930192909101906108b0565b61099990600187016000526020600020601f850160051c8101916020861061099f575b601f0160051c0190612ce9565b876104f1565b909150819061098c565b90503d806000833e6109bb81836126fd565b8101906020818303126101675780519067ffffffffffffffff8211610167570181601f820112156101675780516109f1816128e7565b926109ff60405194856126fd565b8184526020828401011161016757610a1d9160208085019101612803565b856104c6565b6040513d6000823e3d90fd5b80602073ffffffffffffffffffffffffffffffffffffffff610a5360049488612c48565b5116604051938480927f313ce5670000000000000000000000000000000000000000000000000000000082525afa918215610a235760049260ff91600091610b55575b5016610aa28285612c48565b52602073ffffffffffffffffffffffffffffffffffffffff610acc60248460051b81350101612cc8565b16604051938480927f313ce5670000000000000000000000000000000000000000000000000000000082525afa918215610a2357610b219260ff91600091610b26575b5016610b1b8288612c48565b52612c1b565b610463565b610b48915060203d602011610b4e575b610b4081836126fd565b810190612caf565b88610b0f565b503d610b36565b610b6e915060203d602011610b4e57610b4081836126fd565b88610a96565b610b929193503d806000833e610b8a81836126fd565b810190612b12565b5050918461045f565b9092506020813d602011610bc7575b81610bb7602093836126fd565b8101031261016757519184610406565b3d9150610baa565b60246040517f48a979dc00000000000000000000000000000000000000000000000000000000815273ffffffffffffffffffffffffffffffffffffffff600435166004820152fd5b8060017fffffffffffffffffffffffffffffffffffffffffffffffffffffffffffffff008193161783557fffffffffffffffffffffffffffffffffffffffff0000000000000000000000006bffffffffffffffffffffff00835460081b16911617178155426007820155610c8e6004356001612c5c565b610338565b60246040517f47a51a28000000000000000000000000000000000000000000000000000000008152336004820152fd5b346101675760207ffffffffffffffffffffffffffffffffffffffffffffffffffffffffffffffffc360112610167576004356001548110156101675773ffffffffffffffffffffffffffffffffffffffff610d216020926001612921565b9190546040519260031b1c168152f35b346101675760007ffffffffffffffffffffffffffffffffffffffffffffffffffffffffffffffffc36011261016757610d897f0000000000000000000000000000000000000000000000000000000000000000612a86565b60ff7f00000000000000000000000000000000000000000000000000000000000000001660120360ff8111610dd557602091610dc7610dcd92612a75565b90612a3c565b604051908152f35b7f4e487b7100000000000000000000000000000000000000000000000000000000600052601160045260246000fd5b346101675760007ffffffffffffffffffffffffffffffffffffffffffffffffffffffffffffffffc360112610167576020604051611c208152f35b346101675760007ffffffffffffffffffffffffffffffffffffffffffffffffffffffffffffffffc3601126101675760206affffffffffffffffffffff60015416604051908152f35b346101675760007ffffffffffffffffffffffffffffffffffffffffffffffffffffffffffffffffc3601126101675760206040516402540be4008152f35b346101675760007ffffffffffffffffffffffffffffffffffffffffffffffffffffffffffffffffc36011261016757602060405173ffffffffffffffffffffffffffffffffffffffff7f0000000000000000000000000000000000000000000000000000000000000000168152f35b346101675760007ffffffffffffffffffffffffffffffffffffffffffffffffffffffffffffffffc36011261016757602060405160088152f35b346101675760207ffffffffffffffffffffffffffffffffffffffffffffffffffffffffffffffffc3601126101675760043573ffffffffffffffffffffffffffffffffffffffff811680910361016757806000526000602052604060002060ff815416156112e55760038101916004610fe784612968565b92610ff38282016129cd565b945490610fff82612ac3565b9161100981612ac3565b50602061101582612ac3565b95604051958680927f38fff2d00000000000000000000000000000000000000000000000000000000082525afa938415610a23576000946112b1575b50604051937ff94d4668000000000000000000000000000000000000000000000000000000008552600485015260008460248173ba12222222228d8ba445958a75a0704d566bf2c85afa938415610a2357600094611291575b506110d47f0000000000000000000000000000000000000000000000000000000000000000612a86565b600060ff807f000000000000000000000000000000000000000000000000000000000000000016601203115b83821061116b5761112f896111678a6111598e61114b8d61113d8e604051998a9960a08b5260a08b0190612869565b9089820360208b01526128b3565b9087820360408901526128b3565b9085820360608701526128b3565b9083820360808501526128b3565b0390f35b61119d73ffffffffffffffffffffffffffffffffffffffff6111908460058901612921565b90549060031b1c16612a86565b90610dd5576111ed90670de0b6b3a76400006111e76111e160ff7f000000000000000000000000000000000000000000000000000000000000000016601203612a75565b86612a29565b91612d23565b6111f78287612c48565b526112028186612c48565b519061125361124260009361123c60ff7f000000000000000000000000000000000000000000000000000000000000000016601203612a75565b90612a29565b61124c838a612c48565b5190612a29565b906112618160048801612921565b90549060031b1c604d8111610dd55761128b9261128191600a0a90612a3c565b610b1b828b612c48565b90611100565b6112a79194503d806000833e610b8a81836126fd565b50905092876110aa565b9093506020813d6020116112dd575b816112cd602093836126fd565b8101031261016757519287611051565b3d91506112c0565b602482604051907ffb642b4d0000000000000000000000000000000000000000000000000000000082526004820152fd5b346101675760007ffffffffffffffffffffffffffffffffffffffffffffffffffffffffffffffffc3601126101675761116761135260056128e7565b61135f60405191826126fd565b600581527f312e302e300000000000000000000000000000000000000000000000000000006020820152604051918291602083526020830190612826565b346101675760007ffffffffffffffffffffffffffffffffffffffffffffffffffffffffffffffffc3601126101675760206040517f0e8e3e84000000000000000000000000000000000000000000000000000000008152f35b346101675760007ffffffffffffffffffffffffffffffffffffffffffffffffffffffffffffffffc36011261016757602060405173ba12222222228d8ba445958a75a0704d566bf2c88152f35b346101675760207ffffffffffffffffffffffffffffffffffffffffffffffffffffffffffffffffc3601126101675760043573ffffffffffffffffffffffffffffffffffffffff81168091036101675760006101006040516114a7610120826126fd565b8281528260208201526060604082015282606082015260606080820152606060a0820152606060c0820152606060e08201520152600052600060205260406000206040516114f7610120826126fd565b6affffffffffffffffffffff825460ff81161515835260081c1660208201526115226001830161273e565b604082015273ffffffffffffffffffffffffffffffffffffffff600283015416606082015261155360038301612968565b6080820152611564600483016129cd565b60a08201526005820191604051806020855491828152019460005260206000209060005b8181106116f3575050506115a1816007949503826126fd565b60c08401526115b2600682016129cd565b60e08401520154610100820152604051602081528151151560208201526affffffffffffffffffffff602083015116604082015261160160408301516101206060840152610140830190612826565b9173ffffffffffffffffffffffffffffffffffffffff606082015116608083015261167361165f6080830151947fffffffffffffffffffffffffffffffffffffffffffffffffffffffffffffffe095868683030160a0870152612869565b60a0830151858583030160c08601526128b3565b9260c082015193818482030160e08501526020808651928381520195019060005b8181106116c7575050506116ba83946101009260e08501519086830301848701526128b3565b9101516101208301520390f35b825173ffffffffffffffffffffffffffffffffffffffff16875260209687019690920191600101611694565b825473ffffffffffffffffffffffffffffffffffffffff16875260209096019560019283019201611588565b346101675760007ffffffffffffffffffffffffffffffffffffffffffffffffffffffffffffffffc36011261016757602060405160ff7f0000000000000000000000000000000000000000000000000000000000000000168152f35b34610167576020807ffffffffffffffffffffffffffffffffffffffffffffffffffffffffffffffffc360112610167576004359073ffffffffffffffffffffffffffffffffffffffff9182811680910361016757604051926000808486017f0e8e3e8400000000000000000000000000000000000000000000000000000000815260249682888201528781526118126044826126fd565b519073ba12222222228d8ba445958a75a0704d566bf2c8612710fa503d15611ceb573d61183e816128e7565b9061184c60405192836126fd565b81523d60008583013e5b51611cc157816000526000835260406000209060ff82541615611c9157604051917f707dcd1e000000000000000000000000000000000000000000000000000000008352604083600481875afa928315610a2357600093611c12575b5060056118d591019161119060016118cf83611190600088612921565b94612921565b6040517f9b02cdde0000000000000000000000000000000000000000000000000000000081528581600481885afa948515610a23578691600096611be0575b5090600491604051928380927f18160ddd0000000000000000000000000000000000000000000000000000000082525afa8015610a2357600090611bb1575b6119689150670de0b6b3a76400008096612d23565b90611974818685612d23565b61197f855180613156565b9060018201809211611b555711611a9f57509061199b91613156565b8151918215611a7157840151918215611a71576119d6926119d0916ec097ce7bc90715b34b9f10000000009182049104612a1c565b90613156565b905b611a017f0000000000000000000000000000000000000000000000000000000000000000612a86565b9360ff7f0000000000000000000000000000000000000000000000000000000000000000166012039060ff8211611a445750610dcd939461123c6111e792612a75565b7f4e487b710000000000000000000000000000000000000000000000000000000060005260116004526000fd5b857f4e487b710000000000000000000000000000000000000000000000000000000060005260126004526000fd5b90611aab828685612d23565b9260018401809411611b835786850193611ac6855180613156565b11611aed575092611add6119d092611ae795613156565b9251905190612a1c565b906119d8565b939092611afa8386612e00565b927f7fffffffffffffffffffffffffffffffffffffffffffffffffffffffffffffff84168403611b5557611b476119d094611b3e611ae7988a611b4f965191612d23565b9060011b612a1c565b925190613156565b90612a1c565b887f4e487b710000000000000000000000000000000000000000000000000000000060005260116004526000fd5b877f4e487b710000000000000000000000000000000000000000000000000000000060005260116004526000fd5b508581813d8311611bd9575b611bc781836126fd565b81010312610167576119689051611953565b503d611bbd565b8281939297503d8311611c0b575b611bf881836126fd565b8101031261016757519385906004611914565b503d611bee565b90925060403d604011611c8a575b611c2a81836126fd565b81016040828203126101675780601f830112156101675760405191611c506040846126fd565b829060408101928311610167578790915b838310611c7a575050505060056118d5919391506118b2565b8251815291810191889101611c61565b503d611c20565b8483604051907ffb642b4d0000000000000000000000000000000000000000000000000000000082526004820152fd5b60046040517f47a08e96000000000000000000000000000000000000000000000000000000008152fd5b6060611856565b346101675760607ffffffffffffffffffffffffffffffffffffffffffffffffffffffffffffffffc360112610167576714057b7ef767814f670de0b6b3a7640000611d598282611d43600435612fb0565b02048383611d52602435612fb0565b0204612a1c565b6301e1338090818102918183041490151715610dd557611d7c9060443590612a3c565b91680736ea4425c11ac631831015612629576706f05b59d3b20000908293020104680a688906bd8b0000008110156125f857819060401b04907780000000000000000000000000000000000000000000000067800000000000000083166125d9575b67400000000000000083166125c6575b67200000000000000083166125b3575b67100000000000000083166125a0575b670800000000000000831661258d575b670400000000000000831661257a575b6702000000000000008316612567575b6701000000000000008316612554575b66800000000000008316612541575b6640000000000000831661252e575b6620000000000000831661251b575b66100000000000008316612508575b660800000000000083166124f5575b660400000000000083166124e2575b660200000000000083166124cf575b660100000000000083166124bc575b6580000000000083166124a9575b654000000000008316612496575b652000000000008316612483575b651000000000008316612470575b65080000000000831661245d575b65040000000000831661244a575b650200000000008316612437575b650100000000008316612424575b6480000000008316612411575b64400000000083166123fe575b64200000000083166123eb575b64100000000083166123d8575b64080000000083166123c5575b64040000000083166123b2575b640200000000831661239f575b640100000000831661238c575b63800000008316612379575b63400000008316612366575b63200000008316612353575b63100000008316612340575b6308000000831661232d575b6304000000831661231a575b63020000008316612307575b630100000083166122f4575b6280000083166122e1575b6240000083166122ce575b6220000083166122bb575b6210000083166122a8575b620800008316612295575b620400008316612282575b62020000831661226f575b62010000831661225c575b6180008316612249575b6140008316612236575b6120008316612223575b6110008316612210575b61080083166121fd575b61040083166121ea575b61020083166121d7575b61010083166121c4575b608083166121b1575b6040831661219e575b6020831661218b575b60108316612178575b60088316612165575b60048316612152575b6002831661213f575b6001831661212c575b029060401c60bf031c7ffffffffffffffffffffffffffffffffffffffffffffffffff21f494c589c00008101908111610dd557602090604051908152f35b680100000000000000010260401c6120ee565b680100000000000000010260401c6120e5565b680100000000000000030260401c6120dc565b680100000000000000060260401c6120d3565b6801000000000000000b0260401c6120ca565b680100000000000000160260401c6120c1565b6801000000000000002c0260401c6120b8565b680100000000000000590260401c6120af565b680100000000000000b10260401c6120a6565b680100000000000001630260401c61209c565b680100000000000002c60260401c612092565b6801000000000000058c0260401c612088565b68010000000000000b170260401c61207e565b6801000000000000162e0260401c612074565b68010000000000002c5d0260401c61206a565b680100000000000058b90260401c612060565b6801000000000000b1720260401c612056565b680100000000000162e40260401c61204b565b6801000000000002c5c80260401c612040565b68010000000000058b910260401c612035565b680100000000000b17210260401c61202a565b68010000000000162e430260401c61201f565b680100000000002c5c860260401c612014565b6801000000000058b90c0260401c612009565b68010000000000b172180260401c611ffe565b6801000000000162e4300260401c611ff2565b68010000000002c5c8600260401c611fe6565b680100000000058b90c00260401c611fda565b6801000000000b17217f0260401c611fce565b680100000000162e42ff0260401c611fc2565b6801000000002c5c85fe0260401c611fb6565b68010000000058b90bfc0260401c611faa565b680100000000b17217f80260401c611f9e565b68010000000162e42ff10260401c611f91565b680100000002c5c85fe30260401c611f84565b6801000000058b90bfce0260401c611f77565b68010000000b17217fbb0260401c611f6a565b6801000000162e42fff00260401c611f5d565b68010000002c5c8601cc0260401c611f50565b680100000058b90c0b490260401c611f43565b6801000000b1721835510260401c611f36565b680100000162e430e5a20260401c611f28565b6801000002c5c863b73f0260401c611f1a565b68010000058b90cf1e6e0260401c611f0c565b680100000b1721bcfc9a0260401c611efe565b68010000162e43f4f8310260401c611ef0565b680100002c5c89d5ec6d0260401c611ee2565b6801000058b91b5bc9ae0260401c611ed4565b68010000b17255775c040260401c611ec6565b6801000162e525ee05470260401c611eb7565b68010002c5cc37da94920260401c611ea8565b680100058ba01fb9f96d0260401c611e99565b6801000b175effdc76ba0260401c611e8a565b680100162f3904051fa10260401c611e7b565b6801002c605e2e8cec500260401c611e6c565b68010058c86da1c09ea20260401c611e5d565b680100b1afa5abcbed610260401c611e4e565b68010163da9fb33356d80260401c611e3e565b680102c9a3e778060ee70260401c611e2e565b6801059b0d31585743ae0260401c611e1e565b68010b5586cf9890f62a0260401c611e0e565b6801172b83c7d517adce0260401c611dfe565b6801306fe0a31b7152df0260401c611dee565b5077b504f333f9de648480000000000000000000000000000000611dde565b602490604051907f4a4f26f10000000000000000000000000000000000000000000000000000000082526004820152fd5b602483604051907f315da0680000000000000000000000000000000000000000000000000000000082526004820152fd5b346101675760007ffffffffffffffffffffffffffffffffffffffffffffffffffffffffffffffffc36011261016757611167612696600261273e565b604051918291602083526020830190612826565b90600182811c921680156126f3575b60208310146126c457565b7f4e487b7100000000000000000000000000000000000000000000000000000000600052602260045260246000fd5b91607f16916126b9565b90601f7fffffffffffffffffffffffffffffffffffffffffffffffffffffffffffffffe0910116810190811067ffffffffffffffff82111761080a57604052565b9060405191826000825492612752846126aa565b9081845260019485811690816000146127c1575060011461277e575b505061277c925003836126fd565b565b9093915060005260209081600020936000915b8183106127a957505061277c9350820101388061276e565b85548884018501529485019487945091830191612791565b905061277c9550602093507fffffffffffffffffffffffffffffffffffffffffffffffffffffffffffffff0091501682840152151560051b820101388061276e565b60005b8381106128165750506000910152565b8181015183820152602001612806565b907fffffffffffffffffffffffffffffffffffffffffffffffffffffffffffffffe0601f60209361286281518092818752878088019101612803565b0116010190565b90815180825260208080930193019160005b828110612889575050505090565b835173ffffffffffffffffffffffffffffffffffffffff168552938101939281019260010161287b565b90815180825260208080930193019160005b8281106128d3575050505090565b8351855293810193928101926001016128c5565b67ffffffffffffffff811161080a57601f017fffffffffffffffffffffffffffffffffffffffffffffffffffffffffffffffe01660200190565b80548210156129395760005260206000200190600090565b7f4e487b7100000000000000000000000000000000000000000000000000000000600052603260045260246000fd5b9060405191828154918282526020928383019160005283600020936000905b82821061299d5750505061277c925003836126fd565b855473ffffffffffffffffffffffffffffffffffffffff1684526001958601958895509381019390910190612987565b9060405191828154918282526020928383019160005283600020936000905b828210612a025750505061277c925003836126fd565b8554845260019586019588955093810193909101906129ec565b91908203918211610dd557565b81810292918115918404141715610dd557565b8115612a46570490565b7f4e487b7100000000000000000000000000000000000000000000000000000000600052601260045260246000fd5b60ff16604d8111610dd557600a0a90565b604060006004601c6402540be4009463feaf968c84525afa601f3d1116602051020290565b67ffffffffffffffff811161080a5760051b60200190565b90612acd82612aab565b612ada60405191826126fd565b8281527fffffffffffffffffffffffffffffffffffffffffffffffffffffffffffffffe0612b088294612aab565b0190602036910137565b90916060828403126101675781519267ffffffffffffffff9384811161016757830181601f8201121561016757805190612b4b82612aab565b90612b5960405192836126fd565b828252602092838084019160051b83010191858311610167578401905b828210612bef5750505094818501519081116101675784019180601f84011215610167578251612ba581612aab565b93612bb360405195866126fd565b818552838086019260051b820101928311610167578301905b828210612be0575050505060409092015190565b81518152908301908301612bcc565b815173ffffffffffffffffffffffffffffffffffffffff81168103610167578152908401908401612b76565b7fffffffffffffffffffffffffffffffffffffffffffffffffffffffffffffffff8114610dd55760010190565b80518210156129395760209160051b010190565b80546801000000000000000081101561080a57612c7e91600182018155612921565b819291549060031b9173ffffffffffffffffffffffffffffffffffffffff9283811b93849216901b16911916179055565b90816020910312610167575160ff811681036101675790565b3573ffffffffffffffffffffffffffffffffffffffff811681036101675790565b818110612cf4575050565b60008155600101612ce9565b91818110612d0d57505050565b61277c9260005260206000209182019101612ce9565b90917fffffffffffffffffffffffffffffffffffffffffffffffffffffffffffffffff8383099280830292838086109503948086039514612df05782851015612db957908291096001821901821680920460028082600302188083028203028083028203028083028203028083028203028083028203028092029003029360018380600003040190848311900302920304170290565b60448584604051917f773cc18c00000000000000000000000000000000000000000000000000000000835260048301526024820152fd5b505090612dfd9250612a3c565b90565b8015612e5b578181029180612e158385612a3c565b03612e25575050612dfd90612e62565b60449250604051917ec3efdf00000000000000000000000000000000000000000000000000000000835260048301526024820152fd5b5050600090565b8015612faa57806001700100000000000000000000000000000000831015612f94575b60088268010000000000000000612f3c941015612f87575b640100000000811015612f7a575b62010000811015612f6e575b610100811015612f62575b6010811015612f55575b1015612f4d575b612edd8184612a3c565b0160011c612eeb8184612a3c565b0160011c612ef98184612a3c565b0160011c612f078184612a3c565b0160011c612f158184612a3c565b0160011c612f238184612a3c565b0160011c612f318184612a3c565b0160011c8092612a3c565b90818110612f48575090565b905090565b60011b612ed3565b60041c9160021b91612ecc565b811c9160041b91612ec2565b60101c91811b91612eb7565b60201c9160101b91612eab565b60401c9160201b91612e9d565b5050608081901c68010000000000000000612e85565b50600090565b90670de0b6b3a76400008083106131255760009281810470010000000000000000000000000000000081101561311a575b68010000000000000000811015613105575b6401000000008110156130f0575b620100008110156130db575b6101008110156130c6575b60108110156130b1575b600481101561309c575b6002111561308a575b818402931c90808214613086576706f05b59d3b2000091825b61305757505050565b808291020491671bc16d674ec80000831015613078575b60011c918261304e565b809294019360011c9161306e565b5050565b9260018101809111610dd55792613035565b60021c9360028101809111610dd5579361302c565b60041c9360048101809111610dd55793613022565b60081c9360088101809111610dd55793613018565b60101c9360108101809111610dd5579361300d565b60201c9360208101809111610dd55793613001565b60401c9360408101809111610dd55793612ff3565b60809450841c612fe1565b602483604051907fd88504dc0000000000000000000000000000000000000000000000000000000082526004820152fd5b7fffffffffffffffffffffffffffffffffffffffffffffffffffffffffffffffff828209828202908180821091039381850390670de0b6b3a764000094858310156131ee5790859109916706f05b59d3b1ffff831195146131e7577faccb18165bd6fe31ae1cf318dc5b51eee0e1ba569b88cd74c1773b91fac106699350828211900360ee1b910360121c17020190565b5050040190565b602483604051907fd31b34020000000000000000000000000000000000000000000000000000000082526004820152fdfea164736f6c6343000811000a",
  "linkReferences": {},
  "deployedLinkReferences": {}
}